{
    "tests/prague/eip7702_set_code_tx/test_gas.py::test_call_to_pre_authorized_oog[fork_Prague-call_opcode_CALL-evm_code_type_LEGACY-state_test]": {
        "env": {
            "currentCoinbase": "0x2adc25665018aa1fe0e6bc666dac8fc2697ff9ba",
            "currentGasLimit": "0x016345785d8a0000",
            "currentNumber": "0x01",
            "currentTimestamp": "0x03e8",
            "currentRandom": "0x0000000000000000000000000000000000000000000000000000000000000000",
            "currentDifficulty": "0x00",
            "currentBaseFee": "0x07",
            "currentExcessBlobGas": "0x00"
        },
        "pre": {
            "0x0000000000000000000000000000000000001000": {
                "nonce": "0x01",
                "balance": "0x00",
                "code": "0x6001600055",
                "storage": {}
            },
            "0xa94f5374fce5edbc8e2a8697c15331677e6ebf0b": {
                "nonce": "0x01",
                "balance": "0x00",
                "code": "0xef01000000000000000000000000000000000000001000",
                "storage": {}
            },
            "0x0000000000000000000000000000000000001100": {
                "nonce": "0x01",
                "balance": "0x00",
                "code": "0x6000600060006000600073a94f5374fce5edbc8e2a8697c15331677e6ebf0b6000f1600055",
                "storage": {
                    "0x00": "0xff"
                }
            },
            "0x8a0a19589531694250d570040a0c4b74576919b8": {
                "nonce": "0x00",
                "balance": "0x3635c9adc5dea00000",
                "code": "0x",
                "storage": {}
            }
        },
        "transaction": {
            "nonce": "0x00",
            "gasPrice": "0x0a",
            "gasLimit": [
                "0x666c"
            ],
            "to": "0x0000000000000000000000000000000000001100",
            "value": [
                "0x00"
            ],
            "data": [
                "0x"
            ],
            "sender": "0x8a0a19589531694250d570040a0c4b74576919b8",
            "secretKey": "0x9e7645d0cfd9c3a04eb7a9db59a4eb7d359f2e75c9164a9d6b9a7d54e1b6a36f"
        },
        "post": {
            "Prague": [
                {
                    "hash": "0xa8a01fedcbaf3ee9f78ad3b75700b505030901b231cd266dea1dbf0530e68cdb",
                    "logs": "0x1dcc4de8dec75d7aab85b567b6ccd41ad312451b948a7413f0a142fd40d49347",
                    "txbytes": "0xf85f800a82666c940000000000000000000000000000000000001100808025a08967e9cb3e1f75556664afab55914e3839bfa4ceb48a36a9219d13f76d39bf0ea009ce58d64dbed7e3f39fd1d8c9aad1c8a9c4c5152901a0944940609a8f52013d",
                    "indexes": {
                        "data": 0,
                        "gas": 0,
                        "value": 0
                    },
                    "state": {
                        "0x0000000000000000000000000000000000001000": {
                            "nonce": "0x01",
                            "balance": "0x00",
                            "code": "0x6001600055",
                            "storage": {}
                        },
                        "0xa94f5374fce5edbc8e2a8697c15331677e6ebf0b": {
                            "nonce": "0x01",
                            "balance": "0x00",
                            "code": "0xef01000000000000000000000000000000000000001000",
                            "storage": {}
                        },
                        "0x0000000000000000000000000000000000001100": {
                            "nonce": "0x01",
                            "balance": "0x00",
                            "code": "0x6000600060006000600073a94f5374fce5edbc8e2a8697c15331677e6ebf0b6000f1600055",
                            "storage": {
                                "0x00": "0xff"
                            }
                        },
                        "0x8a0a19589531694250d570040a0c4b74576919b8": {
                            "nonce": "0x01",
                            "balance": "0x3635c9adc5de9bffc8",
                            "code": "0x",
                            "storage": {}
                        },
                        "0x2adc25665018aa1fe0e6bc666dac8fc2697ff9ba": {
                            "nonce": "0x00",
                            "balance": "0x013344",
                            "code": "0x",
                            "storage": {}
                        }
                    }
                }
            ]
        },
        "config": {
            "blobSchedule": {
                "Cancun": {
                    "target": "0x03",
                    "max": "0x06",
                    "baseFeeUpdateFraction": "0x32f0ed"
                },
                "Prague": {
                    "target": "0x06",
                    "max": "0x09",
                    "baseFeeUpdateFraction": "0x4c6964"
                }
            },
            "chainid": "0x01"
        },
        "_info": {
            "hash": "0xdd002ae24c17422173c93847afe3aefb38a137c1e08134648e7610bde4f9007f",
            "comment": "`execution-spec-tests` generated test",
            "filling-transition-tool": "ethereum-spec-evm-resolver 0.0.5",
            "description": "Test function documentation:\nTest additional cost of delegation contract access in call instructions.",
            "url": "https://github.com/ethereum/execution-spec-tests/blob/2c4d277d2fb7d97333c089b0718ac8d26a95d523/tests/prague/eip7702_set_code_tx/test_gas.py#L1003",
            "fixture_format": "state_test",
            "reference-spec": "https://github.com/ethereum/EIPs/blob/master/EIPS/eip-7702.md",
            "reference-spec-version": "4334df83395693dc3f629bb43c18320d9e22e8c9",
            "eels-resolution": {
                "git-url": "https://github.com/ethereum/execution-specs.git",
                "branch": "devnets/prague/6",
                "commit": "a25a8ab3a2989b15baac19eb327325e442342a60"
            }
        }
    },
    "tests/prague/eip7702_set_code_tx/test_gas.py::test_call_to_pre_authorized_oog[fork_Prague-call_opcode_CALLCODE-evm_code_type_LEGACY-state_test]": {
        "env": {
            "currentCoinbase": "0x2adc25665018aa1fe0e6bc666dac8fc2697ff9ba",
            "currentGasLimit": "0x016345785d8a0000",
            "currentNumber": "0x01",
            "currentTimestamp": "0x03e8",
            "currentRandom": "0x0000000000000000000000000000000000000000000000000000000000000000",
            "currentDifficulty": "0x00",
            "currentBaseFee": "0x07",
            "currentExcessBlobGas": "0x00"
        },
        "pre": {
            "0x0000000000000000000000000000000000001000": {
                "nonce": "0x01",
                "balance": "0x00",
                "code": "0x6001600055",
                "storage": {}
            },
            "0xa94f5374fce5edbc8e2a8697c15331677e6ebf0b": {
                "nonce": "0x01",
                "balance": "0x00",
                "code": "0xef01000000000000000000000000000000000000001000",
                "storage": {}
            },
            "0x0000000000000000000000000000000000001100": {
                "nonce": "0x01",
                "balance": "0x00",
                "code": "0x6000600060006000600073a94f5374fce5edbc8e2a8697c15331677e6ebf0b6000f2600055",
                "storage": {
                    "0x00": "0xff"
                }
            },
            "0x8a0a19589531694250d570040a0c4b74576919b8": {
                "nonce": "0x00",
                "balance": "0x3635c9adc5dea00000",
                "code": "0x",
                "storage": {}
            }
        },
        "transaction": {
            "nonce": "0x00",
            "gasPrice": "0x0a",
            "gasLimit": [
                "0x666c"
            ],
            "to": "0x0000000000000000000000000000000000001100",
            "value": [
                "0x00"
            ],
            "data": [
                "0x"
            ],
            "sender": "0x8a0a19589531694250d570040a0c4b74576919b8",
            "secretKey": "0x9e7645d0cfd9c3a04eb7a9db59a4eb7d359f2e75c9164a9d6b9a7d54e1b6a36f"
        },
        "post": {
            "Prague": [
                {
                    "hash": "0xb381c1baa29ab415f27a76c603b5266994ac95bb1f5b99f19b91e82dbde5d83b",
                    "logs": "0x1dcc4de8dec75d7aab85b567b6ccd41ad312451b948a7413f0a142fd40d49347",
                    "txbytes": "0xf85f800a82666c940000000000000000000000000000000000001100808025a08967e9cb3e1f75556664afab55914e3839bfa4ceb48a36a9219d13f76d39bf0ea009ce58d64dbed7e3f39fd1d8c9aad1c8a9c4c5152901a0944940609a8f52013d",
                    "indexes": {
                        "data": 0,
                        "gas": 0,
                        "value": 0
                    },
                    "state": {
                        "0x0000000000000000000000000000000000001000": {
                            "nonce": "0x01",
                            "balance": "0x00",
                            "code": "0x6001600055",
                            "storage": {}
                        },
                        "0xa94f5374fce5edbc8e2a8697c15331677e6ebf0b": {
                            "nonce": "0x01",
                            "balance": "0x00",
                            "code": "0xef01000000000000000000000000000000000000001000",
                            "storage": {}
                        },
                        "0x0000000000000000000000000000000000001100": {
                            "nonce": "0x01",
                            "balance": "0x00",
                            "code": "0x6000600060006000600073a94f5374fce5edbc8e2a8697c15331677e6ebf0b6000f2600055",
                            "storage": {
                                "0x00": "0xff"
                            }
                        },
                        "0x8a0a19589531694250d570040a0c4b74576919b8": {
                            "nonce": "0x01",
                            "balance": "0x3635c9adc5de9bffc8",
                            "code": "0x",
                            "storage": {}
                        },
                        "0x2adc25665018aa1fe0e6bc666dac8fc2697ff9ba": {
                            "nonce": "0x00",
                            "balance": "0x013344",
                            "code": "0x",
                            "storage": {}
                        }
                    }
                }
            ]
        },
        "config": {
            "blobSchedule": {
                "Cancun": {
                    "target": "0x03",
                    "max": "0x06",
                    "baseFeeUpdateFraction": "0x32f0ed"
                },
                "Prague": {
                    "target": "0x06",
                    "max": "0x09",
                    "baseFeeUpdateFraction": "0x4c6964"
                }
            },
            "chainid": "0x01"
        },
        "_info": {
            "hash": "0x39335a51510ebaf5102852726e65e48d2d87008d90d19393f363bd2b03976d84",
            "comment": "`execution-spec-tests` generated test",
            "filling-transition-tool": "ethereum-spec-evm-resolver 0.0.5",
            "description": "Test function documentation:\nTest additional cost of delegation contract access in call instructions.",
            "url": "https://github.com/ethereum/execution-spec-tests/blob/2c4d277d2fb7d97333c089b0718ac8d26a95d523/tests/prague/eip7702_set_code_tx/test_gas.py#L1003",
            "fixture_format": "state_test",
            "reference-spec": "https://github.com/ethereum/EIPs/blob/master/EIPS/eip-7702.md",
            "reference-spec-version": "4334df83395693dc3f629bb43c18320d9e22e8c9",
            "eels-resolution": {
                "git-url": "https://github.com/ethereum/execution-specs.git",
                "branch": "devnets/prague/6",
                "commit": "a25a8ab3a2989b15baac19eb327325e442342a60"
            }
        }
    },
    "tests/prague/eip7702_set_code_tx/test_gas.py::test_call_to_pre_authorized_oog[fork_Prague-call_opcode_DELEGATECALL-evm_code_type_LEGACY-state_test]": {
        "env": {
            "currentCoinbase": "0x2adc25665018aa1fe0e6bc666dac8fc2697ff9ba",
            "currentGasLimit": "0x016345785d8a0000",
            "currentNumber": "0x01",
            "currentTimestamp": "0x03e8",
            "currentRandom": "0x0000000000000000000000000000000000000000000000000000000000000000",
            "currentDifficulty": "0x00",
            "currentBaseFee": "0x07",
            "currentExcessBlobGas": "0x00"
        },
        "pre": {
            "0x0000000000000000000000000000000000001000": {
                "nonce": "0x01",
                "balance": "0x00",
                "code": "0x6001600055",
                "storage": {}
            },
            "0xa94f5374fce5edbc8e2a8697c15331677e6ebf0b": {
                "nonce": "0x01",
                "balance": "0x00",
                "code": "0xef01000000000000000000000000000000000000001000",
                "storage": {}
            },
            "0x0000000000000000000000000000000000001100": {
                "nonce": "0x01",
                "balance": "0x00",
                "code": "0x600060006000600073a94f5374fce5edbc8e2a8697c15331677e6ebf0b6000f4600055",
                "storage": {
                    "0x00": "0xff"
                }
            },
            "0x8a0a19589531694250d570040a0c4b74576919b8": {
                "nonce": "0x00",
                "balance": "0x3635c9adc5dea00000",
                "code": "0x",
                "storage": {}
            }
        },
        "transaction": {
            "nonce": "0x00",
            "gasPrice": "0x0a",
            "gasLimit": [
                "0x6669"
            ],
            "to": "0x0000000000000000000000000000000000001100",
            "value": [
                "0x00"
            ],
            "data": [
                "0x"
            ],
            "sender": "0x8a0a19589531694250d570040a0c4b74576919b8",
            "secretKey": "0x9e7645d0cfd9c3a04eb7a9db59a4eb7d359f2e75c9164a9d6b9a7d54e1b6a36f"
        },
        "post": {
            "Prague": [
                {
                    "hash": "0xa2f61b427eba8cd24ea4483313d73f3da2d38730dcc01b1da218709b173437a0",
                    "logs": "0x1dcc4de8dec75d7aab85b567b6ccd41ad312451b948a7413f0a142fd40d49347",
                    "txbytes": "0xf85f800a826669940000000000000000000000000000000000001100808026a0a4356dc8c7cf01adfacdf253e520594d00522a091fcaaffd57682a3f8e511a60a06104f80fd0dfa8ffd9bb816e46ffcb9e45cb74eabd0fa7a55fe5d5727152d9e1",
                    "indexes": {
                        "data": 0,
                        "gas": 0,
                        "value": 0
                    },
                    "state": {
                        "0x0000000000000000000000000000000000001000": {
                            "nonce": "0x01",
                            "balance": "0x00",
                            "code": "0x6001600055",
                            "storage": {}
                        },
                        "0xa94f5374fce5edbc8e2a8697c15331677e6ebf0b": {
                            "nonce": "0x01",
                            "balance": "0x00",
                            "code": "0xef01000000000000000000000000000000000000001000",
                            "storage": {}
                        },
                        "0x0000000000000000000000000000000000001100": {
                            "nonce": "0x01",
                            "balance": "0x00",
                            "code": "0x600060006000600073a94f5374fce5edbc8e2a8697c15331677e6ebf0b6000f4600055",
                            "storage": {
                                "0x00": "0xff"
                            }
                        },
                        "0x8a0a19589531694250d570040a0c4b74576919b8": {
                            "nonce": "0x01",
                            "balance": "0x3635c9adc5de9bffe6",
                            "code": "0x",
                            "storage": {}
                        },
                        "0x2adc25665018aa1fe0e6bc666dac8fc2697ff9ba": {
                            "nonce": "0x00",
                            "balance": "0x01333b",
                            "code": "0x",
                            "storage": {}
                        }
                    }
                }
            ]
        },
        "config": {
            "blobSchedule": {
                "Cancun": {
                    "target": "0x03",
                    "max": "0x06",
                    "baseFeeUpdateFraction": "0x32f0ed"
                },
                "Prague": {
                    "target": "0x06",
                    "max": "0x09",
                    "baseFeeUpdateFraction": "0x4c6964"
                }
            },
            "chainid": "0x01"
        },
        "_info": {
            "hash": "0x92c98ed9c78b90bcf308e44b52ec01da5e4f0be5939048a91554f8392e690ed7",
            "comment": "`execution-spec-tests` generated test",
            "filling-transition-tool": "ethereum-spec-evm-resolver 0.0.5",
            "description": "Test function documentation:\nTest additional cost of delegation contract access in call instructions.",
            "url": "https://github.com/ethereum/execution-spec-tests/blob/2c4d277d2fb7d97333c089b0718ac8d26a95d523/tests/prague/eip7702_set_code_tx/test_gas.py#L1003",
            "fixture_format": "state_test",
            "reference-spec": "https://github.com/ethereum/EIPs/blob/master/EIPS/eip-7702.md",
            "reference-spec-version": "4334df83395693dc3f629bb43c18320d9e22e8c9",
            "eels-resolution": {
                "git-url": "https://github.com/ethereum/execution-specs.git",
                "branch": "devnets/prague/6",
                "commit": "a25a8ab3a2989b15baac19eb327325e442342a60"
            }
        }
    },
    "tests/prague/eip7702_set_code_tx/test_gas.py::test_call_to_pre_authorized_oog[fork_Prague-call_opcode_STATICCALL-evm_code_type_LEGACY-state_test]": {
        "env": {
            "currentCoinbase": "0x2adc25665018aa1fe0e6bc666dac8fc2697ff9ba",
            "currentGasLimit": "0x016345785d8a0000",
            "currentNumber": "0x01",
            "currentTimestamp": "0x03e8",
            "currentRandom": "0x0000000000000000000000000000000000000000000000000000000000000000",
            "currentDifficulty": "0x00",
            "currentBaseFee": "0x07",
            "currentExcessBlobGas": "0x00"
        },
        "pre": {
            "0x0000000000000000000000000000000000001000": {
                "nonce": "0x01",
                "balance": "0x00",
                "code": "0x6001600055",
                "storage": {}
            },
            "0xa94f5374fce5edbc8e2a8697c15331677e6ebf0b": {
                "nonce": "0x01",
                "balance": "0x00",
                "code": "0xef01000000000000000000000000000000000000001000",
                "storage": {}
            },
            "0x0000000000000000000000000000000000001100": {
                "nonce": "0x01",
                "balance": "0x00",
                "code": "0x600060006000600073a94f5374fce5edbc8e2a8697c15331677e6ebf0b6000fa600055",
                "storage": {
                    "0x00": "0xff"
                }
            },
            "0x8a0a19589531694250d570040a0c4b74576919b8": {
                "nonce": "0x00",
                "balance": "0x3635c9adc5dea00000",
                "code": "0x",
                "storage": {}
            }
        },
        "transaction": {
            "nonce": "0x00",
            "gasPrice": "0x0a",
            "gasLimit": [
                "0x6669"
            ],
            "to": "0x0000000000000000000000000000000000001100",
            "value": [
                "0x00"
            ],
            "data": [
                "0x"
            ],
            "sender": "0x8a0a19589531694250d570040a0c4b74576919b8",
            "secretKey": "0x9e7645d0cfd9c3a04eb7a9db59a4eb7d359f2e75c9164a9d6b9a7d54e1b6a36f"
        },
        "post": {
            "Prague": [
                {
                    "hash": "0xf3bf278e59f5782a86eb220684f7b4a331369d5cd5d3360c26b6ee85b3605c70",
                    "logs": "0x1dcc4de8dec75d7aab85b567b6ccd41ad312451b948a7413f0a142fd40d49347",
                    "txbytes": "0xf85f800a826669940000000000000000000000000000000000001100808026a0a4356dc8c7cf01adfacdf253e520594d00522a091fcaaffd57682a3f8e511a60a06104f80fd0dfa8ffd9bb816e46ffcb9e45cb74eabd0fa7a55fe5d5727152d9e1",
                    "indexes": {
                        "data": 0,
                        "gas": 0,
                        "value": 0
                    },
                    "state": {
                        "0x0000000000000000000000000000000000001000": {
                            "nonce": "0x01",
                            "balance": "0x00",
                            "code": "0x6001600055",
                            "storage": {}
                        },
                        "0xa94f5374fce5edbc8e2a8697c15331677e6ebf0b": {
                            "nonce": "0x01",
                            "balance": "0x00",
                            "code": "0xef01000000000000000000000000000000000000001000",
                            "storage": {}
                        },
                        "0x0000000000000000000000000000000000001100": {
                            "nonce": "0x01",
                            "balance": "0x00",
                            "code": "0x600060006000600073a94f5374fce5edbc8e2a8697c15331677e6ebf0b6000fa600055",
                            "storage": {
                                "0x00": "0xff"
                            }
                        },
                        "0x8a0a19589531694250d570040a0c4b74576919b8": {
                            "nonce": "0x01",
                            "balance": "0x3635c9adc5de9bffe6",
                            "code": "0x",
                            "storage": {}
                        },
                        "0x2adc25665018aa1fe0e6bc666dac8fc2697ff9ba": {
                            "nonce": "0x00",
                            "balance": "0x01333b",
                            "code": "0x",
                            "storage": {}
                        }
                    }
                }
            ]
        },
        "config": {
            "blobSchedule": {
                "Cancun": {
                    "target": "0x03",
                    "max": "0x06",
                    "baseFeeUpdateFraction": "0x32f0ed"
                },
                "Prague": {
                    "target": "0x06",
                    "max": "0x09",
                    "baseFeeUpdateFraction": "0x4c6964"
                }
            },
            "chainid": "0x01"
        },
        "_info": {
            "hash": "0x62f8b3216baa8f90866d9317b1f61dcc6739221265efc12ee2d3a7e032a340d4",
            "comment": "`execution-spec-tests` generated test",
            "filling-transition-tool": "ethereum-spec-evm-resolver 0.0.5",
            "description": "Test function documentation:\nTest additional cost of delegation contract access in call instructions.",
            "url": "https://github.com/ethereum/execution-spec-tests/blob/2c4d277d2fb7d97333c089b0718ac8d26a95d523/tests/prague/eip7702_set_code_tx/test_gas.py#L1003",
            "fixture_format": "state_test",
            "reference-spec": "https://github.com/ethereum/EIPs/blob/master/EIPS/eip-7702.md",
            "reference-spec-version": "4334df83395693dc3f629bb43c18320d9e22e8c9",
            "eels-resolution": {
                "git-url": "https://github.com/ethereum/execution-specs.git",
                "branch": "devnets/prague/6",
                "commit": "a25a8ab3a2989b15baac19eb327325e442342a60"
            }
        }
    }
}
