{
    "tests/prague/eip7702_set_code_tx/test_gas.py::test_self_set_code_cost[fork_Prague-state_test-pre_authorized_False]": {
        "env": {
            "currentCoinbase": "0x2adc25665018aa1fe0e6bc666dac8fc2697ff9ba",
            "currentGasLimit": "0x016345785d8a0000",
            "currentNumber": "0x01",
            "currentTimestamp": "0x03e8",
            "currentRandom": "0x0000000000000000000000000000000000000000000000000000000000000000",
            "currentDifficulty": "0x00",
            "currentBaseFee": "0x07",
            "currentExcessBlobGas": "0x00"
        },
        "pre": {
            "0x0000000000000000000000000000000000001000": {
                "nonce": "0x01",
                "balance": "0x00",
                "code": "0x5a6000600060006000600073a94f5374fce5edbc8e2a8697c15331677e6ebf0b6000f15a905090036017900360015500",
                "storage": {}
            },
            "0x8a0a19589531694250d570040a0c4b74576919b8": {
                "nonce": "0x00",
                "balance": "0x3635c9adc5dea00000",
                "code": "0x",
                "storage": {}
            }
        },
        "transaction": {
            "nonce": "0x00",
            "maxPriorityFeePerGas": "0x00",
            "maxFeePerGas": "0x07",
            "gasLimit": [
                "0x0f4240"
            ],
            "to": "0x0000000000000000000000000000000000001000",
            "value": [
                "0x00"
            ],
            "data": [
                "0x"
            ],
            "accessLists": [
                []
            ],
            "authorizationList": [
                {
                    "chainId": "0x00",
                    "address": "0xa94f5374fce5edbc8e2a8697c15331677e6ebf0b",
                    "nonce": "0x00",
                    "v": "0x00",
                    "r": "0x54c7c92b1eede176959eefeb0ccce5c0e794991f16c1e8ac01700d162eb563bf",
                    "s": "0x71b8d0e049596a2602ef18ca11a6d1c3e6a6ee21394b652ac0ad91533ac3a772",
                    "signer": "0xa94f5374fce5edbc8e2a8697c15331677e6ebf0b"
                }
            ],
            "sender": "0x8a0a19589531694250d570040a0c4b74576919b8",
            "secretKey": "0x9e7645d0cfd9c3a04eb7a9db59a4eb7d359f2e75c9164a9d6b9a7d54e1b6a36f"
        },
        "post": {
            "Prague": [
                {
                    "hash": "0xc21aacb9175f03c8ef846acbb631fbc37495e2ef3d0afe286680a8a6ca67d674",
                    "logs": "0x1dcc4de8dec75d7aab85b567b6ccd41ad312451b948a7413f0a142fd40d49347",
                    "txbytes": "0x04f8c101808007830f42409400000000000000000000000000000000000010008080c0f85cf85a8094a94f5374fce5edbc8e2a8697c15331677e6ebf0b8080a054c7c92b1eede176959eefeb0ccce5c0e794991f16c1e8ac01700d162eb563bfa071b8d0e049596a2602ef18ca11a6d1c3e6a6ee21394b652ac0ad91533ac3a77201a0412add516b4681b7b69278537b60dab4cac3da236ec18fdd4b7d5b7387eb8acfa05d1e187e84b91247c8f50b665fae1835a365d92091239d72cb3934727fd8c8fe",
                    "indexes": {
                        "data": 0,
                        "gas": 0,
                        "value": 0
                    },
                    "state": {
                        "0x0000000000000000000000000000000000001000": {
                            "nonce": "0x01",
                            "balance": "0x00",
                            "code": "0x5a6000600060006000600073a94f5374fce5edbc8e2a8697c15331677e6ebf0b6000f15a905090036017900360015500",
                            "storage": {
                                "0x01": "0xc8"
                            }
                        },
                        "0x8a0a19589531694250d570040a0c4b74576919b8": {
                            "nonce": "0x01",
                            "balance": "0x3635c9adc5de98b31c",
                            "code": "0x",
                            "storage": {}
                        },
                        "0xa94f5374fce5edbc8e2a8697c15331677e6ebf0b": {
                            "nonce": "0x01",
                            "balance": "0x00",
                            "code": "0xef0100a94f5374fce5edbc8e2a8697c15331677e6ebf0b",
                            "storage": {}
                        }
                    }
                }
            ]
        },
        "config": {
            "blobSchedule": {
                "Cancun": {
                    "target": "0x03",
                    "max": "0x06",
                    "baseFeeUpdateFraction": "0x32f0ed"
                },
                "Prague": {
                    "target": "0x06",
                    "max": "0x09",
                    "baseFeeUpdateFraction": "0x4c6964"
                }
            },
            "chainid": "0x01"
        },
        "_info": {
            "hash": "0x893fbf6985dc106cae43dfebf7fde7121038b7a2ce31a198a8c1a89115c8acb6",
            "comment": "`execution-spec-tests` generated test",
            "filling-transition-tool": "ethereum-spec-evm-resolver 0.0.5",
            "description": "Test function documentation:\nTest set to code account access cost when it delegates to itself.",
            "url": "https://github.com/ethereum/execution-spec-tests/blob/2c4d277d2fb7d97333c089b0718ac8d26a95d523/tests/prague/eip7702_set_code_tx/test_gas.py#L947",
            "fixture_format": "state_test",
            "reference-spec": "https://github.com/ethereum/EIPs/blob/master/EIPS/eip-7702.md",
            "reference-spec-version": "4334df83395693dc3f629bb43c18320d9e22e8c9",
            "eels-resolution": {
                "git-url": "https://github.com/ethereum/execution-specs.git",
                "branch": "devnets/prague/6",
                "commit": "a25a8ab3a2989b15baac19eb327325e442342a60"
            }
        }
    },
    "tests/prague/eip7702_set_code_tx/test_gas.py::test_self_set_code_cost[fork_Prague-state_test-pre_authorized_True]": {
        "env": {
            "currentCoinbase": "0x2adc25665018aa1fe0e6bc666dac8fc2697ff9ba",
            "currentGasLimit": "0x016345785d8a0000",
            "currentNumber": "0x01",
            "currentTimestamp": "0x03e8",
            "currentRandom": "0x0000000000000000000000000000000000000000000000000000000000000000",
            "currentDifficulty": "0x00",
            "currentBaseFee": "0x07",
            "currentExcessBlobGas": "0x00"
        },
        "pre": {
            "0xa94f5374fce5edbc8e2a8697c15331677e6ebf0b": {
                "nonce": "0x01",
                "balance": "0x00",
                "code": "0xef0100a94f5374fce5edbc8e2a8697c15331677e6ebf0b",
                "storage": {}
            },
            "0x0000000000000000000000000000000000001000": {
                "nonce": "0x01",
                "balance": "0x00",
                "code": "0x5a6000600060006000600073a94f5374fce5edbc8e2a8697c15331677e6ebf0b6000f15a905090036017900360015500",
                "storage": {}
            },
            "0x8a0a19589531694250d570040a0c4b74576919b8": {
                "nonce": "0x00",
                "balance": "0x3635c9adc5dea00000",
                "code": "0x",
                "storage": {}
            }
        },
        "transaction": {
            "nonce": "0x00",
            "gasPrice": "0x0a",
            "gasLimit": [
                "0x0f4240"
            ],
            "to": "0x0000000000000000000000000000000000001000",
            "value": [
                "0x00"
            ],
            "data": [
                "0x"
            ],
            "sender": "0x8a0a19589531694250d570040a0c4b74576919b8",
            "secretKey": "0x9e7645d0cfd9c3a04eb7a9db59a4eb7d359f2e75c9164a9d6b9a7d54e1b6a36f"
        },
        "post": {
            "Prague": [
                {
                    "hash": "0x5eff080154c4d38781794e24450b6a87ca473d613fe3f4a4e84244f00b8a0e9c",
                    "logs": "0x1dcc4de8dec75d7aab85b567b6ccd41ad312451b948a7413f0a142fd40d49347",
                    "txbytes": "0xf860800a830f4240940000000000000000000000000000000000001000808026a0b40ebf5833618c93a48a79729e122ac82af3fed824fc1fe42a4ff7ddbd408cc4a05aceac157ca531fc1af242f6471a164f54c09172d2fed8b4b0f74402b49893bf",
                    "indexes": {
                        "data": 0,
                        "gas": 0,
                        "value": 0
                    },
                    "state": {
                        "0xa94f5374fce5edbc8e2a8697c15331677e6ebf0b": {
                            "nonce": "0x01",
                            "balance": "0x00",
                            "code": "0xef0100a94f5374fce5edbc8e2a8697c15331677e6ebf0b",
                            "storage": {}
                        },
                        "0x0000000000000000000000000000000000001000": {
                            "nonce": "0x01",
                            "balance": "0x00",
                            "code": "0x5a6000600060006000600073a94f5374fce5edbc8e2a8697c15331677e6ebf0b6000f15a905090036017900360015500",
                            "storage": {
                                "0x01": "0x0a8c"
                            }
                        },
                        "0x8a0a19589531694250d570040a0c4b74576919b8": {
                            "nonce": "0x01",
                            "balance": "0x3635c9adc5de990110",
                            "code": "0x",
                            "storage": {}
                        },
                        "0x2adc25665018aa1fe0e6bc666dac8fc2697ff9ba": {
                            "nonce": "0x00",
                            "balance": "0x021948",
                            "code": "0x",
                            "storage": {}
                        }
                    }
                }
            ]
        },
        "config": {
            "blobSchedule": {
                "Cancun": {
                    "target": "0x03",
                    "max": "0x06",
                    "baseFeeUpdateFraction": "0x32f0ed"
                },
                "Prague": {
                    "target": "0x06",
                    "max": "0x09",
                    "baseFeeUpdateFraction": "0x4c6964"
                }
            },
            "chainid": "0x01"
        },
        "_info": {
            "hash": "0xa06d43c5ec6e1f8b381140386e4889f101a3c8524b9365ccc1f67fd734649231",
            "comment": "`execution-spec-tests` generated test",
            "filling-transition-tool": "ethereum-spec-evm-resolver 0.0.5",
            "description": "Test function documentation:\nTest set to code account access cost when it delegates to itself.",
            "url": "https://github.com/ethereum/execution-spec-tests/blob/2c4d277d2fb7d97333c089b0718ac8d26a95d523/tests/prague/eip7702_set_code_tx/test_gas.py#L947",
            "fixture_format": "state_test",
            "reference-spec": "https://github.com/ethereum/EIPs/blob/master/EIPS/eip-7702.md",
            "reference-spec-version": "4334df83395693dc3f629bb43c18320d9e22e8c9",
            "eels-resolution": {
                "git-url": "https://github.com/ethereum/execution-specs.git",
                "branch": "devnets/prague/6",
                "commit": "a25a8ab3a2989b15baac19eb327325e442342a60"
            }
        }
    }
}
