{
    "tests/shanghai/eip4895_withdrawals/test_withdrawals.py::test_balance_within_block[fork_Shanghai-blockchain_test_engine]": {
        "network": "Shanghai",
        "genesisBlockHeader": {
            "parentHash": "0x0000000000000000000000000000000000000000000000000000000000000000",
            "uncleHash": "0x1dcc4de8dec75d7aab85b567b6ccd41ad312451b948a7413f0a142fd40d49347",
            "coinbase": "0x0000000000000000000000000000000000000000",
            "stateRoot": "0x0058d20c794bb9cbf64c8737e53d735b2b34b3e8cee3e516ca350438ca4e9808",
            "transactionsTrie": "0x56e81f171bcc55a6ff8345e692c0f86e5b48e01b996cadc001622fb5e363b421",
            "receiptTrie": "0x56e81f171bcc55a6ff8345e692c0f86e5b48e01b996cadc001622fb5e363b421",
            "bloom": "0x00000000000000000000000000000000000000000000000000000000000000000000000000000000000000000000000000000000000000000000000000000000000000000000000000000000000000000000000000000000000000000000000000000000000000000000000000000000000000000000000000000000000000000000000000000000000000000000000000000000000000000000000000000000000000000000000000000000000000000000000000000000000000000000000000000000000000000000000000000000000000000000000000000000000000000000000000000000000000000000000000000000000000000000000000000000",
            "difficulty": "0x00",
            "number": "0x00",
            "gasLimit": "0x016345785d8a0000",
            "gasUsed": "0x00",
            "timestamp": "0x00",
            "extraData": "0x00",
            "mixHash": "0x0000000000000000000000000000000000000000000000000000000000000000",
            "nonce": "0x0000000000000000",
            "baseFeePerGas": "0x07",
            "withdrawalsRoot": "0x56e81f171bcc55a6ff8345e692c0f86e5b48e01b996cadc001622fb5e363b421",
            "hash": "0xe4fa78a484e50eca953df999080f6c8621cd81e852067b1afc7059d88d2b313b"
        },
        "pre": {
            "0xa94f5374fce5edbc8e2a8697c15331677e6ebf0b": {
                "nonce": "0x00",
                "balance": "0x3635c9adc5dea00000",
                "code": "0x",
                "storage": {}
            },
            "0x8a0a19589531694250d570040a0c4b74576919b8": {
                "nonce": "0x00",
                "balance": "0x3b9aca00",
                "code": "0x",
                "storage": {}
            },
            "0x0000000000000000000000000000000000001000": {
                "nonce": "0x01",
                "balance": "0x00",
                "code": "0x600035314355",
                "storage": {}
            }
        },
        "postState": {
            "0xa94f5374fce5edbc8e2a8697c15331677e6ebf0b": {
                "nonce": "0x02",
                "balance": "0x3635c9adc5de91f050",
                "code": "0x",
                "storage": {}
            },
            "0x8a0a19589531694250d570040a0c4b74576919b8": {
                "nonce": "0x00",
                "balance": "0x77359400",
                "code": "0x",
                "storage": {}
            },
            "0x0000000000000000000000000000000000001000": {
                "nonce": "0x01",
                "balance": "0x00",
                "code": "0x600035314355",
                "storage": {
                    "0x01": "0x3b9aca00",
                    "0x02": "0x77359400"
                }
            },
            "0x2adc25665018aa1fe0e6bc666dac8fc2697ff9ba": {
                "nonce": "0x00",
                "balance": "0x0437e8",
                "code": "0x",
                "storage": {}
            }
        },
        "lastblockhash": "0x22b92be9d7015b63e809129b355534b6a0d7425d6e911478b2b54bf46170de19",
        "engineNewPayloads": [
            {
                "params": [
                    {
                        "parentHash": "0xe4fa78a484e50eca953df999080f6c8621cd81e852067b1afc7059d88d2b313b",
                        "feeRecipient": "0x2adc25665018aa1fe0e6bc666dac8fc2697ff9ba",
                        "stateRoot": "0x1113f99eb6e20d9ad7db01e5987fa96a447e0af473ab14fc985f846388264cd6",
                        "receiptsRoot": "0xedd51b898476d717efe499381596337599116f4fc38d97ae73732bbdea9962f6",
                        "logsBloom": "0x00000000000000000000000000000000000000000000000000000000000000000000000000000000000000000000000000000000000000000000000000000000000000000000000000000000000000000000000000000000000000000000000000000000000000000000000000000000000000000000000000000000000000000000000000000000000000000000000000000000000000000000000000000000000000000000000000000000000000000000000000000000000000000000000000000000000000000000000000000000000000000000000000000000000000000000000000000000000000000000000000000000000000000000000000000000",
                        "blockNumber": "0x1",
                        "gasLimit": "0x16345785d8a0000",
                        "gasUsed": "0xb3fc",
                        "timestamp": "0xc",
                        "extraData": "0x",
                        "prevRandao": "0x0000000000000000000000000000000000000000000000000000000000000000",
                        "baseFeePerGas": "0x7",
                        "blockHash": "0xd3a1f6d7b3cadd1551d6e8ee976b714d7db1a5ab9dfdd5499f60c5cd74651bde",
                        "transactions": [
                            "0xf880800a830186a094000000000000000000000000000000000000100080a00000000000000000000000008a0a19589531694250d570040a0c4b74576919b825a0d9aee523f90bef16289b3617933f01ba433f7c4f5aa19111ae6f7c87b850257da031acbff98568a6275b207b313f2dbffcfe1395ee83f8228fdc1da8962a6fb134"
                        ],
                        "withdrawals": [
                            {
                                "index": "0x0",
                                "validatorIndex": "0x0",
                                "address": "0x8a0a19589531694250d570040a0c4b74576919b8",
                                "amount": "0x1"
                            }
                        ]
                    }
                ],
                "newPayloadVersion": "2",
                "forkchoiceUpdatedVersion": "2"
            },
            {
                "params": [
                    {
                        "parentHash": "0xd3a1f6d7b3cadd1551d6e8ee976b714d7db1a5ab9dfdd5499f60c5cd74651bde",
                        "feeRecipient": "0x2adc25665018aa1fe0e6bc666dac8fc2697ff9ba",
                        "stateRoot": "0x5f9c404c0cbc693643f51770e964d4f158f19d462e76dc021a70f4c183a84d37",
                        "receiptsRoot": "0xedd51b898476d717efe499381596337599116f4fc38d97ae73732bbdea9962f6",
                        "logsBloom": "0x00000000000000000000000000000000000000000000000000000000000000000000000000000000000000000000000000000000000000000000000000000000000000000000000000000000000000000000000000000000000000000000000000000000000000000000000000000000000000000000000000000000000000000000000000000000000000000000000000000000000000000000000000000000000000000000000000000000000000000000000000000000000000000000000000000000000000000000000000000000000000000000000000000000000000000000000000000000000000000000000000000000000000000000000000000000",
                        "blockNumber": "0x2",
                        "gasLimit": "0x16345785d8a0000",
                        "gasUsed": "0xb3fc",
                        "timestamp": "0x18",
                        "extraData": "0x",
                        "prevRandao": "0x0000000000000000000000000000000000000000000000000000000000000000",
                        "baseFeePerGas": "0x7",
                        "blockHash": "0x22b92be9d7015b63e809129b355534b6a0d7425d6e911478b2b54bf46170de19",
                        "transactions": [
                            "0xf880010a830186a094000000000000000000000000000000000000100080a00000000000000000000000008a0a19589531694250d570040a0c4b74576919b825a0f9654ad36504ef9031d32687671053c01b2153ff8267a63525c4b14ea3f8468ba041c15c78b0ca80bc434959b55740886a7b225a64f9105a1f378b4f50b0373246"
                        ],
                        "withdrawals": []
                    }
                ],
                "newPayloadVersion": "2",
                "forkchoiceUpdatedVersion": "2"
            }
        ],
        "_info": {
            "hash": "0x9a1ff8814f6b699485e338e1cabe189252e5e88c0817276c6dce81366478979a",
            "comment": "`execution-spec-tests` generated test",
            "filling-transition-tool": "ethereum-spec-evm-resolver 0.0.1",
            "description": "Test function documentation:\n\n    Test Withdrawal balance increase within the same block,\n    inside contract call.",
            "url": "https://github.com/ethereum/execution-spec-tests/blob/8fbca341fb0f3eb3a08a296e8f8fa84f233f4faa/tests/shanghai/eip4895_withdrawals/test_withdrawals.py#L184",
            "fixture_format": "blockchain_test_engine",
            "reference-spec": "https://github.com/ethereum/EIPs/blob/master/EIPS/eip-4895.md",
            "reference-spec-version": "81af3b60b632bc9c03513d1d137f25410e3f4d34"
        }
    },
    "tests/shanghai/eip4895_withdrawals/test_withdrawals.py::test_balance_within_block[fork_Cancun-blockchain_test_engine]": {
        "network": "Cancun",
        "genesisBlockHeader": {
            "parentHash": "0x0000000000000000000000000000000000000000000000000000000000000000",
            "uncleHash": "0x1dcc4de8dec75d7aab85b567b6ccd41ad312451b948a7413f0a142fd40d49347",
            "coinbase": "0x0000000000000000000000000000000000000000",
            "stateRoot": "0xfef5d5d97a45d6473f3336a9e439e58e12b228d2fb250c58fd511b12df725cfe",
            "transactionsTrie": "0x56e81f171bcc55a6ff8345e692c0f86e5b48e01b996cadc001622fb5e363b421",
            "receiptTrie": "0x56e81f171bcc55a6ff8345e692c0f86e5b48e01b996cadc001622fb5e363b421",
            "bloom": "0x00000000000000000000000000000000000000000000000000000000000000000000000000000000000000000000000000000000000000000000000000000000000000000000000000000000000000000000000000000000000000000000000000000000000000000000000000000000000000000000000000000000000000000000000000000000000000000000000000000000000000000000000000000000000000000000000000000000000000000000000000000000000000000000000000000000000000000000000000000000000000000000000000000000000000000000000000000000000000000000000000000000000000000000000000000000",
            "difficulty": "0x00",
            "number": "0x00",
            "gasLimit": "0x016345785d8a0000",
            "gasUsed": "0x00",
            "timestamp": "0x00",
            "extraData": "0x00",
            "mixHash": "0x0000000000000000000000000000000000000000000000000000000000000000",
            "nonce": "0x0000000000000000",
            "baseFeePerGas": "0x07",
            "withdrawalsRoot": "0x56e81f171bcc55a6ff8345e692c0f86e5b48e01b996cadc001622fb5e363b421",
            "blobGasUsed": "0x00",
            "excessBlobGas": "0x00",
            "parentBeaconBlockRoot": "0x0000000000000000000000000000000000000000000000000000000000000000",
            "hash": "0xe6a653b58b118c749988389a77c8af0b06a11349b7a70bb5f4bd1ef7730d62ea"
        },
        "pre": {
            "0x000f3df6d732807ef1319fb7b8bb8522d0beac02": {
                "nonce": "0x01",
                "balance": "0x00",
                "code": "0x3373fffffffffffffffffffffffffffffffffffffffe14604d57602036146024575f5ffd5b5f35801560495762001fff810690815414603c575f5ffd5b62001fff01545f5260205ff35b5f5ffd5b62001fff42064281555f359062001fff015500",
                "storage": {}
            },
            "0xa94f5374fce5edbc8e2a8697c15331677e6ebf0b": {
                "nonce": "0x00",
                "balance": "0x3635c9adc5dea00000",
                "code": "0x",
                "storage": {}
            },
            "0x8a0a19589531694250d570040a0c4b74576919b8": {
                "nonce": "0x00",
                "balance": "0x3b9aca00",
                "code": "0x",
                "storage": {}
            },
            "0x0000000000000000000000000000000000001000": {
                "nonce": "0x01",
                "balance": "0x00",
                "code": "0x600035314355",
                "storage": {}
            }
        },
        "postState": {
            "0x000f3df6d732807ef1319fb7b8bb8522d0beac02": {
                "nonce": "0x01",
                "balance": "0x00",
                "code": "0x3373fffffffffffffffffffffffffffffffffffffffe14604d57602036146024575f5ffd5b5f35801560495762001fff810690815414603c575f5ffd5b62001fff01545f5260205ff35b5f5ffd5b62001fff42064281555f359062001fff015500",
                "storage": {
                    "0x0c": "0x0c",
                    "0x18": "0x18"
                }
            },
            "0xa94f5374fce5edbc8e2a8697c15331677e6ebf0b": {
                "nonce": "0x02",
                "balance": "0x3635c9adc5de91f050",
                "code": "0x",
                "storage": {}
            },
            "0x8a0a19589531694250d570040a0c4b74576919b8": {
                "nonce": "0x00",
                "balance": "0x77359400",
                "code": "0x",
                "storage": {}
            },
            "0x0000000000000000000000000000000000001000": {
                "nonce": "0x01",
                "balance": "0x00",
                "code": "0x600035314355",
                "storage": {
                    "0x01": "0x3b9aca00",
                    "0x02": "0x77359400"
                }
            },
            "0x2adc25665018aa1fe0e6bc666dac8fc2697ff9ba": {
                "nonce": "0x00",
                "balance": "0x0437e8",
                "code": "0x",
                "storage": {}
            }
        },
        "lastblockhash": "0xc408a21abad09f6f5e5e22d0b0f5b8e9635b3bcc5ba900a9284e4e60facebc3a",
        "engineNewPayloads": [
            {
                "params": [
                    {
                        "parentHash": "0xe6a653b58b118c749988389a77c8af0b06a11349b7a70bb5f4bd1ef7730d62ea",
                        "feeRecipient": "0x2adc25665018aa1fe0e6bc666dac8fc2697ff9ba",
                        "stateRoot": "0xb83c3c5cb85e5491cc922436f75127111694080a99a4d1d84bbb5d0eace19aa2",
                        "receiptsRoot": "0xedd51b898476d717efe499381596337599116f4fc38d97ae73732bbdea9962f6",
                        "logsBloom": "0x00000000000000000000000000000000000000000000000000000000000000000000000000000000000000000000000000000000000000000000000000000000000000000000000000000000000000000000000000000000000000000000000000000000000000000000000000000000000000000000000000000000000000000000000000000000000000000000000000000000000000000000000000000000000000000000000000000000000000000000000000000000000000000000000000000000000000000000000000000000000000000000000000000000000000000000000000000000000000000000000000000000000000000000000000000000",
                        "blockNumber": "0x1",
                        "gasLimit": "0x16345785d8a0000",
                        "gasUsed": "0xb3fc",
                        "timestamp": "0xc",
                        "extraData": "0x",
                        "prevRandao": "0x0000000000000000000000000000000000000000000000000000000000000000",
                        "baseFeePerGas": "0x7",
                        "blobGasUsed": "0x0",
                        "excessBlobGas": "0x0",
                        "blockHash": "0x0e57dff4774e40e6c41542932a1427802ac874b046a3ea9bf841aba59c799a4b",
                        "transactions": [
                            "0xf880800a830186a094000000000000000000000000000000000000100080a00000000000000000000000008a0a19589531694250d570040a0c4b74576919b825a0d9aee523f90bef16289b3617933f01ba433f7c4f5aa19111ae6f7c87b850257da031acbff98568a6275b207b313f2dbffcfe1395ee83f8228fdc1da8962a6fb134"
                        ],
                        "withdrawals": [
                            {
                                "index": "0x0",
                                "validatorIndex": "0x0",
                                "address": "0x8a0a19589531694250d570040a0c4b74576919b8",
                                "amount": "0x1"
                            }
                        ]
                    },
                    [],
                    "0x0000000000000000000000000000000000000000000000000000000000000000"
                ],
                "newPayloadVersion": "3",
                "forkchoiceUpdatedVersion": "3"
            },
            {
                "params": [
                    {
                        "parentHash": "0x0e57dff4774e40e6c41542932a1427802ac874b046a3ea9bf841aba59c799a4b",
                        "feeRecipient": "0x2adc25665018aa1fe0e6bc666dac8fc2697ff9ba",
                        "stateRoot": "0x9056151afb5bea80ec65a9be3f13db8bf578b4733aa2ee498431fa2cdfcbb0fc",
                        "receiptsRoot": "0xedd51b898476d717efe499381596337599116f4fc38d97ae73732bbdea9962f6",
                        "logsBloom": "0x00000000000000000000000000000000000000000000000000000000000000000000000000000000000000000000000000000000000000000000000000000000000000000000000000000000000000000000000000000000000000000000000000000000000000000000000000000000000000000000000000000000000000000000000000000000000000000000000000000000000000000000000000000000000000000000000000000000000000000000000000000000000000000000000000000000000000000000000000000000000000000000000000000000000000000000000000000000000000000000000000000000000000000000000000000000",
                        "blockNumber": "0x2",
                        "gasLimit": "0x16345785d8a0000",
                        "gasUsed": "0xb3fc",
                        "timestamp": "0x18",
                        "extraData": "0x",
                        "prevRandao": "0x0000000000000000000000000000000000000000000000000000000000000000",
                        "baseFeePerGas": "0x7",
                        "blobGasUsed": "0x0",
                        "excessBlobGas": "0x0",
                        "blockHash": "0xc408a21abad09f6f5e5e22d0b0f5b8e9635b3bcc5ba900a9284e4e60facebc3a",
                        "transactions": [
                            "0xf880010a830186a094000000000000000000000000000000000000100080a00000000000000000000000008a0a19589531694250d570040a0c4b74576919b825a0f9654ad36504ef9031d32687671053c01b2153ff8267a63525c4b14ea3f8468ba041c15c78b0ca80bc434959b55740886a7b225a64f9105a1f378b4f50b0373246"
                        ],
                        "withdrawals": []
                    },
                    [],
                    "0x0000000000000000000000000000000000000000000000000000000000000000"
                ],
                "newPayloadVersion": "3",
                "forkchoiceUpdatedVersion": "3"
            }
        ],
        "_info": {
            "hash": "0x8e8460aecb6ac1e65c183697c180d3040e330c9ad588259cfca46a37f59b9dca",
            "comment": "`execution-spec-tests` generated test",
            "filling-transition-tool": "ethereum-spec-evm-resolver 0.0.1",
            "description": "Test function documentation:\n\n    Test Withdrawal balance increase within the same block,\n    inside contract call.",
            "url": "https://github.com/ethereum/execution-spec-tests/blob/8fbca341fb0f3eb3a08a296e8f8fa84f233f4faa/tests/shanghai/eip4895_withdrawals/test_withdrawals.py#L184",
            "fixture_format": "blockchain_test_engine",
            "reference-spec": "https://github.com/ethereum/EIPs/blob/master/EIPS/eip-4895.md",
            "reference-spec-version": "81af3b60b632bc9c03513d1d137f25410e3f4d34"
        }
    }
}