{
    "tests/cancun/eip1153_tstore/test_tstorage.py::test_gas_usage[fork_Prague-state_test-tload]": {
        "env": {
            "currentCoinbase": "0x2adc25665018aa1fe0e6bc666dac8fc2697ff9ba",
            "currentGasLimit": "0x016345785d8a0000",
            "currentNumber": "0x01",
            "currentTimestamp": "0x03e8",
            "currentRandom": "0x0000000000000000000000000000000000000000000000000000000000000000",
            "currentDifficulty": "0x00",
            "currentBaseFee": "0x07",
            "currentExcessBlobGas": "0x00"
        },
        "pre": {
            "0x0000000000000000000000000000000000001000": {
                "nonce": "0x01",
                "balance": "0x00",
                "code": "0x5a600a5c5a905090036005900360005500",
                "storage": {}
            },
            "0xa94f5374fce5edbc8e2a8697c15331677e6ebf0b": {
                "nonce": "0x00",
                "balance": "0x3635c9adc5dea00000",
                "code": "0x",
                "storage": {}
            }
        },
        "transaction": {
            "nonce": "0x00",
            "gasPrice": "0x0a",
            "gasLimit": [
                "0x0f4240"
            ],
            "to": "0x0000000000000000000000000000000000001000",
            "value": [
                "0x00"
            ],
            "data": [
                "0x"
            ],
            "sender": "0xa94f5374fce5edbc8e2a8697c15331677e6ebf0b",
            "secretKey": "0x45a915e4d060149eb4365960e6a7a45f334393093061116b197e3240065ff2d8"
        },
        "post": {
            "Prague": [
                {
                    "hash": "0xb68b317a971c3ddeca5f2b652bf7926dd21def4690365c59362e1c1af177df3a",
                    "logs": "0x1dcc4de8dec75d7aab85b567b6ccd41ad312451b948a7413f0a142fd40d49347",
                    "txbytes": "0xf860800a830f4240940000000000000000000000000000000000001000808026a07b0cbd2d85800843e73b1a917828915aaaf49021e4c7896ecc4fcc460e070cf5a071bda31b1d867df266f75bd3fb2efd3ac4aef1b574d092593346940024f69c9a",
                    "indexes": {
                        "data": 0,
                        "gas": 0,
                        "value": 0
                    },
                    "state": {
                        "0x0000000000000000000000000000000000001000": {
                            "nonce": "0x01",
                            "balance": "0x00",
                            "code": "0x5a600a5c5a905090036005900360005500",
                            "storage": {
                                "0x00": "0x64"
                            }
                        },
                        "0xa94f5374fce5edbc8e2a8697c15331677e6ebf0b": {
                            "nonce": "0x01",
                            "balance": "0x3635c9adc5de996754",
                            "code": "0x",
                            "storage": {}
                        },
                        "0x2adc25665018aa1fe0e6bc666dac8fc2697ff9ba": {
                            "nonce": "0x00",
                            "balance": "0x01fa9a",
                            "code": "0x",
                            "storage": {}
                        }
                    }
                }
            ]
        },
        "_info": {
            "hash": "0x34212815fd9f2d5941ac2b509ca2666f741b50be6e31f04e5ed2f3eb380e4d05",
            "comment": "`execution-spec-tests` generated test",
            "filling-transition-tool": "ethereum-spec-evm-resolver 0.0.1",
            "description": "Test function documentation:\nTest that tstore and tload consume the expected gas.",
            "url": "https://github.com/ethereum/execution-spec-tests/blob/4dafe6334e0e9dc8f1dd21d54fb38c4e2732331e/tests/cancun/eip1153_tstore/test_tstorage.py#L217",
            "fixture_format": "state_test",
            "reference-spec": "https://github.com/ethereum/EIPs/blob/master/EIPS/eip-1153.md",
            "reference-spec-version": "6f0be621c76a05a7b3aaf0e9297afd425c26e9d0"
        }
    },
    "tests/cancun/eip1153_tstore/test_tstorage.py::test_gas_usage[fork_Prague-state_test-tstore_tload]": {
        "env": {
            "currentCoinbase": "0x2adc25665018aa1fe0e6bc666dac8fc2697ff9ba",
            "currentGasLimit": "0x016345785d8a0000",
            "currentNumber": "0x01",
            "currentTimestamp": "0x03e8",
            "currentRandom": "0x0000000000000000000000000000000000000000000000000000000000000000",
            "currentDifficulty": "0x00",
            "currentBaseFee": "0x07",
            "currentExcessBlobGas": "0x00"
        },
        "pre": {
            "0x0000000000000000000000000000000000001000": {
                "nonce": "0x01",
                "balance": "0x00",
                "code": "0x5a600a600a5d600a5c5a90509003600b900360005500",
                "storage": {}
            },
            "0xa94f5374fce5edbc8e2a8697c15331677e6ebf0b": {
                "nonce": "0x00",
                "balance": "0x3635c9adc5dea00000",
                "code": "0x",
                "storage": {}
            }
        },
        "transaction": {
            "nonce": "0x00",
            "gasPrice": "0x0a",
            "gasLimit": [
                "0x0f4240"
            ],
            "to": "0x0000000000000000000000000000000000001000",
            "value": [
                "0x00"
            ],
            "data": [
                "0x"
            ],
            "sender": "0xa94f5374fce5edbc8e2a8697c15331677e6ebf0b",
            "secretKey": "0x45a915e4d060149eb4365960e6a7a45f334393093061116b197e3240065ff2d8"
        },
        "post": {
            "Prague": [
                {
                    "hash": "0x9eb97f84cce2ef8179117b8c5b257c3a50f3a6177db4e9901a09360023a2d89f",
                    "logs": "0x1dcc4de8dec75d7aab85b567b6ccd41ad312451b948a7413f0a142fd40d49347",
                    "txbytes": "0xf860800a830f4240940000000000000000000000000000000000001000808026a07b0cbd2d85800843e73b1a917828915aaaf49021e4c7896ecc4fcc460e070cf5a071bda31b1d867df266f75bd3fb2efd3ac4aef1b574d092593346940024f69c9a",
                    "indexes": {
                        "data": 0,
                        "gas": 0,
                        "value": 0
                    },
                    "state": {
                        "0x0000000000000000000000000000000000001000": {
                            "nonce": "0x01",
                            "balance": "0x00",
                            "code": "0x5a600a600a5d600a5c5a90509003600b900360005500",
                            "storage": {
                                "0x00": "0xc8"
                            }
                        },
                        "0xa94f5374fce5edbc8e2a8697c15331677e6ebf0b": {
                            "nonce": "0x01",
                            "balance": "0x3635c9adc5de996330",
                            "code": "0x",
                            "storage": {}
                        },
                        "0x2adc25665018aa1fe0e6bc666dac8fc2697ff9ba": {
                            "nonce": "0x00",
                            "balance": "0x01fbd8",
                            "code": "0x",
                            "storage": {}
                        }
                    }
                }
            ]
        },
        "_info": {
            "hash": "0xf99802796e61d34efc7e3349ff654be56265d0485d7ba2380db5c25a878a9fb7",
            "comment": "`execution-spec-tests` generated test",
            "filling-transition-tool": "ethereum-spec-evm-resolver 0.0.1",
            "description": "Test function documentation:\nTest that tstore and tload consume the expected gas.",
            "url": "https://github.com/ethereum/execution-spec-tests/blob/4dafe6334e0e9dc8f1dd21d54fb38c4e2732331e/tests/cancun/eip1153_tstore/test_tstorage.py#L217",
            "fixture_format": "state_test",
            "reference-spec": "https://github.com/ethereum/EIPs/blob/master/EIPS/eip-1153.md",
            "reference-spec-version": "6f0be621c76a05a7b3aaf0e9297afd425c26e9d0"
        }
    },
    "tests/cancun/eip1153_tstore/test_tstorage.py::test_gas_usage[fork_Prague-state_test-tstore_cold]": {
        "env": {
            "currentCoinbase": "0x2adc25665018aa1fe0e6bc666dac8fc2697ff9ba",
            "currentGasLimit": "0x016345785d8a0000",
            "currentNumber": "0x01",
            "currentTimestamp": "0x03e8",
            "currentRandom": "0x0000000000000000000000000000000000000000000000000000000000000000",
            "currentDifficulty": "0x00",
            "currentBaseFee": "0x07",
            "currentExcessBlobGas": "0x00"
        },
        "pre": {
            "0x0000000000000000000000000000000000001000": {
                "nonce": "0x01",
                "balance": "0x00",
                "code": "0x5a600a600a5d5a90036008900360005500",
                "storage": {}
            },
            "0xa94f5374fce5edbc8e2a8697c15331677e6ebf0b": {
                "nonce": "0x00",
                "balance": "0x3635c9adc5dea00000",
                "code": "0x",
                "storage": {}
            }
        },
        "transaction": {
            "nonce": "0x00",
            "gasPrice": "0x0a",
            "gasLimit": [
                "0x0f4240"
            ],
            "to": "0x0000000000000000000000000000000000001000",
            "value": [
                "0x00"
            ],
            "data": [
                "0x"
            ],
            "sender": "0xa94f5374fce5edbc8e2a8697c15331677e6ebf0b",
            "secretKey": "0x45a915e4d060149eb4365960e6a7a45f334393093061116b197e3240065ff2d8"
        },
        "post": {
            "Prague": [
                {
                    "hash": "0x50b35fda9e7cb42338a256cc311ff375ff1e980990065e5ea0db9d37be92cab6",
                    "logs": "0x1dcc4de8dec75d7aab85b567b6ccd41ad312451b948a7413f0a142fd40d49347",
                    "txbytes": "0xf860800a830f4240940000000000000000000000000000000000001000808026a07b0cbd2d85800843e73b1a917828915aaaf49021e4c7896ecc4fcc460e070cf5a071bda31b1d867df266f75bd3fb2efd3ac4aef1b574d092593346940024f69c9a",
                    "indexes": {
                        "data": 0,
                        "gas": 0,
                        "value": 0
                    },
                    "state": {
                        "0x0000000000000000000000000000000000001000": {
                            "nonce": "0x01",
                            "balance": "0x00",
                            "code": "0x5a600a600a5d5a90036008900360005500",
                            "storage": {
                                "0x00": "0x64"
                            }
                        },
                        "0xa94f5374fce5edbc8e2a8697c15331677e6ebf0b": {
                            "nonce": "0x01",
                            "balance": "0x3635c9adc5de996768",
                            "code": "0x",
                            "storage": {}
                        },
                        "0x2adc25665018aa1fe0e6bc666dac8fc2697ff9ba": {
                            "nonce": "0x00",
                            "balance": "0x01fa94",
                            "code": "0x",
                            "storage": {}
                        }
                    }
                }
            ]
        },
        "_info": {
            "hash": "0xb72b975e7779e4f99f5074a2cdcd9c70a661c192ddd8de6ab9ca71810af62f5f",
            "comment": "`execution-spec-tests` generated test",
            "filling-transition-tool": "ethereum-spec-evm-resolver 0.0.1",
            "description": "Test function documentation:\nTest that tstore and tload consume the expected gas.",
            "url": "https://github.com/ethereum/execution-spec-tests/blob/4dafe6334e0e9dc8f1dd21d54fb38c4e2732331e/tests/cancun/eip1153_tstore/test_tstorage.py#L217",
            "fixture_format": "state_test",
            "reference-spec": "https://github.com/ethereum/EIPs/blob/master/EIPS/eip-1153.md",
            "reference-spec-version": "6f0be621c76a05a7b3aaf0e9297afd425c26e9d0"
        }
    },
    "tests/cancun/eip1153_tstore/test_tstorage.py::test_gas_usage[fork_Prague-state_test-tstore_warm]": {
        "env": {
            "currentCoinbase": "0x2adc25665018aa1fe0e6bc666dac8fc2697ff9ba",
            "currentGasLimit": "0x016345785d8a0000",
            "currentNumber": "0x01",
            "currentTimestamp": "0x03e8",
            "currentRandom": "0x0000000000000000000000000000000000000000000000000000000000000000",
            "currentDifficulty": "0x00",
            "currentBaseFee": "0x07",
            "currentExcessBlobGas": "0x00"
        },
        "pre": {
            "0x0000000000000000000000000000000000001000": {
                "nonce": "0x01",
                "balance": "0x00",
                "code": "0x5a600a600a5d600b600a5d5a9003600e900360005500",
                "storage": {}
            },
            "0xa94f5374fce5edbc8e2a8697c15331677e6ebf0b": {
                "nonce": "0x00",
                "balance": "0x3635c9adc5dea00000",
                "code": "0x",
                "storage": {}
            }
        },
        "transaction": {
            "nonce": "0x00",
            "gasPrice": "0x0a",
            "gasLimit": [
                "0x0f4240"
            ],
            "to": "0x0000000000000000000000000000000000001000",
            "value": [
                "0x00"
            ],
            "data": [
                "0x"
            ],
            "sender": "0xa94f5374fce5edbc8e2a8697c15331677e6ebf0b",
            "secretKey": "0x45a915e4d060149eb4365960e6a7a45f334393093061116b197e3240065ff2d8"
        },
        "post": {
            "Prague": [
                {
                    "hash": "0xb83c04042b9ed8b18d1af0a4c9338dd2505f5096515ddbf33dc916476a017a18",
                    "logs": "0x1dcc4de8dec75d7aab85b567b6ccd41ad312451b948a7413f0a142fd40d49347",
                    "txbytes": "0xf860800a830f4240940000000000000000000000000000000000001000808026a07b0cbd2d85800843e73b1a917828915aaaf49021e4c7896ecc4fcc460e070cf5a071bda31b1d867df266f75bd3fb2efd3ac4aef1b574d092593346940024f69c9a",
                    "indexes": {
                        "data": 0,
                        "gas": 0,
                        "value": 0
                    },
                    "state": {
                        "0x0000000000000000000000000000000000001000": {
                            "nonce": "0x01",
                            "balance": "0x00",
                            "code": "0x5a600a600a5d600b600a5d5a9003600e900360005500",
                            "storage": {
                                "0x00": "0xc8"
                            }
                        },
                        "0xa94f5374fce5edbc8e2a8697c15331677e6ebf0b": {
                            "nonce": "0x01",
                            "balance": "0x3635c9adc5de996344",
                            "code": "0x",
                            "storage": {}
                        },
                        "0x2adc25665018aa1fe0e6bc666dac8fc2697ff9ba": {
                            "nonce": "0x00",
                            "balance": "0x01fbd2",
                            "code": "0x",
                            "storage": {}
                        }
                    }
                }
            ]
        },
        "_info": {
            "hash": "0xbc975dc65fe498ed3ec66e0a7ec93d65ee7e8d330ab47e050fc8e9129ec22fa8",
            "comment": "`execution-spec-tests` generated test",
            "filling-transition-tool": "ethereum-spec-evm-resolver 0.0.1",
            "description": "Test function documentation:\nTest that tstore and tload consume the expected gas.",
            "url": "https://github.com/ethereum/execution-spec-tests/blob/4dafe6334e0e9dc8f1dd21d54fb38c4e2732331e/tests/cancun/eip1153_tstore/test_tstorage.py#L217",
            "fixture_format": "state_test",
            "reference-spec": "https://github.com/ethereum/EIPs/blob/master/EIPS/eip-1153.md",
            "reference-spec-version": "6f0be621c76a05a7b3aaf0e9297afd425c26e9d0"
        }
    }
}