{
    "tests/cancun/eip1153_tstore/test_tstorage.py::test_run_until_out_of_gas[fork_Cancun-state_test-tstore]": {
        "env": {
            "currentCoinbase": "0x2adc25665018aa1fe0e6bc666dac8fc2697ff9ba",
            "currentGasLimit": "0x016345785d8a0000",
            "currentNumber": "0x01",
            "currentTimestamp": "0x03e8",
            "currentRandom": "0x0000000000000000000000000000000000000000000000000000000000000000",
            "currentDifficulty": "0x00",
            "currentBaseFee": "0x07",
            "currentExcessBlobGas": "0x00"
        },
        "pre": {
            "0x0000000000000000000000000000000000001000": {
                "nonce": "0x01",
                "balance": "0x00",
                "code": "0x5b5a5a5d5a5a5d5a5a5d5a5a5d5a5a5d5a5a5d5a5a5d5a5a5d5a5a5d5a5a5d5a5a5d5a5a5d5a5a5d5a5a5d5a5a5d5a5a5d5a5a5d5a5a5d5a5a5d5a5a5d5a5a5d5a5a5d5a5a5d5a5a5d5a5a5d5a5a5d5a5a5d5a5a5d5a5a5d5a5a5d5a5a5d5a5a5d5a5a5d5a5a5d5a5a5d5a5a5d5a5a5d5a5a5d5a5a5d5a5a5d5a5a5d5a5a5d5a5a5d5a5a5d5a5a5d5a5a5d5a5a5d5a5a5d5a5a5d5a5a5d5a5a5d5a5a5d5a5a5d5a5a5d5a5a5d5a5a5d5a5a5d5a5a5d5a5a5d5a5a5d5a5a5d5a5a5d5a5a5d5a5a5d5a5a5d5a5a5d5a5a5d5a5a5d5a5a5d5a5a5d5a5a5d5a5a5d5a5a5d5a5a5d5a5a5d5a5a5d5a5a5d5a5a5d5a5a5d5a5a5d5a5a5d5a5a5d5a5a5d5a5a5d5a5a5d5a5a5d5a5a5d5a5a5d5a5a5d5a5a5d5a5a5d5a5a5d5a5a5d5a5a5d5a5a5d5a5a5d5a5a5d5a5a5d5a5a5d5a5a5d5a5a5d5a5a5d5a5a5d5a5a5d5a5a5d5a5a5d5a5a5d5a5a5d5a5a5d5a5a5d5a5a5d5a5a5d5a5a5d5a5a5d5a5a5d5a5a5d5a5a5d5a5a5d5a5a5d5a5a5d5a5a5d5a5a5d5a5a5d5a5a5d5a5a5d5a5a5d5a5a5d5a5a5d5a5a5d5a5a5d5a5a5d5a5a5d5a5a5d5a5a5d5a5a5d5a5a5d5a5a5d5a5a5d5a5a5d5a5a5d5a5a5d5a5a5d5a5a5d5a5a5d5a5a5d5a5a5d5a5a5d5a5a5d5a5a5d5a5a5d5a5a5d5a5a5d5a5a5d5a5a5d5a5a5d5a5a5d5a5a5d5a5a5d5a5a5d5a5a5d5a5a5d5a5a5d5a5a5d5a5a5d5a5a5d5a5a5d5a5a5d5a5a5d5a5a5d5a5a5d5a5a5d5a5a5d5a5a5d5a5a5d5a5a5d5a5a5d5a5a5d5a5a5d5a5a5d5a5a5d5a5a5d5a5a5d5a5a5d5a5a5d5a5a5d5a5a5d5a5a5d5a5a5d5a5a5d5a5a5d5a5a5d5a5a5d5a5a5d5a5a5d5a5a5d5a5a5d5a5a5d5a5a5d5a5a5d5a5a5d5a5a5d5a5a5d5a5a5d5a5a5d5a5a5d5a5a5d5a5a5d5a5a5d5a5a5d5a5a5d5a5a5d5a5a5d5a5a5d5a5a5d5a5a5d5a5a5d5a5a5d5a5a5d5a5a5d5a5a5d5a5a5d5a5a5d5a5a5d5a5a5d5a5a5d5a5a5d5a5a5d5a5a5d5a5a5d5a5a5d5a5a5d5a5a5d5a5a5d5a5a5d5a5a5d5a5a5d5a5a5d5a5a5d5a5a5d5a5a5d5a5a5d5a5a5d5a5a5d5a5a5d5a5a5d5a5a5d5a5a5d5a5a5d5a5a5d5a5a5d5a5a5d5a5a5d5a5a5d5a5a5d5a5a5d5a5a5d5a5a5d5a5a5d5a5a5d5a5a5d5a5a5d5a5a5d5a5a5d5a5a5d5a5a5d5a5a5d5a5a5d5a5a5d5a5a5d5a5a5d5a5a5d5a5a5d5a5a5d5a5a5d5a5a5d5a5a5d5a5a5d5a5a5d5a5a5d5a5a5d5a5a5d5a5a5d5a5a5d5a5a5d5a5a5d5a5a5d5a5a5d5a5a5d5a5a5d5a5a5d5a5a5d5a5a5d5a5a5d5a5a5d5a5a5d5a5a5d5a5a5d5a5a5d5a5a5d5a5a5d5a5a5d5a5a5d5a5a5d5a5a5d5a5a5d5a5a5d5a5a5d5a5a5d5a5a5d5a5a5d5a5a5d5a5a5d5a5a5d5a5a5d5a5a5d5a5a5d5a5a5d5a5a5d5a5a5d5a5a5d5a5a5d5a5a5d5a5a5d5a5a5d5a5a5d5a5a5d5a5a5d5a5a5d5a5a5d5a5a5d5a5a5d5a5a5d5a5a5d5a5a5d5a5a5d5a5a5d5a5a5d5a5a5d5a5a5d5a5a5d5a5a5d5a5a5d5a5a5d5a5a5d5a5a5d5a5a5d5a5a5d5a5a5d5a5a5d5a5a5d5a5a5d5a5a5d5a5a5d5a5a5d5a5a5d5a5a5d5a5a5d5a5a5d5a5a5d5a5a5d5a5a5d5a5a5d5a5a5d5a5a5d5a5a5d5a5a5d5a5a5d5a5a5d5a5a5d5a5a5d5a5a5d5a5a5d5a5a5d5a5a5d5a5a5d5a5a5d5a5a5d5a5a5d5a5a5d5a5a5d5a5a5d5a5a5d5a5a5d5a5a5d5a5a5d5a5a5d5a5a5d5a5a5d5a5a5d5a5a5d5a5a5d5a5a5d5a5a5d5a5a5d5a5a5d5a5a5d5a5a5d5a5a5d5a5a5d5a5a5d5a5a5d5a5a5d5a5a5d5a5a5d5a5a5d5a5a5d5a5a5d5a5a5d5a5a5d5a5a5d5a5a5d5a5a5d5a5a5d5a5a5d5a5a5d5a5a5d5a5a5d5a5a5d5a5a5d5a5a5d5a5a5d5a5a5d5a5a5d5a5a5d5a5a5d5a5a5d5a5a5d5a5a5d5a5a5d5a5a5d5a5a5d5a5a5d5a5a5d5a5a5d5a5a5d5a5a5d5a5a5d5a5a5d5a5a5d5a5a5d5a5a5d5a5a5d5a5a5d5a5a5d5a5a5d5a5a5d5a5a5d5a5a5d5a5a5d5a5a5d5a5a5d5a5a5d5a5a5d5a5a5d5a5a5d5a5a5d5a5a5d5a5a5d5a5a5d5a5a5d5a5a5d5a5a5d5a5a5d5a5a5d5a5a5d5a5a5d5a5a5d5a5a5d5a5a5d5a5a5d5a5a5d5a5a5d5a5a5d5a5a5d5a5a5d5a5a5d5a5a5d5a5a5d5a5a5d5a5a5d5a5a5d5a5a5d5a5a5d5a5a5d5a5a5d5a5a5d5a5a5d5a5a5d5a5a5d5a5a5d5a5a5d5a5a5d5a5a5d5a5a5d5a5a5d5a5a5d5a5a5d5a5a5d5a5a5d5a5a5d5a5a5d5a5a5d5a5a5d5a5a5d5a5a5d5a5a5d5a5a5d5a5a5d5a5a5d5a5a5d5a5a5d5a5a5d5a5a5d5a5a5d5a5a5d5a5a5d5a5a5d5a5a5d5a5a5d5a5a5d5a5a5d5a5a5d5a5a5d5a5a5d5a5a5d5a5a5d5a5a5d5a5a5d5a5a5d5a5a5d5a5a5d5a5a5d5a5a5d5a5a5d5a5a5d5a5a5d5a5a5d5a5a5d5a5a5d5a5a5d5a5a5d5a5a5d5a5a5d5a5a5d5a5a5d5a5a5d5a5a5d5a5a5d5a5a5d5a5a5d5a5a5d5a5a5d5a5a5d5a5a5d5a5a5d5a5a5d5a5a5d5a5a5d5a5a5d5a5a5d5a5a5d5a5a5d5a5a5d5a5a5d5a5a5d5a5a5d5a5a5d5a5a5d5a5a5d5a5a5d5a5a5d5a5a5d5a5a5d5a5a5d5a5a5d5a5a5d5a5a5d5a5a5d5a5a5d5a5a5d5a5a5d5a5a5d5a5a5d5a5a5d5a5a5d5a5a5d5a5a5d5a5a5d5a5a5d5a5a5d5a5a5d5a5a5d5a5a5d5a5a5d5a5a5d5a5a5d5a5a5d5a5a5d5a5a5d5a5a5d5a5a5d5a5a5d5a5a5d5a5a5d5a5a5d5a5a5d5a5a5d5a5a5d5a5a5d5a5a5d5a5a5d5a5a5d5a5a5d5a5a5d5a5a5d5a5a5d5a5a5d5a5a5d5a5a5d5a5a5d5a5a5d5a5a5d5a5a5d5a5a5d5a5a5d5a5a5d5a5a5d5a5a5d5a5a5d5a5a5d5a5a5d5a5a5d5a5a5d5a5a5d5a5a5d5a5a5d5a5a5d5a5a5d5a5a5d5a5a5d5a5a5d5a5a5d5a5a5d5a5a5d5a5a5d5a5a5d5a5a5d5a5a5d5a5a5d5a5a5d5a5a5d5a5a5d5a5a5d5a5a5d5a5a5d5a5a5d5a5a5d5a5a5d5a5a5d5a5a5d5a5a5d5a5a5d5a5a5d5a5a5d5a5a5d5a5a5d5a5a5d5a5a5d5a5a5d5a5a5d5a5a5d5a5a5d5a5a5d5a5a5d5a5a5d5a5a5d5a5a5d5a5a5d5a5a5d5a5a5d5a5a5d5a5a5d5a5a5d5a5a5d5a5a5d5a5a5d5a5a5d5a5a5d5a5a5d5a5a5d5a5a5d5a5a5d5a5a5d5a5a5d5a5a5d5a5a5d5a5a5d5a5a5d5a5a5d5a5a5d5a5a5d5a5a5d5a5a5d5a5a5d5a5a5d5a5a5d5a5a5d5a5a5d5a5a5d5a5a5d5a5a5d5a5a5d5a5a5d5a5a5d5a5a5d5a5a5d5a5a5d5a5a5d5a5a5d5a5a5d5a5a5d5a5a5d5a5a5d5a5a5d5a5a5d5a5a5d5a5a5d5a5a5d5a5a5d5a5a5d5a5a5d5a5a5d5a5a5d5a5a5d5a5a5d5a5a5d5a5a5d5a5a5d5a5a5d5a5a5d5a5a5d5a5a5d5a5a5d5a5a5d5a5a5d5a5a5d5a5a5d5a5a5d5a5a5d5a5a5d5a5a5d5a5a5d5a5a5d5a5a5d5a5a5d5a5a5d5a5a5d5a5a5d5a5a5d5a5a5d5a5a5d5a5a5d5a5a5d5a5a5d5a5a5d5a5a5d5a5a5d5a5a5d5a5a5d5a5a5d5a5a5d5a5a5d5a5a5d5a5a5d5a5a5d5a5a5d5a5a5d5a5a5d5a5a5d5a5a5d5a5a5d5a5a5d5a5a5d5a5a5d5a5a5d5a5a5d5a5a5d5a5a5d5a5a5d5a5a5d5a5a5d5a5a5d5a5a5d5a5a5d5a5a5d5a5a5d5a5a5d5a5a5d5a5a5d5a5a5d5a5a5d5a5a5d5a5a5d5a5a5d5a5a5d5a5a5d5a5a5d5a5a5d5a5a5d5a5a5d5a5a5d5a5a5d5a5a5d5a5a5d5a5a5d5a5a5d5a5a5d5a5a5d5a5a5d5a5a5d5a5a5d5a5a5d5a5a5d5a5a5d5a5a5d5a5a5d5a5a5d5a5a5d5a5a5d5a5a5d5a5a5d5a5a5d5a5a5d5a5a5d5a5a5d5a5a5d5a5a5d5a5a5d5a5a5d5a5a5d5a5a5d5a5a5d5a5a5d5a5a5d5a5a5d5a5a5d5a5a5d5a5a5d5a5a5d5a5a5d5a5a5d5a5a5d5a5a5d5a5a5d5a5a5d5a5a5d5a5a5d5a5a5d5a5a5d5a5a5d5a5a5d5a5a5d5a5a5d5a5a5d5a5a5d5a5a5d5a5a5d5a5a5d5a5a5d5a5a5d5a5a5d5a5a5d5a5a5d5a5a5d5a5a5d5a5a5d5a5a5d5a5a5d5a5a5d5a5a5d5a5a5d5a5a5d5a5a5d5a5a5d5a5a5d5a5a5d5a5a5d5a5a5d5a5a5d5a5a5d5a5a5d5a5a5d5a5a5d5a5a5d5a5a5d5a5a5d5a5a5d5a5a5d5a5a5d5a5a5d5a5a5d5a5a5d5a5a5d5a5a5d5a5a5d5a5a5d5a5a5d5a5a5d5a5a5d5a5a5d5a5a5d5a5a5d5a5a5d5a5a5d5a5a5d5a5a5d5a5a5d5a5a5d5a5a5d5a5a5d5a5a5d5a5a5d5a5a5d5a5a5d5a5a5d5a5a5d5a5a5d5a5a5d5a5a5d5a5a5d5a5a5d5a5a5d5a5a5d5a5a5d5a5a5d5a5a5d5a5a5d5a5a5d5a5a5d5a5a5d5a5a5d5a5a5d5a5a5d5a5a5d5a5a5d5a5a5d5a5a5d5a5a5d5a5a5d5a5a5d5a5a5d5a5a5d5a5a5d5a5a5d5a5a5d5a5a5d5a5a5d5a5a5d5a5a5d5a5a5d5a5a5d5a5a5d5a5a5d5a5a5d5a5a5d5a5a5d5a5a5d5a5a5d5a5a5d5a5a5d5a5a5d5a5a5d5a5a5d5a5a5d5a5a5d5a5a5d5a5a5d5a5a5d5a5a5d5a5a5d5a5a5d5a5a5d5a5a5d5a5a5d5a5a5d5a5a5d5a5a5d5a5a5d5a5a5d5a5a5d5a5a5d5a5a5d5a5a5d5a5a5d5a5a5d5a5a5d5a5a5d5a5a5d5a5a5d5a5a5d5f56",
                "storage": {}
            },
            "0xa94f5374fce5edbc8e2a8697c15331677e6ebf0b": {
                "nonce": "0x00",
                "balance": "0x3635c9adc5dea00000",
                "code": "0x",
                "storage": {}
            }
        },
        "transaction": {
            "nonce": "0x00",
            "gasPrice": "0x0a",
            "gasLimit": [
                "0x01c9c380"
            ],
            "to": "0x0000000000000000000000000000000000001000",
            "value": [
                "0x00"
            ],
            "data": [
                "0x"
            ],
            "sender": "0xa94f5374fce5edbc8e2a8697c15331677e6ebf0b",
            "secretKey": "0x45a915e4d060149eb4365960e6a7a45f334393093061116b197e3240065ff2d8"
        },
        "post": {
            "Cancun": [
                {
                    "hash": "0xe5bc9165ac94b299be92efc2b1b9a666ab906b135ce2dbaa26bbe3744b6be99a",
                    "logs": "0x1dcc4de8dec75d7aab85b567b6ccd41ad312451b948a7413f0a142fd40d49347",
                    "txbytes": "0xf861800a8401c9c380940000000000000000000000000000000000001000808026a02e059facdd1c63f66b859b63db3d532a94eee43b1355ad8e3bda41d268936fffa02cc93f19011aa79b7490d07a2e5ebda3396a3f7ad48308da4876453c0c82eea3",
                    "indexes": {
                        "data": 0,
                        "gas": 0,
                        "value": 0
                    },
                    "state": {
                        "0x0000000000000000000000000000000000001000": {
                            "nonce": "0x01",
                            "balance": "0x00",
                            "code": "0x5b5a5a5d5a5a5d5a5a5d5a5a5d5a5a5d5a5a5d5a5a5d5a5a5d5a5a5d5a5a5d5a5a5d5a5a5d5a5a5d5a5a5d5a5a5d5a5a5d5a5a5d5a5a5d5a5a5d5a5a5d5a5a5d5a5a5d5a5a5d5a5a5d5a5a5d5a5a5d5a5a5d5a5a5d5a5a5d5a5a5d5a5a5d5a5a5d5a5a5d5a5a5d5a5a5d5a5a5d5a5a5d5a5a5d5a5a5d5a5a5d5a5a5d5a5a5d5a5a5d5a5a5d5a5a5d5a5a5d5a5a5d5a5a5d5a5a5d5a5a5d5a5a5d5a5a5d5a5a5d5a5a5d5a5a5d5a5a5d5a5a5d5a5a5d5a5a5d5a5a5d5a5a5d5a5a5d5a5a5d5a5a5d5a5a5d5a5a5d5a5a5d5a5a5d5a5a5d5a5a5d5a5a5d5a5a5d5a5a5d5a5a5d5a5a5d5a5a5d5a5a5d5a5a5d5a5a5d5a5a5d5a5a5d5a5a5d5a5a5d5a5a5d5a5a5d5a5a5d5a5a5d5a5a5d5a5a5d5a5a5d5a5a5d5a5a5d5a5a5d5a5a5d5a5a5d5a5a5d5a5a5d5a5a5d5a5a5d5a5a5d5a5a5d5a5a5d5a5a5d5a5a5d5a5a5d5a5a5d5a5a5d5a5a5d5a5a5d5a5a5d5a5a5d5a5a5d5a5a5d5a5a5d5a5a5d5a5a5d5a5a5d5a5a5d5a5a5d5a5a5d5a5a5d5a5a5d5a5a5d5a5a5d5a5a5d5a5a5d5a5a5d5a5a5d5a5a5d5a5a5d5a5a5d5a5a5d5a5a5d5a5a5d5a5a5d5a5a5d5a5a5d5a5a5d5a5a5d5a5a5d5a5a5d5a5a5d5a5a5d5a5a5d5a5a5d5a5a5d5a5a5d5a5a5d5a5a5d5a5a5d5a5a5d5a5a5d5a5a5d5a5a5d5a5a5d5a5a5d5a5a5d5a5a5d5a5a5d5a5a5d5a5a5d5a5a5d5a5a5d5a5a5d5a5a5d5a5a5d5a5a5d5a5a5d5a5a5d5a5a5d5a5a5d5a5a5d5a5a5d5a5a5d5a5a5d5a5a5d5a5a5d5a5a5d5a5a5d5a5a5d5a5a5d5a5a5d5a5a5d5a5a5d5a5a5d5a5a5d5a5a5d5a5a5d5a5a5d5a5a5d5a5a5d5a5a5d5a5a5d5a5a5d5a5a5d5a5a5d5a5a5d5a5a5d5a5a5d5a5a5d5a5a5d5a5a5d5a5a5d5a5a5d5a5a5d5a5a5d5a5a5d5a5a5d5a5a5d5a5a5d5a5a5d5a5a5d5a5a5d5a5a5d5a5a5d5a5a5d5a5a5d5a5a5d5a5a5d5a5a5d5a5a5d5a5a5d5a5a5d5a5a5d5a5a5d5a5a5d5a5a5d5a5a5d5a5a5d5a5a5d5a5a5d5a5a5d5a5a5d5a5a5d5a5a5d5a5a5d5a5a5d5a5a5d5a5a5d5a5a5d5a5a5d5a5a5d5a5a5d5a5a5d5a5a5d5a5a5d5a5a5d5a5a5d5a5a5d5a5a5d5a5a5d5a5a5d5a5a5d5a5a5d5a5a5d5a5a5d5a5a5d5a5a5d5a5a5d5a5a5d5a5a5d5a5a5d5a5a5d5a5a5d5a5a5d5a5a5d5a5a5d5a5a5d5a5a5d5a5a5d5a5a5d5a5a5d5a5a5d5a5a5d5a5a5d5a5a5d5a5a5d5a5a5d5a5a5d5a5a5d5a5a5d5a5a5d5a5a5d5a5a5d5a5a5d5a5a5d5a5a5d5a5a5d5a5a5d5a5a5d5a5a5d5a5a5d5a5a5d5a5a5d5a5a5d5a5a5d5a5a5d5a5a5d5a5a5d5a5a5d5a5a5d5a5a5d5a5a5d5a5a5d5a5a5d5a5a5d5a5a5d5a5a5d5a5a5d5a5a5d5a5a5d5a5a5d5a5a5d5a5a5d5a5a5d5a5a5d5a5a5d5a5a5d5a5a5d5a5a5d5a5a5d5a5a5d5a5a5d5a5a5d5a5a5d5a5a5d5a5a5d5a5a5d5a5a5d5a5a5d5a5a5d5a5a5d5a5a5d5a5a5d5a5a5d5a5a5d5a5a5d5a5a5d5a5a5d5a5a5d5a5a5d5a5a5d5a5a5d5a5a5d5a5a5d5a5a5d5a5a5d5a5a5d5a5a5d5a5a5d5a5a5d5a5a5d5a5a5d5a5a5d5a5a5d5a5a5d5a5a5d5a5a5d5a5a5d5a5a5d5a5a5d5a5a5d5a5a5d5a5a5d5a5a5d5a5a5d5a5a5d5a5a5d5a5a5d5a5a5d5a5a5d5a5a5d5a5a5d5a5a5d5a5a5d5a5a5d5a5a5d5a5a5d5a5a5d5a5a5d5a5a5d5a5a5d5a5a5d5a5a5d5a5a5d5a5a5d5a5a5d5a5a5d5a5a5d5a5a5d5a5a5d5a5a5d5a5a5d5a5a5d5a5a5d5a5a5d5a5a5d5a5a5d5a5a5d5a5a5d5a5a5d5a5a5d5a5a5d5a5a5d5a5a5d5a5a5d5a5a5d5a5a5d5a5a5d5a5a5d5a5a5d5a5a5d5a5a5d5a5a5d5a5a5d5a5a5d5a5a5d5a5a5d5a5a5d5a5a5d5a5a5d5a5a5d5a5a5d5a5a5d5a5a5d5a5a5d5a5a5d5a5a5d5a5a5d5a5a5d5a5a5d5a5a5d5a5a5d5a5a5d5a5a5d5a5a5d5a5a5d5a5a5d5a5a5d5a5a5d5a5a5d5a5a5d5a5a5d5a5a5d5a5a5d5a5a5d5a5a5d5a5a5d5a5a5d5a5a5d5a5a5d5a5a5d5a5a5d5a5a5d5a5a5d5a5a5d5a5a5d5a5a5d5a5a5d5a5a5d5a5a5d5a5a5d5a5a5d5a5a5d5a5a5d5a5a5d5a5a5d5a5a5d5a5a5d5a5a5d5a5a5d5a5a5d5a5a5d5a5a5d5a5a5d5a5a5d5a5a5d5a5a5d5a5a5d5a5a5d5a5a5d5a5a5d5a5a5d5a5a5d5a5a5d5a5a5d5a5a5d5a5a5d5a5a5d5a5a5d5a5a5d5a5a5d5a5a5d5a5a5d5a5a5d5a5a5d5a5a5d5a5a5d5a5a5d5a5a5d5a5a5d5a5a5d5a5a5d5a5a5d5a5a5d5a5a5d5a5a5d5a5a5d5a5a5d5a5a5d5a5a5d5a5a5d5a5a5d5a5a5d5a5a5d5a5a5d5a5a5d5a5a5d5a5a5d5a5a5d5a5a5d5a5a5d5a5a5d5a5a5d5a5a5d5a5a5d5a5a5d5a5a5d5a5a5d5a5a5d5a5a5d5a5a5d5a5a5d5a5a5d5a5a5d5a5a5d5a5a5d5a5a5d5a5a5d5a5a5d5a5a5d5a5a5d5a5a5d5a5a5d5a5a5d5a5a5d5a5a5d5a5a5d5a5a5d5a5a5d5a5a5d5a5a5d5a5a5d5a5a5d5a5a5d5a5a5d5a5a5d5a5a5d5a5a5d5a5a5d5a5a5d5a5a5d5a5a5d5a5a5d5a5a5d5a5a5d5a5a5d5a5a5d5a5a5d5a5a5d5a5a5d5a5a5d5a5a5d5a5a5d5a5a5d5a5a5d5a5a5d5a5a5d5a5a5d5a5a5d5a5a5d5a5a5d5a5a5d5a5a5d5a5a5d5a5a5d5a5a5d5a5a5d5a5a5d5a5a5d5a5a5d5a5a5d5a5a5d5a5a5d5a5a5d5a5a5d5a5a5d5a5a5d5a5a5d5a5a5d5a5a5d5a5a5d5a5a5d5a5a5d5a5a5d5a5a5d5a5a5d5a5a5d5a5a5d5a5a5d5a5a5d5a5a5d5a5a5d5a5a5d5a5a5d5a5a5d5a5a5d5a5a5d5a5a5d5a5a5d5a5a5d5a5a5d5a5a5d5a5a5d5a5a5d5a5a5d5a5a5d5a5a5d5a5a5d5a5a5d5a5a5d5a5a5d5a5a5d5a5a5d5a5a5d5a5a5d5a5a5d5a5a5d5a5a5d5a5a5d5a5a5d5a5a5d5a5a5d5a5a5d5a5a5d5a5a5d5a5a5d5a5a5d5a5a5d5a5a5d5a5a5d5a5a5d5a5a5d5a5a5d5a5a5d5a5a5d5a5a5d5a5a5d5a5a5d5a5a5d5a5a5d5a5a5d5a5a5d5a5a5d5a5a5d5a5a5d5a5a5d5a5a5d5a5a5d5a5a5d5a5a5d5a5a5d5a5a5d5a5a5d5a5a5d5a5a5d5a5a5d5a5a5d5a5a5d5a5a5d5a5a5d5a5a5d5a5a5d5a5a5d5a5a5d5a5a5d5a5a5d5a5a5d5a5a5d5a5a5d5a5a5d5a5a5d5a5a5d5a5a5d5a5a5d5a5a5d5a5a5d5a5a5d5a5a5d5a5a5d5a5a5d5a5a5d5a5a5d5a5a5d5a5a5d5a5a5d5a5a5d5a5a5d5a5a5d5a5a5d5a5a5d5a5a5d5a5a5d5a5a5d5a5a5d5a5a5d5a5a5d5a5a5d5a5a5d5a5a5d5a5a5d5a5a5d5a5a5d5a5a5d5a5a5d5a5a5d5a5a5d5a5a5d5a5a5d5a5a5d5a5a5d5a5a5d5a5a5d5a5a5d5a5a5d5a5a5d5a5a5d5a5a5d5a5a5d5a5a5d5a5a5d5a5a5d5a5a5d5a5a5d5a5a5d5a5a5d5a5a5d5a5a5d5a5a5d5a5a5d5a5a5d5a5a5d5a5a5d5a5a5d5a5a5d5a5a5d5a5a5d5a5a5d5a5a5d5a5a5d5a5a5d5a5a5d5a5a5d5a5a5d5a5a5d5a5a5d5a5a5d5a5a5d5a5a5d5a5a5d5a5a5d5a5a5d5a5a5d5a5a5d5a5a5d5a5a5d5a5a5d5a5a5d5a5a5d5a5a5d5a5a5d5a5a5d5a5a5d5a5a5d5a5a5d5a5a5d5a5a5d5a5a5d5a5a5d5a5a5d5a5a5d5a5a5d5a5a5d5a5a5d5a5a5d5a5a5d5a5a5d5a5a5d5a5a5d5a5a5d5a5a5d5a5a5d5a5a5d5a5a5d5a5a5d5a5a5d5a5a5d5a5a5d5a5a5d5a5a5d5a5a5d5a5a5d5a5a5d5a5a5d5a5a5d5a5a5d5a5a5d5a5a5d5a5a5d5a5a5d5a5a5d5a5a5d5a5a5d5a5a5d5a5a5d5a5a5d5a5a5d5a5a5d5a5a5d5a5a5d5a5a5d5a5a5d5a5a5d5a5a5d5a5a5d5a5a5d5a5a5d5a5a5d5a5a5d5a5a5d5a5a5d5a5a5d5a5a5d5a5a5d5a5a5d5a5a5d5a5a5d5a5a5d5a5a5d5a5a5d5a5a5d5a5a5d5a5a5d5a5a5d5a5a5d5a5a5d5a5a5d5a5a5d5a5a5d5a5a5d5a5a5d5a5a5d5a5a5d5a5a5d5a5a5d5a5a5d5a5a5d5a5a5d5a5a5d5a5a5d5a5a5d5a5a5d5a5a5d5a5a5d5a5a5d5a5a5d5a5a5d5a5a5d5a5a5d5a5a5d5a5a5d5a5a5d5a5a5d5a5a5d5a5a5d5a5a5d5a5a5d5a5a5d5a5a5d5a5a5d5a5a5d5a5a5d5a5a5d5a5a5d5a5a5d5a5a5d5a5a5d5a5a5d5a5a5d5a5a5d5a5a5d5a5a5d5a5a5d5a5a5d5a5a5d5a5a5d5a5a5d5a5a5d5a5a5d5a5a5d5a5a5d5a5a5d5a5a5d5a5a5d5a5a5d5a5a5d5a5a5d5a5a5d5a5a5d5a5a5d5a5a5d5a5a5d5a5a5d5a5a5d5a5a5d5a5a5d5a5a5d5a5a5d5a5a5d5a5a5d5a5a5d5a5a5d5a5a5d5a5a5d5a5a5d5a5a5d5a5a5d5a5a5d5a5a5d5a5a5d5a5a5d5a5a5d5a5a5d5a5a5d5a5a5d5a5a5d5a5a5d5a5a5d5a5a5d5a5a5d5a5a5d5a5a5d5a5a5d5a5a5d5a5a5d5a5a5d5a5a5d5a5a5d5a5a5d5a5a5d5a5a5d5a5a5d5a5a5d5a5a5d5a5a5d5a5a5d5a5a5d5a5a5d5a5a5d5a5a5d5a5a5d5a5a5d5a5a5d5a5a5d5a5a5d5a5a5d5a5a5d5a5a5d5a5a5d5a5a5d5a5a5d5a5a5d5a5a5d5a5a5d5a5a5d5a5a5d5a5a5d5a5a5d5a5a5d5a5a5d5a5a5d5a5a5d5a5a5d5a5a5d5a5a5d5a5a5d5a5a5d5a5a5d5a5a5d5a5a5d5f56",
                            "storage": {}
                        },
                        "0xa94f5374fce5edbc8e2a8697c15331677e6ebf0b": {
                            "nonce": "0x01",
                            "balance": "0x3635c9adc5ccbe5d00",
                            "code": "0x",
                            "storage": {}
                        },
                        "0x2adc25665018aa1fe0e6bc666dac8fc2697ff9ba": {
                            "nonce": "0x00",
                            "balance": "0x055d4a80",
                            "code": "0x",
                            "storage": {}
                        }
                    }
                }
            ]
        },
        "_info": {
            "hash": "0xffe58cc7f60139e9c40e159e662e42ed7906a78f187d1e5392e1d62c1c8051c2",
            "comment": "`execution-spec-tests` generated test",
            "filling-transition-tool": "ethereum-spec-evm-resolver 0.0.1",
            "description": "Test function documentation:\nUse TSTORE over and over to different keys until we run out of gas.",
            "url": "https://github.com/ethereum/execution-spec-tests/blob/8fbca341fb0f3eb3a08a296e8f8fa84f233f4faa/tests/cancun/eip1153_tstore/test_tstorage.py#L265",
            "fixture_format": "state_test",
            "reference-spec": "https://github.com/ethereum/EIPs/blob/master/EIPS/eip-1153.md",
            "reference-spec-version": "6f0be621c76a05a7b3aaf0e9297afd425c26e9d0"
        }
    },
    "tests/cancun/eip1153_tstore/test_tstorage.py::test_run_until_out_of_gas[fork_Cancun-state_test-tstore_wide_address_space]": {
        "env": {
            "currentCoinbase": "0x2adc25665018aa1fe0e6bc666dac8fc2697ff9ba",
            "currentGasLimit": "0x016345785d8a0000",
            "currentNumber": "0x01",
            "currentTimestamp": "0x03e8",
            "currentRandom": "0x0000000000000000000000000000000000000000000000000000000000000000",
            "currentDifficulty": "0x00",
            "currentBaseFee": "0x07",
            "currentExcessBlobGas": "0x00"
        },
        "pre": {
            "0x0000000000000000000000000000000000001000": {
                "nonce": "0x01",
                "balance": "0x00",
                "code": "0x5b5a5a6001581b015d5a5a6001581b015d5a5a6001581b015d5a5a6001581b015d5a5a6001581b015d5a5a6001581b015d5a5a6001581b015d5a5a6001581b015d5a5a6001581b015d5a5a6001581b015d5a5a6001581b015d5a5a6001581b015d5a5a6001581b015d5a5a6001581b015d5a5a6001581b015d5a5a6001581b015d5a5a6001581b015d5a5a6001581b015d5a5a6001581b015d5a5a6001581b015d5a5a6001581b015d5a5a6001581b015d5a5a6001581b015d5a5a6001581b015d5a5a6001581b015d5a5a6001581b015d5a5a6001581b015d5a5a6001581b015d5a5a6001581b015d5a5a6001581b015d5a5a6001581b015d5a5a6001581b015d5f56",
                "storage": {}
            },
            "0xa94f5374fce5edbc8e2a8697c15331677e6ebf0b": {
                "nonce": "0x00",
                "balance": "0x3635c9adc5dea00000",
                "code": "0x",
                "storage": {}
            }
        },
        "transaction": {
            "nonce": "0x00",
            "gasPrice": "0x0a",
            "gasLimit": [
                "0x01c9c380"
            ],
            "to": "0x0000000000000000000000000000000000001000",
            "value": [
                "0x00"
            ],
            "data": [
                "0x"
            ],
            "sender": "0xa94f5374fce5edbc8e2a8697c15331677e6ebf0b",
            "secretKey": "0x45a915e4d060149eb4365960e6a7a45f334393093061116b197e3240065ff2d8"
        },
        "post": {
            "Cancun": [
                {
                    "hash": "0x64366d09550d1ef1dca93c10b4a9569e10cef0b6e28f30efd6b4d1042ef3a48e",
                    "logs": "0x1dcc4de8dec75d7aab85b567b6ccd41ad312451b948a7413f0a142fd40d49347",
                    "txbytes": "0xf861800a8401c9c380940000000000000000000000000000000000001000808026a02e059facdd1c63f66b859b63db3d532a94eee43b1355ad8e3bda41d268936fffa02cc93f19011aa79b7490d07a2e5ebda3396a3f7ad48308da4876453c0c82eea3",
                    "indexes": {
                        "data": 0,
                        "gas": 0,
                        "value": 0
                    },
                    "state": {
                        "0x0000000000000000000000000000000000001000": {
                            "nonce": "0x01",
                            "balance": "0x00",
                            "code": "0x5b5a5a6001581b015d5a5a6001581b015d5a5a6001581b015d5a5a6001581b015d5a5a6001581b015d5a5a6001581b015d5a5a6001581b015d5a5a6001581b015d5a5a6001581b015d5a5a6001581b015d5a5a6001581b015d5a5a6001581b015d5a5a6001581b015d5a5a6001581b015d5a5a6001581b015d5a5a6001581b015d5a5a6001581b015d5a5a6001581b015d5a5a6001581b015d5a5a6001581b015d5a5a6001581b015d5a5a6001581b015d5a5a6001581b015d5a5a6001581b015d5a5a6001581b015d5a5a6001581b015d5a5a6001581b015d5a5a6001581b015d5a5a6001581b015d5a5a6001581b015d5a5a6001581b015d5a5a6001581b015d5f56",
                            "storage": {}
                        },
                        "0xa94f5374fce5edbc8e2a8697c15331677e6ebf0b": {
                            "nonce": "0x01",
                            "balance": "0x3635c9adc5ccbe5d00",
                            "code": "0x",
                            "storage": {}
                        },
                        "0x2adc25665018aa1fe0e6bc666dac8fc2697ff9ba": {
                            "nonce": "0x00",
                            "balance": "0x055d4a80",
                            "code": "0x",
                            "storage": {}
                        }
                    }
                }
            ]
        },
        "_info": {
            "hash": "0x8345193bcc36a20766ff217e656b7bad7051274aaf1a1a093a9673b3709555be",
            "comment": "`execution-spec-tests` generated test",
            "filling-transition-tool": "ethereum-spec-evm-resolver 0.0.1",
            "description": "Test function documentation:\nUse TSTORE over and over to different keys until we run out of gas.",
            "url": "https://github.com/ethereum/execution-spec-tests/blob/8fbca341fb0f3eb3a08a296e8f8fa84f233f4faa/tests/cancun/eip1153_tstore/test_tstorage.py#L265",
            "fixture_format": "state_test",
            "reference-spec": "https://github.com/ethereum/EIPs/blob/master/EIPS/eip-1153.md",
            "reference-spec-version": "6f0be621c76a05a7b3aaf0e9297afd425c26e9d0"
        }
    },
    "tests/cancun/eip1153_tstore/test_tstorage.py::test_run_until_out_of_gas[fork_Cancun-state_test-tstore_tload]": {
        "env": {
            "currentCoinbase": "0x2adc25665018aa1fe0e6bc666dac8fc2697ff9ba",
            "currentGasLimit": "0x016345785d8a0000",
            "currentNumber": "0x01",
            "currentTimestamp": "0x03e8",
            "currentRandom": "0x0000000000000000000000000000000000000000000000000000000000000000",
            "currentDifficulty": "0x00",
            "currentBaseFee": "0x07",
            "currentExcessBlobGas": "0x00"
        },
        "pre": {
            "0x0000000000000000000000000000000000001000": {
                "nonce": "0x01",
                "balance": "0x00",
                "code": "0x5b5a80805d5c505a80805d5c505a80805d5c505a80805d5c505a80805d5c505a80805d5c505a80805d5c505a80805d5c505a80805d5c505a80805d5c505a80805d5c505a80805d5c505a80805d5c505a80805d5c505a80805d5c505a80805d5c505a80805d5c505a80805d5c505a80805d5c505a80805d5c505a80805d5c505a80805d5c505a80805d5c505a80805d5c505a80805d5c505a80805d5c505a80805d5c505a80805d5c505a80805d5c505a80805d5c505a80805d5c505a80805d5c505a80805d5c505a80805d5c505a80805d5c505a80805d5c505a80805d5c505a80805d5c505a80805d5c505a80805d5c505a80805d5c505a80805d5c505a80805d5c505a80805d5c505a80805d5c505a80805d5c505a80805d5c505a80805d5c505a80805d5c505a80805d5c505a80805d5c505a80805d5c505a80805d5c505a80805d5c505a80805d5c505a80805d5c505a80805d5c505a80805d5c505a80805d5c505a80805d5c505a80805d5c505a80805d5c505a80805d5c505a80805d5c505a80805d5c505a80805d5c505a80805d5c505a80805d5c505a80805d5c505a80805d5c505a80805d5c505a80805d5c505a80805d5c505a80805d5c505a80805d5c505a80805d5c505a80805d5c505a80805d5c505a80805d5c505a80805d5c505a80805d5c505a80805d5c505a80805d5c505a80805d5c505a80805d5c505a80805d5c505a80805d5c505a80805d5c505a80805d5c505a80805d5c505a80805d5c505a80805d5c505a80805d5c505a80805d5c505a80805d5c505a80805d5c505a80805d5c505a80805d5c505a80805d5c505a80805d5c505a80805d5c505a80805d5c505a80805d5c505a80805d5c505a80805d5c505a80805d5c505a80805d5c505a80805d5c505a80805d5c505a80805d5c505a80805d5c505a80805d5c505a80805d5c505a80805d5c505a80805d5c505a80805d5c505a80805d5c505a80805d5c505a80805d5c505a80805d5c505a80805d5c505a80805d5c505a80805d5c505a80805d5c505a80805d5c505a80805d5c505a80805d5c505a80805d5c505a80805d5c505a80805d5c505a80805d5c505a80805d5c505a80805d5c505a80805d5c505a80805d5c505a80805d5c505a80805d5c505a80805d5c505a80805d5c505a80805d5c505a80805d5c505a80805d5c505a80805d5c505a80805d5c505a80805d5c505a80805d5c505a80805d5c505a80805d5c505a80805d5c505a80805d5c505a80805d5c505a80805d5c505a80805d5c505a80805d5c505a80805d5c505a80805d5c505a80805d5c505a80805d5c505a80805d5c505a80805d5c505a80805d5c505a80805d5c505a80805d5c505a80805d5c505a80805d5c505a80805d5c505a80805d5c505a80805d5c505a80805d5c505a80805d5c505a80805d5c505a80805d5c505a80805d5c505a80805d5c505a80805d5c505a80805d5c505a80805d5c505a80805d5c505a80805d5c505a80805d5c505a80805d5c505a80805d5c505a80805d5c505a80805d5c505a80805d5c505a80805d5c505a80805d5c505a80805d5c505a80805d5c505a80805d5c505a80805d5c505a80805d5c505a80805d5c505a80805d5c505a80805d5c505a80805d5c505a80805d5c505a80805d5c505a80805d5c505a80805d5c505a80805d5c505a80805d5c505a80805d5c505a80805d5c505a80805d5c505a80805d5c505a80805d5c505a80805d5c505a80805d5c505a80805d5c505a80805d5c505a80805d5c505a80805d5c505a80805d5c505a80805d5c505a80805d5c505a80805d5c505a80805d5c505a80805d5c505a80805d5c505a80805d5c505a80805d5c505a80805d5c505a80805d5c505a80805d5c505a80805d5c505a80805d5c505a80805d5c505a80805d5c505a80805d5c505a80805d5c505a80805d5c505a80805d5c505a80805d5c505a80805d5c505a80805d5c505a80805d5c505a80805d5c505a80805d5c505a80805d5c505a80805d5c505a80805d5c505a80805d5c505a80805d5c505a80805d5c505a80805d5c505a80805d5c505a80805d5c505a80805d5c505a80805d5c505a80805d5c505a80805d5c505a80805d5c505a80805d5c505a80805d5c505a80805d5c505a80805d5c505a80805d5c505a80805d5c505a80805d5c505a80805d5c505a80805d5c505a80805d5c505a80805d5c505a80805d5c505a80805d5c505a80805d5c505a80805d5c505a80805d5c505a80805d5c505a80805d5c505a80805d5c505a80805d5c505a80805d5c505a80805d5c505a80805d5c505a80805d5c505a80805d5c505a80805d5c505a80805d5c505a80805d5c505a80805d5c505a80805d5c505a80805d5c505a80805d5c505a80805d5c505a80805d5c505a80805d5c505a80805d5c505a80805d5c505a80805d5c505a80805d5c505a80805d5c505a80805d5c505a80805d5c505a80805d5c505a80805d5c505a80805d5c505a80805d5c505a80805d5c505a80805d5c505a80805d5c505a80805d5c505a80805d5c505a80805d5c505a80805d5c505a80805d5c505a80805d5c505a80805d5c505a80805d5c505a80805d5c505a80805d5c505a80805d5c505a80805d5c505a80805d5c505a80805d5c505a80805d5c505a80805d5c505a80805d5c505a80805d5c505a80805d5c505a80805d5c505a80805d5c505a80805d5c505a80805d5c505a80805d5c505a80805d5c505a80805d5c505a80805d5c505a80805d5c505a80805d5c505a80805d5c505a80805d5c505a80805d5c505a80805d5c505a80805d5c505a80805d5c505a80805d5c505a80805d5c505a80805d5c505a80805d5c505a80805d5c505a80805d5c505a80805d5c505a80805d5c505a80805d5c505a80805d5c505a80805d5c505a80805d5c505a80805d5c505a80805d5c505a80805d5c505a80805d5c505a80805d5c505a80805d5c505a80805d5c505a80805d5c505a80805d5c505a80805d5c505a80805d5c505a80805d5c505a80805d5c505a80805d5c505a80805d5c505a80805d5c505a80805d5c505a80805d5c505a80805d5c505a80805d5c505a80805d5c505a80805d5c505a80805d5c505a80805d5c505a80805d5c505a80805d5c505a80805d5c505a80805d5c505a80805d5c505a80805d5c505a80805d5c505a80805d5c505a80805d5c505a80805d5c505a80805d5c505a80805d5c505a80805d5c505a80805d5c505a80805d5c505a80805d5c505a80805d5c505a80805d5c505a80805d5c505a80805d5c505a80805d5c505a80805d5c505a80805d5c505a80805d5c505a80805d5c505a80805d5c505a80805d5c505a80805d5c505a80805d5c505a80805d5c505a80805d5c505a80805d5c505a80805d5c505a80805d5c505a80805d5c505a80805d5c505a80805d5c505a80805d5c505a80805d5c505a80805d5c505a80805d5c505a80805d5c505a80805d5c505a80805d5c505a80805d5c505a80805d5c505a80805d5c505a80805d5c505a80805d5c505a80805d5c505a80805d5c505a80805d5c505a80805d5c505a80805d5c505a80805d5c505a80805d5c505a80805d5c505a80805d5c505a80805d5c505a80805d5c505a80805d5c505a80805d5c505a80805d5c505a80805d5c505a80805d5c505a80805d5c505a80805d5c505a80805d5c505a80805d5c505a80805d5c505a80805d5c505a80805d5c505a80805d5c505a80805d5c505a80805d5c505a80805d5c505a80805d5c505a80805d5c505a80805d5c505a80805d5c505a80805d5c505a80805d5c505a80805d5c505a80805d5c505a80805d5c505a80805d5c505a80805d5c505a80805d5c505a80805d5c505a80805d5c505a80805d5c505a80805d5c505a80805d5c505a80805d5c505a80805d5c505a80805d5c505a80805d5c505a80805d5c505a80805d5c505a80805d5c505a80805d5c505a80805d5c505a80805d5c505a80805d5c505a80805d5c505a80805d5c505a80805d5c505a80805d5c505a80805d5c505a80805d5c505a80805d5c505a80805d5c505a80805d5c505a80805d5c505a80805d5c505a80805d5c505a80805d5c505a80805d5c505a80805d5c505a80805d5c505a80805d5c505a80805d5c505a80805d5c505a80805d5c505a80805d5c505a80805d5c505a80805d5c505a80805d5c505a80805d5c505a80805d5c505a80805d5c505a80805d5c505a80805d5c505a80805d5c505a80805d5c505a80805d5c505a80805d5c505a80805d5c505a80805d5c505a80805d5c505a80805d5c505a80805d5c505a80805d5c505a80805d5c505a80805d5c505a80805d5c505a80805d5c505a80805d5c505a80805d5c505a80805d5c505a80805d5c505a80805d5c505a80805d5c505a80805d5c505a80805d5c505a80805d5c505a80805d5c505a80805d5c505a80805d5c505a80805d5c505a80805d5c505a80805d5c505a80805d5c505a80805d5c505a80805d5c505a80805d5c505a80805d5c505a80805d5c505a80805d5c505a80805d5c505a80805d5c505a80805d5c505a80805d5c505a80805d5c505a80805d5c505a80805d5c505a80805d5c505a80805d5c505a80805d5c505a80805d5c505a80805d5c505a80805d5c505a80805d5c505a80805d5c505a80805d5c505a80805d5c505a80805d5c505a80805d5c505a80805d5c505a80805d5c505a80805d5c505a80805d5c505a80805d5c505a80805d5c505a80805d5c505a80805d5c505a80805d5c505a80805d5c505a80805d5c505a80805d5c505a80805d5c505a80805d5c505a80805d5c505a80805d5c505a80805d5c505a80805d5c505a80805d5c505a80805d5c505a80805d5c505a80805d5c505a80805d5c505a80805d5c505a80805d5c505a80805d5c505a80805d5c505a80805d5c505a80805d5c505a80805d5c505a80805d5c505a80805d5c505a80805d5c505a80805d5c505a80805d5c505a80805d5c505a80805d5c505a80805d5c505a80805d5c505a80805d5c505a80805d5c505a80805d5c505a80805d5c505a80805d5c505a80805d5c505a80805d5c505a80805d5c505a80805d5c505a80805d5c505a80805d5c505a80805d5c505a80805d5c505a80805d5c505a80805d5c505a80805d5c505a80805d5c505a80805d5c505a80805d5c505a80805d5c505a80805d5c505a80805d5c505a80805d5c505a80805d5c505a80805d5c505a80805d5c505a80805d5c505a80805d5c505a80805d5c505a80805d5c505a80805d5c505a80805d5c505a80805d5c505a80805d5c505a80805d5c505a80805d5c505a80805d5c505a80805d5c505a80805d5c505a80805d5c505a80805d5c505a80805d5c505a80805d5c505a80805d5c505a80805d5c505a80805d5c505a80805d5c505a80805d5c505a80805d5c505a80805d5c505a80805d5c505a80805d5c505a80805d5c505a80805d5c505a80805d5c505a80805d5c505a80805d5c505a80805d5c505a80805d5c505a80805d5c505a80805d5c505a80805d5c505a80805d5c505a80805d5c505a80805d5c505a80805d5c505a80805d5c505a80805d5c505a80805d5c505a80805d5c505a80805d5c505a80805d5c505a80805d5c505a80805d5c505a80805d5c505a80805d5c505a80805d5c505a80805d5c505a80805d5c505a80805d5c505a80805d5c505a80805d5c505a80805d5c505a80805d5c505a80805d5c505a80805d5c505a80805d5c505a80805d5c505a80805d5c505a80805d5c505a80805d5c505a80805d5c505a80805d5c505a80805d5c505a80805d5c505a80805d5c505a80805d5c505a80805d5c505a80805d5c505a80805d5c505a80805d5c505a80805d5c505a80805d5c505a80805d5c505a80805d5c505a80805d5c505a80805d5c505a80805d5c505a80805d5c505a80805d5c505a80805d5c505a80805d5c505a80805d5c505a80805d5c505a80805d5c505a80805d5c505a80805d5c505a80805d5c505a80805d5c505a80805d5c505a80805d5c505a80805d5c505a80805d5c505a80805d5c505a80805d5c505a80805d5c505a80805d5c505a80805d5c505a80805d5c505a80805d5c505a80805d5c505a80805d5c505a80805d5c505a80805d5c505a80805d5c505a80805d5c505a80805d5c505a80805d5c505a80805d5c505a80805d5c505a80805d5c505a80805d5c505a80805d5c505a80805d5c505a80805d5c505a80805d5c505a80805d5c505a80805d5c505a80805d5c505a80805d5c505a80805d5c505a80805d5c505a80805d5c505a80805d5c505a80805d5c505a80805d5c505a80805d5c505a80805d5c505a80805d5c505a80805d5c505a80805d5c505a80805d5c505a80805d5c505a80805d5c505a80805d5c505a80805d5c505a80805d5c505a80805d5c505a80805d5c505a80805d5c505a80805d5c505a80805d5c505a80805d5c505a80805d5c505a80805d5c505a80805d5c505a80805d5c505a80805d5c505a80805d5c505a80805d5c505a80805d5c505a80805d5c505a80805d5c505a80805d5c505a80805d5c505a80805d5c505a80805d5c505a80805d5c505a80805d5c505a80805d5c505a80805d5c505a80805d5c505a80805d5c505a80805d5c505a80805d5c505a80805d5c505a80805d5c505a80805d5c505a80805d5c505a80805d5c505a80805d5c505a80805d5c505a80805d5c505a80805d5c505a80805d5c505a80805d5c505a80805d5c505a80805d5c505a80805d5c505a80805d5c505a80805d5c505a80805d5c505a80805d5c505a80805d5c505a80805d5c505a80805d5c505a80805d5c505a80805d5c505a80805d5c505a80805d5c505a80805d5c505a80805d5c505a80805d5c505a80805d5c505a80805d5c505a80805d5c505a80805d5c505a80805d5c505a80805d5c505a80805d5c505a80805d5c505a80805d5c505a80805d5c505a80805d5c505a80805d5c505a80805d5c505a80805d5c505a80805d5c505a80805d5c505a80805d5c505a80805d5c505a80805d5c505a80805d5c505a80805d5c505a80805d5c505a80805d5c505a80805d5c505a80805d5c505a80805d5c505a80805d5c505a80805d5c505a80805d5c505a80805d5c505a80805d5c505a80805d5c505a80805d5c505a80805d5c505a80805d5c505a80805d5c505a80805d5c505a80805d5c505a80805d5c505a80805d5c505a80805d5c505a80805d5c505a80805d5c505a80805d5c505a80805d5c505a80805d5c505a80805d5c505a80805d5c505a80805d5c505a80805d5c505a80805d5c505a80805d5c505a80805d5c505a80805d5c505a80805d5c505a80805d5c505a80805d5c505a80805d5c505a80805d5c505a80805d5c505a80805d5c505a80805d5c505a80805d5c505a80805d5c505a80805d5c505a80805d5c505a80805d5c505a80805d5c505a80805d5c505a80805d5c505a80805d5c505a80805d5c505a80805d5c505a80805d5c505a80805d5c505a80805d5c505a80805d5c505a80805d5c505a80805d5c505a80805d5c505a80805d5c505a80805d5c505a80805d5c505a80805d5c505a80805d5c505a80805d5c505a80805d5c505a80805d5c505a80805d5c505a80805d5c505a80805d5c505a80805d5c505a80805d5c505a80805d5c505a80805d5c505a80805d5c505a80805d5c505a80805d5c505a80805d5c505a80805d5c505a80805d5c505a80805d5c505a80805d5c505a80805d5c505a80805d5c505a80805d5c505a80805d5c505a80805d5c505a80805d5c505a80805d5c505a80805d5c505a80805d5c505a80805d5c505a80805d5c505a80805d5c505a80805d5c505a80805d5c505a80805d5c505a80805d5c505a80805d5c505a80805d5c505a80805d5c505a80805d5c505a80805d5c505a80805d5c505a80805d5c505a80805d5c505a80805d5c505a80805d5c505a80805d5c505a80805d5c505a80805d5c505a80805d5c505a80805d5c505a80805d5c505a80805d5c505a80805d5c505a80805d5c505a80805d5c505a80805d5c505a80805d5c505a80805d5c505a80805d5c505a80805d5c505a80805d5c505a80805d5c505a80805d5c505a80805d5c505a80805d5c505a80805d5c505a80805d5c505a80805d5c505a80805d5c505a80805d5c505a80805d5c505a80805d5c505a80805d5c505a80805d5c505a80805d5c505a80805d5c505a80805d5c505a80805d5c505a80805d5c505a80805d5c505a80805d5c505a80805d5c505a80805d5c505a80805d5c505a80805d5c505a80805d5c505a80805d5c505a80805d5c505a80805d5c505a80805d5c505a80805d5c505a80805d5c505a80805d5c505f56",
                "storage": {}
            },
            "0xa94f5374fce5edbc8e2a8697c15331677e6ebf0b": {
                "nonce": "0x00",
                "balance": "0x3635c9adc5dea00000",
                "code": "0x",
                "storage": {}
            }
        },
        "transaction": {
            "nonce": "0x00",
            "gasPrice": "0x0a",
            "gasLimit": [
                "0x01c9c380"
            ],
            "to": "0x0000000000000000000000000000000000001000",
            "value": [
                "0x00"
            ],
            "data": [
                "0x"
            ],
            "sender": "0xa94f5374fce5edbc8e2a8697c15331677e6ebf0b",
            "secretKey": "0x45a915e4d060149eb4365960e6a7a45f334393093061116b197e3240065ff2d8"
        },
        "post": {
            "Cancun": [
                {
                    "hash": "0x653eda9cc346a4c7d44292a1b57ba20de3b2733d0fc0866a235ef950b7fb09fd",
                    "logs": "0x1dcc4de8dec75d7aab85b567b6ccd41ad312451b948a7413f0a142fd40d49347",
                    "txbytes": "0xf861800a8401c9c380940000000000000000000000000000000000001000808026a02e059facdd1c63f66b859b63db3d532a94eee43b1355ad8e3bda41d268936fffa02cc93f19011aa79b7490d07a2e5ebda3396a3f7ad48308da4876453c0c82eea3",
                    "indexes": {
                        "data": 0,
                        "gas": 0,
                        "value": 0
                    },
                    "state": {
                        "0x0000000000000000000000000000000000001000": {
                            "nonce": "0x01",
                            "balance": "0x00",
                            "code": "0x5b5a80805d5c505a80805d5c505a80805d5c505a80805d5c505a80805d5c505a80805d5c505a80805d5c505a80805d5c505a80805d5c505a80805d5c505a80805d5c505a80805d5c505a80805d5c505a80805d5c505a80805d5c505a80805d5c505a80805d5c505a80805d5c505a80805d5c505a80805d5c505a80805d5c505a80805d5c505a80805d5c505a80805d5c505a80805d5c505a80805d5c505a80805d5c505a80805d5c505a80805d5c505a80805d5c505a80805d5c505a80805d5c505a80805d5c505a80805d5c505a80805d5c505a80805d5c505a80805d5c505a80805d5c505a80805d5c505a80805d5c505a80805d5c505a80805d5c505a80805d5c505a80805d5c505a80805d5c505a80805d5c505a80805d5c505a80805d5c505a80805d5c505a80805d5c505a80805d5c505a80805d5c505a80805d5c505a80805d5c505a80805d5c505a80805d5c505a80805d5c505a80805d5c505a80805d5c505a80805d5c505a80805d5c505a80805d5c505a80805d5c505a80805d5c505a80805d5c505a80805d5c505a80805d5c505a80805d5c505a80805d5c505a80805d5c505a80805d5c505a80805d5c505a80805d5c505a80805d5c505a80805d5c505a80805d5c505a80805d5c505a80805d5c505a80805d5c505a80805d5c505a80805d5c505a80805d5c505a80805d5c505a80805d5c505a80805d5c505a80805d5c505a80805d5c505a80805d5c505a80805d5c505a80805d5c505a80805d5c505a80805d5c505a80805d5c505a80805d5c505a80805d5c505a80805d5c505a80805d5c505a80805d5c505a80805d5c505a80805d5c505a80805d5c505a80805d5c505a80805d5c505a80805d5c505a80805d5c505a80805d5c505a80805d5c505a80805d5c505a80805d5c505a80805d5c505a80805d5c505a80805d5c505a80805d5c505a80805d5c505a80805d5c505a80805d5c505a80805d5c505a80805d5c505a80805d5c505a80805d5c505a80805d5c505a80805d5c505a80805d5c505a80805d5c505a80805d5c505a80805d5c505a80805d5c505a80805d5c505a80805d5c505a80805d5c505a80805d5c505a80805d5c505a80805d5c505a80805d5c505a80805d5c505a80805d5c505a80805d5c505a80805d5c505a80805d5c505a80805d5c505a80805d5c505a80805d5c505a80805d5c505a80805d5c505a80805d5c505a80805d5c505a80805d5c505a80805d5c505a80805d5c505a80805d5c505a80805d5c505a80805d5c505a80805d5c505a80805d5c505a80805d5c505a80805d5c505a80805d5c505a80805d5c505a80805d5c505a80805d5c505a80805d5c505a80805d5c505a80805d5c505a80805d5c505a80805d5c505a80805d5c505a80805d5c505a80805d5c505a80805d5c505a80805d5c505a80805d5c505a80805d5c505a80805d5c505a80805d5c505a80805d5c505a80805d5c505a80805d5c505a80805d5c505a80805d5c505a80805d5c505a80805d5c505a80805d5c505a80805d5c505a80805d5c505a80805d5c505a80805d5c505a80805d5c505a80805d5c505a80805d5c505a80805d5c505a80805d5c505a80805d5c505a80805d5c505a80805d5c505a80805d5c505a80805d5c505a80805d5c505a80805d5c505a80805d5c505a80805d5c505a80805d5c505a80805d5c505a80805d5c505a80805d5c505a80805d5c505a80805d5c505a80805d5c505a80805d5c505a80805d5c505a80805d5c505a80805d5c505a80805d5c505a80805d5c505a80805d5c505a80805d5c505a80805d5c505a80805d5c505a80805d5c505a80805d5c505a80805d5c505a80805d5c505a80805d5c505a80805d5c505a80805d5c505a80805d5c505a80805d5c505a80805d5c505a80805d5c505a80805d5c505a80805d5c505a80805d5c505a80805d5c505a80805d5c505a80805d5c505a80805d5c505a80805d5c505a80805d5c505a80805d5c505a80805d5c505a80805d5c505a80805d5c505a80805d5c505a80805d5c505a80805d5c505a80805d5c505a80805d5c505a80805d5c505a80805d5c505a80805d5c505a80805d5c505a80805d5c505a80805d5c505a80805d5c505a80805d5c505a80805d5c505a80805d5c505a80805d5c505a80805d5c505a80805d5c505a80805d5c505a80805d5c505a80805d5c505a80805d5c505a80805d5c505a80805d5c505a80805d5c505a80805d5c505a80805d5c505a80805d5c505a80805d5c505a80805d5c505a80805d5c505a80805d5c505a80805d5c505a80805d5c505a80805d5c505a80805d5c505a80805d5c505a80805d5c505a80805d5c505a80805d5c505a80805d5c505a80805d5c505a80805d5c505a80805d5c505a80805d5c505a80805d5c505a80805d5c505a80805d5c505a80805d5c505a80805d5c505a80805d5c505a80805d5c505a80805d5c505a80805d5c505a80805d5c505a80805d5c505a80805d5c505a80805d5c505a80805d5c505a80805d5c505a80805d5c505a80805d5c505a80805d5c505a80805d5c505a80805d5c505a80805d5c505a80805d5c505a80805d5c505a80805d5c505a80805d5c505a80805d5c505a80805d5c505a80805d5c505a80805d5c505a80805d5c505a80805d5c505a80805d5c505a80805d5c505a80805d5c505a80805d5c505a80805d5c505a80805d5c505a80805d5c505a80805d5c505a80805d5c505a80805d5c505a80805d5c505a80805d5c505a80805d5c505a80805d5c505a80805d5c505a80805d5c505a80805d5c505a80805d5c505a80805d5c505a80805d5c505a80805d5c505a80805d5c505a80805d5c505a80805d5c505a80805d5c505a80805d5c505a80805d5c505a80805d5c505a80805d5c505a80805d5c505a80805d5c505a80805d5c505a80805d5c505a80805d5c505a80805d5c505a80805d5c505a80805d5c505a80805d5c505a80805d5c505a80805d5c505a80805d5c505a80805d5c505a80805d5c505a80805d5c505a80805d5c505a80805d5c505a80805d5c505a80805d5c505a80805d5c505a80805d5c505a80805d5c505a80805d5c505a80805d5c505a80805d5c505a80805d5c505a80805d5c505a80805d5c505a80805d5c505a80805d5c505a80805d5c505a80805d5c505a80805d5c505a80805d5c505a80805d5c505a80805d5c505a80805d5c505a80805d5c505a80805d5c505a80805d5c505a80805d5c505a80805d5c505a80805d5c505a80805d5c505a80805d5c505a80805d5c505a80805d5c505a80805d5c505a80805d5c505a80805d5c505a80805d5c505a80805d5c505a80805d5c505a80805d5c505a80805d5c505a80805d5c505a80805d5c505a80805d5c505a80805d5c505a80805d5c505a80805d5c505a80805d5c505a80805d5c505a80805d5c505a80805d5c505a80805d5c505a80805d5c505a80805d5c505a80805d5c505a80805d5c505a80805d5c505a80805d5c505a80805d5c505a80805d5c505a80805d5c505a80805d5c505a80805d5c505a80805d5c505a80805d5c505a80805d5c505a80805d5c505a80805d5c505a80805d5c505a80805d5c505a80805d5c505a80805d5c505a80805d5c505a80805d5c505a80805d5c505a80805d5c505a80805d5c505a80805d5c505a80805d5c505a80805d5c505a80805d5c505a80805d5c505a80805d5c505a80805d5c505a80805d5c505a80805d5c505a80805d5c505a80805d5c505a80805d5c505a80805d5c505a80805d5c505a80805d5c505a80805d5c505a80805d5c505a80805d5c505a80805d5c505a80805d5c505a80805d5c505a80805d5c505a80805d5c505a80805d5c505a80805d5c505a80805d5c505a80805d5c505a80805d5c505a80805d5c505a80805d5c505a80805d5c505a80805d5c505a80805d5c505a80805d5c505a80805d5c505a80805d5c505a80805d5c505a80805d5c505a80805d5c505a80805d5c505a80805d5c505a80805d5c505a80805d5c505a80805d5c505a80805d5c505a80805d5c505a80805d5c505a80805d5c505a80805d5c505a80805d5c505a80805d5c505a80805d5c505a80805d5c505a80805d5c505a80805d5c505a80805d5c505a80805d5c505a80805d5c505a80805d5c505a80805d5c505a80805d5c505a80805d5c505a80805d5c505a80805d5c505a80805d5c505a80805d5c505a80805d5c505a80805d5c505a80805d5c505a80805d5c505a80805d5c505a80805d5c505a80805d5c505a80805d5c505a80805d5c505a80805d5c505a80805d5c505a80805d5c505a80805d5c505a80805d5c505a80805d5c505a80805d5c505a80805d5c505a80805d5c505a80805d5c505a80805d5c505a80805d5c505a80805d5c505a80805d5c505a80805d5c505a80805d5c505a80805d5c505a80805d5c505a80805d5c505a80805d5c505a80805d5c505a80805d5c505a80805d5c505a80805d5c505a80805d5c505a80805d5c505a80805d5c505a80805d5c505a80805d5c505a80805d5c505a80805d5c505a80805d5c505a80805d5c505a80805d5c505a80805d5c505a80805d5c505a80805d5c505a80805d5c505a80805d5c505a80805d5c505a80805d5c505a80805d5c505a80805d5c505a80805d5c505a80805d5c505a80805d5c505a80805d5c505a80805d5c505a80805d5c505a80805d5c505a80805d5c505a80805d5c505a80805d5c505a80805d5c505a80805d5c505a80805d5c505a80805d5c505a80805d5c505a80805d5c505a80805d5c505a80805d5c505a80805d5c505a80805d5c505a80805d5c505a80805d5c505a80805d5c505a80805d5c505a80805d5c505a80805d5c505a80805d5c505a80805d5c505a80805d5c505a80805d5c505a80805d5c505a80805d5c505a80805d5c505a80805d5c505a80805d5c505a80805d5c505a80805d5c505a80805d5c505a80805d5c505a80805d5c505a80805d5c505a80805d5c505a80805d5c505a80805d5c505a80805d5c505a80805d5c505a80805d5c505a80805d5c505a80805d5c505a80805d5c505a80805d5c505a80805d5c505a80805d5c505a80805d5c505a80805d5c505a80805d5c505a80805d5c505a80805d5c505a80805d5c505a80805d5c505a80805d5c505a80805d5c505a80805d5c505a80805d5c505a80805d5c505a80805d5c505a80805d5c505a80805d5c505a80805d5c505a80805d5c505a80805d5c505a80805d5c505a80805d5c505a80805d5c505a80805d5c505a80805d5c505a80805d5c505a80805d5c505a80805d5c505a80805d5c505a80805d5c505a80805d5c505a80805d5c505a80805d5c505a80805d5c505a80805d5c505a80805d5c505a80805d5c505a80805d5c505a80805d5c505a80805d5c505a80805d5c505a80805d5c505a80805d5c505a80805d5c505a80805d5c505a80805d5c505a80805d5c505a80805d5c505a80805d5c505a80805d5c505a80805d5c505a80805d5c505a80805d5c505a80805d5c505a80805d5c505a80805d5c505a80805d5c505a80805d5c505a80805d5c505a80805d5c505a80805d5c505a80805d5c505a80805d5c505a80805d5c505a80805d5c505a80805d5c505a80805d5c505a80805d5c505a80805d5c505a80805d5c505a80805d5c505a80805d5c505a80805d5c505a80805d5c505a80805d5c505a80805d5c505a80805d5c505a80805d5c505a80805d5c505a80805d5c505a80805d5c505a80805d5c505a80805d5c505a80805d5c505a80805d5c505a80805d5c505a80805d5c505a80805d5c505a80805d5c505a80805d5c505a80805d5c505a80805d5c505a80805d5c505a80805d5c505a80805d5c505a80805d5c505a80805d5c505a80805d5c505a80805d5c505a80805d5c505a80805d5c505a80805d5c505a80805d5c505a80805d5c505a80805d5c505a80805d5c505a80805d5c505a80805d5c505a80805d5c505a80805d5c505a80805d5c505a80805d5c505a80805d5c505a80805d5c505a80805d5c505a80805d5c505a80805d5c505a80805d5c505a80805d5c505a80805d5c505a80805d5c505a80805d5c505a80805d5c505a80805d5c505a80805d5c505a80805d5c505a80805d5c505a80805d5c505a80805d5c505a80805d5c505a80805d5c505a80805d5c505a80805d5c505a80805d5c505a80805d5c505a80805d5c505a80805d5c505a80805d5c505a80805d5c505a80805d5c505a80805d5c505a80805d5c505a80805d5c505a80805d5c505a80805d5c505a80805d5c505a80805d5c505a80805d5c505a80805d5c505a80805d5c505a80805d5c505a80805d5c505a80805d5c505a80805d5c505a80805d5c505a80805d5c505a80805d5c505a80805d5c505a80805d5c505a80805d5c505a80805d5c505a80805d5c505a80805d5c505a80805d5c505a80805d5c505a80805d5c505a80805d5c505a80805d5c505a80805d5c505a80805d5c505a80805d5c505a80805d5c505a80805d5c505a80805d5c505a80805d5c505a80805d5c505a80805d5c505a80805d5c505a80805d5c505a80805d5c505a80805d5c505a80805d5c505a80805d5c505a80805d5c505a80805d5c505a80805d5c505a80805d5c505a80805d5c505a80805d5c505a80805d5c505a80805d5c505a80805d5c505a80805d5c505a80805d5c505a80805d5c505a80805d5c505a80805d5c505a80805d5c505a80805d5c505a80805d5c505a80805d5c505a80805d5c505a80805d5c505a80805d5c505a80805d5c505a80805d5c505a80805d5c505a80805d5c505a80805d5c505a80805d5c505a80805d5c505a80805d5c505a80805d5c505a80805d5c505a80805d5c505a80805d5c505a80805d5c505a80805d5c505a80805d5c505a80805d5c505a80805d5c505a80805d5c505a80805d5c505a80805d5c505a80805d5c505a80805d5c505a80805d5c505a80805d5c505a80805d5c505a80805d5c505a80805d5c505a80805d5c505a80805d5c505a80805d5c505a80805d5c505a80805d5c505a80805d5c505a80805d5c505a80805d5c505a80805d5c505a80805d5c505a80805d5c505a80805d5c505a80805d5c505a80805d5c505a80805d5c505a80805d5c505a80805d5c505a80805d5c505a80805d5c505a80805d5c505a80805d5c505a80805d5c505a80805d5c505a80805d5c505a80805d5c505a80805d5c505a80805d5c505a80805d5c505a80805d5c505a80805d5c505a80805d5c505a80805d5c505a80805d5c505a80805d5c505a80805d5c505a80805d5c505a80805d5c505a80805d5c505a80805d5c505a80805d5c505a80805d5c505a80805d5c505a80805d5c505a80805d5c505a80805d5c505a80805d5c505a80805d5c505a80805d5c505a80805d5c505a80805d5c505a80805d5c505a80805d5c505a80805d5c505a80805d5c505a80805d5c505a80805d5c505a80805d5c505a80805d5c505a80805d5c505a80805d5c505a80805d5c505a80805d5c505a80805d5c505a80805d5c505a80805d5c505a80805d5c505a80805d5c505a80805d5c505a80805d5c505a80805d5c505a80805d5c505a80805d5c505a80805d5c505a80805d5c505a80805d5c505a80805d5c505a80805d5c505a80805d5c505a80805d5c505a80805d5c505a80805d5c505a80805d5c505a80805d5c505a80805d5c505a80805d5c505a80805d5c505a80805d5c505a80805d5c505a80805d5c505a80805d5c505a80805d5c505a80805d5c505a80805d5c505a80805d5c505a80805d5c505a80805d5c505a80805d5c505a80805d5c505a80805d5c505a80805d5c505a80805d5c505a80805d5c505a80805d5c505a80805d5c505a80805d5c505a80805d5c505a80805d5c505a80805d5c505a80805d5c505a80805d5c505a80805d5c505a80805d5c505a80805d5c505a80805d5c505a80805d5c505a80805d5c505a80805d5c505a80805d5c505a80805d5c505a80805d5c505a80805d5c505a80805d5c505a80805d5c505a80805d5c505a80805d5c505a80805d5c505a80805d5c505a80805d5c505a80805d5c505a80805d5c505a80805d5c505a80805d5c505a80805d5c505a80805d5c505a80805d5c505a80805d5c505a80805d5c505a80805d5c505a80805d5c505a80805d5c505a80805d5c505a80805d5c505a80805d5c505a80805d5c505a80805d5c505a80805d5c505a80805d5c505a80805d5c505a80805d5c505a80805d5c505a80805d5c505a80805d5c505a80805d5c505a80805d5c505a80805d5c505a80805d5c505a80805d5c505a80805d5c505a80805d5c505a80805d5c505a80805d5c505a80805d5c505a80805d5c505f56",
                            "storage": {}
                        },
                        "0xa94f5374fce5edbc8e2a8697c15331677e6ebf0b": {
                            "nonce": "0x01",
                            "balance": "0x3635c9adc5ccbe5d00",
                            "code": "0x",
                            "storage": {}
                        },
                        "0x2adc25665018aa1fe0e6bc666dac8fc2697ff9ba": {
                            "nonce": "0x00",
                            "balance": "0x055d4a80",
                            "code": "0x",
                            "storage": {}
                        }
                    }
                }
            ]
        },
        "_info": {
            "hash": "0xe8eaca6a3707182d57f012d77a376b76b0067b15aaf1a2b3e9ab66430dc4becd",
            "comment": "`execution-spec-tests` generated test",
            "filling-transition-tool": "ethereum-spec-evm-resolver 0.0.1",
            "description": "Test function documentation:\nUse TSTORE over and over to different keys until we run out of gas.",
            "url": "https://github.com/ethereum/execution-spec-tests/blob/8fbca341fb0f3eb3a08a296e8f8fa84f233f4faa/tests/cancun/eip1153_tstore/test_tstorage.py#L265",
            "fixture_format": "state_test",
            "reference-spec": "https://github.com/ethereum/EIPs/blob/master/EIPS/eip-1153.md",
            "reference-spec-version": "6f0be621c76a05a7b3aaf0e9297afd425c26e9d0"
        }
    }
}