{
    "tests/cancun/eip1153_tstore/test_tstorage.py::test_tload_after_sstore[fork_Prague-state_test]": {
        "env": {
            "currentCoinbase": "0x2adc25665018aa1fe0e6bc666dac8fc2697ff9ba",
            "currentGasLimit": "0x016345785d8a0000",
            "currentNumber": "0x01",
            "currentTimestamp": "0x03e8",
            "currentRandom": "0x0000000000000000000000000000000000000000000000000000000000000000",
            "currentDifficulty": "0x00",
            "currentBaseFee": "0x07",
            "currentExcessBlobGas": "0x00"
        },
        "pre": {
            "0x0000000000000000000000000000000000001000": {
                "nonce": "0x01",
                "balance": "0x00",
                "code": "0x60ff60005560005c60015560ff60025560025c60035560ff6fffffffffffffffffffffffffffffffff556fffffffffffffffffffffffffffffffff5c7001000000000000000000000000000000005560ff7ffffffffffffffffffffffffffffffffffffffffffffffffffffffffffffffffe557ffffffffffffffffffffffffffffffffffffffffffffffffffffffffffffffffe5c7fffffffffffffffffffffffffffffffffffffffffffffffffffffffffffffffff55",
                "storage": {
                    "0x01": "0x01",
                    "0x03": "0x01",
                    "0x0100000000000000000000000000000000": "0x01",
                    "0xffffffffffffffffffffffffffffffffffffffffffffffffffffffffffffffff": "0x01"
                }
            },
            "0xa94f5374fce5edbc8e2a8697c15331677e6ebf0b": {
                "nonce": "0x00",
                "balance": "0x3635c9adc5dea00000",
                "code": "0x",
                "storage": {}
            }
        },
        "transaction": {
            "nonce": "0x00",
            "gasPrice": "0x0a",
            "gasLimit": [
                "0x0f4240"
            ],
            "to": "0x0000000000000000000000000000000000001000",
            "value": [
                "0x00"
            ],
            "data": [
                "0x"
            ],
            "sender": "0xa94f5374fce5edbc8e2a8697c15331677e6ebf0b",
            "secretKey": "0x45a915e4d060149eb4365960e6a7a45f334393093061116b197e3240065ff2d8"
        },
        "post": {
            "Prague": [
                {
                    "hash": "0xb0a368628be50c078d1a91a3acb5dd56933f6c5b9d12153dd22217cd606384d5",
                    "logs": "0x1dcc4de8dec75d7aab85b567b6ccd41ad312451b948a7413f0a142fd40d49347",
                    "txbytes": "0xf860800a830f4240940000000000000000000000000000000000001000808026a07b0cbd2d85800843e73b1a917828915aaaf49021e4c7896ecc4fcc460e070cf5a071bda31b1d867df266f75bd3fb2efd3ac4aef1b574d092593346940024f69c9a",
                    "indexes": {
                        "data": 0,
                        "gas": 0,
                        "value": 0
                    },
                    "state": {
                        "0x0000000000000000000000000000000000001000": {
                            "nonce": "0x01",
                            "balance": "0x00",
                            "code": "0x60ff60005560005c60015560ff60025560025c60035560ff6fffffffffffffffffffffffffffffffff556fffffffffffffffffffffffffffffffff5c7001000000000000000000000000000000005560ff7ffffffffffffffffffffffffffffffffffffffffffffffffffffffffffffffffe557ffffffffffffffffffffffffffffffffffffffffffffffffffffffffffffffffe5c7fffffffffffffffffffffffffffffffffffffffffffffffffffffffffffffffff55",
                            "storage": {
                                "0x00": "0xff",
                                "0x02": "0xff",
                                "0xffffffffffffffffffffffffffffffff": "0xff",
                                "0xfffffffffffffffffffffffffffffffffffffffffffffffffffffffffffffffe": "0xff"
                            }
                        },
                        "0xa94f5374fce5edbc8e2a8697c15331677e6ebf0b": {
                            "nonce": "0x01",
                            "balance": "0x3635c9adc5de8f1dd0",
                            "code": "0x",
                            "storage": {}
                        },
                        "0x2adc25665018aa1fe0e6bc666dac8fc2697ff9ba": {
                            "nonce": "0x00",
                            "balance": "0x0510a8",
                            "code": "0x",
                            "storage": {}
                        }
                    }
                }
            ]
        },
        "config": {
            "blobSchedule": {
                "Cancun": {
                    "target": "0x03",
                    "max": "0x06",
                    "baseFeeUpdateFraction": "0x32f0ed"
                },
                "Prague": {
                    "target": "0x06",
                    "max": "0x09",
                    "baseFeeUpdateFraction": "0x4c6964"
                }
            },
            "chainid": "0x01"
        },
        "_info": {
            "hash": "0x0d1ec5f05d8a1f85e773d9b2ba0ecb1d1fa8dade8c810d01068ff4856ea01c9d",
            "comment": "`execution-spec-tests` generated test",
            "filling-transition-tool": "ethereum-spec-evm-resolver 0.0.5",
            "description": "Test function documentation:\n\n    Loading after storing returns the stored value: TSTORE(x, y), TLOAD(x)\n    returns y.\n\n    Based on [ethereum/tests/.../18_tloadAfterStoreFiller.yml](https://github.com/ethereum/tests/blob/9b00b68593f5869eb51a6659e1cc983e875e616b/src/EIPTestsFiller/StateTests/stEIP1153-transientStorage/18_tloadAfterStoreFiller.yml)\",",
            "url": "https://github.com/ethereum/execution-spec-tests/blob/2c4d277d2fb7d97333c089b0718ac8d26a95d523/tests/cancun/eip1153_tstore/test_tstorage.py#L101",
            "fixture_format": "state_test",
            "reference-spec": "https://github.com/ethereum/EIPs/blob/master/EIPS/eip-1153.md",
            "reference-spec-version": "6f0be621c76a05a7b3aaf0e9297afd425c26e9d0",
            "eels-resolution": {
                "git-url": "https://github.com/ethereum/execution-specs.git",
                "branch": "devnets/prague/6",
                "commit": "a25a8ab3a2989b15baac19eb327325e442342a60"
            }
        }
    }
}
