{
    "tests/cancun/eip1153_tstore/test_tstorage.py::test_transient_storage_unset_values[fork_Cancun-state_test]": {
        "env": {
            "currentCoinbase": "0x2adc25665018aa1fe0e6bc666dac8fc2697ff9ba",
            "currentGasLimit": "0x016345785d8a0000",
            "currentNumber": "0x01",
            "currentTimestamp": "0x03e8",
            "currentRandom": "0x0000000000000000000000000000000000000000000000000000000000000000",
            "currentDifficulty": "0x00",
            "currentBaseFee": "0x07",
            "currentExcessBlobGas": "0x00"
        },
        "pre": {
            "0x0000000000000000000000000000000000001000": {
                "nonce": "0x01",
                "balance": "0x00",
                "code": "0x60005c60005560015c60015560025c6002557001000000000000000000000000000000005c700100000000000000000000000000000000557fffffffffffffffffffffffffffffffffffffffffffffffffffffffffffffffff5c7fffffffffffffffffffffffffffffffffffffffffffffffffffffffffffffffff55",
                "storage": {
                    "0x00": "0x01",
                    "0x01": "0x01",
                    "0x02": "0x01",
                    "0x0100000000000000000000000000000000": "0x01",
                    "0xffffffffffffffffffffffffffffffffffffffffffffffffffffffffffffffff": "0x01"
                }
            },
            "0xa94f5374fce5edbc8e2a8697c15331677e6ebf0b": {
                "nonce": "0x00",
                "balance": "0x3635c9adc5dea00000",
                "code": "0x",
                "storage": {}
            }
        },
        "transaction": {
            "nonce": "0x00",
            "gasPrice": "0x0a",
            "gasLimit": [
                "0x0f4240"
            ],
            "to": "0x0000000000000000000000000000000000001000",
            "value": [
                "0x00"
            ],
            "data": [
                "0x"
            ],
            "sender": "0xa94f5374fce5edbc8e2a8697c15331677e6ebf0b",
            "secretKey": "0x45a915e4d060149eb4365960e6a7a45f334393093061116b197e3240065ff2d8"
        },
        "post": {
            "Cancun": [
                {
                    "hash": "0x279e3bf2d03c837e9a61ab1ca23bd938ec83dd5e29bcd171e7ee2b44bd95fd97",
                    "logs": "0x1dcc4de8dec75d7aab85b567b6ccd41ad312451b948a7413f0a142fd40d49347",
                    "txbytes": "0xf860800a830f4240940000000000000000000000000000000000001000808026a07b0cbd2d85800843e73b1a917828915aaaf49021e4c7896ecc4fcc460e070cf5a071bda31b1d867df266f75bd3fb2efd3ac4aef1b574d092593346940024f69c9a",
                    "indexes": {
                        "data": 0,
                        "gas": 0,
                        "value": 0
                    },
                    "state": {
                        "0x0000000000000000000000000000000000001000": {
                            "nonce": "0x01",
                            "balance": "0x00",
                            "code": "0x60005c60005560015c60015560025c6002557001000000000000000000000000000000005c700100000000000000000000000000000000557fffffffffffffffffffffffffffffffffffffffffffffffffffffffffffffffff5c7fffffffffffffffffffffffffffffffffffffffffffffffffffffffffffffffff55",
                            "storage": {}
                        },
                        "0xa94f5374fce5edbc8e2a8697c15331677e6ebf0b": {
                            "nonce": "0x01",
                            "balance": "0x3635c9adc5de9a51f0",
                            "code": "0x",
                            "storage": {}
                        },
                        "0x2adc25665018aa1fe0e6bc666dac8fc2697ff9ba": {
                            "nonce": "0x00",
                            "balance": "0x01b438",
                            "code": "0x",
                            "storage": {}
                        }
                    }
                }
            ]
        },
        "_info": {
            "hash": "0x7fd0ca028e8e58ff5bb7dc41ce2e8c74ba5845f471a7d5b5dbf8b0db3f3f2466",
            "comment": "`execution-spec-tests` generated test",
            "filling-transition-tool": "ethereum-spec-evm-resolver 0.0.1",
            "description": "Test function documentation:\n\n    Test that tload returns zero for unset values. Loading an arbitrary value is\n    0 at beginning of transaction: TLOAD(x) is 0.\n\n    Based on [ethereum/tests/.../01_tloadBeginningTxnFiller.yml](https://github.com/ethereum/tests/blob/9b00b68593f5869eb51a6659e1cc983e875e616b/src/EIPTestsFiller/StateTests/stEIP1153-transientStorage/01_tloadBeginningTxnFiller.yml)\",",
            "url": "https://github.com/ethereum/execution-spec-tests/blob/8fbca341fb0f3eb3a08a296e8f8fa84f233f4faa/tests/cancun/eip1153_tstore/test_tstorage.py#L34",
            "fixture_format": "state_test",
            "reference-spec": "https://github.com/ethereum/EIPs/blob/master/EIPS/eip-1153.md",
            "reference-spec-version": "6f0be621c76a05a7b3aaf0e9297afd425c26e9d0"
        }
    }
}