{
    "tests/cancun/eip1153_tstore/test_tload_calls.py::test_tload_calls[fork_Cancun-state_test-call_type_CALL]": {
        "env": {
            "currentCoinbase": "0x2adc25665018aa1fe0e6bc666dac8fc2697ff9ba",
            "currentGasLimit": "0x016345785d8a0000",
            "currentNumber": "0x01",
            "currentTimestamp": "0x03e8",
            "currentRandom": "0x0000000000000000000000000000000000000000000000000000000000000000",
            "currentDifficulty": "0x00",
            "currentBaseFee": "0x07",
            "currentExcessBlobGas": "0x00"
        },
        "pre": {
            "0x0000000000000000000000000000000000001000": {
                "nonce": "0x01",
                "balance": "0x0de0b6b3a7640000",
                "code": "0x5b60005c600255601460005d60005c600355",
                "storage": {
                    "0x02": "0xff",
                    "0x03": "0xff"
                }
            },
            "0x0000000000000000000000000000000000001100": {
                "nonce": "0x01",
                "balance": "0x0de0b6b3a7640000",
                "code": "0x5b600a60005d600060006020600060006110005af160015560005c600055",
                "storage": {
                    "0x01": "0xff",
                    "0x00": "0xff"
                }
            },
            "0xa94f5374fce5edbc8e2a8697c15331677e6ebf0b": {
                "nonce": "0x00",
                "balance": "0x6124fee993bc0000",
                "code": "0x",
                "storage": {}
            }
        },
        "transaction": {
            "nonce": "0x00",
            "gasPrice": "0x0a",
            "gasLimit": [
                "0x4c4b40"
            ],
            "to": "0x0000000000000000000000000000000000001100",
            "value": [
                "0x00"
            ],
            "data": [
                "0x"
            ],
            "sender": "0xa94f5374fce5edbc8e2a8697c15331677e6ebf0b",
            "secretKey": "0x45a915e4d060149eb4365960e6a7a45f334393093061116b197e3240065ff2d8"
        },
        "post": {
            "Cancun": [
                {
                    "hash": "0xea83437d68c9b3ee82e25bd3643a0fccc01388e7f3f808c1e2a7f0c556f24e5d",
                    "logs": "0x1dcc4de8dec75d7aab85b567b6ccd41ad312451b948a7413f0a142fd40d49347",
                    "txbytes": "0xf860800a834c4b40940000000000000000000000000000000000001100808026a0bcf2fd7caa0e764b107b1bd87b8df4dff4aff50e6e50e16c74e0f5a3fca6a3efa00b54e10cb435246498842926bc4d5fc26ac752d0c21999bb7027da6c580425dd",
                    "indexes": {
                        "data": 0,
                        "gas": 0,
                        "value": 0
                    },
                    "state": {
                        "0x0000000000000000000000000000000000001000": {
                            "nonce": "0x01",
                            "balance": "0x0de0b6b3a7640000",
                            "code": "0x5b60005c600255601460005d60005c600355",
                            "storage": {
                                "0x03": "0x14"
                            }
                        },
                        "0x0000000000000000000000000000000000001100": {
                            "nonce": "0x01",
                            "balance": "0x0de0b6b3a7640000",
                            "code": "0x5b600a60005d600060006020600060006110005af160015560005c600055",
                            "storage": {
                                "0x01": "0x01",
                                "0x00": "0x0a"
                            }
                        },
                        "0xa94f5374fce5edbc8e2a8697c15331677e6ebf0b": {
                            "nonce": "0x01",
                            "balance": "0x6124fee993b5fe94",
                            "code": "0x",
                            "storage": {}
                        },
                        "0x2adc25665018aa1fe0e6bc666dac8fc2697ff9ba": {
                            "nonce": "0x00",
                            "balance": "0x01cd3a",
                            "code": "0x",
                            "storage": {}
                        }
                    }
                }
            ]
        },
        "_info": {
            "hash": "0x5e45d0ae6dece8fb87ffd9da6d4138bce5ec1823808abc3e2904d07c0b2f226e",
            "comment": "`execution-spec-tests` generated test",
            "filling-transition-tool": "ethereum-spec-evm-resolver 0.0.1",
            "description": "Test function documentation:\n\n    Ported .json vectors.\n\n    (04_tloadAfterCallFiller.yml)\n    Loading a slot after a call to another contract is 0.\n\n    (12_tloadDelegateCallFiller.yml)\n    delegatecall reads transient storage in the context of the current address",
            "url": "https://github.com/ethereum/execution-spec-tests/blob/8fbca341fb0f3eb3a08a296e8f8fa84f233f4faa/tests/cancun/eip1153_tstore/test_tload_calls.py#L16",
            "fixture_format": "state_test",
            "reference-spec": "https://github.com/ethereum/EIPs/blob/master/EIPS/eip-1153.md",
            "reference-spec-version": "2f8299df31bb8173618901a03a8366a3183479b0"
        }
    },
    "tests/cancun/eip1153_tstore/test_tload_calls.py::test_tload_calls[fork_Cancun-state_test-call_type_CALLCODE]": {
        "env": {
            "currentCoinbase": "0x2adc25665018aa1fe0e6bc666dac8fc2697ff9ba",
            "currentGasLimit": "0x016345785d8a0000",
            "currentNumber": "0x01",
            "currentTimestamp": "0x03e8",
            "currentRandom": "0x0000000000000000000000000000000000000000000000000000000000000000",
            "currentDifficulty": "0x00",
            "currentBaseFee": "0x07",
            "currentExcessBlobGas": "0x00"
        },
        "pre": {
            "0x0000000000000000000000000000000000001000": {
                "nonce": "0x01",
                "balance": "0x0de0b6b3a7640000",
                "code": "0x5b60005c600255601460005d60005c600355",
                "storage": {
                    "0x02": "0xff",
                    "0x03": "0xff"
                }
            },
            "0x0000000000000000000000000000000000001100": {
                "nonce": "0x01",
                "balance": "0x0de0b6b3a7640000",
                "code": "0x5b600a60005d600060006020600060006110005af260015560005c600055",
                "storage": {
                    "0x01": "0xff",
                    "0x00": "0xff"
                }
            },
            "0xa94f5374fce5edbc8e2a8697c15331677e6ebf0b": {
                "nonce": "0x00",
                "balance": "0x6124fee993bc0000",
                "code": "0x",
                "storage": {}
            }
        },
        "transaction": {
            "nonce": "0x00",
            "gasPrice": "0x0a",
            "gasLimit": [
                "0x4c4b40"
            ],
            "to": "0x0000000000000000000000000000000000001100",
            "value": [
                "0x00"
            ],
            "data": [
                "0x"
            ],
            "sender": "0xa94f5374fce5edbc8e2a8697c15331677e6ebf0b",
            "secretKey": "0x45a915e4d060149eb4365960e6a7a45f334393093061116b197e3240065ff2d8"
        },
        "post": {
            "Cancun": [
                {
                    "hash": "0xfa8e451244ebc1671c920ef75cc22e0ced7849d4f56e7f894f0d20aa5d5da093",
                    "logs": "0x1dcc4de8dec75d7aab85b567b6ccd41ad312451b948a7413f0a142fd40d49347",
                    "txbytes": "0xf860800a834c4b40940000000000000000000000000000000000001100808026a0bcf2fd7caa0e764b107b1bd87b8df4dff4aff50e6e50e16c74e0f5a3fca6a3efa00b54e10cb435246498842926bc4d5fc26ac752d0c21999bb7027da6c580425dd",
                    "indexes": {
                        "data": 0,
                        "gas": 0,
                        "value": 0
                    },
                    "state": {
                        "0x0000000000000000000000000000000000001000": {
                            "nonce": "0x01",
                            "balance": "0x0de0b6b3a7640000",
                            "code": "0x5b60005c600255601460005d60005c600355",
                            "storage": {
                                "0x02": "0xff",
                                "0x03": "0xff"
                            }
                        },
                        "0x0000000000000000000000000000000000001100": {
                            "nonce": "0x01",
                            "balance": "0x0de0b6b3a7640000",
                            "code": "0x5b600a60005d600060006020600060006110005af260015560005c600055",
                            "storage": {
                                "0x01": "0x01",
                                "0x00": "0x14",
                                "0x02": "0x0a",
                                "0x03": "0x14"
                            }
                        },
                        "0xa94f5374fce5edbc8e2a8697c15331677e6ebf0b": {
                            "nonce": "0x01",
                            "balance": "0x6124fee993b00b24",
                            "code": "0x",
                            "storage": {}
                        },
                        "0x2adc25665018aa1fe0e6bc666dac8fc2697ff9ba": {
                            "nonce": "0x00",
                            "balance": "0x039642",
                            "code": "0x",
                            "storage": {}
                        }
                    }
                }
            ]
        },
        "_info": {
            "hash": "0x16597c807eaf32128d0f47c90d0f77dc58a7cac298be0abf730bcc7c723894e4",
            "comment": "`execution-spec-tests` generated test",
            "filling-transition-tool": "ethereum-spec-evm-resolver 0.0.1",
            "description": "Test function documentation:\n\n    Ported .json vectors.\n\n    (04_tloadAfterCallFiller.yml)\n    Loading a slot after a call to another contract is 0.\n\n    (12_tloadDelegateCallFiller.yml)\n    delegatecall reads transient storage in the context of the current address",
            "url": "https://github.com/ethereum/execution-spec-tests/blob/8fbca341fb0f3eb3a08a296e8f8fa84f233f4faa/tests/cancun/eip1153_tstore/test_tload_calls.py#L16",
            "fixture_format": "state_test",
            "reference-spec": "https://github.com/ethereum/EIPs/blob/master/EIPS/eip-1153.md",
            "reference-spec-version": "2f8299df31bb8173618901a03a8366a3183479b0"
        }
    },
    "tests/cancun/eip1153_tstore/test_tload_calls.py::test_tload_calls[fork_Cancun-state_test-call_type_DELEGATECALL]": {
        "env": {
            "currentCoinbase": "0x2adc25665018aa1fe0e6bc666dac8fc2697ff9ba",
            "currentGasLimit": "0x016345785d8a0000",
            "currentNumber": "0x01",
            "currentTimestamp": "0x03e8",
            "currentRandom": "0x0000000000000000000000000000000000000000000000000000000000000000",
            "currentDifficulty": "0x00",
            "currentBaseFee": "0x07",
            "currentExcessBlobGas": "0x00"
        },
        "pre": {
            "0x0000000000000000000000000000000000001000": {
                "nonce": "0x01",
                "balance": "0x0de0b6b3a7640000",
                "code": "0x5b60005c600255601460005d60005c600355",
                "storage": {
                    "0x02": "0xff",
                    "0x03": "0xff"
                }
            },
            "0x0000000000000000000000000000000000001100": {
                "nonce": "0x01",
                "balance": "0x0de0b6b3a7640000",
                "code": "0x5b600a60005d60006000602060006110005af460015560005c600055",
                "storage": {
                    "0x01": "0xff",
                    "0x00": "0xff"
                }
            },
            "0xa94f5374fce5edbc8e2a8697c15331677e6ebf0b": {
                "nonce": "0x00",
                "balance": "0x6124fee993bc0000",
                "code": "0x",
                "storage": {}
            }
        },
        "transaction": {
            "nonce": "0x00",
            "gasPrice": "0x0a",
            "gasLimit": [
                "0x4c4b40"
            ],
            "to": "0x0000000000000000000000000000000000001100",
            "value": [
                "0x00"
            ],
            "data": [
                "0x"
            ],
            "sender": "0xa94f5374fce5edbc8e2a8697c15331677e6ebf0b",
            "secretKey": "0x45a915e4d060149eb4365960e6a7a45f334393093061116b197e3240065ff2d8"
        },
        "post": {
            "Cancun": [
                {
                    "hash": "0x204e73c0547b908d7e265ffe998a3ef7a85a533fdfa44801a0ebc88ba04acc8c",
                    "logs": "0x1dcc4de8dec75d7aab85b567b6ccd41ad312451b948a7413f0a142fd40d49347",
                    "txbytes": "0xf860800a834c4b40940000000000000000000000000000000000001100808026a0bcf2fd7caa0e764b107b1bd87b8df4dff4aff50e6e50e16c74e0f5a3fca6a3efa00b54e10cb435246498842926bc4d5fc26ac752d0c21999bb7027da6c580425dd",
                    "indexes": {
                        "data": 0,
                        "gas": 0,
                        "value": 0
                    },
                    "state": {
                        "0x0000000000000000000000000000000000001000": {
                            "nonce": "0x01",
                            "balance": "0x0de0b6b3a7640000",
                            "code": "0x5b60005c600255601460005d60005c600355",
                            "storage": {
                                "0x02": "0xff",
                                "0x03": "0xff"
                            }
                        },
                        "0x0000000000000000000000000000000000001100": {
                            "nonce": "0x01",
                            "balance": "0x0de0b6b3a7640000",
                            "code": "0x5b600a60005d60006000602060006110005af460015560005c600055",
                            "storage": {
                                "0x01": "0x01",
                                "0x00": "0x14",
                                "0x02": "0x0a",
                                "0x03": "0x14"
                            }
                        },
                        "0xa94f5374fce5edbc8e2a8697c15331677e6ebf0b": {
                            "nonce": "0x01",
                            "balance": "0x6124fee993b00b42",
                            "code": "0x",
                            "storage": {}
                        },
                        "0x2adc25665018aa1fe0e6bc666dac8fc2697ff9ba": {
                            "nonce": "0x00",
                            "balance": "0x039639",
                            "code": "0x",
                            "storage": {}
                        }
                    }
                }
            ]
        },
        "_info": {
            "hash": "0xd6f41c01f7a3abd05df553285d12d0c2e18b8f9d32f42e7e6e08b1416c2ab4ab",
            "comment": "`execution-spec-tests` generated test",
            "filling-transition-tool": "ethereum-spec-evm-resolver 0.0.1",
            "description": "Test function documentation:\n\n    Ported .json vectors.\n\n    (04_tloadAfterCallFiller.yml)\n    Loading a slot after a call to another contract is 0.\n\n    (12_tloadDelegateCallFiller.yml)\n    delegatecall reads transient storage in the context of the current address",
            "url": "https://github.com/ethereum/execution-spec-tests/blob/8fbca341fb0f3eb3a08a296e8f8fa84f233f4faa/tests/cancun/eip1153_tstore/test_tload_calls.py#L16",
            "fixture_format": "state_test",
            "reference-spec": "https://github.com/ethereum/EIPs/blob/master/EIPS/eip-1153.md",
            "reference-spec-version": "2f8299df31bb8173618901a03a8366a3183479b0"
        }
    }
}