{
    "tests/cancun/eip4844_blobs/test_blob_txs.py::test_blob_tx_attribute_value_opcode[fork_Prague-state_test-tx_gas_500000-tx_value_0-opcode_CALLVALUE]": {
        "env": {
            "currentCoinbase": "0x2adc25665018aa1fe0e6bc666dac8fc2697ff9ba",
            "currentGasLimit": "0x016345785d8a0000",
            "currentNumber": "0x01",
            "currentTimestamp": "0x03e8",
            "currentRandom": "0x0000000000000000000000000000000000000000000000000000000000000000",
            "currentDifficulty": "0x00",
            "currentBaseFee": "0x07",
            "currentExcessBlobGas": "0x080000"
        },
        "pre": {
            "0xa94f5374fce5edbc8e2a8697c15331677e6ebf0b": {
                "nonce": "0x00",
                "balance": "0x3767e0",
                "code": "0x",
                "storage": {}
            },
            "0x0000000000000000000000000000000000001000": {
                "nonce": "0x01",
                "balance": "0x00",
                "code": "0x34600055",
                "storage": {}
            }
        },
        "transaction": {
            "nonce": "0x00",
            "maxPriorityFeePerGas": "0x00",
            "maxFeePerGas": "0x07",
            "gasLimit": [
                "0x07a120"
            ],
            "to": "0x0000000000000000000000000000000000001000",
            "value": [
                "0x00"
            ],
            "data": [
                "0x"
            ],
            "accessLists": [
                []
            ],
            "maxFeePerBlobGas": "0x01",
            "blobVersionedHashes": [
                "0x0100000000000000000000000000000000000000000000000000000000000000"
            ],
            "sender": "0xa94f5374fce5edbc8e2a8697c15331677e6ebf0b",
            "secretKey": "0x45a915e4d060149eb4365960e6a7a45f334393093061116b197e3240065ff2d8"
        },
        "post": {
            "Prague": [
                {
                    "hash": "0x99a26e9fc65a195bec0d5cc3f0c22ffe0c4fe4a453a1c563434b2d45b32ac5c4",
                    "logs": "0x1dcc4de8dec75d7aab85b567b6ccd41ad312451b948a7413f0a142fd40d49347",
                    "txbytes": "0x03f886018080078307a1209400000000000000000000000000000000000010008080c001e1a0010000000000000000000000000000000000000000000000000000000000000001a0a125362f494ea7e41f2522b70ea370c7ef0549d350808f7f65dcc478f35ad59ea06ecde04f907292484cb1ffe1f0a7768a9da153c7cebe37f4de45d4a1cc5b9d4c",
                    "indexes": {
                        "data": 0,
                        "gas": 0,
                        "value": 0
                    },
                    "state": {
                        "0xa94f5374fce5edbc8e2a8697c15331677e6ebf0b": {
                            "nonce": "0x01",
                            "balance": "0x32ed5d",
                            "code": "0x",
                            "storage": {}
                        },
                        "0x0000000000000000000000000000000000001000": {
                            "nonce": "0x01",
                            "balance": "0x00",
                            "code": "0x34600055",
                            "storage": {}
                        }
                    }
                }
            ]
        },
        "config": {
            "blobSchedule": {
                "Cancun": {
                    "target": "0x03",
                    "max": "0x06",
                    "baseFeeUpdateFraction": "0x32f0ed"
                },
                "Prague": {
                    "target": "0x06",
                    "max": "0x09",
                    "baseFeeUpdateFraction": "0x4c6964"
                }
            },
            "chainid": "0x01"
        },
        "_info": {
            "hash": "0x2a9da609addbda26a4fcadcd000f5aa05010cefae058f2b9dc5260765fa12071",
            "comment": "`execution-spec-tests` generated test",
            "filling-transition-tool": "ethereum-spec-evm-resolver 0.0.5",
            "description": "Test function documentation:\nTest the VALUE opcode with different blob type transaction value amounts.",
            "url": "https://github.com/ethereum/execution-spec-tests/blob/2c4d277d2fb7d97333c089b0718ac8d26a95d523/tests/cancun/eip4844_blobs/test_blob_txs.py#L1143",
            "fixture_format": "state_test",
            "reference-spec": "https://github.com/ethereum/EIPs/blob/master/EIPS/eip-4844.md",
            "reference-spec-version": "de2e4a46ad93fc04e6fe3174dc6e90a3307bdb5f",
            "eels-resolution": {
                "git-url": "https://github.com/ethereum/execution-specs.git",
                "branch": "devnets/prague/6",
                "commit": "a25a8ab3a2989b15baac19eb327325e442342a60"
            }
        }
    },
    "tests/cancun/eip4844_blobs/test_blob_txs.py::test_blob_tx_attribute_value_opcode[fork_Prague-state_test-tx_gas_500000-tx_value_1-opcode_CALLVALUE]": {
        "env": {
            "currentCoinbase": "0x2adc25665018aa1fe0e6bc666dac8fc2697ff9ba",
            "currentGasLimit": "0x016345785d8a0000",
            "currentNumber": "0x01",
            "currentTimestamp": "0x03e8",
            "currentRandom": "0x0000000000000000000000000000000000000000000000000000000000000000",
            "currentDifficulty": "0x00",
            "currentBaseFee": "0x07",
            "currentExcessBlobGas": "0x080000"
        },
        "pre": {
            "0xa94f5374fce5edbc8e2a8697c15331677e6ebf0b": {
                "nonce": "0x00",
                "balance": "0x3767e1",
                "code": "0x",
                "storage": {}
            },
            "0x0000000000000000000000000000000000001000": {
                "nonce": "0x01",
                "balance": "0x00",
                "code": "0x34600055",
                "storage": {}
            }
        },
        "transaction": {
            "nonce": "0x00",
            "maxPriorityFeePerGas": "0x00",
            "maxFeePerGas": "0x07",
            "gasLimit": [
                "0x07a120"
            ],
            "to": "0x0000000000000000000000000000000000001000",
            "value": [
                "0x01"
            ],
            "data": [
                "0x"
            ],
            "accessLists": [
                []
            ],
            "maxFeePerBlobGas": "0x01",
            "blobVersionedHashes": [
                "0x0100000000000000000000000000000000000000000000000000000000000000"
            ],
            "sender": "0xa94f5374fce5edbc8e2a8697c15331677e6ebf0b",
            "secretKey": "0x45a915e4d060149eb4365960e6a7a45f334393093061116b197e3240065ff2d8"
        },
        "post": {
            "Prague": [
                {
                    "hash": "0xc1968a177a4c9d8906e373e8078f0607d671a39071a1ba3617b79407c3b68f64",
                    "logs": "0x1dcc4de8dec75d7aab85b567b6ccd41ad312451b948a7413f0a142fd40d49347",
                    "txbytes": "0x03f886018080078307a1209400000000000000000000000000000000000010000180c001e1a0010000000000000000000000000000000000000000000000000000000000000001a05d260164f6c88b0679ed6f202155cac9cb5172df71ea31f31e0167b726b6f117a04f08a2e56842fe684e36ef8a173d2f80dc98d98699ad1531a8ab09936b01d678",
                    "indexes": {
                        "data": 0,
                        "gas": 0,
                        "value": 0
                    },
                    "state": {
                        "0xa94f5374fce5edbc8e2a8697c15331677e6ebf0b": {
                            "nonce": "0x01",
                            "balance": "0x30cd39",
                            "code": "0x",
                            "storage": {}
                        },
                        "0x0000000000000000000000000000000000001000": {
                            "nonce": "0x01",
                            "balance": "0x01",
                            "code": "0x34600055",
                            "storage": {
                                "0x00": "0x01"
                            }
                        }
                    }
                }
            ]
        },
        "config": {
            "blobSchedule": {
                "Cancun": {
                    "target": "0x03",
                    "max": "0x06",
                    "baseFeeUpdateFraction": "0x32f0ed"
                },
                "Prague": {
                    "target": "0x06",
                    "max": "0x09",
                    "baseFeeUpdateFraction": "0x4c6964"
                }
            },
            "chainid": "0x01"
        },
        "_info": {
            "hash": "0x23d02159a3d6326d12f8cf310e40692fd646e39aa9137e841320f18139ce934b",
            "comment": "`execution-spec-tests` generated test",
            "filling-transition-tool": "ethereum-spec-evm-resolver 0.0.5",
            "description": "Test function documentation:\nTest the VALUE opcode with different blob type transaction value amounts.",
            "url": "https://github.com/ethereum/execution-spec-tests/blob/2c4d277d2fb7d97333c089b0718ac8d26a95d523/tests/cancun/eip4844_blobs/test_blob_txs.py#L1143",
            "fixture_format": "state_test",
            "reference-spec": "https://github.com/ethereum/EIPs/blob/master/EIPS/eip-4844.md",
            "reference-spec-version": "de2e4a46ad93fc04e6fe3174dc6e90a3307bdb5f",
            "eels-resolution": {
                "git-url": "https://github.com/ethereum/execution-specs.git",
                "branch": "devnets/prague/6",
                "commit": "a25a8ab3a2989b15baac19eb327325e442342a60"
            }
        }
    },
    "tests/cancun/eip4844_blobs/test_blob_txs.py::test_blob_tx_attribute_value_opcode[fork_Prague-state_test-tx_gas_500000-tx_value_1000000000000000000-opcode_CALLVALUE]": {
        "env": {
            "currentCoinbase": "0x2adc25665018aa1fe0e6bc666dac8fc2697ff9ba",
            "currentGasLimit": "0x016345785d8a0000",
            "currentNumber": "0x01",
            "currentTimestamp": "0x03e8",
            "currentRandom": "0x0000000000000000000000000000000000000000000000000000000000000000",
            "currentDifficulty": "0x00",
            "currentBaseFee": "0x07",
            "currentExcessBlobGas": "0x080000"
        },
        "pre": {
            "0xa94f5374fce5edbc8e2a8697c15331677e6ebf0b": {
                "nonce": "0x00",
                "balance": "0x0de0b6b3a79b67e0",
                "code": "0x",
                "storage": {}
            },
            "0x0000000000000000000000000000000000001000": {
                "nonce": "0x01",
                "balance": "0x00",
                "code": "0x34600055",
                "storage": {}
            }
        },
        "transaction": {
            "nonce": "0x00",
            "maxPriorityFeePerGas": "0x00",
            "maxFeePerGas": "0x07",
            "gasLimit": [
                "0x07a120"
            ],
            "to": "0x0000000000000000000000000000000000001000",
            "value": [
                "0x0de0b6b3a7640000"
            ],
            "data": [
                "0x"
            ],
            "accessLists": [
                []
            ],
            "maxFeePerBlobGas": "0x01",
            "blobVersionedHashes": [
                "0x0100000000000000000000000000000000000000000000000000000000000000"
            ],
            "sender": "0xa94f5374fce5edbc8e2a8697c15331677e6ebf0b",
            "secretKey": "0x45a915e4d060149eb4365960e6a7a45f334393093061116b197e3240065ff2d8"
        },
        "post": {
            "Prague": [
                {
                    "hash": "0x77c86c7b58c3169fb6f28c7779cf88c292cfa241c7a62f64c251814ed925e52b",
                    "logs": "0x1dcc4de8dec75d7aab85b567b6ccd41ad312451b948a7413f0a142fd40d49347",
                    "txbytes": "0x03f88e018080078307a120940000000000000000000000000000000000001000880de0b6b3a764000080c001e1a0010000000000000000000000000000000000000000000000000000000000000080a02545f7bc389d2dbc2e126e5a2c898d63143dd4dce9c7db657fe367bd315c1b6ba06e81d60603ec588ce1af29aa95245e867ed8af0d6acb743a38f19ad9db743a75",
                    "indexes": {
                        "data": 0,
                        "gas": 0,
                        "value": 0
                    },
                    "state": {
                        "0xa94f5374fce5edbc8e2a8697c15331677e6ebf0b": {
                            "nonce": "0x01",
                            "balance": "0x30cd39",
                            "code": "0x",
                            "storage": {}
                        },
                        "0x0000000000000000000000000000000000001000": {
                            "nonce": "0x01",
                            "balance": "0x0de0b6b3a7640000",
                            "code": "0x34600055",
                            "storage": {
                                "0x00": "0x0de0b6b3a7640000"
                            }
                        }
                    }
                }
            ]
        },
        "config": {
            "blobSchedule": {
                "Cancun": {
                    "target": "0x03",
                    "max": "0x06",
                    "baseFeeUpdateFraction": "0x32f0ed"
                },
                "Prague": {
                    "target": "0x06",
                    "max": "0x09",
                    "baseFeeUpdateFraction": "0x4c6964"
                }
            },
            "chainid": "0x01"
        },
        "_info": {
            "hash": "0xa81ae9c6b214ea1d741f597cfc63957b5f2ec3d30f8f2bbc5b46f91e951ffb31",
            "comment": "`execution-spec-tests` generated test",
            "filling-transition-tool": "ethereum-spec-evm-resolver 0.0.5",
            "description": "Test function documentation:\nTest the VALUE opcode with different blob type transaction value amounts.",
            "url": "https://github.com/ethereum/execution-spec-tests/blob/2c4d277d2fb7d97333c089b0718ac8d26a95d523/tests/cancun/eip4844_blobs/test_blob_txs.py#L1143",
            "fixture_format": "state_test",
            "reference-spec": "https://github.com/ethereum/EIPs/blob/master/EIPS/eip-4844.md",
            "reference-spec-version": "de2e4a46ad93fc04e6fe3174dc6e90a3307bdb5f",
            "eels-resolution": {
                "git-url": "https://github.com/ethereum/execution-specs.git",
                "branch": "devnets/prague/6",
                "commit": "a25a8ab3a2989b15baac19eb327325e442342a60"
            }
        }
    }
}
