{
    "tests/cancun/eip4844_blobs/test_blob_txs.py::test_blob_tx_attribute_calldata_opcodes[fork_Prague-state_test-tx_gas_500000-empty-opcode_CALLDATALOAD]": {
        "env": {
            "currentCoinbase": "0x2adc25665018aa1fe0e6bc666dac8fc2697ff9ba",
            "currentGasLimit": "0x016345785d8a0000",
            "currentNumber": "0x01",
            "currentTimestamp": "0x03e8",
            "currentRandom": "0x0000000000000000000000000000000000000000000000000000000000000000",
            "currentDifficulty": "0x00",
            "currentBaseFee": "0x07",
            "currentExcessBlobGas": "0x080000"
        },
        "pre": {
            "0xa94f5374fce5edbc8e2a8697c15331677e6ebf0b": {
                "nonce": "0x00",
                "balance": "0x3767e1",
                "code": "0x",
                "storage": {}
            },
            "0x0000000000000000000000000000000000001000": {
                "nonce": "0x01",
                "balance": "0x00",
                "code": "0x600035600055",
                "storage": {}
            }
        },
        "transaction": {
            "nonce": "0x00",
            "maxPriorityFeePerGas": "0x00",
            "maxFeePerGas": "0x07",
            "gasLimit": [
                "0x07a120"
            ],
            "to": "0x0000000000000000000000000000000000001000",
            "value": [
                "0x01"
            ],
            "data": [
                "0x"
            ],
            "accessLists": [
                []
            ],
            "maxFeePerBlobGas": "0x01",
            "blobVersionedHashes": [
                "0x0100000000000000000000000000000000000000000000000000000000000000"
            ],
            "sender": "0xa94f5374fce5edbc8e2a8697c15331677e6ebf0b",
            "secretKey": "0x45a915e4d060149eb4365960e6a7a45f334393093061116b197e3240065ff2d8"
        },
        "post": {
            "Prague": [
                {
                    "hash": "0x5e3e35e539074f04a3f2a8b22f7536e319103b38b12e5b46263d73a2f40cd1a0",
                    "logs": "0x1dcc4de8dec75d7aab85b567b6ccd41ad312451b948a7413f0a142fd40d49347",
                    "txbytes": "0x03f886018080078307a1209400000000000000000000000000000000000010000180c001e1a0010000000000000000000000000000000000000000000000000000000000000001a05d260164f6c88b0679ed6f202155cac9cb5172df71ea31f31e0167b726b6f117a04f08a2e56842fe684e36ef8a173d2f80dc98d98699ad1531a8ab09936b01d678",
                    "indexes": {
                        "data": 0,
                        "gas": 0,
                        "value": 0
                    },
                    "state": {
                        "0xa94f5374fce5edbc8e2a8697c15331677e6ebf0b": {
                            "nonce": "0x01",
                            "balance": "0x32ed41",
                            "code": "0x",
                            "storage": {}
                        },
                        "0x0000000000000000000000000000000000001000": {
                            "nonce": "0x01",
                            "balance": "0x01",
                            "code": "0x600035600055",
                            "storage": {}
                        }
                    }
                }
            ]
        },
        "_info": {
            "hash": "0xc6800a48ba1aa1c99a8877497a8df7770e68227067006d373a925aa191baa90a",
            "comment": "`execution-spec-tests` generated test",
            "filling-transition-tool": "ethereum-spec-evm-resolver 0.0.1",
            "description": "Test function documentation:\n\n    Test calldata related opcodes to verify their behavior is not affected by blobs.\n\n    - CALLDATALOAD\n    - CALLDATASIZE\n    - CALLDATACOPY",
            "url": "https://github.com/ethereum/execution-spec-tests/blob/4dafe6334e0e9dc8f1dd21d54fb38c4e2732331e/tests/cancun/eip4844_blobs/test_blob_txs.py#L1191",
            "fixture_format": "state_test",
            "reference-spec": "https://github.com/ethereum/EIPs/blob/master/EIPS/eip-4844.md",
            "reference-spec-version": "f0eb6a364aaf5ccb43516fa2c269a54fb881ecfd"
        }
    },
    "tests/cancun/eip4844_blobs/test_blob_txs.py::test_blob_tx_attribute_calldata_opcodes[fork_Prague-state_test-tx_gas_500000-empty-opcode_CALLDATASIZE]": {
        "env": {
            "currentCoinbase": "0x2adc25665018aa1fe0e6bc666dac8fc2697ff9ba",
            "currentGasLimit": "0x016345785d8a0000",
            "currentNumber": "0x01",
            "currentTimestamp": "0x03e8",
            "currentRandom": "0x0000000000000000000000000000000000000000000000000000000000000000",
            "currentDifficulty": "0x00",
            "currentBaseFee": "0x07",
            "currentExcessBlobGas": "0x080000"
        },
        "pre": {
            "0xa94f5374fce5edbc8e2a8697c15331677e6ebf0b": {
                "nonce": "0x00",
                "balance": "0x3767e1",
                "code": "0x",
                "storage": {}
            },
            "0x0000000000000000000000000000000000001000": {
                "nonce": "0x01",
                "balance": "0x00",
                "code": "0x36600055",
                "storage": {}
            }
        },
        "transaction": {
            "nonce": "0x00",
            "maxPriorityFeePerGas": "0x00",
            "maxFeePerGas": "0x07",
            "gasLimit": [
                "0x07a120"
            ],
            "to": "0x0000000000000000000000000000000000001000",
            "value": [
                "0x01"
            ],
            "data": [
                "0x"
            ],
            "accessLists": [
                []
            ],
            "maxFeePerBlobGas": "0x01",
            "blobVersionedHashes": [
                "0x0100000000000000000000000000000000000000000000000000000000000000"
            ],
            "sender": "0xa94f5374fce5edbc8e2a8697c15331677e6ebf0b",
            "secretKey": "0x45a915e4d060149eb4365960e6a7a45f334393093061116b197e3240065ff2d8"
        },
        "post": {
            "Prague": [
                {
                    "hash": "0x6887f2180da132659b43eb6985b37b5764976411711036705ea3e5d21ee5b47a",
                    "logs": "0x1dcc4de8dec75d7aab85b567b6ccd41ad312451b948a7413f0a142fd40d49347",
                    "txbytes": "0x03f886018080078307a1209400000000000000000000000000000000000010000180c001e1a0010000000000000000000000000000000000000000000000000000000000000001a05d260164f6c88b0679ed6f202155cac9cb5172df71ea31f31e0167b726b6f117a04f08a2e56842fe684e36ef8a173d2f80dc98d98699ad1531a8ab09936b01d678",
                    "indexes": {
                        "data": 0,
                        "gas": 0,
                        "value": 0
                    },
                    "state": {
                        "0xa94f5374fce5edbc8e2a8697c15331677e6ebf0b": {
                            "nonce": "0x01",
                            "balance": "0x32ed5d",
                            "code": "0x",
                            "storage": {}
                        },
                        "0x0000000000000000000000000000000000001000": {
                            "nonce": "0x01",
                            "balance": "0x01",
                            "code": "0x36600055",
                            "storage": {}
                        }
                    }
                }
            ]
        },
        "_info": {
            "hash": "0x72402f11adaea6d9926102a642c0fe1c8514ce3a4c5f96a28be17c6d99ad3e60",
            "comment": "`execution-spec-tests` generated test",
            "filling-transition-tool": "ethereum-spec-evm-resolver 0.0.1",
            "description": "Test function documentation:\n\n    Test calldata related opcodes to verify their behavior is not affected by blobs.\n\n    - CALLDATALOAD\n    - CALLDATASIZE\n    - CALLDATACOPY",
            "url": "https://github.com/ethereum/execution-spec-tests/blob/4dafe6334e0e9dc8f1dd21d54fb38c4e2732331e/tests/cancun/eip4844_blobs/test_blob_txs.py#L1191",
            "fixture_format": "state_test",
            "reference-spec": "https://github.com/ethereum/EIPs/blob/master/EIPS/eip-4844.md",
            "reference-spec-version": "f0eb6a364aaf5ccb43516fa2c269a54fb881ecfd"
        }
    },
    "tests/cancun/eip4844_blobs/test_blob_txs.py::test_blob_tx_attribute_calldata_opcodes[fork_Prague-state_test-tx_gas_500000-empty-opcode_CALLDATACOPY]": {
        "env": {
            "currentCoinbase": "0x2adc25665018aa1fe0e6bc666dac8fc2697ff9ba",
            "currentGasLimit": "0x016345785d8a0000",
            "currentNumber": "0x01",
            "currentTimestamp": "0x03e8",
            "currentRandom": "0x0000000000000000000000000000000000000000000000000000000000000000",
            "currentDifficulty": "0x00",
            "currentBaseFee": "0x07",
            "currentExcessBlobGas": "0x080000"
        },
        "pre": {
            "0xa94f5374fce5edbc8e2a8697c15331677e6ebf0b": {
                "nonce": "0x00",
                "balance": "0x3767e1",
                "code": "0x",
                "storage": {}
            },
            "0x0000000000000000000000000000000000001000": {
                "nonce": "0x01",
                "balance": "0x00",
                "code": "0x366000600037600051600055",
                "storage": {}
            }
        },
        "transaction": {
            "nonce": "0x00",
            "maxPriorityFeePerGas": "0x00",
            "maxFeePerGas": "0x07",
            "gasLimit": [
                "0x07a120"
            ],
            "to": "0x0000000000000000000000000000000000001000",
            "value": [
                "0x01"
            ],
            "data": [
                "0x"
            ],
            "accessLists": [
                []
            ],
            "maxFeePerBlobGas": "0x01",
            "blobVersionedHashes": [
                "0x0100000000000000000000000000000000000000000000000000000000000000"
            ],
            "sender": "0xa94f5374fce5edbc8e2a8697c15331677e6ebf0b",
            "secretKey": "0x45a915e4d060149eb4365960e6a7a45f334393093061116b197e3240065ff2d8"
        },
        "post": {
            "Prague": [
                {
                    "hash": "0x2ce59ee657e70175349652b8cb2c01f137cf0cef0b549b7fadb890bebd8c7311",
                    "logs": "0x1dcc4de8dec75d7aab85b567b6ccd41ad312451b948a7413f0a142fd40d49347",
                    "txbytes": "0x03f886018080078307a1209400000000000000000000000000000000000010000180c001e1a0010000000000000000000000000000000000000000000000000000000000000001a05d260164f6c88b0679ed6f202155cac9cb5172df71ea31f31e0167b726b6f117a04f08a2e56842fe684e36ef8a173d2f80dc98d98699ad1531a8ab09936b01d678",
                    "indexes": {
                        "data": 0,
                        "gas": 0,
                        "value": 0
                    },
                    "state": {
                        "0xa94f5374fce5edbc8e2a8697c15331677e6ebf0b": {
                            "nonce": "0x01",
                            "balance": "0x32ecdf",
                            "code": "0x",
                            "storage": {}
                        },
                        "0x0000000000000000000000000000000000001000": {
                            "nonce": "0x01",
                            "balance": "0x01",
                            "code": "0x366000600037600051600055",
                            "storage": {}
                        }
                    }
                }
            ]
        },
        "_info": {
            "hash": "0xa87f4f97f72914643a036bc150e548e0bce47b914fed7d2cab47e6ff74e38fc9",
            "comment": "`execution-spec-tests` generated test",
            "filling-transition-tool": "ethereum-spec-evm-resolver 0.0.1",
            "description": "Test function documentation:\n\n    Test calldata related opcodes to verify their behavior is not affected by blobs.\n\n    - CALLDATALOAD\n    - CALLDATASIZE\n    - CALLDATACOPY",
            "url": "https://github.com/ethereum/execution-spec-tests/blob/4dafe6334e0e9dc8f1dd21d54fb38c4e2732331e/tests/cancun/eip4844_blobs/test_blob_txs.py#L1191",
            "fixture_format": "state_test",
            "reference-spec": "https://github.com/ethereum/EIPs/blob/master/EIPS/eip-4844.md",
            "reference-spec-version": "f0eb6a364aaf5ccb43516fa2c269a54fb881ecfd"
        }
    },
    "tests/cancun/eip4844_blobs/test_blob_txs.py::test_blob_tx_attribute_calldata_opcodes[fork_Prague-state_test-tx_gas_500000-single_byte-opcode_CALLDATALOAD]": {
        "env": {
            "currentCoinbase": "0x2adc25665018aa1fe0e6bc666dac8fc2697ff9ba",
            "currentGasLimit": "0x016345785d8a0000",
            "currentNumber": "0x01",
            "currentTimestamp": "0x03e8",
            "currentRandom": "0x0000000000000000000000000000000000000000000000000000000000000000",
            "currentDifficulty": "0x00",
            "currentBaseFee": "0x07",
            "currentExcessBlobGas": "0x080000"
        },
        "pre": {
            "0xa94f5374fce5edbc8e2a8697c15331677e6ebf0b": {
                "nonce": "0x00",
                "balance": "0x3767e1",
                "code": "0x",
                "storage": {}
            },
            "0x0000000000000000000000000000000000001000": {
                "nonce": "0x01",
                "balance": "0x00",
                "code": "0x600035600055",
                "storage": {}
            }
        },
        "transaction": {
            "nonce": "0x00",
            "maxPriorityFeePerGas": "0x00",
            "maxFeePerGas": "0x07",
            "gasLimit": [
                "0x07a120"
            ],
            "to": "0x0000000000000000000000000000000000001000",
            "value": [
                "0x01"
            ],
            "data": [
                "0x01"
            ],
            "accessLists": [
                []
            ],
            "maxFeePerBlobGas": "0x01",
            "blobVersionedHashes": [
                "0x0100000000000000000000000000000000000000000000000000000000000000"
            ],
            "sender": "0xa94f5374fce5edbc8e2a8697c15331677e6ebf0b",
            "secretKey": "0x45a915e4d060149eb4365960e6a7a45f334393093061116b197e3240065ff2d8"
        },
        "post": {
            "Prague": [
                {
                    "hash": "0x7ea0bd747250e061f305823fdd7ac111bbbcdb0cb68eaec8b99b460a35b730ba",
                    "logs": "0x1dcc4de8dec75d7aab85b567b6ccd41ad312451b948a7413f0a142fd40d49347",
                    "txbytes": "0x03f886018080078307a1209400000000000000000000000000000000000010000101c001e1a0010000000000000000000000000000000000000000000000000000000000000080a0b5efe950af07d8edd2e1730aa6e1a00ee3824b9d8e4c1e1a71e3671486d5c484a04d6dd4f87023b7f65251fe42d233a17f5857e7bc9e6b08dfdbda1d62f9e78447",
                    "indexes": {
                        "data": 0,
                        "gas": 0,
                        "value": 0
                    },
                    "state": {
                        "0xa94f5374fce5edbc8e2a8697c15331677e6ebf0b": {
                            "nonce": "0x01",
                            "balance": "0x30ccad",
                            "code": "0x",
                            "storage": {}
                        },
                        "0x0000000000000000000000000000000000001000": {
                            "nonce": "0x01",
                            "balance": "0x01",
                            "code": "0x600035600055",
                            "storage": {
                                "0x00": "0x0100000000000000000000000000000000000000000000000000000000000000"
                            }
                        }
                    }
                }
            ]
        },
        "_info": {
            "hash": "0x11695b9747bf1c8fd8dd2c9018cd31aa3d3e8418001c8953f1d2d36b5f693ab5",
            "comment": "`execution-spec-tests` generated test",
            "filling-transition-tool": "ethereum-spec-evm-resolver 0.0.1",
            "description": "Test function documentation:\n\n    Test calldata related opcodes to verify their behavior is not affected by blobs.\n\n    - CALLDATALOAD\n    - CALLDATASIZE\n    - CALLDATACOPY",
            "url": "https://github.com/ethereum/execution-spec-tests/blob/4dafe6334e0e9dc8f1dd21d54fb38c4e2732331e/tests/cancun/eip4844_blobs/test_blob_txs.py#L1191",
            "fixture_format": "state_test",
            "reference-spec": "https://github.com/ethereum/EIPs/blob/master/EIPS/eip-4844.md",
            "reference-spec-version": "f0eb6a364aaf5ccb43516fa2c269a54fb881ecfd"
        }
    },
    "tests/cancun/eip4844_blobs/test_blob_txs.py::test_blob_tx_attribute_calldata_opcodes[fork_Prague-state_test-tx_gas_500000-single_byte-opcode_CALLDATASIZE]": {
        "env": {
            "currentCoinbase": "0x2adc25665018aa1fe0e6bc666dac8fc2697ff9ba",
            "currentGasLimit": "0x016345785d8a0000",
            "currentNumber": "0x01",
            "currentTimestamp": "0x03e8",
            "currentRandom": "0x0000000000000000000000000000000000000000000000000000000000000000",
            "currentDifficulty": "0x00",
            "currentBaseFee": "0x07",
            "currentExcessBlobGas": "0x080000"
        },
        "pre": {
            "0xa94f5374fce5edbc8e2a8697c15331677e6ebf0b": {
                "nonce": "0x00",
                "balance": "0x3767e1",
                "code": "0x",
                "storage": {}
            },
            "0x0000000000000000000000000000000000001000": {
                "nonce": "0x01",
                "balance": "0x00",
                "code": "0x36600055",
                "storage": {}
            }
        },
        "transaction": {
            "nonce": "0x00",
            "maxPriorityFeePerGas": "0x00",
            "maxFeePerGas": "0x07",
            "gasLimit": [
                "0x07a120"
            ],
            "to": "0x0000000000000000000000000000000000001000",
            "value": [
                "0x01"
            ],
            "data": [
                "0x01"
            ],
            "accessLists": [
                []
            ],
            "maxFeePerBlobGas": "0x01",
            "blobVersionedHashes": [
                "0x0100000000000000000000000000000000000000000000000000000000000000"
            ],
            "sender": "0xa94f5374fce5edbc8e2a8697c15331677e6ebf0b",
            "secretKey": "0x45a915e4d060149eb4365960e6a7a45f334393093061116b197e3240065ff2d8"
        },
        "post": {
            "Prague": [
                {
                    "hash": "0x0c8597f26db77706193ec1fe7f4594a0b705f424a7bf514f5bd048727c506e1c",
                    "logs": "0x1dcc4de8dec75d7aab85b567b6ccd41ad312451b948a7413f0a142fd40d49347",
                    "txbytes": "0x03f886018080078307a1209400000000000000000000000000000000000010000101c001e1a0010000000000000000000000000000000000000000000000000000000000000080a0b5efe950af07d8edd2e1730aa6e1a00ee3824b9d8e4c1e1a71e3671486d5c484a04d6dd4f87023b7f65251fe42d233a17f5857e7bc9e6b08dfdbda1d62f9e78447",
                    "indexes": {
                        "data": 0,
                        "gas": 0,
                        "value": 0
                    },
                    "state": {
                        "0xa94f5374fce5edbc8e2a8697c15331677e6ebf0b": {
                            "nonce": "0x01",
                            "balance": "0x30ccc9",
                            "code": "0x",
                            "storage": {}
                        },
                        "0x0000000000000000000000000000000000001000": {
                            "nonce": "0x01",
                            "balance": "0x01",
                            "code": "0x36600055",
                            "storage": {
                                "0x00": "0x01"
                            }
                        }
                    }
                }
            ]
        },
        "_info": {
            "hash": "0xdb0f057486bf6d8b3e72d4da5931f74b116bb5cf1131d671718ceabce9295f1f",
            "comment": "`execution-spec-tests` generated test",
            "filling-transition-tool": "ethereum-spec-evm-resolver 0.0.1",
            "description": "Test function documentation:\n\n    Test calldata related opcodes to verify their behavior is not affected by blobs.\n\n    - CALLDATALOAD\n    - CALLDATASIZE\n    - CALLDATACOPY",
            "url": "https://github.com/ethereum/execution-spec-tests/blob/4dafe6334e0e9dc8f1dd21d54fb38c4e2732331e/tests/cancun/eip4844_blobs/test_blob_txs.py#L1191",
            "fixture_format": "state_test",
            "reference-spec": "https://github.com/ethereum/EIPs/blob/master/EIPS/eip-4844.md",
            "reference-spec-version": "f0eb6a364aaf5ccb43516fa2c269a54fb881ecfd"
        }
    },
    "tests/cancun/eip4844_blobs/test_blob_txs.py::test_blob_tx_attribute_calldata_opcodes[fork_Prague-state_test-tx_gas_500000-single_byte-opcode_CALLDATACOPY]": {
        "env": {
            "currentCoinbase": "0x2adc25665018aa1fe0e6bc666dac8fc2697ff9ba",
            "currentGasLimit": "0x016345785d8a0000",
            "currentNumber": "0x01",
            "currentTimestamp": "0x03e8",
            "currentRandom": "0x0000000000000000000000000000000000000000000000000000000000000000",
            "currentDifficulty": "0x00",
            "currentBaseFee": "0x07",
            "currentExcessBlobGas": "0x080000"
        },
        "pre": {
            "0xa94f5374fce5edbc8e2a8697c15331677e6ebf0b": {
                "nonce": "0x00",
                "balance": "0x3767e1",
                "code": "0x",
                "storage": {}
            },
            "0x0000000000000000000000000000000000001000": {
                "nonce": "0x01",
                "balance": "0x00",
                "code": "0x366000600037600051600055",
                "storage": {}
            }
        },
        "transaction": {
            "nonce": "0x00",
            "maxPriorityFeePerGas": "0x00",
            "maxFeePerGas": "0x07",
            "gasLimit": [
                "0x07a120"
            ],
            "to": "0x0000000000000000000000000000000000001000",
            "value": [
                "0x01"
            ],
            "data": [
                "0x01"
            ],
            "accessLists": [
                []
            ],
            "maxFeePerBlobGas": "0x01",
            "blobVersionedHashes": [
                "0x0100000000000000000000000000000000000000000000000000000000000000"
            ],
            "sender": "0xa94f5374fce5edbc8e2a8697c15331677e6ebf0b",
            "secretKey": "0x45a915e4d060149eb4365960e6a7a45f334393093061116b197e3240065ff2d8"
        },
        "post": {
            "Prague": [
                {
                    "hash": "0xd02da9c2dc31ce9b1bb753d72c6f8157093a18ba51c9b95b505104611f6bd645",
                    "logs": "0x1dcc4de8dec75d7aab85b567b6ccd41ad312451b948a7413f0a142fd40d49347",
                    "txbytes": "0x03f886018080078307a1209400000000000000000000000000000000000010000101c001e1a0010000000000000000000000000000000000000000000000000000000000000080a0b5efe950af07d8edd2e1730aa6e1a00ee3824b9d8e4c1e1a71e3671486d5c484a04d6dd4f87023b7f65251fe42d233a17f5857e7bc9e6b08dfdbda1d62f9e78447",
                    "indexes": {
                        "data": 0,
                        "gas": 0,
                        "value": 0
                    },
                    "state": {
                        "0xa94f5374fce5edbc8e2a8697c15331677e6ebf0b": {
                            "nonce": "0x01",
                            "balance": "0x30cc36",
                            "code": "0x",
                            "storage": {}
                        },
                        "0x0000000000000000000000000000000000001000": {
                            "nonce": "0x01",
                            "balance": "0x01",
                            "code": "0x366000600037600051600055",
                            "storage": {
                                "0x00": "0x0100000000000000000000000000000000000000000000000000000000000000"
                            }
                        }
                    }
                }
            ]
        },
        "_info": {
            "hash": "0x7dc3cd3d4e7b1dce2510634b585b3640976792c135209e8c4d6a57bd29aefeb7",
            "comment": "`execution-spec-tests` generated test",
            "filling-transition-tool": "ethereum-spec-evm-resolver 0.0.1",
            "description": "Test function documentation:\n\n    Test calldata related opcodes to verify their behavior is not affected by blobs.\n\n    - CALLDATALOAD\n    - CALLDATASIZE\n    - CALLDATACOPY",
            "url": "https://github.com/ethereum/execution-spec-tests/blob/4dafe6334e0e9dc8f1dd21d54fb38c4e2732331e/tests/cancun/eip4844_blobs/test_blob_txs.py#L1191",
            "fixture_format": "state_test",
            "reference-spec": "https://github.com/ethereum/EIPs/blob/master/EIPS/eip-4844.md",
            "reference-spec-version": "f0eb6a364aaf5ccb43516fa2c269a54fb881ecfd"
        }
    },
    "tests/cancun/eip4844_blobs/test_blob_txs.py::test_blob_tx_attribute_calldata_opcodes[fork_Prague-state_test-tx_gas_500000-word-opcode_CALLDATALOAD]": {
        "env": {
            "currentCoinbase": "0x2adc25665018aa1fe0e6bc666dac8fc2697ff9ba",
            "currentGasLimit": "0x016345785d8a0000",
            "currentNumber": "0x01",
            "currentTimestamp": "0x03e8",
            "currentRandom": "0x0000000000000000000000000000000000000000000000000000000000000000",
            "currentDifficulty": "0x00",
            "currentBaseFee": "0x07",
            "currentExcessBlobGas": "0x080000"
        },
        "pre": {
            "0xa94f5374fce5edbc8e2a8697c15331677e6ebf0b": {
                "nonce": "0x00",
                "balance": "0x3767e1",
                "code": "0x",
                "storage": {}
            },
            "0x0000000000000000000000000000000000001000": {
                "nonce": "0x01",
                "balance": "0x00",
                "code": "0x600035600055",
                "storage": {}
            }
        },
        "transaction": {
            "nonce": "0x00",
            "maxPriorityFeePerGas": "0x00",
            "maxFeePerGas": "0x07",
            "gasLimit": [
                "0x07a120"
            ],
            "to": "0x0000000000000000000000000000000000001000",
            "value": [
                "0x01"
            ],
            "data": [
                "0x0001000100010001000100010001000100010001000100010001000100010001"
            ],
            "accessLists": [
                []
            ],
            "maxFeePerBlobGas": "0x01",
            "blobVersionedHashes": [
                "0x0100000000000000000000000000000000000000000000000000000000000000"
            ],
            "sender": "0xa94f5374fce5edbc8e2a8697c15331677e6ebf0b",
            "secretKey": "0x45a915e4d060149eb4365960e6a7a45f334393093061116b197e3240065ff2d8"
        },
        "post": {
            "Prague": [
                {
                    "hash": "0x1ba838b89fe10638c4e338253df842519c5203b079223231c7e2d0cc9151da83",
                    "logs": "0x1dcc4de8dec75d7aab85b567b6ccd41ad312451b948a7413f0a142fd40d49347",
                    "txbytes": "0x03f8a6018080078307a12094000000000000000000000000000000000000100001a00001000100010001000100010001000100010001000100010001000100010001c001e1a0010000000000000000000000000000000000000000000000000000000000000001a048a5c03a1116867028d61bf8bce61afaec2dd9b4fa59707d745d265dd53e5532a048fda052f173226929a2ba6c0fbadc3bc9749fc91abb1efb2d101010e286fa78",
                    "indexes": {
                        "data": 0,
                        "gas": 0,
                        "value": 0
                    },
                    "state": {
                        "0xa94f5374fce5edbc8e2a8697c15331677e6ebf0b": {
                            "nonce": "0x01",
                            "balance": "0x30c45d",
                            "code": "0x",
                            "storage": {}
                        },
                        "0x0000000000000000000000000000000000001000": {
                            "nonce": "0x01",
                            "balance": "0x01",
                            "code": "0x600035600055",
                            "storage": {
                                "0x00": "0x01000100010001000100010001000100010001000100010001000100010001"
                            }
                        }
                    }
                }
            ]
        },
        "_info": {
            "hash": "0x749e4ab3b071112921f20bacf295831409171a079615ebb81d1f6bae6dabc6c8",
            "comment": "`execution-spec-tests` generated test",
            "filling-transition-tool": "ethereum-spec-evm-resolver 0.0.1",
            "description": "Test function documentation:\n\n    Test calldata related opcodes to verify their behavior is not affected by blobs.\n\n    - CALLDATALOAD\n    - CALLDATASIZE\n    - CALLDATACOPY",
            "url": "https://github.com/ethereum/execution-spec-tests/blob/4dafe6334e0e9dc8f1dd21d54fb38c4e2732331e/tests/cancun/eip4844_blobs/test_blob_txs.py#L1191",
            "fixture_format": "state_test",
            "reference-spec": "https://github.com/ethereum/EIPs/blob/master/EIPS/eip-4844.md",
            "reference-spec-version": "f0eb6a364aaf5ccb43516fa2c269a54fb881ecfd"
        }
    },
    "tests/cancun/eip4844_blobs/test_blob_txs.py::test_blob_tx_attribute_calldata_opcodes[fork_Prague-state_test-tx_gas_500000-word-opcode_CALLDATASIZE]": {
        "env": {
            "currentCoinbase": "0x2adc25665018aa1fe0e6bc666dac8fc2697ff9ba",
            "currentGasLimit": "0x016345785d8a0000",
            "currentNumber": "0x01",
            "currentTimestamp": "0x03e8",
            "currentRandom": "0x0000000000000000000000000000000000000000000000000000000000000000",
            "currentDifficulty": "0x00",
            "currentBaseFee": "0x07",
            "currentExcessBlobGas": "0x080000"
        },
        "pre": {
            "0xa94f5374fce5edbc8e2a8697c15331677e6ebf0b": {
                "nonce": "0x00",
                "balance": "0x3767e1",
                "code": "0x",
                "storage": {}
            },
            "0x0000000000000000000000000000000000001000": {
                "nonce": "0x01",
                "balance": "0x00",
                "code": "0x36600055",
                "storage": {}
            }
        },
        "transaction": {
            "nonce": "0x00",
            "maxPriorityFeePerGas": "0x00",
            "maxFeePerGas": "0x07",
            "gasLimit": [
                "0x07a120"
            ],
            "to": "0x0000000000000000000000000000000000001000",
            "value": [
                "0x01"
            ],
            "data": [
                "0x0001000100010001000100010001000100010001000100010001000100010001"
            ],
            "accessLists": [
                []
            ],
            "maxFeePerBlobGas": "0x01",
            "blobVersionedHashes": [
                "0x0100000000000000000000000000000000000000000000000000000000000000"
            ],
            "sender": "0xa94f5374fce5edbc8e2a8697c15331677e6ebf0b",
            "secretKey": "0x45a915e4d060149eb4365960e6a7a45f334393093061116b197e3240065ff2d8"
        },
        "post": {
            "Prague": [
                {
                    "hash": "0x9dd79630818e7e51ffc61b009db0eca040bf7ce3802c02124ce72d3006623c83",
                    "logs": "0x1dcc4de8dec75d7aab85b567b6ccd41ad312451b948a7413f0a142fd40d49347",
                    "txbytes": "0x03f8a6018080078307a12094000000000000000000000000000000000000100001a00001000100010001000100010001000100010001000100010001000100010001c001e1a0010000000000000000000000000000000000000000000000000000000000000001a048a5c03a1116867028d61bf8bce61afaec2dd9b4fa59707d745d265dd53e5532a048fda052f173226929a2ba6c0fbadc3bc9749fc91abb1efb2d101010e286fa78",
                    "indexes": {
                        "data": 0,
                        "gas": 0,
                        "value": 0
                    },
                    "state": {
                        "0xa94f5374fce5edbc8e2a8697c15331677e6ebf0b": {
                            "nonce": "0x01",
                            "balance": "0x30c479",
                            "code": "0x",
                            "storage": {}
                        },
                        "0x0000000000000000000000000000000000001000": {
                            "nonce": "0x01",
                            "balance": "0x01",
                            "code": "0x36600055",
                            "storage": {
                                "0x00": "0x20"
                            }
                        }
                    }
                }
            ]
        },
        "_info": {
            "hash": "0xffd14cfdee860fc7acae91ba6cebd0af3836b3f267653fc89fbb647c1d4ae4c8",
            "comment": "`execution-spec-tests` generated test",
            "filling-transition-tool": "ethereum-spec-evm-resolver 0.0.1",
            "description": "Test function documentation:\n\n    Test calldata related opcodes to verify their behavior is not affected by blobs.\n\n    - CALLDATALOAD\n    - CALLDATASIZE\n    - CALLDATACOPY",
            "url": "https://github.com/ethereum/execution-spec-tests/blob/4dafe6334e0e9dc8f1dd21d54fb38c4e2732331e/tests/cancun/eip4844_blobs/test_blob_txs.py#L1191",
            "fixture_format": "state_test",
            "reference-spec": "https://github.com/ethereum/EIPs/blob/master/EIPS/eip-4844.md",
            "reference-spec-version": "f0eb6a364aaf5ccb43516fa2c269a54fb881ecfd"
        }
    },
    "tests/cancun/eip4844_blobs/test_blob_txs.py::test_blob_tx_attribute_calldata_opcodes[fork_Prague-state_test-tx_gas_500000-word-opcode_CALLDATACOPY]": {
        "env": {
            "currentCoinbase": "0x2adc25665018aa1fe0e6bc666dac8fc2697ff9ba",
            "currentGasLimit": "0x016345785d8a0000",
            "currentNumber": "0x01",
            "currentTimestamp": "0x03e8",
            "currentRandom": "0x0000000000000000000000000000000000000000000000000000000000000000",
            "currentDifficulty": "0x00",
            "currentBaseFee": "0x07",
            "currentExcessBlobGas": "0x080000"
        },
        "pre": {
            "0xa94f5374fce5edbc8e2a8697c15331677e6ebf0b": {
                "nonce": "0x00",
                "balance": "0x3767e1",
                "code": "0x",
                "storage": {}
            },
            "0x0000000000000000000000000000000000001000": {
                "nonce": "0x01",
                "balance": "0x00",
                "code": "0x366000600037600051600055",
                "storage": {}
            }
        },
        "transaction": {
            "nonce": "0x00",
            "maxPriorityFeePerGas": "0x00",
            "maxFeePerGas": "0x07",
            "gasLimit": [
                "0x07a120"
            ],
            "to": "0x0000000000000000000000000000000000001000",
            "value": [
                "0x01"
            ],
            "data": [
                "0x0001000100010001000100010001000100010001000100010001000100010001"
            ],
            "accessLists": [
                []
            ],
            "maxFeePerBlobGas": "0x01",
            "blobVersionedHashes": [
                "0x0100000000000000000000000000000000000000000000000000000000000000"
            ],
            "sender": "0xa94f5374fce5edbc8e2a8697c15331677e6ebf0b",
            "secretKey": "0x45a915e4d060149eb4365960e6a7a45f334393093061116b197e3240065ff2d8"
        },
        "post": {
            "Prague": [
                {
                    "hash": "0xfff0e281215b2bfd09b3d5872686576322da68b1ae414bc605c417206a552474",
                    "logs": "0x1dcc4de8dec75d7aab85b567b6ccd41ad312451b948a7413f0a142fd40d49347",
                    "txbytes": "0x03f8a6018080078307a12094000000000000000000000000000000000000100001a00001000100010001000100010001000100010001000100010001000100010001c001e1a0010000000000000000000000000000000000000000000000000000000000000001a048a5c03a1116867028d61bf8bce61afaec2dd9b4fa59707d745d265dd53e5532a048fda052f173226929a2ba6c0fbadc3bc9749fc91abb1efb2d101010e286fa78",
                    "indexes": {
                        "data": 0,
                        "gas": 0,
                        "value": 0
                    },
                    "state": {
                        "0xa94f5374fce5edbc8e2a8697c15331677e6ebf0b": {
                            "nonce": "0x01",
                            "balance": "0x30c3e6",
                            "code": "0x",
                            "storage": {}
                        },
                        "0x0000000000000000000000000000000000001000": {
                            "nonce": "0x01",
                            "balance": "0x01",
                            "code": "0x366000600037600051600055",
                            "storage": {
                                "0x00": "0x01000100010001000100010001000100010001000100010001000100010001"
                            }
                        }
                    }
                }
            ]
        },
        "_info": {
            "hash": "0x9a67d0f718327329e38f44db3f5a068a7889f4ceb3b8994d16b0b3a9296d4f3b",
            "comment": "`execution-spec-tests` generated test",
            "filling-transition-tool": "ethereum-spec-evm-resolver 0.0.1",
            "description": "Test function documentation:\n\n    Test calldata related opcodes to verify their behavior is not affected by blobs.\n\n    - CALLDATALOAD\n    - CALLDATASIZE\n    - CALLDATACOPY",
            "url": "https://github.com/ethereum/execution-spec-tests/blob/4dafe6334e0e9dc8f1dd21d54fb38c4e2732331e/tests/cancun/eip4844_blobs/test_blob_txs.py#L1191",
            "fixture_format": "state_test",
            "reference-spec": "https://github.com/ethereum/EIPs/blob/master/EIPS/eip-4844.md",
            "reference-spec-version": "f0eb6a364aaf5ccb43516fa2c269a54fb881ecfd"
        }
    }
}