{
    "tests/cancun/eip4844_blobs/test_blob_txs.py::test_invalid_tx_max_fee_per_blob_gas_state[fork_Cancun-insufficient_max_fee_per_blob_gas-state_test]": {
        "env": {
            "currentCoinbase": "0x2adc25665018aa1fe0e6bc666dac8fc2697ff9ba",
            "currentGasLimit": "0x016345785d8a0000",
            "currentNumber": "0x01",
            "currentTimestamp": "0x03e8",
            "currentRandom": "0x0000000000000000000000000000000000000000000000000000000000000000",
            "currentDifficulty": "0x00",
            "currentBaseFee": "0x07",
            "currentExcessBlobGas": "0x240000"
        },
        "pre": {
            "0xa94f5374fce5edbc8e2a8697c15331677e6ebf0b": {
                "nonce": "0x00",
                "balance": "0x043e39",
                "code": "0x",
                "storage": {}
            }
        },
        "transaction": {
            "nonce": "0x00",
            "maxPriorityFeePerGas": "0x00",
            "maxFeePerGas": "0x07",
            "gasLimit": [
                "0x5208"
            ],
            "to": "0x8a0a19589531694250d570040a0c4b74576919b8",
            "value": [
                "0x01"
            ],
            "data": [
                "0x"
            ],
            "accessLists": [
                []
            ],
            "maxFeePerBlobGas": "0x01",
            "blobVersionedHashes": [
                "0x0100000000000000000000000000000000000000000000000000000000000000"
            ],
            "sender": "0xa94f5374fce5edbc8e2a8697c15331677e6ebf0b",
            "secretKey": "0x45a915e4d060149eb4365960e6a7a45f334393093061116b197e3240065ff2d8"
        },
        "post": {
            "Cancun": [
                {
                    "hash": "0x60801982e5816ed2f91320cea42769e76120d71d863d48bf8ec4d905455ae9cd",
                    "logs": "0x1dcc4de8dec75d7aab85b567b6ccd41ad312451b948a7413f0a142fd40d49347",
                    "txbytes": "0x03f88501808007825208948a0a19589531694250d570040a0c4b74576919b80180c001e1a0010000000000000000000000000000000000000000000000000000000000000001a06c120e55aeb31122c5caad29e69d28ec90abb71e089e0cdf4aebbf51bbc46a89a067983552dabf029ffb7ac58209a620d4a98eeeaf3df55bc9eb8e7684051ac70a",
                    "indexes": {
                        "data": 0,
                        "gas": 0,
                        "value": 0
                    },
                    "state": {
                        "0xa94f5374fce5edbc8e2a8697c15331677e6ebf0b": {
                            "nonce": "0x00",
                            "balance": "0x043e39",
                            "code": "0x",
                            "storage": {}
                        }
                    },
                    "expectException": "TransactionException.INSUFFICIENT_MAX_FEE_PER_BLOB_GAS"
                }
            ]
        },
        "_info": {
            "hash": "0xcaed76b3d0cb9962b0c7d5f32068c4cdd0b4e7c4162cc5a20ae9c762a63137ca",
            "comment": "`execution-spec-tests` generated test",
            "filling-transition-tool": "ethereum-spec-evm-resolver 0.0.1",
            "description": "Test function documentation:\n\n    Reject an invalid blob transaction.\n\n    - tx max_fee_per_blob_gas is barely not enough\n    - tx max_fee_per_blob_gas is zero",
            "url": "https://github.com/ethereum/execution-spec-tests/blob/8fbca341fb0f3eb3a08a296e8f8fa84f233f4faa/tests/cancun/eip4844_blobs/test_blob_txs.py#L498",
            "fixture_format": "state_test",
            "reference-spec": "https://github.com/ethereum/EIPs/blob/master/EIPS/eip-4844.md",
            "reference-spec-version": "f0eb6a364aaf5ccb43516fa2c269a54fb881ecfd"
        }
    },
    "tests/cancun/eip4844_blobs/test_blob_txs.py::test_invalid_tx_max_fee_per_blob_gas_state[fork_Cancun-invalid_max_fee_per_blob_gas-state_test]": {
        "env": {
            "currentCoinbase": "0x2adc25665018aa1fe0e6bc666dac8fc2697ff9ba",
            "currentGasLimit": "0x016345785d8a0000",
            "currentNumber": "0x01",
            "currentTimestamp": "0x03e8",
            "currentRandom": "0x0000000000000000000000000000000000000000000000000000000000000000",
            "currentDifficulty": "0x00",
            "currentBaseFee": "0x07",
            "currentExcessBlobGas": "0x00"
        },
        "pre": {
            "0xa94f5374fce5edbc8e2a8697c15331677e6ebf0b": {
                "nonce": "0x00",
                "balance": "0x023e39",
                "code": "0x",
                "storage": {}
            }
        },
        "transaction": {
            "nonce": "0x00",
            "maxPriorityFeePerGas": "0x00",
            "maxFeePerGas": "0x07",
            "gasLimit": [
                "0x5208"
            ],
            "to": "0x8a0a19589531694250d570040a0c4b74576919b8",
            "value": [
                "0x01"
            ],
            "data": [
                "0x"
            ],
            "accessLists": [
                []
            ],
            "maxFeePerBlobGas": "0x00",
            "blobVersionedHashes": [
                "0x0100000000000000000000000000000000000000000000000000000000000000"
            ],
            "sender": "0xa94f5374fce5edbc8e2a8697c15331677e6ebf0b",
            "secretKey": "0x45a915e4d060149eb4365960e6a7a45f334393093061116b197e3240065ff2d8"
        },
        "post": {
            "Cancun": [
                {
                    "hash": "0x51f41d6ab2123b8c2bef303127d48c31e5b8ccee1bfde9f853f443fe9711c3fa",
                    "logs": "0x1dcc4de8dec75d7aab85b567b6ccd41ad312451b948a7413f0a142fd40d49347",
                    "txbytes": "0x03f88501808007825208948a0a19589531694250d570040a0c4b74576919b80180c080e1a0010000000000000000000000000000000000000000000000000000000000000080a0e139c24284ed0b40e246644bf5af360aa5c100c521855b6a2e38bb2a4381dcd0a07558da5b85545c68103210e3259458bafde2945811850556577981e05b654de8",
                    "indexes": {
                        "data": 0,
                        "gas": 0,
                        "value": 0
                    },
                    "state": {
                        "0xa94f5374fce5edbc8e2a8697c15331677e6ebf0b": {
                            "nonce": "0x00",
                            "balance": "0x023e39",
                            "code": "0x",
                            "storage": {}
                        }
                    },
                    "expectException": "TransactionException.INSUFFICIENT_MAX_FEE_PER_BLOB_GAS"
                }
            ]
        },
        "_info": {
            "hash": "0xdba23f84d99d547bf5d0c7d3ad7e1f0ad66e7d8c2783b82ef740cb9ecd5e9101",
            "comment": "`execution-spec-tests` generated test",
            "filling-transition-tool": "ethereum-spec-evm-resolver 0.0.1",
            "description": "Test function documentation:\n\n    Reject an invalid blob transaction.\n\n    - tx max_fee_per_blob_gas is barely not enough\n    - tx max_fee_per_blob_gas is zero",
            "url": "https://github.com/ethereum/execution-spec-tests/blob/8fbca341fb0f3eb3a08a296e8f8fa84f233f4faa/tests/cancun/eip4844_blobs/test_blob_txs.py#L498",
            "fixture_format": "state_test",
            "reference-spec": "https://github.com/ethereum/EIPs/blob/master/EIPS/eip-4844.md",
            "reference-spec-version": "f0eb6a364aaf5ccb43516fa2c269a54fb881ecfd"
        }
    }
}