{
    "tests/cancun/eip6780_selfdestruct/test_selfdestruct_revert.py::test_selfdestruct_created_in_same_tx_with_revert[fork_Cancun-blockchain_test-no_outer_selfdestruct]": {
        "network": "Cancun",
        "genesisBlockHeader": {
            "parentHash": "0x0000000000000000000000000000000000000000000000000000000000000000",
            "uncleHash": "0x1dcc4de8dec75d7aab85b567b6ccd41ad312451b948a7413f0a142fd40d49347",
            "coinbase": "0x0000000000000000000000000000000000000000",
            "stateRoot": "0x8ae544a8dc9e696e47f0399e603435e4d7c42ccd47b8b376661f3fc2f4d91ae9",
            "transactionsTrie": "0x56e81f171bcc55a6ff8345e692c0f86e5b48e01b996cadc001622fb5e363b421",
            "receiptTrie": "0x56e81f171bcc55a6ff8345e692c0f86e5b48e01b996cadc001622fb5e363b421",
            "bloom": "0x00000000000000000000000000000000000000000000000000000000000000000000000000000000000000000000000000000000000000000000000000000000000000000000000000000000000000000000000000000000000000000000000000000000000000000000000000000000000000000000000000000000000000000000000000000000000000000000000000000000000000000000000000000000000000000000000000000000000000000000000000000000000000000000000000000000000000000000000000000000000000000000000000000000000000000000000000000000000000000000000000000000000000000000000000000000",
            "difficulty": "0x00",
            "number": "0x00",
            "gasLimit": "0x016345785d8a0000",
            "gasUsed": "0x00",
            "timestamp": "0x00",
            "extraData": "0x00",
            "mixHash": "0x0000000000000000000000000000000000000000000000000000000000000000",
            "nonce": "0x0000000000000000",
            "baseFeePerGas": "0x07",
            "withdrawalsRoot": "0x56e81f171bcc55a6ff8345e692c0f86e5b48e01b996cadc001622fb5e363b421",
            "blobGasUsed": "0x00",
            "excessBlobGas": "0x00",
            "parentBeaconBlockRoot": "0x0000000000000000000000000000000000000000000000000000000000000000",
            "hash": "0x935b709f15859e097e80384a325818384875ab333a6d34173480469ed63f2c98"
        },
        "pre": {
            "0x000f3df6d732807ef1319fb7b8bb8522d0beac02": {
                "nonce": "0x01",
                "balance": "0x00",
                "code": "0x3373fffffffffffffffffffffffffffffffffffffffe14604d57602036146024575f5ffd5b5f35801560495762001fff810690815414603c575f5ffd5b62001fff01545f5260205ff35b5f5ffd5b62001fff42064281555f359062001fff015500",
                "storage": {}
            },
            "0xa94f5374fce5edbc8e2a8697c15331677e6ebf0b": {
                "nonce": "0x00",
                "balance": "0x056bc75e2d63100000",
                "code": "0x",
                "storage": {}
            },
            "0x000000000000000000000000000000000000abcd": {
                "nonce": "0x00",
                "balance": "0x00",
                "code": "0x610027600081600b8239f35f35805f14601c57600114600f57005b6001805401600155611234ff5b60015f54015f555f80f3",
                "storage": {}
            },
            "0x00000000000000000000000000000000deadbeef": {
                "nonce": "0x00",
                "balance": "0x03",
                "code": "0x5f356001815f1460385750600114601257005b60015f525f8060208160017364e2ebd6405af8cb348aec519084d3fff42ebba645f15f80fd5b5f80525f8060208160017364e2ebd6405af8cb348aec519084d3fff42ebba645f1505f525f80602081803045f1507364e2ebd6405af8cb348aec519084d3fff42ebba6316001555f80f3",
                "storage": {}
            }
        },
        "postState": {
            "0x000f3df6d732807ef1319fb7b8bb8522d0beac02": {
                "nonce": "0x01",
                "balance": "0x00",
                "code": "0x3373fffffffffffffffffffffffffffffffffffffffe14604d57602036146024575f5ffd5b5f35801560495762001fff810690815414603c575f5ffd5b62001fff01545f5260205ff35b5f5ffd5b62001fff42064281555f359062001fff015500",
                "storage": {
                    "0x03e8": "0x03e8"
                }
            },
            "0xa94f5374fce5edbc8e2a8697c15331677e6ebf0b": {
                "nonce": "0x01",
                "balance": "0x056bc75e2d62ec58ee",
                "code": "0x",
                "storage": {}
            },
            "0x000000000000000000000000000000000000abcd": {
                "nonce": "0x00",
                "balance": "0x00",
                "code": "0x610027600081600b8239f35f35805f14601c57600114600f57005b6001805401600155611234ff5b60015f54015f555f80f3",
                "storage": {}
            },
            "0x00000000000000000000000000000000deadbeef": {
                "nonce": "0x00",
                "balance": "0x02",
                "code": "0x5f356001815f1460385750600114601257005b60015f525f8060208160017364e2ebd6405af8cb348aec519084d3fff42ebba645f15f80fd5b5f80525f8060208160017364e2ebd6405af8cb348aec519084d3fff42ebba645f1505f525f80602081803045f1507364e2ebd6405af8cb348aec519084d3fff42ebba6316001555f80f3",
                "storage": {
                    "0x01": "0x01"
                }
            },
            "0x6295ee1b4f6dd65047762f924ecd367c17eabf8f": {
                "nonce": "0x02",
                "balance": "0x00",
                "code": "0x",
                "storage": {
                    "0x00": "0x64e2ebd6405af8cb348aec519084d3fff42ebba6"
                }
            },
            "0x64e2ebd6405af8cb348aec519084d3fff42ebba6": {
                "nonce": "0x01",
                "balance": "0x01",
                "code": "0x5f35805f14601c57600114600f57005b6001805401600155611234ff5b60015f54015f555f80f3",
                "storage": {
                    "0x00": "0x01"
                }
            },
            "0x2adc25665018aa1fe0e6bc666dac8fc2697ff9ba": {
                "nonce": "0x00",
                "balance": "0x0ab21f",
                "code": "0x",
                "storage": {}
            }
        },
        "lastblockhash": "0x11f0172a8340c75094d57f9023085ea7df7da927f85fb5457654d27c2801b708",
        "genesisRLP": "0xf90240f9023aa00000000000000000000000000000000000000000000000000000000000000000a01dcc4de8dec75d7aab85b567b6ccd41ad312451b948a7413f0a142fd40d49347940000000000000000000000000000000000000000a08ae544a8dc9e696e47f0399e603435e4d7c42ccd47b8b376661f3fc2f4d91ae9a056e81f171bcc55a6ff8345e692c0f86e5b48e01b996cadc001622fb5e363b421a056e81f171bcc55a6ff8345e692c0f86e5b48e01b996cadc001622fb5e363b421b9010000000000000000000000000000000000000000000000000000000000000000000000000000000000000000000000000000000000000000000000000000000000000000000000000000000000000000000000000000000000000000000000000000000000000000000000000000000000000000000000000000000000000000000000000000000000000000000000000000000000000000000000000000000000000000000000000000000000000000000000000000000000000000000000000000000000000000000000000000000000000000000000000000000000000000000000000000000000000000000000000000000000000000000000000000000000808088016345785d8a0000808000a0000000000000000000000000000000000000000000000000000000000000000088000000000000000007a056e81f171bcc55a6ff8345e692c0f86e5b48e01b996cadc001622fb5e363b4218080a00000000000000000000000000000000000000000000000000000000000000000c0c0c0",
        "blocks": [
            {
                "blockHeader": {
                    "parentHash": "0x935b709f15859e097e80384a325818384875ab333a6d34173480469ed63f2c98",
                    "uncleHash": "0x1dcc4de8dec75d7aab85b567b6ccd41ad312451b948a7413f0a142fd40d49347",
                    "coinbase": "0x2adc25665018aa1fe0e6bc666dac8fc2697ff9ba",
                    "stateRoot": "0x55cf458a7beb82159649dfa8e66dfec21cd662beee8e0768e6be992b7b10acfe",
                    "transactionsTrie": "0xddf1a8e500de5131a6466b6df9677ca315da67c3b26abe9c0c87c94839ed3c82",
                    "receiptTrie": "0xdaf91ed22bf12c53781b0844ff783a7a5ef8656afcb18be23a51bb1ff36099e6",
                    "bloom": "0x00000000000000000000000000000000000000000000000000000000000000000000000000000000000000000000000000000000000000000000000000000000000000000000000000000000000000000000000000000000000000000000000000000000000000000000000000000000000000000000000000000000000000000000000000000000000000000000000000000000000000000000000000000000000000000000000000000000000000000000000000000000000000000000000000000000000000000000000000000000000000000000000000000000000000000000000000000000000000000000000000000000000000000000000000000000",
                    "difficulty": "0x00",
                    "number": "0x01",
                    "gasLimit": "0x016345785d8a0000",
                    "gasUsed": "0x0390b5",
                    "timestamp": "0x03e8",
                    "extraData": "0x00",
                    "mixHash": "0x0000000000000000000000000000000000000000000000000000000000000000",
                    "nonce": "0x0000000000000000",
                    "baseFeePerGas": "0x07",
                    "withdrawalsRoot": "0x56e81f171bcc55a6ff8345e692c0f86e5b48e01b996cadc001622fb5e363b421",
                    "blobGasUsed": "0x00",
                    "excessBlobGas": "0x00",
                    "parentBeaconBlockRoot": "0x0000000000000000000000000000000000000000000000000000000000000000",
                    "hash": "0x11f0172a8340c75094d57f9023085ea7df7da927f85fb5457654d27c2801b708"
                },
                "transactions": [
                    {
                        "type": "0x00",
                        "chainId": "0x00",
                        "nonce": "0x00",
                        "gasPrice": "0x0a",
                        "gasLimit": "0x05f5e100",
                        "value": "0x00",
                        "data": "0x60326000600061abcd3c603260006000f06000556000600060006000600063deadbeef45f1",
                        "v": "0x1c",
                        "r": "0x0ded0dfa417f5a69bcb3fe9b093125455f05f4bd37a265950c1a8681b3b217d2",
                        "s": "0x62935ee840b07463debc68fb5aa67ff5bd1d281ec14d0d605159ef86cdb0bbaf",
                        "sender": "0xa94f5374fce5edbc8e2a8697c15331677e6ebf0b",
                        "to": ""
                    }
                ],
                "uncleHeaders": [],
                "withdrawals": [],
                "rlp": "0xf902baf9023fa0935b709f15859e097e80384a325818384875ab333a6d34173480469ed63f2c98a01dcc4de8dec75d7aab85b567b6ccd41ad312451b948a7413f0a142fd40d49347942adc25665018aa1fe0e6bc666dac8fc2697ff9baa055cf458a7beb82159649dfa8e66dfec21cd662beee8e0768e6be992b7b10acfea0ddf1a8e500de5131a6466b6df9677ca315da67c3b26abe9c0c87c94839ed3c82a0daf91ed22bf12c53781b0844ff783a7a5ef8656afcb18be23a51bb1ff36099e6b9010000000000000000000000000000000000000000000000000000000000000000000000000000000000000000000000000000000000000000000000000000000000000000000000000000000000000000000000000000000000000000000000000000000000000000000000000000000000000000000000000000000000000000000000000000000000000000000000000000000000000000000000000000000000000000000000000000000000000000000000000000000000000000000000000000000000000000000000000000000000000000000000000000000000000000000000000000000000000000000000000000000000000000000000000000000000800188016345785d8a0000830390b58203e800a0000000000000000000000000000000000000000000000000000000000000000088000000000000000007a056e81f171bcc55a6ff8345e692c0f86e5b48e01b996cadc001622fb5e363b4218080a00000000000000000000000000000000000000000000000000000000000000000f874f872800a8405f5e1008080a560326000600061abcd3c603260006000f06000556000600060006000600063deadbeef45f11ca00ded0dfa417f5a69bcb3fe9b093125455f05f4bd37a265950c1a8681b3b217d2a062935ee840b07463debc68fb5aa67ff5bd1d281ec14d0d605159ef86cdb0bbafc0c0",
                "blocknumber": "1"
            }
        ],
        "sealEngine": "NoProof",
        "_info": {
            "hash": "0x3dea7907522493f9e3abf65e0942414da2b55e48de22ced4c064758e7a20b488",
            "comment": "`execution-spec-tests` generated test",
            "filling-transition-tool": "ethereum-spec-evm-resolver 0.0.1",
            "description": "Test function documentation:\n\n    Given:\n        Contract A which has methods to receive balance and selfdestruct, and was created in current tx\n    Test the following call sequence:\n         Transfer value to A and call A.selfdestruct.\n         Recurse into a new call from transfers value to A, calls A.selfdestruct, and reverts.",
            "url": "https://github.com/ethereum/execution-spec-tests/blob/8fbca341fb0f3eb3a08a296e8f8fa84f233f4faa/tests/cancun/eip6780_selfdestruct/test_selfdestruct_revert.py#L200",
            "fixture_format": "blockchain_test",
            "reference-spec": "https://github.com/ethereum/EIPs/blob/master/EIPS/eip-6780.md",
            "reference-spec-version": "2f8299df31bb8173618901a03a8366a3183479b0"
        }
    },
    "tests/cancun/eip6780_selfdestruct/test_selfdestruct_revert.py::test_selfdestruct_created_in_same_tx_with_revert[fork_Cancun-blockchain_test-outer_selfdestruct_before_inner_call]": {
        "network": "Cancun",
        "genesisBlockHeader": {
            "parentHash": "0x0000000000000000000000000000000000000000000000000000000000000000",
            "uncleHash": "0x1dcc4de8dec75d7aab85b567b6ccd41ad312451b948a7413f0a142fd40d49347",
            "coinbase": "0x0000000000000000000000000000000000000000",
            "stateRoot": "0x829baa10b051b197698cf32d515eefad078df8dffce5a00c639d38ee6921ccec",
            "transactionsTrie": "0x56e81f171bcc55a6ff8345e692c0f86e5b48e01b996cadc001622fb5e363b421",
            "receiptTrie": "0x56e81f171bcc55a6ff8345e692c0f86e5b48e01b996cadc001622fb5e363b421",
            "bloom": "0x00000000000000000000000000000000000000000000000000000000000000000000000000000000000000000000000000000000000000000000000000000000000000000000000000000000000000000000000000000000000000000000000000000000000000000000000000000000000000000000000000000000000000000000000000000000000000000000000000000000000000000000000000000000000000000000000000000000000000000000000000000000000000000000000000000000000000000000000000000000000000000000000000000000000000000000000000000000000000000000000000000000000000000000000000000000",
            "difficulty": "0x00",
            "number": "0x00",
            "gasLimit": "0x016345785d8a0000",
            "gasUsed": "0x00",
            "timestamp": "0x00",
            "extraData": "0x00",
            "mixHash": "0x0000000000000000000000000000000000000000000000000000000000000000",
            "nonce": "0x0000000000000000",
            "baseFeePerGas": "0x07",
            "withdrawalsRoot": "0x56e81f171bcc55a6ff8345e692c0f86e5b48e01b996cadc001622fb5e363b421",
            "blobGasUsed": "0x00",
            "excessBlobGas": "0x00",
            "parentBeaconBlockRoot": "0x0000000000000000000000000000000000000000000000000000000000000000",
            "hash": "0xf6f25a9d9d934817e9760145d6318d7513ca8300df5d59feb80595dbc710f3fb"
        },
        "pre": {
            "0x000f3df6d732807ef1319fb7b8bb8522d0beac02": {
                "nonce": "0x01",
                "balance": "0x00",
                "code": "0x3373fffffffffffffffffffffffffffffffffffffffe14604d57602036146024575f5ffd5b5f35801560495762001fff810690815414603c575f5ffd5b62001fff01545f5260205ff35b5f5ffd5b62001fff42064281555f359062001fff015500",
                "storage": {}
            },
            "0xa94f5374fce5edbc8e2a8697c15331677e6ebf0b": {
                "nonce": "0x00",
                "balance": "0x056bc75e2d63100000",
                "code": "0x",
                "storage": {}
            },
            "0x000000000000000000000000000000000000abcd": {
                "nonce": "0x00",
                "balance": "0x00",
                "code": "0x610027600081600b8239f35f35805f14601c57600114600f57005b6001805401600155611234ff5b60015f54015f555f80f3",
                "storage": {}
            },
            "0x00000000000000000000000000000000deadbeef": {
                "nonce": "0x00",
                "balance": "0x03",
                "code": "0x5f356001815f1460385750600114601257005b60015f525f8060208160017364e2ebd6405af8cb348aec519084d3fff42ebba645f15f80fd5b60015f525f8060208160017364e2ebd6405af8cb348aec519084d3fff42ebba645f1505f80525f8060208160017364e2ebd6405af8cb348aec519084d3fff42ebba645f1505f525f80602081803045f1507364e2ebd6405af8cb348aec519084d3fff42ebba6316001555f80f3",
                "storage": {}
            }
        },
        "postState": {
            "0x000f3df6d732807ef1319fb7b8bb8522d0beac02": {
                "nonce": "0x01",
                "balance": "0x00",
                "code": "0x3373fffffffffffffffffffffffffffffffffffffffe14604d57602036146024575f5ffd5b5f35801560495762001fff810690815414603c575f5ffd5b62001fff01545f5260205ff35b5f5ffd5b62001fff42064281555f359062001fff015500",
                "storage": {
                    "0x03e8": "0x03e8"
                }
            },
            "0xa94f5374fce5edbc8e2a8697c15331677e6ebf0b": {
                "nonce": "0x01",
                "balance": "0x056bc75e2d62ea80aa",
                "code": "0x",
                "storage": {}
            },
            "0x000000000000000000000000000000000000abcd": {
                "nonce": "0x00",
                "balance": "0x00",
                "code": "0x610027600081600b8239f35f35805f14601c57600114600f57005b6001805401600155611234ff5b60015f54015f555f80f3",
                "storage": {}
            },
            "0x00000000000000000000000000000000deadbeef": {
                "nonce": "0x00",
                "balance": "0x01",
                "code": "0x5f356001815f1460385750600114601257005b60015f525f8060208160017364e2ebd6405af8cb348aec519084d3fff42ebba645f15f80fd5b60015f525f8060208160017364e2ebd6405af8cb348aec519084d3fff42ebba645f1505f80525f8060208160017364e2ebd6405af8cb348aec519084d3fff42ebba645f1505f525f80602081803045f1507364e2ebd6405af8cb348aec519084d3fff42ebba6316001555f80f3",
                "storage": {
                    "0x01": "0x01"
                }
            },
            "0x6295ee1b4f6dd65047762f924ecd367c17eabf8f": {
                "nonce": "0x02",
                "balance": "0x00",
                "code": "0x",
                "storage": {
                    "0x00": "0x64e2ebd6405af8cb348aec519084d3fff42ebba6"
                }
            },
            "0x0000000000000000000000000000000000001234": {
                "nonce": "0x00",
                "balance": "0x01",
                "code": "0x",
                "storage": {}
            },
            "0x2adc25665018aa1fe0e6bc666dac8fc2697ff9ba": {
                "nonce": "0x00",
                "balance": "0x0b3fcd",
                "code": "0x",
                "storage": {}
            }
        },
        "lastblockhash": "0x2b7c0db653e92e85623108be12ee2cebf5cf0c17b2f89f085ba23f481021b4f5",
        "genesisRLP": "0xf90240f9023aa00000000000000000000000000000000000000000000000000000000000000000a01dcc4de8dec75d7aab85b567b6ccd41ad312451b948a7413f0a142fd40d49347940000000000000000000000000000000000000000a0829baa10b051b197698cf32d515eefad078df8dffce5a00c639d38ee6921cceca056e81f171bcc55a6ff8345e692c0f86e5b48e01b996cadc001622fb5e363b421a056e81f171bcc55a6ff8345e692c0f86e5b48e01b996cadc001622fb5e363b421b9010000000000000000000000000000000000000000000000000000000000000000000000000000000000000000000000000000000000000000000000000000000000000000000000000000000000000000000000000000000000000000000000000000000000000000000000000000000000000000000000000000000000000000000000000000000000000000000000000000000000000000000000000000000000000000000000000000000000000000000000000000000000000000000000000000000000000000000000000000000000000000000000000000000000000000000000000000000000000000000000000000000000000000000000000000000000808088016345785d8a0000808000a0000000000000000000000000000000000000000000000000000000000000000088000000000000000007a056e81f171bcc55a6ff8345e692c0f86e5b48e01b996cadc001622fb5e363b4218080a00000000000000000000000000000000000000000000000000000000000000000c0c0c0",
        "blocks": [
            {
                "blockHeader": {
                    "parentHash": "0xf6f25a9d9d934817e9760145d6318d7513ca8300df5d59feb80595dbc710f3fb",
                    "uncleHash": "0x1dcc4de8dec75d7aab85b567b6ccd41ad312451b948a7413f0a142fd40d49347",
                    "coinbase": "0x2adc25665018aa1fe0e6bc666dac8fc2697ff9ba",
                    "stateRoot": "0x8ca131915ef31e15007428678b4509157b81a5f8f6ea94e5dc8e5c1e55a7c85d",
                    "transactionsTrie": "0xddf1a8e500de5131a6466b6df9677ca315da67c3b26abe9c0c87c94839ed3c82",
                    "receiptTrie": "0x978208fa923b98a9534872fe6e692f51aef37001f3cb21c4c5c06987d4e7601e",
                    "bloom": "0x00000000000000000000000000000000000000000000000000000000000000000000000000000000000000000000000000000000000000000000000000000000000000000000000000000000000000000000000000000000000000000000000000000000000000000000000000000000000000000000000000000000000000000000000000000000000000000000000000000000000000000000000000000000000000000000000000000000000000000000000000000000000000000000000000000000000000000000000000000000000000000000000000000000000000000000000000000000000000000000000000000000000000000000000000000000",
                    "difficulty": "0x00",
                    "number": "0x01",
                    "gasLimit": "0x016345785d8a0000",
                    "gasUsed": "0x03bfef",
                    "timestamp": "0x03e8",
                    "extraData": "0x00",
                    "mixHash": "0x0000000000000000000000000000000000000000000000000000000000000000",
                    "nonce": "0x0000000000000000",
                    "baseFeePerGas": "0x07",
                    "withdrawalsRoot": "0x56e81f171bcc55a6ff8345e692c0f86e5b48e01b996cadc001622fb5e363b421",
                    "blobGasUsed": "0x00",
                    "excessBlobGas": "0x00",
                    "parentBeaconBlockRoot": "0x0000000000000000000000000000000000000000000000000000000000000000",
                    "hash": "0x2b7c0db653e92e85623108be12ee2cebf5cf0c17b2f89f085ba23f481021b4f5"
                },
                "transactions": [
                    {
                        "type": "0x00",
                        "chainId": "0x00",
                        "nonce": "0x00",
                        "gasPrice": "0x0a",
                        "gasLimit": "0x05f5e100",
                        "value": "0x00",
                        "data": "0x60326000600061abcd3c603260006000f06000556000600060006000600063deadbeef45f1",
                        "v": "0x1c",
                        "r": "0x0ded0dfa417f5a69bcb3fe9b093125455f05f4bd37a265950c1a8681b3b217d2",
                        "s": "0x62935ee840b07463debc68fb5aa67ff5bd1d281ec14d0d605159ef86cdb0bbaf",
                        "sender": "0xa94f5374fce5edbc8e2a8697c15331677e6ebf0b",
                        "to": ""
                    }
                ],
                "uncleHeaders": [],
                "withdrawals": [],
                "rlp": "0xf902baf9023fa0f6f25a9d9d934817e9760145d6318d7513ca8300df5d59feb80595dbc710f3fba01dcc4de8dec75d7aab85b567b6ccd41ad312451b948a7413f0a142fd40d49347942adc25665018aa1fe0e6bc666dac8fc2697ff9baa08ca131915ef31e15007428678b4509157b81a5f8f6ea94e5dc8e5c1e55a7c85da0ddf1a8e500de5131a6466b6df9677ca315da67c3b26abe9c0c87c94839ed3c82a0978208fa923b98a9534872fe6e692f51aef37001f3cb21c4c5c06987d4e7601eb9010000000000000000000000000000000000000000000000000000000000000000000000000000000000000000000000000000000000000000000000000000000000000000000000000000000000000000000000000000000000000000000000000000000000000000000000000000000000000000000000000000000000000000000000000000000000000000000000000000000000000000000000000000000000000000000000000000000000000000000000000000000000000000000000000000000000000000000000000000000000000000000000000000000000000000000000000000000000000000000000000000000000000000000000000000000000800188016345785d8a00008303bfef8203e800a0000000000000000000000000000000000000000000000000000000000000000088000000000000000007a056e81f171bcc55a6ff8345e692c0f86e5b48e01b996cadc001622fb5e363b4218080a00000000000000000000000000000000000000000000000000000000000000000f874f872800a8405f5e1008080a560326000600061abcd3c603260006000f06000556000600060006000600063deadbeef45f11ca00ded0dfa417f5a69bcb3fe9b093125455f05f4bd37a265950c1a8681b3b217d2a062935ee840b07463debc68fb5aa67ff5bd1d281ec14d0d605159ef86cdb0bbafc0c0",
                "blocknumber": "1"
            }
        ],
        "sealEngine": "NoProof",
        "_info": {
            "hash": "0xa5b88b0f1a69a9cb7c912b62593a7cc0b26e9ea0b280363891a66f04abe8d526",
            "comment": "`execution-spec-tests` generated test",
            "filling-transition-tool": "ethereum-spec-evm-resolver 0.0.1",
            "description": "Test function documentation:\n\n    Given:\n        Contract A which has methods to receive balance and selfdestruct, and was created in current tx\n    Test the following call sequence:\n         Transfer value to A and call A.selfdestruct.\n         Recurse into a new call from transfers value to A, calls A.selfdestruct, and reverts.",
            "url": "https://github.com/ethereum/execution-spec-tests/blob/8fbca341fb0f3eb3a08a296e8f8fa84f233f4faa/tests/cancun/eip6780_selfdestruct/test_selfdestruct_revert.py#L200",
            "fixture_format": "blockchain_test",
            "reference-spec": "https://github.com/ethereum/EIPs/blob/master/EIPS/eip-6780.md",
            "reference-spec-version": "2f8299df31bb8173618901a03a8366a3183479b0"
        }
    },
    "tests/cancun/eip6780_selfdestruct/test_selfdestruct_revert.py::test_selfdestruct_created_in_same_tx_with_revert[fork_Cancun-blockchain_test-outer_selfdestruct_after_inner_call]": {
        "network": "Cancun",
        "genesisBlockHeader": {
            "parentHash": "0x0000000000000000000000000000000000000000000000000000000000000000",
            "uncleHash": "0x1dcc4de8dec75d7aab85b567b6ccd41ad312451b948a7413f0a142fd40d49347",
            "coinbase": "0x0000000000000000000000000000000000000000",
            "stateRoot": "0x79c18cc707735ac7a4a2094c745b599804e2da415e22c830c684fc72b4cb8278",
            "transactionsTrie": "0x56e81f171bcc55a6ff8345e692c0f86e5b48e01b996cadc001622fb5e363b421",
            "receiptTrie": "0x56e81f171bcc55a6ff8345e692c0f86e5b48e01b996cadc001622fb5e363b421",
            "bloom": "0x00000000000000000000000000000000000000000000000000000000000000000000000000000000000000000000000000000000000000000000000000000000000000000000000000000000000000000000000000000000000000000000000000000000000000000000000000000000000000000000000000000000000000000000000000000000000000000000000000000000000000000000000000000000000000000000000000000000000000000000000000000000000000000000000000000000000000000000000000000000000000000000000000000000000000000000000000000000000000000000000000000000000000000000000000000000",
            "difficulty": "0x00",
            "number": "0x00",
            "gasLimit": "0x016345785d8a0000",
            "gasUsed": "0x00",
            "timestamp": "0x00",
            "extraData": "0x00",
            "mixHash": "0x0000000000000000000000000000000000000000000000000000000000000000",
            "nonce": "0x0000000000000000",
            "baseFeePerGas": "0x07",
            "withdrawalsRoot": "0x56e81f171bcc55a6ff8345e692c0f86e5b48e01b996cadc001622fb5e363b421",
            "blobGasUsed": "0x00",
            "excessBlobGas": "0x00",
            "parentBeaconBlockRoot": "0x0000000000000000000000000000000000000000000000000000000000000000",
            "hash": "0xfe3eae26fcd8cee1f10cd749546420372cf3763b6ff243d118a6ea45e5645a89"
        },
        "pre": {
            "0x000f3df6d732807ef1319fb7b8bb8522d0beac02": {
                "nonce": "0x01",
                "balance": "0x00",
                "code": "0x3373fffffffffffffffffffffffffffffffffffffffe14604d57602036146024575f5ffd5b5f35801560495762001fff810690815414603c575f5ffd5b62001fff01545f5260205ff35b5f5ffd5b62001fff42064281555f359062001fff015500",
                "storage": {}
            },
            "0xa94f5374fce5edbc8e2a8697c15331677e6ebf0b": {
                "nonce": "0x00",
                "balance": "0x056bc75e2d63100000",
                "code": "0x",
                "storage": {}
            },
            "0x000000000000000000000000000000000000abcd": {
                "nonce": "0x00",
                "balance": "0x00",
                "code": "0x610027600081600b8239f35f35805f14601c57600114600f57005b6001805401600155611234ff5b60015f54015f555f80f3",
                "storage": {}
            },
            "0x00000000000000000000000000000000deadbeef": {
                "nonce": "0x00",
                "balance": "0x03",
                "code": "0x5f356001815f1460385750600114601257005b60015f525f8060208160017364e2ebd6405af8cb348aec519084d3fff42ebba645f15f80fd5b5f80525f8060208160017364e2ebd6405af8cb348aec519084d3fff42ebba645f1505f525f80602081803045f1507364e2ebd6405af8cb348aec519084d3fff42ebba63160015560015f525f8060208160017364e2ebd6405af8cb348aec519084d3fff42ebba645f15f80f3",
                "storage": {}
            }
        },
        "postState": {
            "0x000f3df6d732807ef1319fb7b8bb8522d0beac02": {
                "nonce": "0x01",
                "balance": "0x00",
                "code": "0x3373fffffffffffffffffffffffffffffffffffffffe14604d57602036146024575f5ffd5b5f35801560495762001fff810690815414603c575f5ffd5b62001fff01545f5260205ff35b5f5ffd5b62001fff42064281555f359062001fff015500",
                "storage": {
                    "0x03e8": "0x03e8"
                }
            },
            "0xa94f5374fce5edbc8e2a8697c15331677e6ebf0b": {
                "nonce": "0x01",
                "balance": "0x056bc75e2d62e2f326",
                "code": "0x",
                "storage": {}
            },
            "0x000000000000000000000000000000000000abcd": {
                "nonce": "0x00",
                "balance": "0x00",
                "code": "0x610027600081600b8239f35f35805f14601c57600114600f57005b6001805401600155611234ff5b60015f54015f555f80f3",
                "storage": {}
            },
            "0x00000000000000000000000000000000deadbeef": {
                "nonce": "0x00",
                "balance": "0x01",
                "code": "0x5f356001815f1460385750600114601257005b60015f525f8060208160017364e2ebd6405af8cb348aec519084d3fff42ebba645f15f80fd5b5f80525f8060208160017364e2ebd6405af8cb348aec519084d3fff42ebba645f1505f525f80602081803045f1507364e2ebd6405af8cb348aec519084d3fff42ebba63160015560015f525f8060208160017364e2ebd6405af8cb348aec519084d3fff42ebba645f15f80f3",
                "storage": {
                    "0x01": "0x01"
                }
            },
            "0x6295ee1b4f6dd65047762f924ecd367c17eabf8f": {
                "nonce": "0x02",
                "balance": "0x00",
                "code": "0x",
                "storage": {
                    "0x00": "0x64e2ebd6405af8cb348aec519084d3fff42ebba6"
                }
            },
            "0x0000000000000000000000000000000000001234": {
                "nonce": "0x00",
                "balance": "0x02",
                "code": "0x",
                "storage": {}
            },
            "0x2adc25665018aa1fe0e6bc666dac8fc2697ff9ba": {
                "nonce": "0x00",
                "balance": "0x0d83db",
                "code": "0x",
                "storage": {}
            }
        },
        "lastblockhash": "0xc4026ec80f165df3b4eb6295c1ca5c862ebaeefacfc2f9af11309cab566ffd94",
        "genesisRLP": "0xf90240f9023aa00000000000000000000000000000000000000000000000000000000000000000a01dcc4de8dec75d7aab85b567b6ccd41ad312451b948a7413f0a142fd40d49347940000000000000000000000000000000000000000a079c18cc707735ac7a4a2094c745b599804e2da415e22c830c684fc72b4cb8278a056e81f171bcc55a6ff8345e692c0f86e5b48e01b996cadc001622fb5e363b421a056e81f171bcc55a6ff8345e692c0f86e5b48e01b996cadc001622fb5e363b421b9010000000000000000000000000000000000000000000000000000000000000000000000000000000000000000000000000000000000000000000000000000000000000000000000000000000000000000000000000000000000000000000000000000000000000000000000000000000000000000000000000000000000000000000000000000000000000000000000000000000000000000000000000000000000000000000000000000000000000000000000000000000000000000000000000000000000000000000000000000000000000000000000000000000000000000000000000000000000000000000000000000000000000000000000000000000000808088016345785d8a0000808000a0000000000000000000000000000000000000000000000000000000000000000088000000000000000007a056e81f171bcc55a6ff8345e692c0f86e5b48e01b996cadc001622fb5e363b4218080a00000000000000000000000000000000000000000000000000000000000000000c0c0c0",
        "blocks": [
            {
                "blockHeader": {
                    "parentHash": "0xfe3eae26fcd8cee1f10cd749546420372cf3763b6ff243d118a6ea45e5645a89",
                    "uncleHash": "0x1dcc4de8dec75d7aab85b567b6ccd41ad312451b948a7413f0a142fd40d49347",
                    "coinbase": "0x2adc25665018aa1fe0e6bc666dac8fc2697ff9ba",
                    "stateRoot": "0x576265e6d4a6df5f6d3fa14f6e47e6841d3597a6cb9c13cbe2905d777025c725",
                    "transactionsTrie": "0xddf1a8e500de5131a6466b6df9677ca315da67c3b26abe9c0c87c94839ed3c82",
                    "receiptTrie": "0xdb43c78c2fcf8e85c39386087dc4e03834f78e5ac998f96130a326c8d7a47d22",
                    "bloom": "0x00000000000000000000000000000000000000000000000000000000000000000000000000000000000000000000000000000000000000000000000000000000000000000000000000000000000000000000000000000000000000000000000000000000000000000000000000000000000000000000000000000000000000000000000000000000000000000000000000000000000000000000000000000000000000000000000000000000000000000000000000000000000000000000000000000000000000000000000000000000000000000000000000000000000000000000000000000000000000000000000000000000000000000000000000000000",
                    "difficulty": "0x00",
                    "number": "0x01",
                    "gasLimit": "0x016345785d8a0000",
                    "gasUsed": "0x048149",
                    "timestamp": "0x03e8",
                    "extraData": "0x00",
                    "mixHash": "0x0000000000000000000000000000000000000000000000000000000000000000",
                    "nonce": "0x0000000000000000",
                    "baseFeePerGas": "0x07",
                    "withdrawalsRoot": "0x56e81f171bcc55a6ff8345e692c0f86e5b48e01b996cadc001622fb5e363b421",
                    "blobGasUsed": "0x00",
                    "excessBlobGas": "0x00",
                    "parentBeaconBlockRoot": "0x0000000000000000000000000000000000000000000000000000000000000000",
                    "hash": "0xc4026ec80f165df3b4eb6295c1ca5c862ebaeefacfc2f9af11309cab566ffd94"
                },
                "transactions": [
                    {
                        "type": "0x00",
                        "chainId": "0x00",
                        "nonce": "0x00",
                        "gasPrice": "0x0a",
                        "gasLimit": "0x05f5e100",
                        "value": "0x00",
                        "data": "0x60326000600061abcd3c603260006000f06000556000600060006000600063deadbeef45f1",
                        "v": "0x1c",
                        "r": "0x0ded0dfa417f5a69bcb3fe9b093125455f05f4bd37a265950c1a8681b3b217d2",
                        "s": "0x62935ee840b07463debc68fb5aa67ff5bd1d281ec14d0d605159ef86cdb0bbaf",
                        "sender": "0xa94f5374fce5edbc8e2a8697c15331677e6ebf0b",
                        "to": ""
                    }
                ],
                "uncleHeaders": [],
                "withdrawals": [],
                "rlp": "0xf902baf9023fa0fe3eae26fcd8cee1f10cd749546420372cf3763b6ff243d118a6ea45e5645a89a01dcc4de8dec75d7aab85b567b6ccd41ad312451b948a7413f0a142fd40d49347942adc25665018aa1fe0e6bc666dac8fc2697ff9baa0576265e6d4a6df5f6d3fa14f6e47e6841d3597a6cb9c13cbe2905d777025c725a0ddf1a8e500de5131a6466b6df9677ca315da67c3b26abe9c0c87c94839ed3c82a0db43c78c2fcf8e85c39386087dc4e03834f78e5ac998f96130a326c8d7a47d22b9010000000000000000000000000000000000000000000000000000000000000000000000000000000000000000000000000000000000000000000000000000000000000000000000000000000000000000000000000000000000000000000000000000000000000000000000000000000000000000000000000000000000000000000000000000000000000000000000000000000000000000000000000000000000000000000000000000000000000000000000000000000000000000000000000000000000000000000000000000000000000000000000000000000000000000000000000000000000000000000000000000000000000000000000000000000000800188016345785d8a0000830481498203e800a0000000000000000000000000000000000000000000000000000000000000000088000000000000000007a056e81f171bcc55a6ff8345e692c0f86e5b48e01b996cadc001622fb5e363b4218080a00000000000000000000000000000000000000000000000000000000000000000f874f872800a8405f5e1008080a560326000600061abcd3c603260006000f06000556000600060006000600063deadbeef45f11ca00ded0dfa417f5a69bcb3fe9b093125455f05f4bd37a265950c1a8681b3b217d2a062935ee840b07463debc68fb5aa67ff5bd1d281ec14d0d605159ef86cdb0bbafc0c0",
                "blocknumber": "1"
            }
        ],
        "sealEngine": "NoProof",
        "_info": {
            "hash": "0x8d7c070e84e3cf09ea1655d456665250ceec08d7d06a50f0c0f32dfcec3012ed",
            "comment": "`execution-spec-tests` generated test",
            "filling-transition-tool": "ethereum-spec-evm-resolver 0.0.1",
            "description": "Test function documentation:\n\n    Given:\n        Contract A which has methods to receive balance and selfdestruct, and was created in current tx\n    Test the following call sequence:\n         Transfer value to A and call A.selfdestruct.\n         Recurse into a new call from transfers value to A, calls A.selfdestruct, and reverts.",
            "url": "https://github.com/ethereum/execution-spec-tests/blob/8fbca341fb0f3eb3a08a296e8f8fa84f233f4faa/tests/cancun/eip6780_selfdestruct/test_selfdestruct_revert.py#L200",
            "fixture_format": "blockchain_test",
            "reference-spec": "https://github.com/ethereum/EIPs/blob/master/EIPS/eip-6780.md",
            "reference-spec-version": "2f8299df31bb8173618901a03a8366a3183479b0"
        }
    }
}