{
    "tests/cancun/eip6780_selfdestruct/test_selfdestruct_revert.py::test_selfdestruct_not_created_in_same_tx_with_revert[fork_Cancun-blockchain_test-no_outer_selfdestruct]": {
        "network": "Cancun",
        "genesisBlockHeader": {
            "parentHash": "0x0000000000000000000000000000000000000000000000000000000000000000",
            "uncleHash": "0x1dcc4de8dec75d7aab85b567b6ccd41ad312451b948a7413f0a142fd40d49347",
            "coinbase": "0x0000000000000000000000000000000000000000",
            "stateRoot": "0xd772463734155cf29ce700889c3459d8b77ec4e369f06c659222a1784ce8a167",
            "transactionsTrie": "0x56e81f171bcc55a6ff8345e692c0f86e5b48e01b996cadc001622fb5e363b421",
            "receiptTrie": "0x56e81f171bcc55a6ff8345e692c0f86e5b48e01b996cadc001622fb5e363b421",
            "bloom": "0x00000000000000000000000000000000000000000000000000000000000000000000000000000000000000000000000000000000000000000000000000000000000000000000000000000000000000000000000000000000000000000000000000000000000000000000000000000000000000000000000000000000000000000000000000000000000000000000000000000000000000000000000000000000000000000000000000000000000000000000000000000000000000000000000000000000000000000000000000000000000000000000000000000000000000000000000000000000000000000000000000000000000000000000000000000000",
            "difficulty": "0x00",
            "number": "0x00",
            "gasLimit": "0x016345785d8a0000",
            "gasUsed": "0x00",
            "timestamp": "0x00",
            "extraData": "0x00",
            "mixHash": "0x0000000000000000000000000000000000000000000000000000000000000000",
            "nonce": "0x0000000000000000",
            "baseFeePerGas": "0x07",
            "withdrawalsRoot": "0x56e81f171bcc55a6ff8345e692c0f86e5b48e01b996cadc001622fb5e363b421",
            "blobGasUsed": "0x00",
            "excessBlobGas": "0x00",
            "parentBeaconBlockRoot": "0x0000000000000000000000000000000000000000000000000000000000000000",
            "hash": "0x627fb20b946fc82e1a81a5a104c77faeb0c0fb5f734c34d1598a5aa4be4f262b"
        },
        "pre": {
            "0x000f3df6d732807ef1319fb7b8bb8522d0beac02": {
                "nonce": "0x01",
                "balance": "0x00",
                "code": "0x3373fffffffffffffffffffffffffffffffffffffffe14604d57602036146024575f5ffd5b5f35801560495762001fff810690815414603c575f5ffd5b62001fff01545f5260205ff35b5f5ffd5b62001fff42064281555f359062001fff015500",
                "storage": {}
            },
            "0xa94f5374fce5edbc8e2a8697c15331677e6ebf0b": {
                "nonce": "0x00",
                "balance": "0x056bc75e2d63100000",
                "code": "0x",
                "storage": {}
            },
            "0x64e2ebd6405af8cb348aec519084d3fff42ebba6": {
                "nonce": "0x00",
                "balance": "0x00",
                "code": "0x5f35805f14601c57600114600f57005b6001805401600155611234ff5b60015f54015f555f80f3",
                "storage": {}
            },
            "0x00000000000000000000000000000000deadbeef": {
                "nonce": "0x00",
                "balance": "0x02",
                "code": "0x5f356001815f1460385750600114601257005b60015f525f8060208160017364e2ebd6405af8cb348aec519084d3fff42ebba645f15f80fd5b5f80525f8060208160017364e2ebd6405af8cb348aec519084d3fff42ebba645f1505f525f80602081803045f1507364e2ebd6405af8cb348aec519084d3fff42ebba6316001555f80f3",
                "storage": {}
            }
        },
        "postState": {
            "0x000f3df6d732807ef1319fb7b8bb8522d0beac02": {
                "nonce": "0x01",
                "balance": "0x00",
                "code": "0x3373fffffffffffffffffffffffffffffffffffffffe14604d57602036146024575f5ffd5b5f35801560495762001fff810690815414603c575f5ffd5b62001fff01545f5260205ff35b5f5ffd5b62001fff42064281555f359062001fff015500",
                "storage": {
                    "0x03e8": "0x03e8"
                }
            },
            "0xa94f5374fce5edbc8e2a8697c15331677e6ebf0b": {
                "nonce": "0x01",
                "balance": "0x056bc75e2d62f5dbc6",
                "code": "0x",
                "storage": {}
            },
            "0x64e2ebd6405af8cb348aec519084d3fff42ebba6": {
                "nonce": "0x00",
                "balance": "0x01",
                "code": "0x5f35805f14601c57600114600f57005b6001805401600155611234ff5b60015f54015f555f80f3",
                "storage": {
                    "0x00": "0x01"
                }
            },
            "0x00000000000000000000000000000000deadbeef": {
                "nonce": "0x00",
                "balance": "0x01",
                "code": "0x5f356001815f1460385750600114601257005b60015f525f8060208160017364e2ebd6405af8cb348aec519084d3fff42ebba645f15f80fd5b5f80525f8060208160017364e2ebd6405af8cb348aec519084d3fff42ebba645f1505f525f80602081803045f1507364e2ebd6405af8cb348aec519084d3fff42ebba6316001555f80f3",
                "storage": {
                    "0x01": "0x01"
                }
            },
            "0x6295ee1b4f6dd65047762f924ecd367c17eabf8f": {
                "nonce": "0x01",
                "balance": "0x00",
                "code": "0x",
                "storage": {}
            },
            "0x2adc25665018aa1fe0e6bc666dac8fc2697ff9ba": {
                "nonce": "0x00",
                "balance": "0x07d7ab",
                "code": "0x",
                "storage": {}
            }
        },
        "lastblockhash": "0x09a0a91b6c7165e78326640a8240e5c7ab27482ce4f4c2ff37b6465caaa02cfd",
        "genesisRLP": "0xf90240f9023aa00000000000000000000000000000000000000000000000000000000000000000a01dcc4de8dec75d7aab85b567b6ccd41ad312451b948a7413f0a142fd40d49347940000000000000000000000000000000000000000a0d772463734155cf29ce700889c3459d8b77ec4e369f06c659222a1784ce8a167a056e81f171bcc55a6ff8345e692c0f86e5b48e01b996cadc001622fb5e363b421a056e81f171bcc55a6ff8345e692c0f86e5b48e01b996cadc001622fb5e363b421b9010000000000000000000000000000000000000000000000000000000000000000000000000000000000000000000000000000000000000000000000000000000000000000000000000000000000000000000000000000000000000000000000000000000000000000000000000000000000000000000000000000000000000000000000000000000000000000000000000000000000000000000000000000000000000000000000000000000000000000000000000000000000000000000000000000000000000000000000000000000000000000000000000000000000000000000000000000000000000000000000000000000000000000000000000000000000808088016345785d8a0000808000a0000000000000000000000000000000000000000000000000000000000000000088000000000000000007a056e81f171bcc55a6ff8345e692c0f86e5b48e01b996cadc001622fb5e363b4218080a00000000000000000000000000000000000000000000000000000000000000000c0c0c0",
        "blocks": [
            {
                "blockHeader": {
                    "parentHash": "0x627fb20b946fc82e1a81a5a104c77faeb0c0fb5f734c34d1598a5aa4be4f262b",
                    "uncleHash": "0x1dcc4de8dec75d7aab85b567b6ccd41ad312451b948a7413f0a142fd40d49347",
                    "coinbase": "0x2adc25665018aa1fe0e6bc666dac8fc2697ff9ba",
                    "stateRoot": "0x4b4ce582ce38f118ae9ebba22dae1587a1e8da62e581dbe3e215aa580a6e9f93",
                    "transactionsTrie": "0x55e85050eee060240a9e95528545359fb50abafb742be84542c0beb22a983695",
                    "receiptTrie": "0x5a85e038c890ce9997aef1da805caccfebd5d255cccad53de344193f5feb47dc",
                    "bloom": "0x00000000000000000000000000000000000000000000000000000000000000000000000000000000000000000000000000000000000000000000000000000000000000000000000000000000000000000000000000000000000000000000000000000000000000000000000000000000000000000000000000000000000000000000000000000000000000000000000000000000000000000000000000000000000000000000000000000000000000000000000000000000000000000000000000000000000000000000000000000000000000000000000000000000000000000000000000000000000000000000000000000000000000000000000000000000",
                    "difficulty": "0x00",
                    "number": "0x01",
                    "gasLimit": "0x016345785d8a0000",
                    "gasUsed": "0x029d39",
                    "timestamp": "0x03e8",
                    "extraData": "0x00",
                    "mixHash": "0x0000000000000000000000000000000000000000000000000000000000000000",
                    "nonce": "0x0000000000000000",
                    "baseFeePerGas": "0x07",
                    "withdrawalsRoot": "0x56e81f171bcc55a6ff8345e692c0f86e5b48e01b996cadc001622fb5e363b421",
                    "blobGasUsed": "0x00",
                    "excessBlobGas": "0x00",
                    "parentBeaconBlockRoot": "0x0000000000000000000000000000000000000000000000000000000000000000",
                    "hash": "0x09a0a91b6c7165e78326640a8240e5c7ab27482ce4f4c2ff37b6465caaa02cfd"
                },
                "transactions": [
                    {
                        "type": "0x00",
                        "chainId": "0x00",
                        "nonce": "0x00",
                        "gasPrice": "0x0a",
                        "gasLimit": "0x05f5e100",
                        "value": "0x00",
                        "data": "0x6000600060006000600063deadbeef45f1",
                        "v": "0x1c",
                        "r": "0x419971e241fd5f764e398a1f49165b4c3e6f2730a8d2a3b86828ea54af46ea83",
                        "s": "0x34623f6f80d32cfdf6196c9376594571f509a163e45bfef565d60a09508aaa70",
                        "sender": "0xa94f5374fce5edbc8e2a8697c15331677e6ebf0b",
                        "to": ""
                    }
                ],
                "uncleHeaders": [],
                "withdrawals": [],
                "rlp": "0xf902a6f9023fa0627fb20b946fc82e1a81a5a104c77faeb0c0fb5f734c34d1598a5aa4be4f262ba01dcc4de8dec75d7aab85b567b6ccd41ad312451b948a7413f0a142fd40d49347942adc25665018aa1fe0e6bc666dac8fc2697ff9baa04b4ce582ce38f118ae9ebba22dae1587a1e8da62e581dbe3e215aa580a6e9f93a055e85050eee060240a9e95528545359fb50abafb742be84542c0beb22a983695a05a85e038c890ce9997aef1da805caccfebd5d255cccad53de344193f5feb47dcb9010000000000000000000000000000000000000000000000000000000000000000000000000000000000000000000000000000000000000000000000000000000000000000000000000000000000000000000000000000000000000000000000000000000000000000000000000000000000000000000000000000000000000000000000000000000000000000000000000000000000000000000000000000000000000000000000000000000000000000000000000000000000000000000000000000000000000000000000000000000000000000000000000000000000000000000000000000000000000000000000000000000000000000000000000000000000800188016345785d8a000083029d398203e800a0000000000000000000000000000000000000000000000000000000000000000088000000000000000007a056e81f171bcc55a6ff8345e692c0f86e5b48e01b996cadc001622fb5e363b4218080a00000000000000000000000000000000000000000000000000000000000000000f860f85e800a8405f5e1008080916000600060006000600063deadbeef45f11ca0419971e241fd5f764e398a1f49165b4c3e6f2730a8d2a3b86828ea54af46ea83a034623f6f80d32cfdf6196c9376594571f509a163e45bfef565d60a09508aaa70c0c0",
                "blocknumber": "1"
            }
        ],
        "sealEngine": "NoProof",
        "_info": {
            "hash": "0x83241a4daac906eb1cc3ab1240d89b652507d8164df3d61d684bc43fc10ed450",
            "comment": "`execution-spec-tests` generated test",
            "filling-transition-tool": "ethereum-spec-evm-resolver 0.0.1",
            "description": "Test function documentation:\n\n    Same test as selfdestruct_created_in_same_tx_with_revert except selfdestructable contract\n    is pre-existing.",
            "url": "https://github.com/ethereum/execution-spec-tests/blob/8fbca341fb0f3eb3a08a296e8f8fa84f233f4faa/tests/cancun/eip6780_selfdestruct/test_selfdestruct_revert.py#L330",
            "fixture_format": "blockchain_test",
            "reference-spec": "https://github.com/ethereum/EIPs/blob/master/EIPS/eip-6780.md",
            "reference-spec-version": "2f8299df31bb8173618901a03a8366a3183479b0"
        }
    },
    "tests/cancun/eip6780_selfdestruct/test_selfdestruct_revert.py::test_selfdestruct_not_created_in_same_tx_with_revert[fork_Cancun-blockchain_test-outer_selfdestruct_before_inner_call]": {
        "network": "Cancun",
        "genesisBlockHeader": {
            "parentHash": "0x0000000000000000000000000000000000000000000000000000000000000000",
            "uncleHash": "0x1dcc4de8dec75d7aab85b567b6ccd41ad312451b948a7413f0a142fd40d49347",
            "coinbase": "0x0000000000000000000000000000000000000000",
            "stateRoot": "0x390ba410c3dc739004bd5c3a1eed97d1030108f93a780af20ffdc4e82fb573f8",
            "transactionsTrie": "0x56e81f171bcc55a6ff8345e692c0f86e5b48e01b996cadc001622fb5e363b421",
            "receiptTrie": "0x56e81f171bcc55a6ff8345e692c0f86e5b48e01b996cadc001622fb5e363b421",
            "bloom": "0x00000000000000000000000000000000000000000000000000000000000000000000000000000000000000000000000000000000000000000000000000000000000000000000000000000000000000000000000000000000000000000000000000000000000000000000000000000000000000000000000000000000000000000000000000000000000000000000000000000000000000000000000000000000000000000000000000000000000000000000000000000000000000000000000000000000000000000000000000000000000000000000000000000000000000000000000000000000000000000000000000000000000000000000000000000000",
            "difficulty": "0x00",
            "number": "0x00",
            "gasLimit": "0x016345785d8a0000",
            "gasUsed": "0x00",
            "timestamp": "0x00",
            "extraData": "0x00",
            "mixHash": "0x0000000000000000000000000000000000000000000000000000000000000000",
            "nonce": "0x0000000000000000",
            "baseFeePerGas": "0x07",
            "withdrawalsRoot": "0x56e81f171bcc55a6ff8345e692c0f86e5b48e01b996cadc001622fb5e363b421",
            "blobGasUsed": "0x00",
            "excessBlobGas": "0x00",
            "parentBeaconBlockRoot": "0x0000000000000000000000000000000000000000000000000000000000000000",
            "hash": "0x981ef231d84b72b49b97b7990f256de08fccbf14f8deede6f10b7b24283d3f75"
        },
        "pre": {
            "0x000f3df6d732807ef1319fb7b8bb8522d0beac02": {
                "nonce": "0x01",
                "balance": "0x00",
                "code": "0x3373fffffffffffffffffffffffffffffffffffffffe14604d57602036146024575f5ffd5b5f35801560495762001fff810690815414603c575f5ffd5b62001fff01545f5260205ff35b5f5ffd5b62001fff42064281555f359062001fff015500",
                "storage": {}
            },
            "0xa94f5374fce5edbc8e2a8697c15331677e6ebf0b": {
                "nonce": "0x00",
                "balance": "0x056bc75e2d63100000",
                "code": "0x",
                "storage": {}
            },
            "0x64e2ebd6405af8cb348aec519084d3fff42ebba6": {
                "nonce": "0x00",
                "balance": "0x00",
                "code": "0x5f35805f14601c57600114600f57005b6001805401600155611234ff5b60015f54015f555f80f3",
                "storage": {}
            },
            "0x00000000000000000000000000000000deadbeef": {
                "nonce": "0x00",
                "balance": "0x02",
                "code": "0x5f356001815f1460385750600114601257005b60015f525f8060208160017364e2ebd6405af8cb348aec519084d3fff42ebba645f15f80fd5b60015f525f8060208160017364e2ebd6405af8cb348aec519084d3fff42ebba645f1505f80525f8060208160017364e2ebd6405af8cb348aec519084d3fff42ebba645f1505f525f80602081803045f1507364e2ebd6405af8cb348aec519084d3fff42ebba6316001555f80f3",
                "storage": {}
            }
        },
        "postState": {
            "0x000f3df6d732807ef1319fb7b8bb8522d0beac02": {
                "nonce": "0x01",
                "balance": "0x00",
                "code": "0x3373fffffffffffffffffffffffffffffffffffffffe14604d57602036146024575f5ffd5b5f35801560495762001fff810690815414603c575f5ffd5b62001fff01545f5260205ff35b5f5ffd5b62001fff42064281555f359062001fff015500",
                "storage": {
                    "0x03e8": "0x03e8"
                }
            },
            "0xa94f5374fce5edbc8e2a8697c15331677e6ebf0b": {
                "nonce": "0x01",
                "balance": "0x056bc75e2d62f4d104",
                "code": "0x",
                "storage": {}
            },
            "0x64e2ebd6405af8cb348aec519084d3fff42ebba6": {
                "nonce": "0x00",
                "balance": "0x01",
                "code": "0x5f35805f14601c57600114600f57005b6001805401600155611234ff5b60015f54015f555f80f3",
                "storage": {
                    "0x01": "0x01",
                    "0x00": "0x01"
                }
            },
            "0x00000000000000000000000000000000deadbeef": {
                "nonce": "0x00",
                "balance": "0x00",
                "code": "0x5f356001815f1460385750600114601257005b60015f525f8060208160017364e2ebd6405af8cb348aec519084d3fff42ebba645f15f80fd5b60015f525f8060208160017364e2ebd6405af8cb348aec519084d3fff42ebba645f1505f80525f8060208160017364e2ebd6405af8cb348aec519084d3fff42ebba645f1505f525f80602081803045f1507364e2ebd6405af8cb348aec519084d3fff42ebba6316001555f80f3",
                "storage": {
                    "0x01": "0x01"
                }
            },
            "0x6295ee1b4f6dd65047762f924ecd367c17eabf8f": {
                "nonce": "0x01",
                "balance": "0x00",
                "code": "0x",
                "storage": {}
            },
            "0x0000000000000000000000000000000000001234": {
                "nonce": "0x00",
                "balance": "0x01",
                "code": "0x",
                "storage": {}
            },
            "0x2adc25665018aa1fe0e6bc666dac8fc2697ff9ba": {
                "nonce": "0x00",
                "balance": "0x0827b2",
                "code": "0x",
                "storage": {}
            }
        },
        "lastblockhash": "0x760763cd4209f211956f20eae9f4ea02aa19b13563f18b9326e75870d8820c31",
        "genesisRLP": "0xf90240f9023aa00000000000000000000000000000000000000000000000000000000000000000a01dcc4de8dec75d7aab85b567b6ccd41ad312451b948a7413f0a142fd40d49347940000000000000000000000000000000000000000a0390ba410c3dc739004bd5c3a1eed97d1030108f93a780af20ffdc4e82fb573f8a056e81f171bcc55a6ff8345e692c0f86e5b48e01b996cadc001622fb5e363b421a056e81f171bcc55a6ff8345e692c0f86e5b48e01b996cadc001622fb5e363b421b9010000000000000000000000000000000000000000000000000000000000000000000000000000000000000000000000000000000000000000000000000000000000000000000000000000000000000000000000000000000000000000000000000000000000000000000000000000000000000000000000000000000000000000000000000000000000000000000000000000000000000000000000000000000000000000000000000000000000000000000000000000000000000000000000000000000000000000000000000000000000000000000000000000000000000000000000000000000000000000000000000000000000000000000000000000000000808088016345785d8a0000808000a0000000000000000000000000000000000000000000000000000000000000000088000000000000000007a056e81f171bcc55a6ff8345e692c0f86e5b48e01b996cadc001622fb5e363b4218080a00000000000000000000000000000000000000000000000000000000000000000c0c0c0",
        "blocks": [
            {
                "blockHeader": {
                    "parentHash": "0x981ef231d84b72b49b97b7990f256de08fccbf14f8deede6f10b7b24283d3f75",
                    "uncleHash": "0x1dcc4de8dec75d7aab85b567b6ccd41ad312451b948a7413f0a142fd40d49347",
                    "coinbase": "0x2adc25665018aa1fe0e6bc666dac8fc2697ff9ba",
                    "stateRoot": "0x18cc06a59e116006a31dc116eea92081ff171efc9850b2c1ea12f029c00a4a2b",
                    "transactionsTrie": "0x55e85050eee060240a9e95528545359fb50abafb742be84542c0beb22a983695",
                    "receiptTrie": "0x2b2a17d912ddec154bca4150120ec2698b6b22dd70bf7bf02f1661196c64d537",
                    "bloom": "0x00000000000000000000000000000000000000000000000000000000000000000000000000000000000000000000000000000000000000000000000000000000000000000000000000000000000000000000000000000000000000000000000000000000000000000000000000000000000000000000000000000000000000000000000000000000000000000000000000000000000000000000000000000000000000000000000000000000000000000000000000000000000000000000000000000000000000000000000000000000000000000000000000000000000000000000000000000000000000000000000000000000000000000000000000000000",
                    "difficulty": "0x00",
                    "number": "0x01",
                    "gasLimit": "0x016345785d8a0000",
                    "gasUsed": "0x02b7e6",
                    "timestamp": "0x03e8",
                    "extraData": "0x00",
                    "mixHash": "0x0000000000000000000000000000000000000000000000000000000000000000",
                    "nonce": "0x0000000000000000",
                    "baseFeePerGas": "0x07",
                    "withdrawalsRoot": "0x56e81f171bcc55a6ff8345e692c0f86e5b48e01b996cadc001622fb5e363b421",
                    "blobGasUsed": "0x00",
                    "excessBlobGas": "0x00",
                    "parentBeaconBlockRoot": "0x0000000000000000000000000000000000000000000000000000000000000000",
                    "hash": "0x760763cd4209f211956f20eae9f4ea02aa19b13563f18b9326e75870d8820c31"
                },
                "transactions": [
                    {
                        "type": "0x00",
                        "chainId": "0x00",
                        "nonce": "0x00",
                        "gasPrice": "0x0a",
                        "gasLimit": "0x05f5e100",
                        "value": "0x00",
                        "data": "0x6000600060006000600063deadbeef45f1",
                        "v": "0x1c",
                        "r": "0x419971e241fd5f764e398a1f49165b4c3e6f2730a8d2a3b86828ea54af46ea83",
                        "s": "0x34623f6f80d32cfdf6196c9376594571f509a163e45bfef565d60a09508aaa70",
                        "sender": "0xa94f5374fce5edbc8e2a8697c15331677e6ebf0b",
                        "to": ""
                    }
                ],
                "uncleHeaders": [],
                "withdrawals": [],
                "rlp": "0xf902a6f9023fa0981ef231d84b72b49b97b7990f256de08fccbf14f8deede6f10b7b24283d3f75a01dcc4de8dec75d7aab85b567b6ccd41ad312451b948a7413f0a142fd40d49347942adc25665018aa1fe0e6bc666dac8fc2697ff9baa018cc06a59e116006a31dc116eea92081ff171efc9850b2c1ea12f029c00a4a2ba055e85050eee060240a9e95528545359fb50abafb742be84542c0beb22a983695a02b2a17d912ddec154bca4150120ec2698b6b22dd70bf7bf02f1661196c64d537b9010000000000000000000000000000000000000000000000000000000000000000000000000000000000000000000000000000000000000000000000000000000000000000000000000000000000000000000000000000000000000000000000000000000000000000000000000000000000000000000000000000000000000000000000000000000000000000000000000000000000000000000000000000000000000000000000000000000000000000000000000000000000000000000000000000000000000000000000000000000000000000000000000000000000000000000000000000000000000000000000000000000000000000000000000000000000800188016345785d8a00008302b7e68203e800a0000000000000000000000000000000000000000000000000000000000000000088000000000000000007a056e81f171bcc55a6ff8345e692c0f86e5b48e01b996cadc001622fb5e363b4218080a00000000000000000000000000000000000000000000000000000000000000000f860f85e800a8405f5e1008080916000600060006000600063deadbeef45f11ca0419971e241fd5f764e398a1f49165b4c3e6f2730a8d2a3b86828ea54af46ea83a034623f6f80d32cfdf6196c9376594571f509a163e45bfef565d60a09508aaa70c0c0",
                "blocknumber": "1"
            }
        ],
        "sealEngine": "NoProof",
        "_info": {
            "hash": "0xd9faaa414ce56762439d77f5b71470302fa83f7d9d8b509a70adda5969365a4d",
            "comment": "`execution-spec-tests` generated test",
            "filling-transition-tool": "ethereum-spec-evm-resolver 0.0.1",
            "description": "Test function documentation:\n\n    Same test as selfdestruct_created_in_same_tx_with_revert except selfdestructable contract\n    is pre-existing.",
            "url": "https://github.com/ethereum/execution-spec-tests/blob/8fbca341fb0f3eb3a08a296e8f8fa84f233f4faa/tests/cancun/eip6780_selfdestruct/test_selfdestruct_revert.py#L330",
            "fixture_format": "blockchain_test",
            "reference-spec": "https://github.com/ethereum/EIPs/blob/master/EIPS/eip-6780.md",
            "reference-spec-version": "2f8299df31bb8173618901a03a8366a3183479b0"
        }
    },
    "tests/cancun/eip6780_selfdestruct/test_selfdestruct_revert.py::test_selfdestruct_not_created_in_same_tx_with_revert[fork_Cancun-blockchain_test-outer_selfdestruct_after_inner_call]": {
        "network": "Cancun",
        "genesisBlockHeader": {
            "parentHash": "0x0000000000000000000000000000000000000000000000000000000000000000",
            "uncleHash": "0x1dcc4de8dec75d7aab85b567b6ccd41ad312451b948a7413f0a142fd40d49347",
            "coinbase": "0x0000000000000000000000000000000000000000",
            "stateRoot": "0xcd4318ebeef9a8b1c3752a6ff375885a1233950124f6681c178dd1a1e0bd3a57",
            "transactionsTrie": "0x56e81f171bcc55a6ff8345e692c0f86e5b48e01b996cadc001622fb5e363b421",
            "receiptTrie": "0x56e81f171bcc55a6ff8345e692c0f86e5b48e01b996cadc001622fb5e363b421",
            "bloom": "0x00000000000000000000000000000000000000000000000000000000000000000000000000000000000000000000000000000000000000000000000000000000000000000000000000000000000000000000000000000000000000000000000000000000000000000000000000000000000000000000000000000000000000000000000000000000000000000000000000000000000000000000000000000000000000000000000000000000000000000000000000000000000000000000000000000000000000000000000000000000000000000000000000000000000000000000000000000000000000000000000000000000000000000000000000000000",
            "difficulty": "0x00",
            "number": "0x00",
            "gasLimit": "0x016345785d8a0000",
            "gasUsed": "0x00",
            "timestamp": "0x00",
            "extraData": "0x00",
            "mixHash": "0x0000000000000000000000000000000000000000000000000000000000000000",
            "nonce": "0x0000000000000000",
            "baseFeePerGas": "0x07",
            "withdrawalsRoot": "0x56e81f171bcc55a6ff8345e692c0f86e5b48e01b996cadc001622fb5e363b421",
            "blobGasUsed": "0x00",
            "excessBlobGas": "0x00",
            "parentBeaconBlockRoot": "0x0000000000000000000000000000000000000000000000000000000000000000",
            "hash": "0x2e96f13ffd5002cce47dbabb750fc253cc7fd4cb136c64c827d1dfea6e02e82f"
        },
        "pre": {
            "0x000f3df6d732807ef1319fb7b8bb8522d0beac02": {
                "nonce": "0x01",
                "balance": "0x00",
                "code": "0x3373fffffffffffffffffffffffffffffffffffffffe14604d57602036146024575f5ffd5b5f35801560495762001fff810690815414603c575f5ffd5b62001fff01545f5260205ff35b5f5ffd5b62001fff42064281555f359062001fff015500",
                "storage": {}
            },
            "0xa94f5374fce5edbc8e2a8697c15331677e6ebf0b": {
                "nonce": "0x00",
                "balance": "0x056bc75e2d63100000",
                "code": "0x",
                "storage": {}
            },
            "0x64e2ebd6405af8cb348aec519084d3fff42ebba6": {
                "nonce": "0x00",
                "balance": "0x00",
                "code": "0x5f35805f14601c57600114600f57005b6001805401600155611234ff5b60015f54015f555f80f3",
                "storage": {}
            },
            "0x00000000000000000000000000000000deadbeef": {
                "nonce": "0x00",
                "balance": "0x02",
                "code": "0x5f356001815f1460385750600114601257005b60015f525f8060208160017364e2ebd6405af8cb348aec519084d3fff42ebba645f15f80fd5b5f80525f8060208160017364e2ebd6405af8cb348aec519084d3fff42ebba645f1505f525f80602081803045f1507364e2ebd6405af8cb348aec519084d3fff42ebba63160015560015f525f8060208160017364e2ebd6405af8cb348aec519084d3fff42ebba645f15f80f3",
                "storage": {}
            }
        },
        "postState": {
            "0x000f3df6d732807ef1319fb7b8bb8522d0beac02": {
                "nonce": "0x01",
                "balance": "0x00",
                "code": "0x3373fffffffffffffffffffffffffffffffffffffffe14604d57602036146024575f5ffd5b5f35801560495762001fff810690815414603c575f5ffd5b62001fff01545f5260205ff35b5f5ffd5b62001fff42064281555f359062001fff015500",
                "storage": {
                    "0x03e8": "0x03e8"
                }
            },
            "0xa94f5374fce5edbc8e2a8697c15331677e6ebf0b": {
                "nonce": "0x01",
                "balance": "0x056bc75e2d62ec75fe",
                "code": "0x",
                "storage": {}
            },
            "0x64e2ebd6405af8cb348aec519084d3fff42ebba6": {
                "nonce": "0x00",
                "balance": "0x00",
                "code": "0x5f35805f14601c57600114600f57005b6001805401600155611234ff5b60015f54015f555f80f3",
                "storage": {
                    "0x00": "0x01",
                    "0x01": "0x01"
                }
            },
            "0x00000000000000000000000000000000deadbeef": {
                "nonce": "0x00",
                "balance": "0x00",
                "code": "0x5f356001815f1460385750600114601257005b60015f525f8060208160017364e2ebd6405af8cb348aec519084d3fff42ebba645f15f80fd5b5f80525f8060208160017364e2ebd6405af8cb348aec519084d3fff42ebba645f1505f525f80602081803045f1507364e2ebd6405af8cb348aec519084d3fff42ebba63160015560015f525f8060208160017364e2ebd6405af8cb348aec519084d3fff42ebba645f15f80f3",
                "storage": {
                    "0x01": "0x01"
                }
            },
            "0x6295ee1b4f6dd65047762f924ecd367c17eabf8f": {
                "nonce": "0x01",
                "balance": "0x00",
                "code": "0x",
                "storage": {}
            },
            "0x0000000000000000000000000000000000001234": {
                "nonce": "0x00",
                "balance": "0x02",
                "code": "0x",
                "storage": {}
            },
            "0x2adc25665018aa1fe0e6bc666dac8fc2697ff9ba": {
                "nonce": "0x00",
                "balance": "0x0aa967",
                "code": "0x",
                "storage": {}
            }
        },
        "lastblockhash": "0xf73bcf77d344c78791befa1e6f79d3aae3ca84ba0a26668df4dcefcaabae6b9c",
        "genesisRLP": "0xf90240f9023aa00000000000000000000000000000000000000000000000000000000000000000a01dcc4de8dec75d7aab85b567b6ccd41ad312451b948a7413f0a142fd40d49347940000000000000000000000000000000000000000a0cd4318ebeef9a8b1c3752a6ff375885a1233950124f6681c178dd1a1e0bd3a57a056e81f171bcc55a6ff8345e692c0f86e5b48e01b996cadc001622fb5e363b421a056e81f171bcc55a6ff8345e692c0f86e5b48e01b996cadc001622fb5e363b421b9010000000000000000000000000000000000000000000000000000000000000000000000000000000000000000000000000000000000000000000000000000000000000000000000000000000000000000000000000000000000000000000000000000000000000000000000000000000000000000000000000000000000000000000000000000000000000000000000000000000000000000000000000000000000000000000000000000000000000000000000000000000000000000000000000000000000000000000000000000000000000000000000000000000000000000000000000000000000000000000000000000000000000000000000000000000000808088016345785d8a0000808000a0000000000000000000000000000000000000000000000000000000000000000088000000000000000007a056e81f171bcc55a6ff8345e692c0f86e5b48e01b996cadc001622fb5e363b4218080a00000000000000000000000000000000000000000000000000000000000000000c0c0c0",
        "blocks": [
            {
                "blockHeader": {
                    "parentHash": "0x2e96f13ffd5002cce47dbabb750fc253cc7fd4cb136c64c827d1dfea6e02e82f",
                    "uncleHash": "0x1dcc4de8dec75d7aab85b567b6ccd41ad312451b948a7413f0a142fd40d49347",
                    "coinbase": "0x2adc25665018aa1fe0e6bc666dac8fc2697ff9ba",
                    "stateRoot": "0xf72758f62598d2e8b893cf7079a7036be5fda7a03ea35936a6e4114f747efc92",
                    "transactionsTrie": "0x55e85050eee060240a9e95528545359fb50abafb742be84542c0beb22a983695",
                    "receiptTrie": "0x351e7dcbba13e398136c4380d2d3ee78cbf05e1145f068ab39a81e152ab604ea",
                    "bloom": "0x00000000000000000000000000000000000000000000000000000000000000000000000000000000000000000000000000000000000000000000000000000000000000000000000000000000000000000000000000000000000000000000000000000000000000000000000000000000000000000000000000000000000000000000000000000000000000000000000000000000000000000000000000000000000000000000000000000000000000000000000000000000000000000000000000000000000000000000000000000000000000000000000000000000000000000000000000000000000000000000000000000000000000000000000000000000",
                    "difficulty": "0x00",
                    "number": "0x01",
                    "gasLimit": "0x016345785d8a0000",
                    "gasUsed": "0x038dcd",
                    "timestamp": "0x03e8",
                    "extraData": "0x00",
                    "mixHash": "0x0000000000000000000000000000000000000000000000000000000000000000",
                    "nonce": "0x0000000000000000",
                    "baseFeePerGas": "0x07",
                    "withdrawalsRoot": "0x56e81f171bcc55a6ff8345e692c0f86e5b48e01b996cadc001622fb5e363b421",
                    "blobGasUsed": "0x00",
                    "excessBlobGas": "0x00",
                    "parentBeaconBlockRoot": "0x0000000000000000000000000000000000000000000000000000000000000000",
                    "hash": "0xf73bcf77d344c78791befa1e6f79d3aae3ca84ba0a26668df4dcefcaabae6b9c"
                },
                "transactions": [
                    {
                        "type": "0x00",
                        "chainId": "0x00",
                        "nonce": "0x00",
                        "gasPrice": "0x0a",
                        "gasLimit": "0x05f5e100",
                        "value": "0x00",
                        "data": "0x6000600060006000600063deadbeef45f1",
                        "v": "0x1c",
                        "r": "0x419971e241fd5f764e398a1f49165b4c3e6f2730a8d2a3b86828ea54af46ea83",
                        "s": "0x34623f6f80d32cfdf6196c9376594571f509a163e45bfef565d60a09508aaa70",
                        "sender": "0xa94f5374fce5edbc8e2a8697c15331677e6ebf0b",
                        "to": ""
                    }
                ],
                "uncleHeaders": [],
                "withdrawals": [],
                "rlp": "0xf902a6f9023fa02e96f13ffd5002cce47dbabb750fc253cc7fd4cb136c64c827d1dfea6e02e82fa01dcc4de8dec75d7aab85b567b6ccd41ad312451b948a7413f0a142fd40d49347942adc25665018aa1fe0e6bc666dac8fc2697ff9baa0f72758f62598d2e8b893cf7079a7036be5fda7a03ea35936a6e4114f747efc92a055e85050eee060240a9e95528545359fb50abafb742be84542c0beb22a983695a0351e7dcbba13e398136c4380d2d3ee78cbf05e1145f068ab39a81e152ab604eab9010000000000000000000000000000000000000000000000000000000000000000000000000000000000000000000000000000000000000000000000000000000000000000000000000000000000000000000000000000000000000000000000000000000000000000000000000000000000000000000000000000000000000000000000000000000000000000000000000000000000000000000000000000000000000000000000000000000000000000000000000000000000000000000000000000000000000000000000000000000000000000000000000000000000000000000000000000000000000000000000000000000000000000000000000000000000800188016345785d8a000083038dcd8203e800a0000000000000000000000000000000000000000000000000000000000000000088000000000000000007a056e81f171bcc55a6ff8345e692c0f86e5b48e01b996cadc001622fb5e363b4218080a00000000000000000000000000000000000000000000000000000000000000000f860f85e800a8405f5e1008080916000600060006000600063deadbeef45f11ca0419971e241fd5f764e398a1f49165b4c3e6f2730a8d2a3b86828ea54af46ea83a034623f6f80d32cfdf6196c9376594571f509a163e45bfef565d60a09508aaa70c0c0",
                "blocknumber": "1"
            }
        ],
        "sealEngine": "NoProof",
        "_info": {
            "hash": "0xc417703bf3d50444c42408811cc3e6bd80171049824322dba3708c90b40a2b27",
            "comment": "`execution-spec-tests` generated test",
            "filling-transition-tool": "ethereum-spec-evm-resolver 0.0.1",
            "description": "Test function documentation:\n\n    Same test as selfdestruct_created_in_same_tx_with_revert except selfdestructable contract\n    is pre-existing.",
            "url": "https://github.com/ethereum/execution-spec-tests/blob/8fbca341fb0f3eb3a08a296e8f8fa84f233f4faa/tests/cancun/eip6780_selfdestruct/test_selfdestruct_revert.py#L330",
            "fixture_format": "blockchain_test",
            "reference-spec": "https://github.com/ethereum/EIPs/blob/master/EIPS/eip-6780.md",
            "reference-spec-version": "2f8299df31bb8173618901a03a8366a3183479b0"
        }
    }
}