{
    "tests/cancun/eip4788_beacon_root/test_beacon_root_contract.py::test_invalid_beacon_root_calldata_value[fork_Cancun-blockchain_test-timestamp_12-valid_call_False-valid_input_False-zero_calldata]": {
        "network": "Cancun",
        "genesisBlockHeader": {
            "parentHash": "0x0000000000000000000000000000000000000000000000000000000000000000",
            "uncleHash": "0x1dcc4de8dec75d7aab85b567b6ccd41ad312451b948a7413f0a142fd40d49347",
            "coinbase": "0x0000000000000000000000000000000000000000",
            "stateRoot": "0x6f78ee01791dd8a62b4e2e86fae3d7957df9fa7f7a717ae537f90bb0c79df296",
            "transactionsTrie": "0x56e81f171bcc55a6ff8345e692c0f86e5b48e01b996cadc001622fb5e363b421",
            "receiptTrie": "0x56e81f171bcc55a6ff8345e692c0f86e5b48e01b996cadc001622fb5e363b421",
            "bloom": "0x00000000000000000000000000000000000000000000000000000000000000000000000000000000000000000000000000000000000000000000000000000000000000000000000000000000000000000000000000000000000000000000000000000000000000000000000000000000000000000000000000000000000000000000000000000000000000000000000000000000000000000000000000000000000000000000000000000000000000000000000000000000000000000000000000000000000000000000000000000000000000000000000000000000000000000000000000000000000000000000000000000000000000000000000000000000",
            "difficulty": "0x00",
            "number": "0x00",
            "gasLimit": "0x016345785d8a0000",
            "gasUsed": "0x00",
            "timestamp": "0x00",
            "extraData": "0x00",
            "mixHash": "0x0000000000000000000000000000000000000000000000000000000000000000",
            "nonce": "0x0000000000000000",
            "baseFeePerGas": "0x07",
            "withdrawalsRoot": "0x56e81f171bcc55a6ff8345e692c0f86e5b48e01b996cadc001622fb5e363b421",
            "blobGasUsed": "0x00",
            "excessBlobGas": "0x00",
            "parentBeaconBlockRoot": "0x0000000000000000000000000000000000000000000000000000000000000000",
            "hash": "0x338e5f2a5ba99968a22fc072966f5068b03d94c3adc6dbab3e3753aba34ad69c"
        },
        "pre": {
            "0x000f3df6d732807ef1319fb7b8bb8522d0beac02": {
                "nonce": "0x01",
                "balance": "0x00",
                "code": "0x3373fffffffffffffffffffffffffffffffffffffffe14604d57602036146024575f5ffd5b5f35801560495762001fff810690815414603c575f5ffd5b62001fff01545f5260205ff35b5f5ffd5b62001fff42064281555f359062001fff015500",
                "storage": {}
            },
            "0x0000000000000000000000000000000000001000": {
                "nonce": "0x01",
                "balance": "0x010000000000",
                "code": "0x366000602037602060003660206000720f3df6d732807ef1319fb7b8bb8522d0beac02620186a0f16000556000516001553d6002553d600060003e600051600355",
                "storage": {}
            },
            "0xa94f5374fce5edbc8e2a8697c15331677e6ebf0b": {
                "nonce": "0x00",
                "balance": "0x3635c9adc5dea00000",
                "code": "0x",
                "storage": {}
            }
        },
        "postState": {
            "0x000f3df6d732807ef1319fb7b8bb8522d0beac02": {
                "nonce": "0x01",
                "balance": "0x00",
                "code": "0x3373fffffffffffffffffffffffffffffffffffffffe14604d57602036146024575f5ffd5b5f35801560495762001fff810690815414603c575f5ffd5b62001fff01545f5260205ff35b5f5ffd5b62001fff42064281555f359062001fff015500",
                "storage": {
                    "0x0c": "0x0c",
                    "0x200b": "0x6c31fc15422ebad28aaf9089c306702f67540b53c7eea8b7d2941044b027100f"
                }
            },
            "0x0000000000000000000000000000000000001000": {
                "nonce": "0x01",
                "balance": "0x010000000000",
                "code": "0x366000602037602060003660206000720f3df6d732807ef1319fb7b8bb8522d0beac02620186a0f16000556000516001553d6002553d600060003e600051600355",
                "storage": {}
            },
            "0xa94f5374fce5edbc8e2a8697c15331677e6ebf0b": {
                "nonce": "0x01",
                "balance": "0x3635c9adc5de9c827d",
                "code": "0x",
                "storage": {}
            }
        },
        "lastblockhash": "0x2d0cbf218ef0e8f1d8c9bbcd493fa02e3302f7e1797cdf5c2c5cd6042f392839",
        "genesisRLP": "0xf90240f9023aa00000000000000000000000000000000000000000000000000000000000000000a01dcc4de8dec75d7aab85b567b6ccd41ad312451b948a7413f0a142fd40d49347940000000000000000000000000000000000000000a06f78ee01791dd8a62b4e2e86fae3d7957df9fa7f7a717ae537f90bb0c79df296a056e81f171bcc55a6ff8345e692c0f86e5b48e01b996cadc001622fb5e363b421a056e81f171bcc55a6ff8345e692c0f86e5b48e01b996cadc001622fb5e363b421b9010000000000000000000000000000000000000000000000000000000000000000000000000000000000000000000000000000000000000000000000000000000000000000000000000000000000000000000000000000000000000000000000000000000000000000000000000000000000000000000000000000000000000000000000000000000000000000000000000000000000000000000000000000000000000000000000000000000000000000000000000000000000000000000000000000000000000000000000000000000000000000000000000000000000000000000000000000000000000000000000000000000000000000000000000000000000808088016345785d8a0000808000a0000000000000000000000000000000000000000000000000000000000000000088000000000000000007a056e81f171bcc55a6ff8345e692c0f86e5b48e01b996cadc001622fb5e363b4218080a00000000000000000000000000000000000000000000000000000000000000000c0c0c0",
        "blocks": [
            {
                "blockHeader": {
                    "parentHash": "0x338e5f2a5ba99968a22fc072966f5068b03d94c3adc6dbab3e3753aba34ad69c",
                    "uncleHash": "0x1dcc4de8dec75d7aab85b567b6ccd41ad312451b948a7413f0a142fd40d49347",
                    "coinbase": "0x2adc25665018aa1fe0e6bc666dac8fc2697ff9ba",
                    "stateRoot": "0xe5412e80269f8c03446762e45c96d9e0b477420e8539b155e8a3d178365f69e3",
                    "transactionsTrie": "0xab2c285ef80af2bafa175a764456259a63b9e67ce9a9dfc6610b5ea9f1293f77",
                    "receiptTrie": "0x68c77af57edcce761e567f9a9ec926cb645559840bbe32b730b6d14094de96e5",
                    "bloom": "0x00000000000000000000000000000000000000000000000000000000000000000000000000000000000000000000000000000000000000000000000000000000000000000000000000000000000000000000000000000000000000000000000000000000000000000000000000000000000000000000000000000000000000000000000000000000000000000000000000000000000000000000000000000000000000000000000000000000000000000000000000000000000000000000000000000000000000000000000000000000000000000000000000000000000000000000000000000000000000000000000000000000000000000000000000000000",
                    "difficulty": "0x00",
                    "number": "0x01",
                    "gasLimit": "0x016345785d8a0000",
                    "gasUsed": "0x7fa5",
                    "timestamp": "0x0c",
                    "extraData": "0x",
                    "mixHash": "0x0000000000000000000000000000000000000000000000000000000000000000",
                    "nonce": "0x0000000000000000",
                    "baseFeePerGas": "0x07",
                    "withdrawalsRoot": "0x56e81f171bcc55a6ff8345e692c0f86e5b48e01b996cadc001622fb5e363b421",
                    "blobGasUsed": "0x00",
                    "excessBlobGas": "0x00",
                    "parentBeaconBlockRoot": "0x6c31fc15422ebad28aaf9089c306702f67540b53c7eea8b7d2941044b027100f",
                    "hash": "0x2d0cbf218ef0e8f1d8c9bbcd493fa02e3302f7e1797cdf5c2c5cd6042f392839"
                },
                "transactions": [
                    {
                        "type": "0x02",
                        "chainId": "0x01",
                        "nonce": "0x00",
                        "maxPriorityFeePerGas": "0x00",
                        "maxFeePerGas": "0x07",
                        "gasLimit": "0x0f4240",
                        "to": "0x0000000000000000000000000000000000001000",
                        "value": "0x00",
                        "data": "0x0000000000000000000000000000000000000000000000000000000000000000",
                        "accessList": [],
                        "v": "0x01",
                        "r": "0xcdbdc11192937bc9cfb4640865f244eadbcff6122da496fe0810de9815f5a909",
                        "s": "0x456c516399c56ec3f6a2ecc276a1c5f53ce46182901503a42212365d17018f3c",
                        "sender": "0xa94f5374fce5edbc8e2a8697c15331677e6ebf0b"
                    }
                ],
                "uncleHeaders": [],
                "withdrawals": [],
                "rlp": "0xf902cbf9023ca0338e5f2a5ba99968a22fc072966f5068b03d94c3adc6dbab3e3753aba34ad69ca01dcc4de8dec75d7aab85b567b6ccd41ad312451b948a7413f0a142fd40d49347942adc25665018aa1fe0e6bc666dac8fc2697ff9baa0e5412e80269f8c03446762e45c96d9e0b477420e8539b155e8a3d178365f69e3a0ab2c285ef80af2bafa175a764456259a63b9e67ce9a9dfc6610b5ea9f1293f77a068c77af57edcce761e567f9a9ec926cb645559840bbe32b730b6d14094de96e5b9010000000000000000000000000000000000000000000000000000000000000000000000000000000000000000000000000000000000000000000000000000000000000000000000000000000000000000000000000000000000000000000000000000000000000000000000000000000000000000000000000000000000000000000000000000000000000000000000000000000000000000000000000000000000000000000000000000000000000000000000000000000000000000000000000000000000000000000000000000000000000000000000000000000000000000000000000000000000000000000000000000000000000000000000000000000000800188016345785d8a0000827fa50c80a0000000000000000000000000000000000000000000000000000000000000000088000000000000000007a056e81f171bcc55a6ff8345e692c0f86e5b48e01b996cadc001622fb5e363b4218080a06c31fc15422ebad28aaf9089c306702f67540b53c7eea8b7d2941044b027100ff888b88602f88301808007830f424094000000000000000000000000000000000000100080a00000000000000000000000000000000000000000000000000000000000000000c001a0cdbdc11192937bc9cfb4640865f244eadbcff6122da496fe0810de9815f5a909a0456c516399c56ec3f6a2ecc276a1c5f53ce46182901503a42212365d17018f3cc0c0",
                "blocknumber": "1"
            }
        ],
        "sealEngine": "NoProof",
        "_info": {
            "hash": "0x7e787ee3e8711b9659a7d1aafe31a8647910f3ed4edf79c59ed8642f05d0a2ba",
            "comment": "`execution-spec-tests` generated test",
            "filling-transition-tool": "ethereum-spec-evm-resolver 0.0.1",
            "description": "Test function documentation:\n\n    Tests the beacon root contract call using invalid input values:\n    - zero calldata.\n\n    Contract should revert.",
            "url": "https://github.com/ethereum/execution-spec-tests/blob/8fbca341fb0f3eb3a08a296e8f8fa84f233f4faa/tests/cancun/eip4788_beacon_root/test_beacon_root_contract.py#L223",
            "fixture_format": "blockchain_test",
            "reference-spec": "https://github.com/ethereum/EIPs/blob/master/EIPS/eip-4788.md",
            "reference-spec-version": "e7608fe8ac8a60934ca874f5aab7d5c1f4ff7782"
        }
    }
}
