{
    "tests/cancun/eip1153_tstore/test_basic_tload.py::test_basic_tload_works[fork_Cancun-blockchain_test]": {
        "network": "Cancun",
        "genesisBlockHeader": {
            "parentHash": "0x0000000000000000000000000000000000000000000000000000000000000000",
            "uncleHash": "0x1dcc4de8dec75d7aab85b567b6ccd41ad312451b948a7413f0a142fd40d49347",
            "coinbase": "0x0000000000000000000000000000000000000000",
            "stateRoot": "0xf01fa54edd4a40785ac638ab0aba695452a2f8a75c0b1d9c539aaf110539a6bb",
            "transactionsTrie": "0x56e81f171bcc55a6ff8345e692c0f86e5b48e01b996cadc001622fb5e363b421",
            "receiptTrie": "0x56e81f171bcc55a6ff8345e692c0f86e5b48e01b996cadc001622fb5e363b421",
            "bloom": "0x00000000000000000000000000000000000000000000000000000000000000000000000000000000000000000000000000000000000000000000000000000000000000000000000000000000000000000000000000000000000000000000000000000000000000000000000000000000000000000000000000000000000000000000000000000000000000000000000000000000000000000000000000000000000000000000000000000000000000000000000000000000000000000000000000000000000000000000000000000000000000000000000000000000000000000000000000000000000000000000000000000000000000000000000000000000",
            "difficulty": "0x00",
            "number": "0x00",
            "gasLimit": "0x016345785d8a0000",
            "gasUsed": "0x00",
            "timestamp": "0x00",
            "extraData": "0x00",
            "mixHash": "0x0000000000000000000000000000000000000000000000000000000000000000",
            "nonce": "0x0000000000000000",
            "baseFeePerGas": "0x07",
            "withdrawalsRoot": "0x56e81f171bcc55a6ff8345e692c0f86e5b48e01b996cadc001622fb5e363b421",
            "blobGasUsed": "0x00",
            "excessBlobGas": "0x00",
            "parentBeaconBlockRoot": "0x0000000000000000000000000000000000000000000000000000000000000000",
            "hash": "0x15b9418e19f369d6546c0152c51255d07d39b1aa4903ca94fbb86ef011971445"
        },
        "pre": {
            "0x000f3df6d732807ef1319fb7b8bb8522d0beac02": {
                "nonce": "0x01",
                "balance": "0x00",
                "code": "0x3373fffffffffffffffffffffffffffffffffffffffe14604d57602036146024575f5ffd5b5f35801560495762001fff810690815414603c575f5ffd5b62001fff01545f5260205ff35b5f5ffd5b62001fff42064281555f359062001fff015500",
                "storage": {}
            },
            "0x0000000000000000000000000000000000001000": {
                "nonce": "0x01",
                "balance": "0x00",
                "code": "0x5b605860025d60025c60005560025c6001556001600255",
                "storage": {
                    "0x00": "0xff",
                    "0x01": "0xff"
                }
            },
            "0xa94f5374fce5edbc8e2a8697c15331677e6ebf0b": {
                "nonce": "0x00",
                "balance": "0x6124fee993bc0000",
                "code": "0x",
                "storage": {}
            }
        },
        "postState": {
            "0x000f3df6d732807ef1319fb7b8bb8522d0beac02": {
                "nonce": "0x01",
                "balance": "0x00",
                "code": "0x3373fffffffffffffffffffffffffffffffffffffffe14604d57602036146024575f5ffd5b5f35801560495762001fff810690815414603c575f5ffd5b62001fff01545f5260205ff35b5f5ffd5b62001fff42064281555f359062001fff015500",
                "storage": {
                    "0x03e8": "0x03e8"
                }
            },
            "0x0000000000000000000000000000000000001000": {
                "nonce": "0x01",
                "balance": "0x00",
                "code": "0x5b605860025d60025c60005560025c6001556001600255",
                "storage": {
                    "0x00": "0x58",
                    "0x01": "0x58",
                    "0x02": "0x01"
                }
            },
            "0xa94f5374fce5edbc8e2a8697c15331677e6ebf0b": {
                "nonce": "0x01",
                "balance": "0x6124fee993b3d916",
                "code": "0x",
                "storage": {}
            },
            "0x2adc25665018aa1fe0e6bc666dac8fc2697ff9ba": {
                "nonce": "0x00",
                "balance": "0x027213",
                "code": "0x",
                "storage": {}
            }
        },
        "lastblockhash": "0xba375ca7166ec404d99504928a3a372808d6af7bf8652e3fb57b829461e83161",
        "genesisRLP": "0xf90240f9023aa00000000000000000000000000000000000000000000000000000000000000000a01dcc4de8dec75d7aab85b567b6ccd41ad312451b948a7413f0a142fd40d49347940000000000000000000000000000000000000000a0f01fa54edd4a40785ac638ab0aba695452a2f8a75c0b1d9c539aaf110539a6bba056e81f171bcc55a6ff8345e692c0f86e5b48e01b996cadc001622fb5e363b421a056e81f171bcc55a6ff8345e692c0f86e5b48e01b996cadc001622fb5e363b421b9010000000000000000000000000000000000000000000000000000000000000000000000000000000000000000000000000000000000000000000000000000000000000000000000000000000000000000000000000000000000000000000000000000000000000000000000000000000000000000000000000000000000000000000000000000000000000000000000000000000000000000000000000000000000000000000000000000000000000000000000000000000000000000000000000000000000000000000000000000000000000000000000000000000000000000000000000000000000000000000000000000000000000000000000000000000000808088016345785d8a0000808000a0000000000000000000000000000000000000000000000000000000000000000088000000000000000007a056e81f171bcc55a6ff8345e692c0f86e5b48e01b996cadc001622fb5e363b4218080a00000000000000000000000000000000000000000000000000000000000000000c0c0c0",
        "blocks": [
            {
                "blockHeader": {
                    "parentHash": "0x15b9418e19f369d6546c0152c51255d07d39b1aa4903ca94fbb86ef011971445",
                    "uncleHash": "0x1dcc4de8dec75d7aab85b567b6ccd41ad312451b948a7413f0a142fd40d49347",
                    "coinbase": "0x2adc25665018aa1fe0e6bc666dac8fc2697ff9ba",
                    "stateRoot": "0x6945596ce7ab253085f28995b29ee45db85c62a203a213d987f7d37e98886a2c",
                    "transactionsTrie": "0x9f804927394e1bb027ab6bf8ff6e762b16b7ff74520bcd0a49855a5bb9e8e1e3",
                    "receiptTrie": "0xf3dec156b64f20d484030981f00abedfdbadee0bdd0478aa6b548ccacfaa73da",
                    "bloom": "0x00000000000000000000000000000000000000000000000000000000000000000000000000000000000000000000000000000000000000000000000000000000000000000000000000000000000000000000000000000000000000000000000000000000000000000000000000000000000000000000000000000000000000000000000000000000000000000000000000000000000000000000000000000000000000000000000000000000000000000000000000000000000000000000000000000000000000000000000000000000000000000000000000000000000000000000000000000000000000000000000000000000000000000000000000000000",
                    "difficulty": "0x00",
                    "number": "0x01",
                    "gasLimit": "0x016345785d8a0000",
                    "gasUsed": "0xd0b1",
                    "timestamp": "0x03e8",
                    "extraData": "0x00",
                    "mixHash": "0x0000000000000000000000000000000000000000000000000000000000000000",
                    "nonce": "0x0000000000000000",
                    "baseFeePerGas": "0x07",
                    "withdrawalsRoot": "0x56e81f171bcc55a6ff8345e692c0f86e5b48e01b996cadc001622fb5e363b421",
                    "blobGasUsed": "0x00",
                    "excessBlobGas": "0x00",
                    "parentBeaconBlockRoot": "0x0000000000000000000000000000000000000000000000000000000000000000",
                    "hash": "0xba375ca7166ec404d99504928a3a372808d6af7bf8652e3fb57b829461e83161"
                },
                "transactions": [
                    {
                        "type": "0x00",
                        "chainId": "0x01",
                        "nonce": "0x00",
                        "gasPrice": "0x0a",
                        "gasLimit": "0x4c4b40",
                        "to": "0x0000000000000000000000000000000000001000",
                        "value": "0x00",
                        "data": "0x",
                        "v": "0x25",
                        "r": "0x7efdff7ec6ddfbc04e90c94f5d44dd9933bf9215257a940fa439299794d8270d",
                        "s": "0x6b46d6e5e225d1977bca6e97f3f1c654e6adb48fc5c655ea8880aa68d45bfa56",
                        "sender": "0xa94f5374fce5edbc8e2a8697c15331677e6ebf0b"
                    }
                ],
                "uncleHeaders": [],
                "withdrawals": [],
                "rlp": "0xf902a7f9023ea015b9418e19f369d6546c0152c51255d07d39b1aa4903ca94fbb86ef011971445a01dcc4de8dec75d7aab85b567b6ccd41ad312451b948a7413f0a142fd40d49347942adc25665018aa1fe0e6bc666dac8fc2697ff9baa06945596ce7ab253085f28995b29ee45db85c62a203a213d987f7d37e98886a2ca09f804927394e1bb027ab6bf8ff6e762b16b7ff74520bcd0a49855a5bb9e8e1e3a0f3dec156b64f20d484030981f00abedfdbadee0bdd0478aa6b548ccacfaa73dab9010000000000000000000000000000000000000000000000000000000000000000000000000000000000000000000000000000000000000000000000000000000000000000000000000000000000000000000000000000000000000000000000000000000000000000000000000000000000000000000000000000000000000000000000000000000000000000000000000000000000000000000000000000000000000000000000000000000000000000000000000000000000000000000000000000000000000000000000000000000000000000000000000000000000000000000000000000000000000000000000000000000000000000000000000000000000800188016345785d8a000082d0b18203e800a0000000000000000000000000000000000000000000000000000000000000000088000000000000000007a056e81f171bcc55a6ff8345e692c0f86e5b48e01b996cadc001622fb5e363b4218080a00000000000000000000000000000000000000000000000000000000000000000f862f860800a834c4b40940000000000000000000000000000000000001000808025a07efdff7ec6ddfbc04e90c94f5d44dd9933bf9215257a940fa439299794d8270da06b46d6e5e225d1977bca6e97f3f1c654e6adb48fc5c655ea8880aa68d45bfa56c0c0",
                "blocknumber": "1"
            }
        ],
        "sealEngine": "NoProof",
        "_info": {
            "hash": "0xf6280e5a55e9e5be547f0b6ceac64211c762abcfb340df328da7c91e647afcb1",
            "comment": "`execution-spec-tests` generated test",
            "filling-transition-tool": "ethereum-spec-evm-resolver 0.0.1",
            "description": "Test function documentation:\n\n    Ported .json vectors.\n\n    (02_tloadAfterTstoreFiller.yml)\n    tload from same slot after tstore returns correct value",
            "url": "https://github.com/ethereum/execution-spec-tests/blob/8fbca341fb0f3eb3a08a296e8f8fa84f233f4faa/tests/cancun/eip1153_tstore/test_basic_tload.py#L64",
            "fixture_format": "blockchain_test",
            "reference-spec": "https://github.com/ethereum/EIPs/blob/master/EIPS/eip-1153.md",
            "reference-spec-version": "6f0be621c76a05a7b3aaf0e9297afd425c26e9d0"
        }
    }
}