{
    "tests/cancun/eip7516_blobgasfee/test_blobgasfee_opcode.py::test_blobbasefee_out_of_gas[fork_Cancun-blockchain_test_engine-enough_gas]": {
        "network": "Cancun",
        "genesisBlockHeader": {
            "parentHash": "0x0000000000000000000000000000000000000000000000000000000000000000",
            "uncleHash": "0x1dcc4de8dec75d7aab85b567b6ccd41ad312451b948a7413f0a142fd40d49347",
            "coinbase": "0x0000000000000000000000000000000000000000",
            "stateRoot": "0xb012c3b5569cda75319f16f56e379a706e49053f1c1e6e2de1d749a3cd9db871",
            "transactionsTrie": "0x56e81f171bcc55a6ff8345e692c0f86e5b48e01b996cadc001622fb5e363b421",
            "receiptTrie": "0x56e81f171bcc55a6ff8345e692c0f86e5b48e01b996cadc001622fb5e363b421",
            "bloom": "0x00000000000000000000000000000000000000000000000000000000000000000000000000000000000000000000000000000000000000000000000000000000000000000000000000000000000000000000000000000000000000000000000000000000000000000000000000000000000000000000000000000000000000000000000000000000000000000000000000000000000000000000000000000000000000000000000000000000000000000000000000000000000000000000000000000000000000000000000000000000000000000000000000000000000000000000000000000000000000000000000000000000000000000000000000000000",
            "difficulty": "0x00",
            "number": "0x00",
            "gasLimit": "0x016345785d8a0000",
            "gasUsed": "0x00",
            "timestamp": "0x00",
            "extraData": "0x00",
            "mixHash": "0x0000000000000000000000000000000000000000000000000000000000000000",
            "nonce": "0x0000000000000000",
            "baseFeePerGas": "0x07",
            "withdrawalsRoot": "0x56e81f171bcc55a6ff8345e692c0f86e5b48e01b996cadc001622fb5e363b421",
            "blobGasUsed": "0x00",
            "excessBlobGas": "0x00",
            "parentBeaconBlockRoot": "0x0000000000000000000000000000000000000000000000000000000000000000",
            "hash": "0x91adad20170fd39d34548379be5900c4c5a76fce63cc10a6ac2dcb193616cab4"
        },
        "pre": {
            "0x000f3df6d732807ef1319fb7b8bb8522d0beac02": {
                "nonce": "0x01",
                "balance": "0x00",
                "code": "0x3373fffffffffffffffffffffffffffffffffffffffe14604d57602036146024575f5ffd5b5f35801560495762001fff810690815414603c575f5ffd5b62001fff01545f5260205ff35b5f5ffd5b62001fff42064281555f359062001fff015500",
                "storage": {}
            },
            "0x0000000000000000000000000000000000001000": {
                "nonce": "0x01",
                "balance": "0x00",
                "code": "0x4a00",
                "storage": {}
            },
            "0x0000000000000000000000000000000000001100": {
                "nonce": "0x01",
                "balance": "0x00",
                "code": "0x600060006000600060006110006002f14355",
                "storage": {}
            },
            "0xa94f5374fce5edbc8e2a8697c15331677e6ebf0b": {
                "nonce": "0x00",
                "balance": "0x3635c9adc5dea00000",
                "code": "0x",
                "storage": {}
            }
        },
        "postState": {
            "0x000f3df6d732807ef1319fb7b8bb8522d0beac02": {
                "nonce": "0x01",
                "balance": "0x00",
                "code": "0x3373fffffffffffffffffffffffffffffffffffffffe14604d57602036146024575f5ffd5b5f35801560495762001fff810690815414603c575f5ffd5b62001fff01545f5260205ff35b5f5ffd5b62001fff42064281555f359062001fff015500",
                "storage": {
                    "0x03e8": "0x03e8"
                }
            },
            "0x0000000000000000000000000000000000001000": {
                "nonce": "0x01",
                "balance": "0x00",
                "code": "0x4a00",
                "storage": {}
            },
            "0x0000000000000000000000000000000000001100": {
                "nonce": "0x01",
                "balance": "0x00",
                "code": "0x600060006000600060006110006002f14355",
                "storage": {
                    "0x01": "0x01"
                }
            },
            "0xa94f5374fce5edbc8e2a8697c15331677e6ebf0b": {
                "nonce": "0x01",
                "balance": "0x3635c9adc5de9905de",
                "code": "0x",
                "storage": {}
            },
            "0x2adc25665018aa1fe0e6bc666dac8fc2697ff9ba": {
                "nonce": "0x00",
                "balance": "0x0217d7",
                "code": "0x",
                "storage": {}
            }
        },
        "lastblockhash": "0x322a03092d577e2e2e75b06ec5daa62ff624e361962632251588fd92b3058d51",
        "engineNewPayloads": [
            {
                "params": [
                    {
                        "parentHash": "0x91adad20170fd39d34548379be5900c4c5a76fce63cc10a6ac2dcb193616cab4",
                        "feeRecipient": "0x2adc25665018aa1fe0e6bc666dac8fc2697ff9ba",
                        "stateRoot": "0x19a9514fbed64c07833ea8c8a1cc6433503d90d679f81339c45cdeb45abb5e36",
                        "receiptsRoot": "0x029086b067b48abbd5d8cdade9e4161e288342af5850ca5c07d626db2c52c1b6",
                        "logsBloom": "0x00000000000000000000000000000000000000000000000000000000000000000000000000000000000000000000000000000000000000000000000000000000000000000000000000000000000000000000000000000000000000000000000000000000000000000000000000000000000000000000000000000000000000000000000000000000000000000000000000000000000000000000000000000000000000000000000000000000000000000000000000000000000000000000000000000000000000000000000000000000000000000000000000000000000000000000000000000000000000000000000000000000000000000000000000000000",
                        "blockNumber": "0x1",
                        "gasLimit": "0x16345785d8a0000",
                        "gasUsed": "0xb29d",
                        "timestamp": "0x3e8",
                        "extraData": "0x00",
                        "prevRandao": "0x0000000000000000000000000000000000000000000000000000000000000000",
                        "baseFeePerGas": "0x7",
                        "blobGasUsed": "0x0",
                        "excessBlobGas": "0x0",
                        "blockHash": "0x322a03092d577e2e2e75b06ec5daa62ff624e361962632251588fd92b3058d51",
                        "transactions": [
                            "0xf860800a830f4240940000000000000000000000000000000000001100808025a0ae470d7da8404176546d3a7697b2e3ae957efde6c03d33075dcf9c70bd5f6685a038c93673ba928426221e7e315a75dd0be0e2ea74b5a0a91d7482dbfdb339b362"
                        ],
                        "withdrawals": []
                    },
                    [],
                    "0x0000000000000000000000000000000000000000000000000000000000000000"
                ],
                "newPayloadVersion": "3",
                "forkchoiceUpdatedVersion": "3"
            }
        ],
        "_info": {
            "hash": "0x62f70f3a239a6f02a39bc6734a02cc47271747e94f6a68f4ea8952a06918a5d7",
            "comment": "`execution-spec-tests` generated test",
            "filling-transition-tool": "ethereum-spec-evm-resolver 0.0.1",
            "description": "Test function documentation:\nTests that the BLOBBASEFEE opcode fails with insufficient gas.",
            "url": "https://github.com/ethereum/execution-spec-tests/blob/8fbca341fb0f3eb3a08a296e8f8fa84f233f4faa/tests/cancun/eip7516_blobgasfee/test_blobgasfee_opcode.py#L116",
            "fixture_format": "blockchain_test_engine",
            "reference-spec": "https://github.com/ethereum/EIPs/blob/master/EIPS/eip-7516.md",
            "reference-spec-version": "2ade0452efe8124378f35284676ddfd16dd56ecd"
        }
    },
    "tests/cancun/eip7516_blobgasfee/test_blobgasfee_opcode.py::test_blobbasefee_out_of_gas[fork_Cancun-blockchain_test_engine-out_of_gas]": {
        "network": "Cancun",
        "genesisBlockHeader": {
            "parentHash": "0x0000000000000000000000000000000000000000000000000000000000000000",
            "uncleHash": "0x1dcc4de8dec75d7aab85b567b6ccd41ad312451b948a7413f0a142fd40d49347",
            "coinbase": "0x0000000000000000000000000000000000000000",
            "stateRoot": "0x89c2a06b06ffc0b49f31fa31b87c98d46ec29e054c31a6a81ac0412e1f180093",
            "transactionsTrie": "0x56e81f171bcc55a6ff8345e692c0f86e5b48e01b996cadc001622fb5e363b421",
            "receiptTrie": "0x56e81f171bcc55a6ff8345e692c0f86e5b48e01b996cadc001622fb5e363b421",
            "bloom": "0x00000000000000000000000000000000000000000000000000000000000000000000000000000000000000000000000000000000000000000000000000000000000000000000000000000000000000000000000000000000000000000000000000000000000000000000000000000000000000000000000000000000000000000000000000000000000000000000000000000000000000000000000000000000000000000000000000000000000000000000000000000000000000000000000000000000000000000000000000000000000000000000000000000000000000000000000000000000000000000000000000000000000000000000000000000000",
            "difficulty": "0x00",
            "number": "0x00",
            "gasLimit": "0x016345785d8a0000",
            "gasUsed": "0x00",
            "timestamp": "0x00",
            "extraData": "0x00",
            "mixHash": "0x0000000000000000000000000000000000000000000000000000000000000000",
            "nonce": "0x0000000000000000",
            "baseFeePerGas": "0x07",
            "withdrawalsRoot": "0x56e81f171bcc55a6ff8345e692c0f86e5b48e01b996cadc001622fb5e363b421",
            "blobGasUsed": "0x00",
            "excessBlobGas": "0x00",
            "parentBeaconBlockRoot": "0x0000000000000000000000000000000000000000000000000000000000000000",
            "hash": "0xcdf1e758b2e3d2d372e340938ccee32855ce10e47f8ae9490b3eb14f35ce12e3"
        },
        "pre": {
            "0x000f3df6d732807ef1319fb7b8bb8522d0beac02": {
                "nonce": "0x01",
                "balance": "0x00",
                "code": "0x3373fffffffffffffffffffffffffffffffffffffffe14604d57602036146024575f5ffd5b5f35801560495762001fff810690815414603c575f5ffd5b62001fff01545f5260205ff35b5f5ffd5b62001fff42064281555f359062001fff015500",
                "storage": {}
            },
            "0x0000000000000000000000000000000000001000": {
                "nonce": "0x01",
                "balance": "0x00",
                "code": "0x4a00",
                "storage": {}
            },
            "0x0000000000000000000000000000000000001100": {
                "nonce": "0x01",
                "balance": "0x00",
                "code": "0x600060006000600060006110006001f14355",
                "storage": {}
            },
            "0xa94f5374fce5edbc8e2a8697c15331677e6ebf0b": {
                "nonce": "0x00",
                "balance": "0x3635c9adc5dea00000",
                "code": "0x",
                "storage": {}
            }
        },
        "postState": {
            "0x000f3df6d732807ef1319fb7b8bb8522d0beac02": {
                "nonce": "0x01",
                "balance": "0x00",
                "code": "0x3373fffffffffffffffffffffffffffffffffffffffe14604d57602036146024575f5ffd5b5f35801560495762001fff810690815414603c575f5ffd5b62001fff01545f5260205ff35b5f5ffd5b62001fff42064281555f359062001fff015500",
                "storage": {
                    "0x03e8": "0x03e8"
                }
            },
            "0x0000000000000000000000000000000000001000": {
                "nonce": "0x01",
                "balance": "0x00",
                "code": "0x4a00",
                "storage": {}
            },
            "0x0000000000000000000000000000000000001100": {
                "nonce": "0x01",
                "balance": "0x00",
                "code": "0x600060006000600060006110006001f14355",
                "storage": {}
            },
            "0xa94f5374fce5edbc8e2a8697c15331677e6ebf0b": {
                "nonce": "0x01",
                "balance": "0x3635c9adc5de9c0f40",
                "code": "0x",
                "storage": {}
            },
            "0x2adc25665018aa1fe0e6bc666dac8fc2697ff9ba": {
                "nonce": "0x00",
                "balance": "0x012ea0",
                "code": "0x",
                "storage": {}
            }
        },
        "lastblockhash": "0x6b1c27fe24947752eaddd7bd504b0f016420987355a25f5897ba7f92fa2ac70d",
        "engineNewPayloads": [
            {
                "params": [
                    {
                        "parentHash": "0xcdf1e758b2e3d2d372e340938ccee32855ce10e47f8ae9490b3eb14f35ce12e3",
                        "feeRecipient": "0x2adc25665018aa1fe0e6bc666dac8fc2697ff9ba",
                        "stateRoot": "0xb8d082be08d7ce1cc96cc29a73301bdc25d471647410da0cc29a772e0b120de1",
                        "receiptsRoot": "0x8a464492414faf91bfcbcf3d97be0aac9f570e7c2792cc63eda61d7be8768d30",
                        "logsBloom": "0x00000000000000000000000000000000000000000000000000000000000000000000000000000000000000000000000000000000000000000000000000000000000000000000000000000000000000000000000000000000000000000000000000000000000000000000000000000000000000000000000000000000000000000000000000000000000000000000000000000000000000000000000000000000000000000000000000000000000000000000000000000000000000000000000000000000000000000000000000000000000000000000000000000000000000000000000000000000000000000000000000000000000000000000000000000000",
                        "blockNumber": "0x1",
                        "gasLimit": "0x16345785d8a0000",
                        "gasUsed": "0x64e0",
                        "timestamp": "0x3e8",
                        "extraData": "0x00",
                        "prevRandao": "0x0000000000000000000000000000000000000000000000000000000000000000",
                        "baseFeePerGas": "0x7",
                        "blobGasUsed": "0x0",
                        "excessBlobGas": "0x0",
                        "blockHash": "0x6b1c27fe24947752eaddd7bd504b0f016420987355a25f5897ba7f92fa2ac70d",
                        "transactions": [
                            "0xf860800a830f4240940000000000000000000000000000000000001100808025a0ae470d7da8404176546d3a7697b2e3ae957efde6c03d33075dcf9c70bd5f6685a038c93673ba928426221e7e315a75dd0be0e2ea74b5a0a91d7482dbfdb339b362"
                        ],
                        "withdrawals": []
                    },
                    [],
                    "0x0000000000000000000000000000000000000000000000000000000000000000"
                ],
                "newPayloadVersion": "3",
                "forkchoiceUpdatedVersion": "3"
            }
        ],
        "_info": {
            "hash": "0xb1fc7eff1ce6ae9f7caf6793600237c4700c99289f7d9630c27972fdc2cba928",
            "comment": "`execution-spec-tests` generated test",
            "filling-transition-tool": "ethereum-spec-evm-resolver 0.0.1",
            "description": "Test function documentation:\nTests that the BLOBBASEFEE opcode fails with insufficient gas.",
            "url": "https://github.com/ethereum/execution-spec-tests/blob/8fbca341fb0f3eb3a08a296e8f8fa84f233f4faa/tests/cancun/eip7516_blobgasfee/test_blobgasfee_opcode.py#L116",
            "fixture_format": "blockchain_test_engine",
            "reference-spec": "https://github.com/ethereum/EIPs/blob/master/EIPS/eip-7516.md",
            "reference-spec-version": "2ade0452efe8124378f35284676ddfd16dd56ecd"
        }
    }
}