{
    "tests/cancun/eip1153_tstore/test_tstorage.py::test_tload_after_tstore_is_zero[fork_Cancun-blockchain_test]": {
        "network": "Cancun",
        "genesisBlockHeader": {
            "parentHash": "0x0000000000000000000000000000000000000000000000000000000000000000",
            "uncleHash": "0x1dcc4de8dec75d7aab85b567b6ccd41ad312451b948a7413f0a142fd40d49347",
            "coinbase": "0x0000000000000000000000000000000000000000",
            "stateRoot": "0xe6c23e808a2e2f1e1e966845e071f15faad131837ea1c1f4c73327fa07924f12",
            "transactionsTrie": "0x56e81f171bcc55a6ff8345e692c0f86e5b48e01b996cadc001622fb5e363b421",
            "receiptTrie": "0x56e81f171bcc55a6ff8345e692c0f86e5b48e01b996cadc001622fb5e363b421",
            "bloom": "0x00000000000000000000000000000000000000000000000000000000000000000000000000000000000000000000000000000000000000000000000000000000000000000000000000000000000000000000000000000000000000000000000000000000000000000000000000000000000000000000000000000000000000000000000000000000000000000000000000000000000000000000000000000000000000000000000000000000000000000000000000000000000000000000000000000000000000000000000000000000000000000000000000000000000000000000000000000000000000000000000000000000000000000000000000000000",
            "difficulty": "0x00",
            "number": "0x00",
            "gasLimit": "0x016345785d8a0000",
            "gasUsed": "0x00",
            "timestamp": "0x00",
            "extraData": "0x00",
            "mixHash": "0x0000000000000000000000000000000000000000000000000000000000000000",
            "nonce": "0x0000000000000000",
            "baseFeePerGas": "0x07",
            "withdrawalsRoot": "0x56e81f171bcc55a6ff8345e692c0f86e5b48e01b996cadc001622fb5e363b421",
            "blobGasUsed": "0x00",
            "excessBlobGas": "0x00",
            "parentBeaconBlockRoot": "0x0000000000000000000000000000000000000000000000000000000000000000",
            "hash": "0x54a5b8b44e815c518fb3ae8ed0f76b5dba3635c9932cbd63c9a1ecd325b1a826"
        },
        "pre": {
            "0x000f3df6d732807ef1319fb7b8bb8522d0beac02": {
                "nonce": "0x01",
                "balance": "0x00",
                "code": "0x3373fffffffffffffffffffffffffffffffffffffffe14604d57602036146024575f5ffd5b5f35801560495762001fff810690815414603c575f5ffd5b62001fff01545f5260205ff35b5f5ffd5b62001fff42064281555f359062001fff015500",
                "storage": {}
            },
            "0x0000000000000000000000000000000000001000": {
                "nonce": "0x01",
                "balance": "0x00",
                "code": "0x6104d260015d6104d260045d6104d27001000000000000000000000000000000005d6104d27ffffffffffffffffffffffffffffffffffffffffffffffffffffffffffffffffe5d60005c60005560035c6003556fffffffffffffffffffffffffffffffff5c6fffffffffffffffffffffffffffffffff557ffffffffffffffffffffffffffffffffffffffffffffffffffffffffffffffffd5c7ffffffffffffffffffffffffffffffffffffffffffffffffffffffffffffffffd5560025c60025560055c6005557001000000000000000000000000000000015c700100000000000000000000000000000001557fffffffffffffffffffffffffffffffffffffffffffffffffffffffffffffffff5c7fffffffffffffffffffffffffffffffffffffffffffffffffffffffffffffffff55",
                "storage": {
                    "0x01": "0xffff",
                    "0x04": "0xffff",
                    "0x0100000000000000000000000000000000": "0xffff",
                    "0xfffffffffffffffffffffffffffffffffffffffffffffffffffffffffffffffe": "0xffff",
                    "0x00": "0xffff",
                    "0x03": "0xffff",
                    "0xffffffffffffffffffffffffffffffff": "0xffff",
                    "0xfffffffffffffffffffffffffffffffffffffffffffffffffffffffffffffffd": "0xffff",
                    "0x02": "0xffff",
                    "0x05": "0xffff",
                    "0x0100000000000000000000000000000001": "0xffff",
                    "0xffffffffffffffffffffffffffffffffffffffffffffffffffffffffffffffff": "0xffff"
                }
            },
            "0xa94f5374fce5edbc8e2a8697c15331677e6ebf0b": {
                "nonce": "0x00",
                "balance": "0x3635c9adc5dea00000",
                "code": "0x",
                "storage": {}
            }
        },
        "postState": {
            "0x000f3df6d732807ef1319fb7b8bb8522d0beac02": {
                "nonce": "0x01",
                "balance": "0x00",
                "code": "0x3373fffffffffffffffffffffffffffffffffffffffe14604d57602036146024575f5ffd5b5f35801560495762001fff810690815414603c575f5ffd5b62001fff01545f5260205ff35b5f5ffd5b62001fff42064281555f359062001fff015500",
                "storage": {
                    "0x03e8": "0x03e8"
                }
            },
            "0x0000000000000000000000000000000000001000": {
                "nonce": "0x01",
                "balance": "0x00",
                "code": "0x6104d260015d6104d260045d6104d27001000000000000000000000000000000005d6104d27ffffffffffffffffffffffffffffffffffffffffffffffffffffffffffffffffe5d60005c60005560035c6003556fffffffffffffffffffffffffffffffff5c6fffffffffffffffffffffffffffffffff557ffffffffffffffffffffffffffffffffffffffffffffffffffffffffffffffffd5c7ffffffffffffffffffffffffffffffffffffffffffffffffffffffffffffffffd5560025c60025560055c6005557001000000000000000000000000000000015c700100000000000000000000000000000001557fffffffffffffffffffffffffffffffffffffffffffffffffffffffffffffffff5c7fffffffffffffffffffffffffffffffffffffffffffffffffffffffffffffffff55",
                "storage": {
                    "0x01": "0xffff",
                    "0x04": "0xffff",
                    "0x0100000000000000000000000000000000": "0xffff",
                    "0xfffffffffffffffffffffffffffffffffffffffffffffffffffffffffffffffe": "0xffff"
                }
            },
            "0xa94f5374fce5edbc8e2a8697c15331677e6ebf0b": {
                "nonce": "0x01",
                "balance": "0x3635c9adc5de9865fc",
                "code": "0x",
                "storage": {}
            },
            "0x2adc25665018aa1fe0e6bc666dac8fc2697ff9ba": {
                "nonce": "0x00",
                "balance": "0x0247ce",
                "code": "0x",
                "storage": {}
            }
        },
        "lastblockhash": "0xfc04d20e29a9fa3188cc676138cfb20f71b912d246f14a866b17ec79b5724b1b",
        "genesisRLP": "0xf90240f9023aa00000000000000000000000000000000000000000000000000000000000000000a01dcc4de8dec75d7aab85b567b6ccd41ad312451b948a7413f0a142fd40d49347940000000000000000000000000000000000000000a0e6c23e808a2e2f1e1e966845e071f15faad131837ea1c1f4c73327fa07924f12a056e81f171bcc55a6ff8345e692c0f86e5b48e01b996cadc001622fb5e363b421a056e81f171bcc55a6ff8345e692c0f86e5b48e01b996cadc001622fb5e363b421b9010000000000000000000000000000000000000000000000000000000000000000000000000000000000000000000000000000000000000000000000000000000000000000000000000000000000000000000000000000000000000000000000000000000000000000000000000000000000000000000000000000000000000000000000000000000000000000000000000000000000000000000000000000000000000000000000000000000000000000000000000000000000000000000000000000000000000000000000000000000000000000000000000000000000000000000000000000000000000000000000000000000000000000000000000000000000808088016345785d8a0000808000a0000000000000000000000000000000000000000000000000000000000000000088000000000000000007a056e81f171bcc55a6ff8345e692c0f86e5b48e01b996cadc001622fb5e363b4218080a00000000000000000000000000000000000000000000000000000000000000000c0c0c0",
        "blocks": [
            {
                "blockHeader": {
                    "parentHash": "0x54a5b8b44e815c518fb3ae8ed0f76b5dba3635c9932cbd63c9a1ecd325b1a826",
                    "uncleHash": "0x1dcc4de8dec75d7aab85b567b6ccd41ad312451b948a7413f0a142fd40d49347",
                    "coinbase": "0x2adc25665018aa1fe0e6bc666dac8fc2697ff9ba",
                    "stateRoot": "0xce48056672180c22019daaa43d386508c5537dc10862ac4f0cd0e0165f2c0cba",
                    "transactionsTrie": "0x8ffc765b1796d3d70169aa9eb4dc393e5fedb29ca379bb79a9a3ee5ab567cbd1",
                    "receiptTrie": "0x77e65041c9f39e32cbc3c7313c8a3470959f7a66b7d07ea289d94db481a1e916",
                    "bloom": "0x00000000000000000000000000000000000000000000000000000000000000000000000000000000000000000000000000000000000000000000000000000000000000000000000000000000000000000000000000000000000000000000000000000000000000000000000000000000000000000000000000000000000000000000000000000000000000000000000000000000000000000000000000000000000000000000000000000000000000000000000000000000000000000000000000000000000000000000000000000000000000000000000000000000000000000000000000000000000000000000000000000000000000000000000000000000",
                    "difficulty": "0x00",
                    "number": "0x01",
                    "gasLimit": "0x016345785d8a0000",
                    "gasUsed": "0xc29a",
                    "timestamp": "0x03e8",
                    "extraData": "0x00",
                    "mixHash": "0x0000000000000000000000000000000000000000000000000000000000000000",
                    "nonce": "0x0000000000000000",
                    "baseFeePerGas": "0x07",
                    "withdrawalsRoot": "0x56e81f171bcc55a6ff8345e692c0f86e5b48e01b996cadc001622fb5e363b421",
                    "blobGasUsed": "0x00",
                    "excessBlobGas": "0x00",
                    "parentBeaconBlockRoot": "0x0000000000000000000000000000000000000000000000000000000000000000",
                    "hash": "0xfc04d20e29a9fa3188cc676138cfb20f71b912d246f14a866b17ec79b5724b1b"
                },
                "transactions": [
                    {
                        "type": "0x00",
                        "chainId": "0x01",
                        "nonce": "0x00",
                        "gasPrice": "0x0a",
                        "gasLimit": "0x0f4240",
                        "to": "0x0000000000000000000000000000000000001000",
                        "value": "0x00",
                        "data": "0x",
                        "v": "0x26",
                        "r": "0x7b0cbd2d85800843e73b1a917828915aaaf49021e4c7896ecc4fcc460e070cf5",
                        "s": "0x71bda31b1d867df266f75bd3fb2efd3ac4aef1b574d092593346940024f69c9a",
                        "sender": "0xa94f5374fce5edbc8e2a8697c15331677e6ebf0b"
                    }
                ],
                "uncleHeaders": [],
                "withdrawals": [],
                "rlp": "0xf902a7f9023ea054a5b8b44e815c518fb3ae8ed0f76b5dba3635c9932cbd63c9a1ecd325b1a826a01dcc4de8dec75d7aab85b567b6ccd41ad312451b948a7413f0a142fd40d49347942adc25665018aa1fe0e6bc666dac8fc2697ff9baa0ce48056672180c22019daaa43d386508c5537dc10862ac4f0cd0e0165f2c0cbaa08ffc765b1796d3d70169aa9eb4dc393e5fedb29ca379bb79a9a3ee5ab567cbd1a077e65041c9f39e32cbc3c7313c8a3470959f7a66b7d07ea289d94db481a1e916b9010000000000000000000000000000000000000000000000000000000000000000000000000000000000000000000000000000000000000000000000000000000000000000000000000000000000000000000000000000000000000000000000000000000000000000000000000000000000000000000000000000000000000000000000000000000000000000000000000000000000000000000000000000000000000000000000000000000000000000000000000000000000000000000000000000000000000000000000000000000000000000000000000000000000000000000000000000000000000000000000000000000000000000000000000000000000800188016345785d8a000082c29a8203e800a0000000000000000000000000000000000000000000000000000000000000000088000000000000000007a056e81f171bcc55a6ff8345e692c0f86e5b48e01b996cadc001622fb5e363b4218080a00000000000000000000000000000000000000000000000000000000000000000f862f860800a830f4240940000000000000000000000000000000000001000808026a07b0cbd2d85800843e73b1a917828915aaaf49021e4c7896ecc4fcc460e070cf5a071bda31b1d867df266f75bd3fb2efd3ac4aef1b574d092593346940024f69c9ac0c0",
                "blocknumber": "1"
            }
        ],
        "sealEngine": "NoProof",
        "_info": {
            "hash": "0x82cdadefc46bf04e5394e6d052b0941a40e40e69c6e1ba695fcdcc51eb5b9fc7",
            "comment": "`execution-spec-tests` generated test",
            "filling-transition-tool": "ethereum-spec-evm-resolver 0.0.1",
            "description": "Test function documentation:\n\n    Test that tload returns zero after tstore is called with zero.\n\n    Based on [ethereum/tests/.../03_tloadAfterStoreIs0Filler.yml](https://github.com/ethereum/tests/blob/9b00b68593f5869eb51a6659e1cc983e875e616b/src/EIPTestsFiller/StateTests/stEIP1153-transientStorage/03_tloadAfterStoreIs0Filler.yml)\",",
            "url": "https://github.com/ethereum/execution-spec-tests/blob/8fbca341fb0f3eb3a08a296e8f8fa84f233f4faa/tests/cancun/eip1153_tstore/test_tstorage.py#L142",
            "fixture_format": "blockchain_test",
            "reference-spec": "https://github.com/ethereum/EIPs/blob/master/EIPS/eip-1153.md",
            "reference-spec-version": "6f0be621c76a05a7b3aaf0e9297afd425c26e9d0"
        }
    }
}
