{
    "tests/cancun/eip1153_tstore/test_tstorage.py::test_tload_after_sstore[fork_Cancun-blockchain_test]": {
        "network": "Cancun",
        "genesisBlockHeader": {
            "parentHash": "0x0000000000000000000000000000000000000000000000000000000000000000",
            "uncleHash": "0x1dcc4de8dec75d7aab85b567b6ccd41ad312451b948a7413f0a142fd40d49347",
            "coinbase": "0x0000000000000000000000000000000000000000",
            "stateRoot": "0x7d031bb2965344c9c627ab56d6606386b407e6ccad8e08b02e01f2f15c44d8ad",
            "transactionsTrie": "0x56e81f171bcc55a6ff8345e692c0f86e5b48e01b996cadc001622fb5e363b421",
            "receiptTrie": "0x56e81f171bcc55a6ff8345e692c0f86e5b48e01b996cadc001622fb5e363b421",
            "bloom": "0x00000000000000000000000000000000000000000000000000000000000000000000000000000000000000000000000000000000000000000000000000000000000000000000000000000000000000000000000000000000000000000000000000000000000000000000000000000000000000000000000000000000000000000000000000000000000000000000000000000000000000000000000000000000000000000000000000000000000000000000000000000000000000000000000000000000000000000000000000000000000000000000000000000000000000000000000000000000000000000000000000000000000000000000000000000000",
            "difficulty": "0x00",
            "number": "0x00",
            "gasLimit": "0x016345785d8a0000",
            "gasUsed": "0x00",
            "timestamp": "0x00",
            "extraData": "0x00",
            "mixHash": "0x0000000000000000000000000000000000000000000000000000000000000000",
            "nonce": "0x0000000000000000",
            "baseFeePerGas": "0x07",
            "withdrawalsRoot": "0x56e81f171bcc55a6ff8345e692c0f86e5b48e01b996cadc001622fb5e363b421",
            "blobGasUsed": "0x00",
            "excessBlobGas": "0x00",
            "parentBeaconBlockRoot": "0x0000000000000000000000000000000000000000000000000000000000000000",
            "hash": "0xaf52c3082a300b6107fe4e0a7e2a6d565e085c76c4daf9b2ff75c579c5221665"
        },
        "pre": {
            "0x000f3df6d732807ef1319fb7b8bb8522d0beac02": {
                "nonce": "0x01",
                "balance": "0x00",
                "code": "0x3373fffffffffffffffffffffffffffffffffffffffe14604d57602036146024575f5ffd5b5f35801560495762001fff810690815414603c575f5ffd5b62001fff01545f5260205ff35b5f5ffd5b62001fff42064281555f359062001fff015500",
                "storage": {}
            },
            "0x0000000000000000000000000000000000001000": {
                "nonce": "0x01",
                "balance": "0x00",
                "code": "0x60ff60005560005c60015560ff60025560025c60035560ff6fffffffffffffffffffffffffffffffff556fffffffffffffffffffffffffffffffff5c7001000000000000000000000000000000005560ff7ffffffffffffffffffffffffffffffffffffffffffffffffffffffffffffffffe557ffffffffffffffffffffffffffffffffffffffffffffffffffffffffffffffffe5c7fffffffffffffffffffffffffffffffffffffffffffffffffffffffffffffffff55",
                "storage": {
                    "0x01": "0x01",
                    "0x03": "0x01",
                    "0x0100000000000000000000000000000000": "0x01",
                    "0xffffffffffffffffffffffffffffffffffffffffffffffffffffffffffffffff": "0x01"
                }
            },
            "0xa94f5374fce5edbc8e2a8697c15331677e6ebf0b": {
                "nonce": "0x00",
                "balance": "0x3635c9adc5dea00000",
                "code": "0x",
                "storage": {}
            }
        },
        "postState": {
            "0x000f3df6d732807ef1319fb7b8bb8522d0beac02": {
                "nonce": "0x01",
                "balance": "0x00",
                "code": "0x3373fffffffffffffffffffffffffffffffffffffffe14604d57602036146024575f5ffd5b5f35801560495762001fff810690815414603c575f5ffd5b62001fff01545f5260205ff35b5f5ffd5b62001fff42064281555f359062001fff015500",
                "storage": {
                    "0x03e8": "0x03e8"
                }
            },
            "0x0000000000000000000000000000000000001000": {
                "nonce": "0x01",
                "balance": "0x00",
                "code": "0x60ff60005560005c60015560ff60025560025c60035560ff6fffffffffffffffffffffffffffffffff556fffffffffffffffffffffffffffffffff5c7001000000000000000000000000000000005560ff7ffffffffffffffffffffffffffffffffffffffffffffffffffffffffffffffffe557ffffffffffffffffffffffffffffffffffffffffffffffffffffffffffffffffe5c7fffffffffffffffffffffffffffffffffffffffffffffffffffffffffffffffff55",
                "storage": {
                    "0x00": "0xff",
                    "0x02": "0xff",
                    "0xffffffffffffffffffffffffffffffff": "0xff",
                    "0xfffffffffffffffffffffffffffffffffffffffffffffffffffffffffffffffe": "0xff"
                }
            },
            "0xa94f5374fce5edbc8e2a8697c15331677e6ebf0b": {
                "nonce": "0x01",
                "balance": "0x3635c9adc5de8f1dd0",
                "code": "0x",
                "storage": {}
            },
            "0x2adc25665018aa1fe0e6bc666dac8fc2697ff9ba": {
                "nonce": "0x00",
                "balance": "0x0510a8",
                "code": "0x",
                "storage": {}
            }
        },
        "lastblockhash": "0x0ce22cf54647d7ed74e90ab8e198d13747a6cfb41e0d799091e5ec35ed97cd3d",
        "genesisRLP": "0xf90240f9023aa00000000000000000000000000000000000000000000000000000000000000000a01dcc4de8dec75d7aab85b567b6ccd41ad312451b948a7413f0a142fd40d49347940000000000000000000000000000000000000000a07d031bb2965344c9c627ab56d6606386b407e6ccad8e08b02e01f2f15c44d8ada056e81f171bcc55a6ff8345e692c0f86e5b48e01b996cadc001622fb5e363b421a056e81f171bcc55a6ff8345e692c0f86e5b48e01b996cadc001622fb5e363b421b9010000000000000000000000000000000000000000000000000000000000000000000000000000000000000000000000000000000000000000000000000000000000000000000000000000000000000000000000000000000000000000000000000000000000000000000000000000000000000000000000000000000000000000000000000000000000000000000000000000000000000000000000000000000000000000000000000000000000000000000000000000000000000000000000000000000000000000000000000000000000000000000000000000000000000000000000000000000000000000000000000000000000000000000000000000000000808088016345785d8a0000808000a0000000000000000000000000000000000000000000000000000000000000000088000000000000000007a056e81f171bcc55a6ff8345e692c0f86e5b48e01b996cadc001622fb5e363b4218080a00000000000000000000000000000000000000000000000000000000000000000c0c0c0",
        "blocks": [
            {
                "blockHeader": {
                    "parentHash": "0xaf52c3082a300b6107fe4e0a7e2a6d565e085c76c4daf9b2ff75c579c5221665",
                    "uncleHash": "0x1dcc4de8dec75d7aab85b567b6ccd41ad312451b948a7413f0a142fd40d49347",
                    "coinbase": "0x2adc25665018aa1fe0e6bc666dac8fc2697ff9ba",
                    "stateRoot": "0x04b62f8a6a42db01b194d945a12fa5182e19a8cd840280d26486dac271208673",
                    "transactionsTrie": "0x8ffc765b1796d3d70169aa9eb4dc393e5fedb29ca379bb79a9a3ee5ab567cbd1",
                    "receiptTrie": "0x740b7067d4b3262416bb6bd3f93ec5f288c9f216d0dfd7077737dfb939b6299b",
                    "bloom": "0x00000000000000000000000000000000000000000000000000000000000000000000000000000000000000000000000000000000000000000000000000000000000000000000000000000000000000000000000000000000000000000000000000000000000000000000000000000000000000000000000000000000000000000000000000000000000000000000000000000000000000000000000000000000000000000000000000000000000000000000000000000000000000000000000000000000000000000000000000000000000000000000000000000000000000000000000000000000000000000000000000000000000000000000000000000000",
                    "difficulty": "0x00",
                    "number": "0x01",
                    "gasLimit": "0x016345785d8a0000",
                    "gasUsed": "0x01b038",
                    "timestamp": "0x03e8",
                    "extraData": "0x00",
                    "mixHash": "0x0000000000000000000000000000000000000000000000000000000000000000",
                    "nonce": "0x0000000000000000",
                    "baseFeePerGas": "0x07",
                    "withdrawalsRoot": "0x56e81f171bcc55a6ff8345e692c0f86e5b48e01b996cadc001622fb5e363b421",
                    "blobGasUsed": "0x00",
                    "excessBlobGas": "0x00",
                    "parentBeaconBlockRoot": "0x0000000000000000000000000000000000000000000000000000000000000000",
                    "hash": "0x0ce22cf54647d7ed74e90ab8e198d13747a6cfb41e0d799091e5ec35ed97cd3d"
                },
                "transactions": [
                    {
                        "type": "0x00",
                        "chainId": "0x01",
                        "nonce": "0x00",
                        "gasPrice": "0x0a",
                        "gasLimit": "0x0f4240",
                        "to": "0x0000000000000000000000000000000000001000",
                        "value": "0x00",
                        "data": "0x",
                        "v": "0x26",
                        "r": "0x7b0cbd2d85800843e73b1a917828915aaaf49021e4c7896ecc4fcc460e070cf5",
                        "s": "0x71bda31b1d867df266f75bd3fb2efd3ac4aef1b574d092593346940024f69c9a",
                        "sender": "0xa94f5374fce5edbc8e2a8697c15331677e6ebf0b"
                    }
                ],
                "uncleHeaders": [],
                "withdrawals": [],
                "rlp": "0xf902a8f9023fa0af52c3082a300b6107fe4e0a7e2a6d565e085c76c4daf9b2ff75c579c5221665a01dcc4de8dec75d7aab85b567b6ccd41ad312451b948a7413f0a142fd40d49347942adc25665018aa1fe0e6bc666dac8fc2697ff9baa004b62f8a6a42db01b194d945a12fa5182e19a8cd840280d26486dac271208673a08ffc765b1796d3d70169aa9eb4dc393e5fedb29ca379bb79a9a3ee5ab567cbd1a0740b7067d4b3262416bb6bd3f93ec5f288c9f216d0dfd7077737dfb939b6299bb9010000000000000000000000000000000000000000000000000000000000000000000000000000000000000000000000000000000000000000000000000000000000000000000000000000000000000000000000000000000000000000000000000000000000000000000000000000000000000000000000000000000000000000000000000000000000000000000000000000000000000000000000000000000000000000000000000000000000000000000000000000000000000000000000000000000000000000000000000000000000000000000000000000000000000000000000000000000000000000000000000000000000000000000000000000000000800188016345785d8a00008301b0388203e800a0000000000000000000000000000000000000000000000000000000000000000088000000000000000007a056e81f171bcc55a6ff8345e692c0f86e5b48e01b996cadc001622fb5e363b4218080a00000000000000000000000000000000000000000000000000000000000000000f862f860800a830f4240940000000000000000000000000000000000001000808026a07b0cbd2d85800843e73b1a917828915aaaf49021e4c7896ecc4fcc460e070cf5a071bda31b1d867df266f75bd3fb2efd3ac4aef1b574d092593346940024f69c9ac0c0",
                "blocknumber": "1"
            }
        ],
        "sealEngine": "NoProof",
        "_info": {
            "hash": "0x6d78d729186f6b576215022020859639b5d6a1366d1d0d6c307c7410db169421",
            "comment": "`execution-spec-tests` generated test",
            "filling-transition-tool": "ethereum-spec-evm-resolver 0.0.1",
            "description": "Test function documentation:\n\n    Loading after storing returns the stored value: TSTORE(x, y), TLOAD(x)\n    returns y.\n\n    Based on [ethereum/tests/.../18_tloadAfterStoreFiller.yml](https://github.com/ethereum/tests/blob/9b00b68593f5869eb51a6659e1cc983e875e616b/src/EIPTestsFiller/StateTests/stEIP1153-transientStorage/18_tloadAfterStoreFiller.yml)\",",
            "url": "https://github.com/ethereum/execution-spec-tests/blob/8fbca341fb0f3eb3a08a296e8f8fa84f233f4faa/tests/cancun/eip1153_tstore/test_tstorage.py#L101",
            "fixture_format": "blockchain_test",
            "reference-spec": "https://github.com/ethereum/EIPs/blob/master/EIPS/eip-1153.md",
            "reference-spec-version": "6f0be621c76a05a7b3aaf0e9297afd425c26e9d0"
        }
    }
}
