{
    "tests/prague/eip7623_increase_calldata_cost/test_execution_gas.py::TestGasConsumptionBelowDataFloor::test_gas_consumption_below_data_floor[fork_Prague-state_test-exact_gas-type_0_unprotected]": {
        "env": {
            "currentCoinbase": "0x2adc25665018aa1fe0e6bc666dac8fc2697ff9ba",
            "currentGasLimit": "0x016345785d8a0000",
            "currentNumber": "0x01",
            "currentTimestamp": "0x03e8",
            "currentRandom": "0x0000000000000000000000000000000000000000000000000000000000000000",
            "currentDifficulty": "0x00",
            "currentBaseFee": "0x07",
            "currentExcessBlobGas": "0x00"
        },
        "pre": {
            "0xa94f5374fce5edbc8e2a8697c15331677e6ebf0b": {
                "nonce": "0x00",
                "balance": "0x3635c9adc5dea00000",
                "code": "0x",
                "storage": {}
            },
            "0x0000000000000000000000000000000000001000": {
                "nonce": "0x01",
                "balance": "0x00",
                "code": "0x5b5b5b5b5b00",
                "storage": {}
            }
        },
        "transaction": {
            "nonce": "0x00",
            "gasPrice": "0x0a",
            "gasLimit": [
                "0x5212"
            ],
            "to": "0x0000000000000000000000000000000000001000",
            "value": [
                "0x00"
            ],
            "data": [
                "0x00"
            ],
            "sender": "0xa94f5374fce5edbc8e2a8697c15331677e6ebf0b",
            "secretKey": "0x45a915e4d060149eb4365960e6a7a45f334393093061116b197e3240065ff2d8"
        },
        "post": {
            "Prague": [
                {
                    "hash": "0x2a2264a6acf34313c3134279926b45c7e6c58c8e39c63aa8c175f2db243b82cb",
                    "logs": "0x1dcc4de8dec75d7aab85b567b6ccd41ad312451b948a7413f0a142fd40d49347",
                    "txbytes": "0xf85f800a82521294000000000000000000000000000000000000100080001ca0b3f08e968f7c21a450b6364b0b371a8d620c03c2d6fece9b78dfa52460655d23a061d0bd0fdf295dd09f1e725fe97f7dc4a54029ef8057e5432bb63980667df167",
                    "indexes": {
                        "data": 0,
                        "gas": 0,
                        "value": 0
                    },
                    "state": {
                        "0xa94f5374fce5edbc8e2a8697c15331677e6ebf0b": {
                            "nonce": "0x01",
                            "balance": "0x3635c9adc5de9ccb4c",
                            "code": "0x",
                            "storage": {}
                        },
                        "0x0000000000000000000000000000000000001000": {
                            "nonce": "0x01",
                            "balance": "0x00",
                            "code": "0x5b5b5b5b5b00",
                            "storage": {}
                        },
                        "0x2adc25665018aa1fe0e6bc666dac8fc2697ff9ba": {
                            "nonce": "0x00",
                            "balance": "0xf636",
                            "code": "0x",
                            "storage": {}
                        }
                    }
                }
            ]
        },
        "_info": {
            "hash": "0x55c50fee1aa1c79b56a58ffb7bd9d1e5dca042c1dc8e5f7ca436eac013f7e7b6",
            "comment": "`execution-spec-tests` generated test",
            "filling-transition-tool": "ethereum-spec-evm-resolver 0.0.1",
            "description": "Test class documentation:\nTest gas consumption barely below the floor data cost (1 gas below).\n\nTest function documentation:\nTest executing a transaction that almost consumes the floor data cost.",
            "url": "https://github.com/ethereum/execution-spec-tests/blob/4dafe6334e0e9dc8f1dd21d54fb38c4e2732331e/tests/prague/eip7623_increase_calldata_cost/test_execution_gas.py#L260",
            "fixture_format": "state_test",
            "reference-spec": "https://github.com/ethereum/EIPs/blob/master/EIPS/eip-7623.md",
            "reference-spec-version": "9104d079c04737b1fec5f7150715f024d8028558"
        }
    },
    "tests/prague/eip7623_increase_calldata_cost/test_execution_gas.py::TestGasConsumptionBelowDataFloor::test_gas_consumption_below_data_floor[fork_Prague-state_test-exact_gas-type_0_protected]": {
        "env": {
            "currentCoinbase": "0x2adc25665018aa1fe0e6bc666dac8fc2697ff9ba",
            "currentGasLimit": "0x016345785d8a0000",
            "currentNumber": "0x01",
            "currentTimestamp": "0x03e8",
            "currentRandom": "0x0000000000000000000000000000000000000000000000000000000000000000",
            "currentDifficulty": "0x00",
            "currentBaseFee": "0x07",
            "currentExcessBlobGas": "0x00"
        },
        "pre": {
            "0xa94f5374fce5edbc8e2a8697c15331677e6ebf0b": {
                "nonce": "0x00",
                "balance": "0x3635c9adc5dea00000",
                "code": "0x",
                "storage": {}
            },
            "0x0000000000000000000000000000000000001000": {
                "nonce": "0x01",
                "balance": "0x00",
                "code": "0x5b5b5b5b5b00",
                "storage": {}
            }
        },
        "transaction": {
            "nonce": "0x00",
            "gasPrice": "0x0a",
            "gasLimit": [
                "0x5212"
            ],
            "to": "0x0000000000000000000000000000000000001000",
            "value": [
                "0x00"
            ],
            "data": [
                "0x00"
            ],
            "sender": "0xa94f5374fce5edbc8e2a8697c15331677e6ebf0b",
            "secretKey": "0x45a915e4d060149eb4365960e6a7a45f334393093061116b197e3240065ff2d8"
        },
        "post": {
            "Prague": [
                {
                    "hash": "0x2a2264a6acf34313c3134279926b45c7e6c58c8e39c63aa8c175f2db243b82cb",
                    "logs": "0x1dcc4de8dec75d7aab85b567b6ccd41ad312451b948a7413f0a142fd40d49347",
                    "txbytes": "0xf85f800a825212940000000000000000000000000000000000001000800025a054a84d24f5951cd8b1e19b168c7f3c7bdb32011951bbb9b3ba930fa125dc7ea7a060ec68e8e223dce049d39032689f45b8a39935299ce9d835a42cc2046ac3e342",
                    "indexes": {
                        "data": 0,
                        "gas": 0,
                        "value": 0
                    },
                    "state": {
                        "0xa94f5374fce5edbc8e2a8697c15331677e6ebf0b": {
                            "nonce": "0x01",
                            "balance": "0x3635c9adc5de9ccb4c",
                            "code": "0x",
                            "storage": {}
                        },
                        "0x0000000000000000000000000000000000001000": {
                            "nonce": "0x01",
                            "balance": "0x00",
                            "code": "0x5b5b5b5b5b00",
                            "storage": {}
                        },
                        "0x2adc25665018aa1fe0e6bc666dac8fc2697ff9ba": {
                            "nonce": "0x00",
                            "balance": "0xf636",
                            "code": "0x",
                            "storage": {}
                        }
                    }
                }
            ]
        },
        "_info": {
            "hash": "0x5b13a9e3ec91ef4b4652cf99fe897631ba3744bacf3c16f927108ff75e0fb70a",
            "comment": "`execution-spec-tests` generated test",
            "filling-transition-tool": "ethereum-spec-evm-resolver 0.0.1",
            "description": "Test class documentation:\nTest gas consumption barely below the floor data cost (1 gas below).\n\nTest function documentation:\nTest executing a transaction that almost consumes the floor data cost.",
            "url": "https://github.com/ethereum/execution-spec-tests/blob/4dafe6334e0e9dc8f1dd21d54fb38c4e2732331e/tests/prague/eip7623_increase_calldata_cost/test_execution_gas.py#L260",
            "fixture_format": "state_test",
            "reference-spec": "https://github.com/ethereum/EIPs/blob/master/EIPS/eip-7623.md",
            "reference-spec-version": "9104d079c04737b1fec5f7150715f024d8028558"
        }
    },
    "tests/prague/eip7623_increase_calldata_cost/test_execution_gas.py::TestGasConsumptionBelowDataFloor::test_gas_consumption_below_data_floor[fork_Prague-state_test-exact_gas-type_1]": {
        "env": {
            "currentCoinbase": "0x2adc25665018aa1fe0e6bc666dac8fc2697ff9ba",
            "currentGasLimit": "0x016345785d8a0000",
            "currentNumber": "0x01",
            "currentTimestamp": "0x03e8",
            "currentRandom": "0x0000000000000000000000000000000000000000000000000000000000000000",
            "currentDifficulty": "0x00",
            "currentBaseFee": "0x07",
            "currentExcessBlobGas": "0x00"
        },
        "pre": {
            "0xa94f5374fce5edbc8e2a8697c15331677e6ebf0b": {
                "nonce": "0x00",
                "balance": "0x3635c9adc5dea00000",
                "code": "0x",
                "storage": {}
            },
            "0x0000000000000000000000000000000000001000": {
                "nonce": "0x01",
                "balance": "0x00",
                "code": "0x5b5b5b5b5b00",
                "storage": {}
            }
        },
        "transaction": {
            "nonce": "0x00",
            "gasPrice": "0x0a",
            "gasLimit": [
                "0x5212"
            ],
            "to": "0x0000000000000000000000000000000000001000",
            "value": [
                "0x00"
            ],
            "data": [
                "0x00"
            ],
            "accessLists": [
                []
            ],
            "sender": "0xa94f5374fce5edbc8e2a8697c15331677e6ebf0b",
            "secretKey": "0x45a915e4d060149eb4365960e6a7a45f334393093061116b197e3240065ff2d8"
        },
        "post": {
            "Prague": [
                {
                    "hash": "0x2a2264a6acf34313c3134279926b45c7e6c58c8e39c63aa8c175f2db243b82cb",
                    "logs": "0x1dcc4de8dec75d7aab85b567b6ccd41ad312451b948a7413f0a142fd40d49347",
                    "txbytes": "0x01f86101800a8252129400000000000000000000000000000000000010008000c080a002e45dc3db69a6c5df9082a885f3228251fee8f53511da4fa18ad8b21d004c6ba02e314af02a8ffdbd57357f315f72009ffb1f3b533cd0bc05bd0164fab4eb6ad2",
                    "indexes": {
                        "data": 0,
                        "gas": 0,
                        "value": 0
                    },
                    "state": {
                        "0xa94f5374fce5edbc8e2a8697c15331677e6ebf0b": {
                            "nonce": "0x01",
                            "balance": "0x3635c9adc5de9ccb4c",
                            "code": "0x",
                            "storage": {}
                        },
                        "0x0000000000000000000000000000000000001000": {
                            "nonce": "0x01",
                            "balance": "0x00",
                            "code": "0x5b5b5b5b5b00",
                            "storage": {}
                        },
                        "0x2adc25665018aa1fe0e6bc666dac8fc2697ff9ba": {
                            "nonce": "0x00",
                            "balance": "0xf636",
                            "code": "0x",
                            "storage": {}
                        }
                    }
                }
            ]
        },
        "_info": {
            "hash": "0xf4f765604219d0a09b38629aed43aef463a85df838bf23651d1abcd54fe71a93",
            "comment": "`execution-spec-tests` generated test",
            "filling-transition-tool": "ethereum-spec-evm-resolver 0.0.1",
            "description": "Test class documentation:\nTest gas consumption barely below the floor data cost (1 gas below).\n\nTest function documentation:\nTest executing a transaction that almost consumes the floor data cost.",
            "url": "https://github.com/ethereum/execution-spec-tests/blob/4dafe6334e0e9dc8f1dd21d54fb38c4e2732331e/tests/prague/eip7623_increase_calldata_cost/test_execution_gas.py#L260",
            "fixture_format": "state_test",
            "reference-spec": "https://github.com/ethereum/EIPs/blob/master/EIPS/eip-7623.md",
            "reference-spec-version": "9104d079c04737b1fec5f7150715f024d8028558"
        }
    },
    "tests/prague/eip7623_increase_calldata_cost/test_execution_gas.py::TestGasConsumptionBelowDataFloor::test_gas_consumption_below_data_floor[fork_Prague-state_test-exact_gas-type_2]": {
        "env": {
            "currentCoinbase": "0x2adc25665018aa1fe0e6bc666dac8fc2697ff9ba",
            "currentGasLimit": "0x016345785d8a0000",
            "currentNumber": "0x01",
            "currentTimestamp": "0x03e8",
            "currentRandom": "0x0000000000000000000000000000000000000000000000000000000000000000",
            "currentDifficulty": "0x00",
            "currentBaseFee": "0x07",
            "currentExcessBlobGas": "0x00"
        },
        "pre": {
            "0xa94f5374fce5edbc8e2a8697c15331677e6ebf0b": {
                "nonce": "0x00",
                "balance": "0x3635c9adc5dea00000",
                "code": "0x",
                "storage": {}
            },
            "0x0000000000000000000000000000000000001000": {
                "nonce": "0x01",
                "balance": "0x00",
                "code": "0x5b5b5b5b5b00",
                "storage": {}
            }
        },
        "transaction": {
            "nonce": "0x00",
            "maxPriorityFeePerGas": "0x00",
            "maxFeePerGas": "0x07",
            "gasLimit": [
                "0x5212"
            ],
            "to": "0x0000000000000000000000000000000000001000",
            "value": [
                "0x00"
            ],
            "data": [
                "0x00"
            ],
            "accessLists": [
                []
            ],
            "sender": "0xa94f5374fce5edbc8e2a8697c15331677e6ebf0b",
            "secretKey": "0x45a915e4d060149eb4365960e6a7a45f334393093061116b197e3240065ff2d8"
        },
        "post": {
            "Prague": [
                {
                    "hash": "0x5ffdace19b072173cb0ea7881413bd6e495932a8ce15b4613d6fc11920c20509",
                    "logs": "0x1dcc4de8dec75d7aab85b567b6ccd41ad312451b948a7413f0a142fd40d49347",
                    "txbytes": "0x02f862018080078252129400000000000000000000000000000000000010008000c001a00b582862fd08934d10855074c76349181b819dc2f77a2a966b01105bdcbccdd3a03fa7072745d419bc4742728b610cb4044163ef7d021d67cfc25cbf98c26a7b34",
                    "indexes": {
                        "data": 0,
                        "gas": 0,
                        "value": 0
                    },
                    "state": {
                        "0xa94f5374fce5edbc8e2a8697c15331677e6ebf0b": {
                            "nonce": "0x01",
                            "balance": "0x3635c9adc5de9dc182",
                            "code": "0x",
                            "storage": {}
                        },
                        "0x0000000000000000000000000000000000001000": {
                            "nonce": "0x01",
                            "balance": "0x00",
                            "code": "0x5b5b5b5b5b00",
                            "storage": {}
                        }
                    }
                }
            ]
        },
        "_info": {
            "hash": "0x5449188c0c951b0eb5fca1d1cabf142691bfd92741a7bad25d928e9f77c04ae6",
            "comment": "`execution-spec-tests` generated test",
            "filling-transition-tool": "ethereum-spec-evm-resolver 0.0.1",
            "description": "Test class documentation:\nTest gas consumption barely below the floor data cost (1 gas below).\n\nTest function documentation:\nTest executing a transaction that almost consumes the floor data cost.",
            "url": "https://github.com/ethereum/execution-spec-tests/blob/4dafe6334e0e9dc8f1dd21d54fb38c4e2732331e/tests/prague/eip7623_increase_calldata_cost/test_execution_gas.py#L260",
            "fixture_format": "state_test",
            "reference-spec": "https://github.com/ethereum/EIPs/blob/master/EIPS/eip-7623.md",
            "reference-spec-version": "9104d079c04737b1fec5f7150715f024d8028558"
        }
    },
    "tests/prague/eip7623_increase_calldata_cost/test_execution_gas.py::TestGasConsumptionBelowDataFloor::test_gas_consumption_below_data_floor[fork_Prague-state_test-exact_gas-type_3]": {
        "env": {
            "currentCoinbase": "0x2adc25665018aa1fe0e6bc666dac8fc2697ff9ba",
            "currentGasLimit": "0x016345785d8a0000",
            "currentNumber": "0x01",
            "currentTimestamp": "0x03e8",
            "currentRandom": "0x0000000000000000000000000000000000000000000000000000000000000000",
            "currentDifficulty": "0x00",
            "currentBaseFee": "0x07",
            "currentExcessBlobGas": "0x00"
        },
        "pre": {
            "0xa94f5374fce5edbc8e2a8697c15331677e6ebf0b": {
                "nonce": "0x00",
                "balance": "0x3635c9adc5dea00000",
                "code": "0x",
                "storage": {}
            },
            "0x0000000000000000000000000000000000001000": {
                "nonce": "0x01",
                "balance": "0x00",
                "code": "0x5b5b5b5b5b00",
                "storage": {}
            }
        },
        "transaction": {
            "nonce": "0x00",
            "maxPriorityFeePerGas": "0x00",
            "maxFeePerGas": "0x07",
            "gasLimit": [
                "0x5212"
            ],
            "to": "0x0000000000000000000000000000000000001000",
            "value": [
                "0x00"
            ],
            "data": [
                "0x00"
            ],
            "accessLists": [
                []
            ],
            "maxFeePerBlobGas": "0x01",
            "blobVersionedHashes": [
                "0x0100000000000000000000000000000000000000000000000000000000000001"
            ],
            "sender": "0xa94f5374fce5edbc8e2a8697c15331677e6ebf0b",
            "secretKey": "0x45a915e4d060149eb4365960e6a7a45f334393093061116b197e3240065ff2d8"
        },
        "post": {
            "Prague": [
                {
                    "hash": "0xc60b097edcd8528581e115fe230c4e15f624f02ea1f23f8d9c28d0badfe2de08",
                    "logs": "0x1dcc4de8dec75d7aab85b567b6ccd41ad312451b948a7413f0a142fd40d49347",
                    "txbytes": "0x03f885018080078252129400000000000000000000000000000000000010008000c001e1a0010000000000000000000000000000000000000000000000000000000000000180a07086262a2fecaf138c832c4bc11b937968afd8d688161e8eeb98687cd143e551a03b28e8aee5ccc23f3033a08649ea4856a0460491d41e267e7bf1cb5cd341f111",
                    "indexes": {
                        "data": 0,
                        "gas": 0,
                        "value": 0
                    },
                    "state": {
                        "0xa94f5374fce5edbc8e2a8697c15331677e6ebf0b": {
                            "nonce": "0x01",
                            "balance": "0x3635c9adc5de9bc182",
                            "code": "0x",
                            "storage": {}
                        },
                        "0x0000000000000000000000000000000000001000": {
                            "nonce": "0x01",
                            "balance": "0x00",
                            "code": "0x5b5b5b5b5b00",
                            "storage": {}
                        }
                    }
                }
            ]
        },
        "_info": {
            "hash": "0x83fe8f7619c94a6ccfd7a587e02a9610faac0cf97c1bd4ca04403be4c442f008",
            "comment": "`execution-spec-tests` generated test",
            "filling-transition-tool": "ethereum-spec-evm-resolver 0.0.1",
            "description": "Test class documentation:\nTest gas consumption barely below the floor data cost (1 gas below).\n\nTest function documentation:\nTest executing a transaction that almost consumes the floor data cost.",
            "url": "https://github.com/ethereum/execution-spec-tests/blob/4dafe6334e0e9dc8f1dd21d54fb38c4e2732331e/tests/prague/eip7623_increase_calldata_cost/test_execution_gas.py#L260",
            "fixture_format": "state_test",
            "reference-spec": "https://github.com/ethereum/EIPs/blob/master/EIPS/eip-7623.md",
            "reference-spec-version": "9104d079c04737b1fec5f7150715f024d8028558"
        }
    },
    "tests/prague/eip7623_increase_calldata_cost/test_execution_gas.py::TestGasConsumptionBelowDataFloor::test_gas_consumption_below_data_floor[fork_Prague-state_test-exact_gas-type_4]": {
        "env": {
            "currentCoinbase": "0x2adc25665018aa1fe0e6bc666dac8fc2697ff9ba",
            "currentGasLimit": "0x016345785d8a0000",
            "currentNumber": "0x01",
            "currentTimestamp": "0x03e8",
            "currentRandom": "0x0000000000000000000000000000000000000000000000000000000000000000",
            "currentDifficulty": "0x00",
            "currentBaseFee": "0x07",
            "currentExcessBlobGas": "0x00"
        },
        "pre": {
            "0xa94f5374fce5edbc8e2a8697c15331677e6ebf0b": {
                "nonce": "0x00",
                "balance": "0x3635c9adc5dea00000",
                "code": "0x",
                "storage": {}
            },
            "0x0000000000000000000000000000000000001000": {
                "nonce": "0x01",
                "balance": "0x00",
                "code": "0x5b00",
                "storage": {}
            }
        },
        "transaction": {
            "nonce": "0x00",
            "maxPriorityFeePerGas": "0x00",
            "maxFeePerGas": "0x07",
            "gasLimit": [
                "0xf4ce"
            ],
            "to": "0x0000000000000000000000000000000000001000",
            "value": [
                "0x00"
            ],
            "data": [
                "0x010101010101010101010101010101010101010101010101010101010101010101010101010101010101010101010101010101010101010101010101010101010101010101010101010101010101010101010101010101010101010101010101010101010101010101010101010101010101010101010101010101010101010101010101010101010101010101010101010101010101010101010101010101010101010101010101010101010101010101010101010101010101010101010101010101010101010101010101010101010101010101010101010101010101010101010101010101010101010101010101010101010101010101010101010101010101010101010101010101010101010101010101010101010101010101010101010101010101010101010101010101010101010101010101010101010101010101010101010101010101010101010101010101010101010101010101010101010101010101010101010101010101010101010101010101010101010101010101010101010101010101010101010101010101010101010101010101010101010101010101010101010101010101010101010101010101010101010101010101010101010101010101010101010101010101010101010101010101010101010101010101010101010101010101010101010101010101010101010101010101010101010101010101010101010101010101010101010101010101010101010101010101010101010101010101010101010101010101010101010101010101010101010101010101010101010101010101010101010101010101010101010101010101010101010101010101010101010101010101010101010101010101010101010101010101010101010101010101010101010101010101010101010101010101010101010101010101010101010101010101010101010101010101010101010101010101010101010101010101010101010101010101010101010101010101010101010101010101010101010101010101010101010101010101010101010101010101010101010101010101010101010101010101010101010101010101010101010101010101010101010101010101010101010101010101010101010101010101010101010101010101010101010101010101010101010101010101010101010101010101010101010101010101010101010101010101010101010101010101010101010101010101010101010101010101010101010101010101010101010101010101010101010101010101010101010101010101010101010101010101010101010101010101010101010101010101010101010101010101010101010101010101010101010101010101010101010101010101010101010101010101010101010101010101010101010101010101000000"
            ],
            "accessLists": [
                []
            ],
            "authorizationList": [
                {
                    "chainId": "0x00",
                    "address": "0x0000000000000000000000000000000000000001",
                    "nonce": "0x00",
                    "v": "0x00",
                    "r": "0x33a629f82b5aaff5b4bfe6b9ab53bb3646b92cda403d7c834f72c9a5073aec20",
                    "s": "0x16902e4a3c089e05d649cab6bd74b6f424fae0eefad3a4944fa452ff7413b5d3",
                    "signer": "0x8a0a19589531694250d570040a0c4b74576919b8"
                }
            ],
            "sender": "0xa94f5374fce5edbc8e2a8697c15331677e6ebf0b",
            "secretKey": "0x45a915e4d060149eb4365960e6a7a45f334393093061116b197e3240065ff2d8"
        },
        "post": {
            "Prague": [
                {
                    "hash": "0x429ace50a94cc2dbbdca60f363f2f39eb1d03c88ffb8dd91a9a6608656668006",
                    "logs": "0x1dcc4de8dec75d7aab85b567b6ccd41ad312451b948a7413f0a142fd40d49347",
                    "txbytes": "0x04f904d60180800782f4ce94000000000000000000000000000000000000100080b90414010101010101010101010101010101010101010101010101010101010101010101010101010101010101010101010101010101010101010101010101010101010101010101010101010101010101010101010101010101010101010101010101010101010101010101010101010101010101010101010101010101010101010101010101010101010101010101010101010101010101010101010101010101010101010101010101010101010101010101010101010101010101010101010101010101010101010101010101010101010101010101010101010101010101010101010101010101010101010101010101010101010101010101010101010101010101010101010101010101010101010101010101010101010101010101010101010101010101010101010101010101010101010101010101010101010101010101010101010101010101010101010101010101010101010101010101010101010101010101010101010101010101010101010101010101010101010101010101010101010101010101010101010101010101010101010101010101010101010101010101010101010101010101010101010101010101010101010101010101010101010101010101010101010101010101010101010101010101010101010101010101010101010101010101010101010101010101010101010101010101010101010101010101010101010101010101010101010101010101010101010101010101010101010101010101010101010101010101010101010101010101010101010101010101010101010101010101010101010101010101010101010101010101010101010101010101010101010101010101010101010101010101010101010101010101010101010101010101010101010101010101010101010101010101010101010101010101010101010101010101010101010101010101010101010101010101010101010101010101010101010101010101010101010101010101010101010101010101010101010101010101010101010101010101010101010101010101010101010101010101010101010101010101010101010101010101010101010101010101010101010101010101010101010101010101010101010101010101010101010101010101010101010101010101010101010101010101010101010101010101010101010101010101010101010101010101010101010101010101010101010101010101010101010101010101010101010101010101010101010101010101010101010101010101010101010101010101010101010101010101010101010101010101010101010101010101010101010101010101010101010101010101010101010101010101010101010101010101010101010101010101010101010101010101010101010101010101000000c0f85cf85a809400000000000000000000000000000000000000018080a033a629f82b5aaff5b4bfe6b9ab53bb3646b92cda403d7c834f72c9a5073aec20a016902e4a3c089e05d649cab6bd74b6f424fae0eefad3a4944fa452ff7413b5d380a0ff648c40394585650c68e0ed3369b1ad10a7f86f098e96efe4836802554b6821a048fb7dcc4cbc07c0021f2d4561ddda9dd5c0c6d49f4164decc1219a0ced0d513",
                    "indexes": {
                        "data": 0,
                        "gas": 0,
                        "value": 0
                    },
                    "state": {
                        "0xa94f5374fce5edbc8e2a8697c15331677e6ebf0b": {
                            "nonce": "0x01",
                            "balance": "0x3635c9adc5de994e5e",
                            "code": "0x",
                            "storage": {}
                        },
                        "0x0000000000000000000000000000000000001000": {
                            "nonce": "0x01",
                            "balance": "0x00",
                            "code": "0x5b00",
                            "storage": {}
                        },
                        "0x8a0a19589531694250d570040a0c4b74576919b8": {
                            "nonce": "0x01",
                            "balance": "0x00",
                            "code": "0xef01000000000000000000000000000000000000000001",
                            "storage": {}
                        }
                    }
                }
            ]
        },
        "_info": {
            "hash": "0xfd7acd332ba903b4b8fbb65389f30d6de112f34bafeebd7eeebb1e3ed744948d",
            "comment": "`execution-spec-tests` generated test",
            "filling-transition-tool": "ethereum-spec-evm-resolver 0.0.1",
            "description": "Test class documentation:\nTest gas consumption barely below the floor data cost (1 gas below).\n\nTest function documentation:\nTest executing a transaction that almost consumes the floor data cost.",
            "url": "https://github.com/ethereum/execution-spec-tests/blob/4dafe6334e0e9dc8f1dd21d54fb38c4e2732331e/tests/prague/eip7623_increase_calldata_cost/test_execution_gas.py#L260",
            "fixture_format": "state_test",
            "reference-spec": "https://github.com/ethereum/EIPs/blob/master/EIPS/eip-7623.md",
            "reference-spec-version": "9104d079c04737b1fec5f7150715f024d8028558"
        }
    }
}