{
    "tests/cancun/eip4844_blobs/test_point_evaluation_precompile.py::test_tx_entry_point[fork_Prague-state_test-correct_proof-exact_gas]": {
        "env": {
            "currentCoinbase": "0x2adc25665018aa1fe0e6bc666dac8fc2697ff9ba",
            "currentGasLimit": "0x016345785d8a0000",
            "currentNumber": "0x01",
            "currentTimestamp": "0x03e8",
            "currentRandom": "0x0000000000000000000000000000000000000000000000000000000000000000",
            "currentDifficulty": "0x00",
            "currentBaseFee": "0x07",
            "currentExcessBlobGas": "0x00"
        },
        "pre": {
            "0xa94f5374fce5edbc8e2a8697c15331677e6ebf0b": {
                "nonce": "0x00",
                "balance": "0x3635c9adc5dea00000",
                "code": "0x",
                "storage": {}
            }
        },
        "transaction": {
            "nonce": "0x00",
            "gasPrice": "0x0a",
            "gasLimit": [
                "0x016fc4"
            ],
            "to": "0x000000000000000000000000000000000000000a",
            "value": [
                "0x00"
            ],
            "data": [
                "0x010657f37554c781402a22917dee2f75def7ab966d7b770905398eba3c444014623ce31cf9759a5c8daf3a357992f9f3dd7f9339d8998bc8e68373e54f00b75e0000000000000000000000000000000000000000000000000000000000000000c00000000000000000000000000000000000000000000000000000000000000000000000000000000000000000000000c00000000000000000000000000000000000000000000000000000000000000000000000000000000000000000000000"
            ],
            "accessLists": [
                [
                    {
                        "address": "0x0000000000000000000000000000000000000001",
                        "storageKeys": []
                    },
                    {
                        "address": "0x0000000000000000000000000000000000000002",
                        "storageKeys": []
                    },
                    {
                        "address": "0x0000000000000000000000000000000000000003",
                        "storageKeys": []
                    },
                    {
                        "address": "0x0000000000000000000000000000000000000004",
                        "storageKeys": []
                    },
                    {
                        "address": "0x0000000000000000000000000000000000000005",
                        "storageKeys": []
                    },
                    {
                        "address": "0x0000000000000000000000000000000000000006",
                        "storageKeys": []
                    },
                    {
                        "address": "0x0000000000000000000000000000000000000007",
                        "storageKeys": []
                    },
                    {
                        "address": "0x0000000000000000000000000000000000000008",
                        "storageKeys": []
                    },
                    {
                        "address": "0x0000000000000000000000000000000000000009",
                        "storageKeys": []
                    }
                ]
            ],
            "sender": "0xa94f5374fce5edbc8e2a8697c15331677e6ebf0b",
            "secretKey": "0x45a915e4d060149eb4365960e6a7a45f334393093061116b197e3240065ff2d8"
        },
        "post": {
            "Prague": [
                {
                    "hash": "0x9fdc4b571625632cfe6fe5484b0967b2caa4da45f5c8502e5f23cfa07d1a93e7",
                    "logs": "0x1dcc4de8dec75d7aab85b567b6ccd41ad312451b948a7413f0a142fd40d49347",
                    "txbytes": "0x01f901f301800a83016fc494000000000000000000000000000000000000000a80b8c0010657f37554c781402a22917dee2f75def7ab966d7b770905398eba3c444014623ce31cf9759a5c8daf3a357992f9f3dd7f9339d8998bc8e68373e54f00b75e0000000000000000000000000000000000000000000000000000000000000000c00000000000000000000000000000000000000000000000000000000000000000000000000000000000000000000000c00000000000000000000000000000000000000000000000000000000000000000000000000000000000000000000000f8cfd6940000000000000000000000000000000000000001c0d6940000000000000000000000000000000000000002c0d6940000000000000000000000000000000000000003c0d6940000000000000000000000000000000000000004c0d6940000000000000000000000000000000000000005c0d6940000000000000000000000000000000000000006c0d6940000000000000000000000000000000000000007c0d6940000000000000000000000000000000000000008c0d6940000000000000000000000000000000000000009c080a0e580b9ad798e06bb2ed5deea50e0d4c820579be6fd95e6c42f31f45be859da29a06c77112ba698bb6265ecbb540e42482542b7cf7fccf041cdfdfcbb82f4f18d95",
                    "indexes": {
                        "data": 0,
                        "gas": 0,
                        "value": 0
                    },
                    "state": {
                        "0xa94f5374fce5edbc8e2a8697c15331677e6ebf0b": {
                            "nonce": "0x01",
                            "balance": "0x3635c9adc5de91a258",
                            "code": "0x",
                            "storage": {}
                        },
                        "0x2adc25665018aa1fe0e6bc666dac8fc2697ff9ba": {
                            "nonce": "0x00",
                            "balance": "0x044f4c",
                            "code": "0x",
                            "storage": {}
                        }
                    }
                }
            ]
        },
        "_info": {
            "hash": "0x7cdce91b43ae81d57c379f72704e20199d09d28540c101468f00525a9580cbd9",
            "comment": "`execution-spec-tests` generated test",
            "filling-transition-tool": "ethereum-spec-evm-resolver 0.0.1",
            "description": "Test function documentation:\n\n    Test calling the Point Evaluation Precompile directly as\n    transaction entry point, and measure the gas consumption.\n\n    - Using `gas_limit` with exact necessary gas, insufficient gas and extra gas.\n    - Using correct and incorrect proofs",
            "url": "https://github.com/ethereum/execution-spec-tests/blob/4dafe6334e0e9dc8f1dd21d54fb38c4e2732331e/tests/cancun/eip4844_blobs/test_point_evaluation_precompile.py#L503",
            "fixture_format": "state_test",
            "reference-spec": "https://github.com/ethereum/EIPs/blob/master/EIPS/eip-4844.md",
            "reference-spec-version": "f0eb6a364aaf5ccb43516fa2c269a54fb881ecfd"
        }
    },
    "tests/cancun/eip4844_blobs/test_point_evaluation_precompile.py::test_tx_entry_point[fork_Prague-state_test-correct_proof-extra_gas]": {
        "env": {
            "currentCoinbase": "0x2adc25665018aa1fe0e6bc666dac8fc2697ff9ba",
            "currentGasLimit": "0x016345785d8a0000",
            "currentNumber": "0x01",
            "currentTimestamp": "0x03e8",
            "currentRandom": "0x0000000000000000000000000000000000000000000000000000000000000000",
            "currentDifficulty": "0x00",
            "currentBaseFee": "0x07",
            "currentExcessBlobGas": "0x00"
        },
        "pre": {
            "0xa94f5374fce5edbc8e2a8697c15331677e6ebf0b": {
                "nonce": "0x00",
                "balance": "0x3635c9adc5dea00000",
                "code": "0x",
                "storage": {}
            }
        },
        "transaction": {
            "nonce": "0x00",
            "gasPrice": "0x0a",
            "gasLimit": [
                "0x016fc5"
            ],
            "to": "0x000000000000000000000000000000000000000a",
            "value": [
                "0x00"
            ],
            "data": [
                "0x010657f37554c781402a22917dee2f75def7ab966d7b770905398eba3c444014623ce31cf9759a5c8daf3a357992f9f3dd7f9339d8998bc8e68373e54f00b75e0000000000000000000000000000000000000000000000000000000000000000c00000000000000000000000000000000000000000000000000000000000000000000000000000000000000000000000c00000000000000000000000000000000000000000000000000000000000000000000000000000000000000000000000"
            ],
            "accessLists": [
                [
                    {
                        "address": "0x0000000000000000000000000000000000000001",
                        "storageKeys": []
                    },
                    {
                        "address": "0x0000000000000000000000000000000000000002",
                        "storageKeys": []
                    },
                    {
                        "address": "0x0000000000000000000000000000000000000003",
                        "storageKeys": []
                    },
                    {
                        "address": "0x0000000000000000000000000000000000000004",
                        "storageKeys": []
                    },
                    {
                        "address": "0x0000000000000000000000000000000000000005",
                        "storageKeys": []
                    },
                    {
                        "address": "0x0000000000000000000000000000000000000006",
                        "storageKeys": []
                    },
                    {
                        "address": "0x0000000000000000000000000000000000000007",
                        "storageKeys": []
                    },
                    {
                        "address": "0x0000000000000000000000000000000000000008",
                        "storageKeys": []
                    },
                    {
                        "address": "0x0000000000000000000000000000000000000009",
                        "storageKeys": []
                    }
                ]
            ],
            "sender": "0xa94f5374fce5edbc8e2a8697c15331677e6ebf0b",
            "secretKey": "0x45a915e4d060149eb4365960e6a7a45f334393093061116b197e3240065ff2d8"
        },
        "post": {
            "Prague": [
                {
                    "hash": "0x9fdc4b571625632cfe6fe5484b0967b2caa4da45f5c8502e5f23cfa07d1a93e7",
                    "logs": "0x1dcc4de8dec75d7aab85b567b6ccd41ad312451b948a7413f0a142fd40d49347",
                    "txbytes": "0x01f901f301800a83016fc594000000000000000000000000000000000000000a80b8c0010657f37554c781402a22917dee2f75def7ab966d7b770905398eba3c444014623ce31cf9759a5c8daf3a357992f9f3dd7f9339d8998bc8e68373e54f00b75e0000000000000000000000000000000000000000000000000000000000000000c00000000000000000000000000000000000000000000000000000000000000000000000000000000000000000000000c00000000000000000000000000000000000000000000000000000000000000000000000000000000000000000000000f8cfd6940000000000000000000000000000000000000001c0d6940000000000000000000000000000000000000002c0d6940000000000000000000000000000000000000003c0d6940000000000000000000000000000000000000004c0d6940000000000000000000000000000000000000005c0d6940000000000000000000000000000000000000006c0d6940000000000000000000000000000000000000007c0d6940000000000000000000000000000000000000008c0d6940000000000000000000000000000000000000009c080a0cb676da903449d50db1532704c3b67f6e6cd60603e2c5643c5400c9c5e1670f0a0596dc865b2532de2d0dfb7778a244665f6ba9f6fad19e663b41f5ea491ba29f5",
                    "indexes": {
                        "data": 0,
                        "gas": 0,
                        "value": 0
                    },
                    "state": {
                        "0xa94f5374fce5edbc8e2a8697c15331677e6ebf0b": {
                            "nonce": "0x01",
                            "balance": "0x3635c9adc5de91a258",
                            "code": "0x",
                            "storage": {}
                        },
                        "0x2adc25665018aa1fe0e6bc666dac8fc2697ff9ba": {
                            "nonce": "0x00",
                            "balance": "0x044f4c",
                            "code": "0x",
                            "storage": {}
                        }
                    }
                }
            ]
        },
        "_info": {
            "hash": "0x400580307819947194ae417ce71eec4d176c12651d9f48874d3d1417387d8d11",
            "comment": "`execution-spec-tests` generated test",
            "filling-transition-tool": "ethereum-spec-evm-resolver 0.0.1",
            "description": "Test function documentation:\n\n    Test calling the Point Evaluation Precompile directly as\n    transaction entry point, and measure the gas consumption.\n\n    - Using `gas_limit` with exact necessary gas, insufficient gas and extra gas.\n    - Using correct and incorrect proofs",
            "url": "https://github.com/ethereum/execution-spec-tests/blob/4dafe6334e0e9dc8f1dd21d54fb38c4e2732331e/tests/cancun/eip4844_blobs/test_point_evaluation_precompile.py#L503",
            "fixture_format": "state_test",
            "reference-spec": "https://github.com/ethereum/EIPs/blob/master/EIPS/eip-4844.md",
            "reference-spec-version": "f0eb6a364aaf5ccb43516fa2c269a54fb881ecfd"
        }
    },
    "tests/cancun/eip4844_blobs/test_point_evaluation_precompile.py::test_tx_entry_point[fork_Prague-state_test-correct_proof-insufficient_gas]": {
        "env": {
            "currentCoinbase": "0x2adc25665018aa1fe0e6bc666dac8fc2697ff9ba",
            "currentGasLimit": "0x016345785d8a0000",
            "currentNumber": "0x01",
            "currentTimestamp": "0x03e8",
            "currentRandom": "0x0000000000000000000000000000000000000000000000000000000000000000",
            "currentDifficulty": "0x00",
            "currentBaseFee": "0x07",
            "currentExcessBlobGas": "0x00"
        },
        "pre": {
            "0xa94f5374fce5edbc8e2a8697c15331677e6ebf0b": {
                "nonce": "0x00",
                "balance": "0x3635c9adc5dea00000",
                "code": "0x",
                "storage": {}
            }
        },
        "transaction": {
            "nonce": "0x00",
            "gasPrice": "0x0a",
            "gasLimit": [
                "0x016fc3"
            ],
            "to": "0x000000000000000000000000000000000000000a",
            "value": [
                "0x00"
            ],
            "data": [
                "0x010657f37554c781402a22917dee2f75def7ab966d7b770905398eba3c444014623ce31cf9759a5c8daf3a357992f9f3dd7f9339d8998bc8e68373e54f00b75e0000000000000000000000000000000000000000000000000000000000000000c00000000000000000000000000000000000000000000000000000000000000000000000000000000000000000000000c00000000000000000000000000000000000000000000000000000000000000000000000000000000000000000000000"
            ],
            "accessLists": [
                [
                    {
                        "address": "0x0000000000000000000000000000000000000001",
                        "storageKeys": []
                    },
                    {
                        "address": "0x0000000000000000000000000000000000000002",
                        "storageKeys": []
                    },
                    {
                        "address": "0x0000000000000000000000000000000000000003",
                        "storageKeys": []
                    },
                    {
                        "address": "0x0000000000000000000000000000000000000004",
                        "storageKeys": []
                    },
                    {
                        "address": "0x0000000000000000000000000000000000000005",
                        "storageKeys": []
                    },
                    {
                        "address": "0x0000000000000000000000000000000000000006",
                        "storageKeys": []
                    },
                    {
                        "address": "0x0000000000000000000000000000000000000007",
                        "storageKeys": []
                    },
                    {
                        "address": "0x0000000000000000000000000000000000000008",
                        "storageKeys": []
                    },
                    {
                        "address": "0x0000000000000000000000000000000000000009",
                        "storageKeys": []
                    }
                ]
            ],
            "sender": "0xa94f5374fce5edbc8e2a8697c15331677e6ebf0b",
            "secretKey": "0x45a915e4d060149eb4365960e6a7a45f334393093061116b197e3240065ff2d8"
        },
        "post": {
            "Prague": [
                {
                    "hash": "0xac321875c0821d8d3d8ab22d3dad643e0ffe08e1f7d2f78df7b1b48b4ab86f31",
                    "logs": "0x1dcc4de8dec75d7aab85b567b6ccd41ad312451b948a7413f0a142fd40d49347",
                    "txbytes": "0x01f901f301800a83016fc394000000000000000000000000000000000000000a80b8c0010657f37554c781402a22917dee2f75def7ab966d7b770905398eba3c444014623ce31cf9759a5c8daf3a357992f9f3dd7f9339d8998bc8e68373e54f00b75e0000000000000000000000000000000000000000000000000000000000000000c00000000000000000000000000000000000000000000000000000000000000000000000000000000000000000000000c00000000000000000000000000000000000000000000000000000000000000000000000000000000000000000000000f8cfd6940000000000000000000000000000000000000001c0d6940000000000000000000000000000000000000002c0d6940000000000000000000000000000000000000003c0d6940000000000000000000000000000000000000004c0d6940000000000000000000000000000000000000005c0d6940000000000000000000000000000000000000006c0d6940000000000000000000000000000000000000007c0d6940000000000000000000000000000000000000008c0d6940000000000000000000000000000000000000009c080a087232f9adf863f61dac457691381632e829c08469c596ff7fd4bee6b87d67b22a03d2e88034cfe4dffe7a47f74ed1ff7cf54b85bb21db206a78bd295d628b675f8",
                    "indexes": {
                        "data": 0,
                        "gas": 0,
                        "value": 0
                    },
                    "state": {
                        "0xa94f5374fce5edbc8e2a8697c15331677e6ebf0b": {
                            "nonce": "0x01",
                            "balance": "0x3635c9adc5de91a262",
                            "code": "0x",
                            "storage": {}
                        },
                        "0x2adc25665018aa1fe0e6bc666dac8fc2697ff9ba": {
                            "nonce": "0x00",
                            "balance": "0x044f49",
                            "code": "0x",
                            "storage": {}
                        }
                    }
                }
            ]
        },
        "_info": {
            "hash": "0x923319f2632e262ddfb9529c4a90c0188f72909a8a145183622c1ebe37b5f93f",
            "comment": "`execution-spec-tests` generated test",
            "filling-transition-tool": "ethereum-spec-evm-resolver 0.0.1",
            "description": "Test function documentation:\n\n    Test calling the Point Evaluation Precompile directly as\n    transaction entry point, and measure the gas consumption.\n\n    - Using `gas_limit` with exact necessary gas, insufficient gas and extra gas.\n    - Using correct and incorrect proofs",
            "url": "https://github.com/ethereum/execution-spec-tests/blob/4dafe6334e0e9dc8f1dd21d54fb38c4e2732331e/tests/cancun/eip4844_blobs/test_point_evaluation_precompile.py#L503",
            "fixture_format": "state_test",
            "reference-spec": "https://github.com/ethereum/EIPs/blob/master/EIPS/eip-4844.md",
            "reference-spec-version": "f0eb6a364aaf5ccb43516fa2c269a54fb881ecfd"
        }
    },
    "tests/cancun/eip4844_blobs/test_point_evaluation_precompile.py::test_tx_entry_point[fork_Prague-state_test-incorrect_proof-exact_gas]": {
        "env": {
            "currentCoinbase": "0x2adc25665018aa1fe0e6bc666dac8fc2697ff9ba",
            "currentGasLimit": "0x016345785d8a0000",
            "currentNumber": "0x01",
            "currentTimestamp": "0x03e8",
            "currentRandom": "0x0000000000000000000000000000000000000000000000000000000000000000",
            "currentDifficulty": "0x00",
            "currentBaseFee": "0x07",
            "currentExcessBlobGas": "0x00"
        },
        "pre": {
            "0xa94f5374fce5edbc8e2a8697c15331677e6ebf0b": {
                "nonce": "0x00",
                "balance": "0x3635c9adc5dea00000",
                "code": "0x",
                "storage": {}
            }
        },
        "transaction": {
            "nonce": "0x00",
            "gasPrice": "0x0a",
            "gasLimit": [
                "0x016fd0"
            ],
            "to": "0x000000000000000000000000000000000000000a",
            "value": [
                "0x00"
            ],
            "data": [
                "0x010657f37554c781402a22917dee2f75def7ab966d7b770905398eba3c444014623ce31cf9759a5c8daf3a357992f9f3dd7f9339d8998bc8e68373e54f00b75e0000000000000000000000000000000000000000000000000000000000000001c00000000000000000000000000000000000000000000000000000000000000000000000000000000000000000000000c00000000000000000000000000000000000000000000000000000000000000000000000000000000000000000000000"
            ],
            "accessLists": [
                [
                    {
                        "address": "0x0000000000000000000000000000000000000001",
                        "storageKeys": []
                    },
                    {
                        "address": "0x0000000000000000000000000000000000000002",
                        "storageKeys": []
                    },
                    {
                        "address": "0x0000000000000000000000000000000000000003",
                        "storageKeys": []
                    },
                    {
                        "address": "0x0000000000000000000000000000000000000004",
                        "storageKeys": []
                    },
                    {
                        "address": "0x0000000000000000000000000000000000000005",
                        "storageKeys": []
                    },
                    {
                        "address": "0x0000000000000000000000000000000000000006",
                        "storageKeys": []
                    },
                    {
                        "address": "0x0000000000000000000000000000000000000007",
                        "storageKeys": []
                    },
                    {
                        "address": "0x0000000000000000000000000000000000000008",
                        "storageKeys": []
                    },
                    {
                        "address": "0x0000000000000000000000000000000000000009",
                        "storageKeys": []
                    }
                ]
            ],
            "sender": "0xa94f5374fce5edbc8e2a8697c15331677e6ebf0b",
            "secretKey": "0x45a915e4d060149eb4365960e6a7a45f334393093061116b197e3240065ff2d8"
        },
        "post": {
            "Prague": [
                {
                    "hash": "0xa17ef5d4e517fc147545bbf360416def974718ecec6ffc0dd315d6b0b1eec078",
                    "logs": "0x1dcc4de8dec75d7aab85b567b6ccd41ad312451b948a7413f0a142fd40d49347",
                    "txbytes": "0x01f901f301800a83016fd094000000000000000000000000000000000000000a80b8c0010657f37554c781402a22917dee2f75def7ab966d7b770905398eba3c444014623ce31cf9759a5c8daf3a357992f9f3dd7f9339d8998bc8e68373e54f00b75e0000000000000000000000000000000000000000000000000000000000000001c00000000000000000000000000000000000000000000000000000000000000000000000000000000000000000000000c00000000000000000000000000000000000000000000000000000000000000000000000000000000000000000000000f8cfd6940000000000000000000000000000000000000001c0d6940000000000000000000000000000000000000002c0d6940000000000000000000000000000000000000003c0d6940000000000000000000000000000000000000004c0d6940000000000000000000000000000000000000005c0d6940000000000000000000000000000000000000006c0d6940000000000000000000000000000000000000007c0d6940000000000000000000000000000000000000008c0d6940000000000000000000000000000000000000009c080a01526b94e949d51da71fdd51b182ee2defca4200e98a12190d56f28fbbf9ae302a04c906992291f242bed050b4bb7fcd9c7fde35217a15d7e6dbf9c33c4813bb984",
                    "indexes": {
                        "data": 0,
                        "gas": 0,
                        "value": 0
                    },
                    "state": {
                        "0xa94f5374fce5edbc8e2a8697c15331677e6ebf0b": {
                            "nonce": "0x01",
                            "balance": "0x3635c9adc5de91a1e0",
                            "code": "0x",
                            "storage": {}
                        },
                        "0x2adc25665018aa1fe0e6bc666dac8fc2697ff9ba": {
                            "nonce": "0x00",
                            "balance": "0x044f70",
                            "code": "0x",
                            "storage": {}
                        }
                    }
                }
            ]
        },
        "_info": {
            "hash": "0xc9ed488f5f4c1e3eb230da71e80a2d0c215e377f66e48b5b96c93090c8a51ab3",
            "comment": "`execution-spec-tests` generated test",
            "filling-transition-tool": "ethereum-spec-evm-resolver 0.0.1",
            "description": "Test function documentation:\n\n    Test calling the Point Evaluation Precompile directly as\n    transaction entry point, and measure the gas consumption.\n\n    - Using `gas_limit` with exact necessary gas, insufficient gas and extra gas.\n    - Using correct and incorrect proofs",
            "url": "https://github.com/ethereum/execution-spec-tests/blob/4dafe6334e0e9dc8f1dd21d54fb38c4e2732331e/tests/cancun/eip4844_blobs/test_point_evaluation_precompile.py#L503",
            "fixture_format": "state_test",
            "reference-spec": "https://github.com/ethereum/EIPs/blob/master/EIPS/eip-4844.md",
            "reference-spec-version": "f0eb6a364aaf5ccb43516fa2c269a54fb881ecfd"
        }
    },
    "tests/cancun/eip4844_blobs/test_point_evaluation_precompile.py::test_tx_entry_point[fork_Prague-state_test-incorrect_proof-extra_gas]": {
        "env": {
            "currentCoinbase": "0x2adc25665018aa1fe0e6bc666dac8fc2697ff9ba",
            "currentGasLimit": "0x016345785d8a0000",
            "currentNumber": "0x01",
            "currentTimestamp": "0x03e8",
            "currentRandom": "0x0000000000000000000000000000000000000000000000000000000000000000",
            "currentDifficulty": "0x00",
            "currentBaseFee": "0x07",
            "currentExcessBlobGas": "0x00"
        },
        "pre": {
            "0xa94f5374fce5edbc8e2a8697c15331677e6ebf0b": {
                "nonce": "0x00",
                "balance": "0x3635c9adc5dea00000",
                "code": "0x",
                "storage": {}
            }
        },
        "transaction": {
            "nonce": "0x00",
            "gasPrice": "0x0a",
            "gasLimit": [
                "0x016fd1"
            ],
            "to": "0x000000000000000000000000000000000000000a",
            "value": [
                "0x00"
            ],
            "data": [
                "0x010657f37554c781402a22917dee2f75def7ab966d7b770905398eba3c444014623ce31cf9759a5c8daf3a357992f9f3dd7f9339d8998bc8e68373e54f00b75e0000000000000000000000000000000000000000000000000000000000000001c00000000000000000000000000000000000000000000000000000000000000000000000000000000000000000000000c00000000000000000000000000000000000000000000000000000000000000000000000000000000000000000000000"
            ],
            "accessLists": [
                [
                    {
                        "address": "0x0000000000000000000000000000000000000001",
                        "storageKeys": []
                    },
                    {
                        "address": "0x0000000000000000000000000000000000000002",
                        "storageKeys": []
                    },
                    {
                        "address": "0x0000000000000000000000000000000000000003",
                        "storageKeys": []
                    },
                    {
                        "address": "0x0000000000000000000000000000000000000004",
                        "storageKeys": []
                    },
                    {
                        "address": "0x0000000000000000000000000000000000000005",
                        "storageKeys": []
                    },
                    {
                        "address": "0x0000000000000000000000000000000000000006",
                        "storageKeys": []
                    },
                    {
                        "address": "0x0000000000000000000000000000000000000007",
                        "storageKeys": []
                    },
                    {
                        "address": "0x0000000000000000000000000000000000000008",
                        "storageKeys": []
                    },
                    {
                        "address": "0x0000000000000000000000000000000000000009",
                        "storageKeys": []
                    }
                ]
            ],
            "sender": "0xa94f5374fce5edbc8e2a8697c15331677e6ebf0b",
            "secretKey": "0x45a915e4d060149eb4365960e6a7a45f334393093061116b197e3240065ff2d8"
        },
        "post": {
            "Prague": [
                {
                    "hash": "0x4e11495abd32b3e77ca10a45fc40fb972c1dba82e017e1932f453469e8445809",
                    "logs": "0x1dcc4de8dec75d7aab85b567b6ccd41ad312451b948a7413f0a142fd40d49347",
                    "txbytes": "0x01f901f301800a83016fd194000000000000000000000000000000000000000a80b8c0010657f37554c781402a22917dee2f75def7ab966d7b770905398eba3c444014623ce31cf9759a5c8daf3a357992f9f3dd7f9339d8998bc8e68373e54f00b75e0000000000000000000000000000000000000000000000000000000000000001c00000000000000000000000000000000000000000000000000000000000000000000000000000000000000000000000c00000000000000000000000000000000000000000000000000000000000000000000000000000000000000000000000f8cfd6940000000000000000000000000000000000000001c0d6940000000000000000000000000000000000000002c0d6940000000000000000000000000000000000000003c0d6940000000000000000000000000000000000000004c0d6940000000000000000000000000000000000000005c0d6940000000000000000000000000000000000000006c0d6940000000000000000000000000000000000000007c0d6940000000000000000000000000000000000000008c0d6940000000000000000000000000000000000000009c001a0a16cd0cfe543cd8ce86cc786ab1d164fe14d62e71143e43f3b917d2b3edb9282a03a0387d345025c99ed56877ac74630c95d8737b96d8d44e8404dba9e4748288a",
                    "indexes": {
                        "data": 0,
                        "gas": 0,
                        "value": 0
                    },
                    "state": {
                        "0xa94f5374fce5edbc8e2a8697c15331677e6ebf0b": {
                            "nonce": "0x01",
                            "balance": "0x3635c9adc5de91a1d6",
                            "code": "0x",
                            "storage": {}
                        },
                        "0x2adc25665018aa1fe0e6bc666dac8fc2697ff9ba": {
                            "nonce": "0x00",
                            "balance": "0x044f73",
                            "code": "0x",
                            "storage": {}
                        }
                    }
                }
            ]
        },
        "_info": {
            "hash": "0xa54cda2db638385923f878d8d1b94a6defe20e790c7845333d8b2d43b896f46d",
            "comment": "`execution-spec-tests` generated test",
            "filling-transition-tool": "ethereum-spec-evm-resolver 0.0.1",
            "description": "Test function documentation:\n\n    Test calling the Point Evaluation Precompile directly as\n    transaction entry point, and measure the gas consumption.\n\n    - Using `gas_limit` with exact necessary gas, insufficient gas and extra gas.\n    - Using correct and incorrect proofs",
            "url": "https://github.com/ethereum/execution-spec-tests/blob/4dafe6334e0e9dc8f1dd21d54fb38c4e2732331e/tests/cancun/eip4844_blobs/test_point_evaluation_precompile.py#L503",
            "fixture_format": "state_test",
            "reference-spec": "https://github.com/ethereum/EIPs/blob/master/EIPS/eip-4844.md",
            "reference-spec-version": "f0eb6a364aaf5ccb43516fa2c269a54fb881ecfd"
        }
    },
    "tests/cancun/eip4844_blobs/test_point_evaluation_precompile.py::test_tx_entry_point[fork_Prague-state_test-incorrect_proof-insufficient_gas]": {
        "env": {
            "currentCoinbase": "0x2adc25665018aa1fe0e6bc666dac8fc2697ff9ba",
            "currentGasLimit": "0x016345785d8a0000",
            "currentNumber": "0x01",
            "currentTimestamp": "0x03e8",
            "currentRandom": "0x0000000000000000000000000000000000000000000000000000000000000000",
            "currentDifficulty": "0x00",
            "currentBaseFee": "0x07",
            "currentExcessBlobGas": "0x00"
        },
        "pre": {
            "0xa94f5374fce5edbc8e2a8697c15331677e6ebf0b": {
                "nonce": "0x00",
                "balance": "0x3635c9adc5dea00000",
                "code": "0x",
                "storage": {}
            }
        },
        "transaction": {
            "nonce": "0x00",
            "gasPrice": "0x0a",
            "gasLimit": [
                "0x016fcf"
            ],
            "to": "0x000000000000000000000000000000000000000a",
            "value": [
                "0x00"
            ],
            "data": [
                "0x010657f37554c781402a22917dee2f75def7ab966d7b770905398eba3c444014623ce31cf9759a5c8daf3a357992f9f3dd7f9339d8998bc8e68373e54f00b75e0000000000000000000000000000000000000000000000000000000000000001c00000000000000000000000000000000000000000000000000000000000000000000000000000000000000000000000c00000000000000000000000000000000000000000000000000000000000000000000000000000000000000000000000"
            ],
            "accessLists": [
                [
                    {
                        "address": "0x0000000000000000000000000000000000000001",
                        "storageKeys": []
                    },
                    {
                        "address": "0x0000000000000000000000000000000000000002",
                        "storageKeys": []
                    },
                    {
                        "address": "0x0000000000000000000000000000000000000003",
                        "storageKeys": []
                    },
                    {
                        "address": "0x0000000000000000000000000000000000000004",
                        "storageKeys": []
                    },
                    {
                        "address": "0x0000000000000000000000000000000000000005",
                        "storageKeys": []
                    },
                    {
                        "address": "0x0000000000000000000000000000000000000006",
                        "storageKeys": []
                    },
                    {
                        "address": "0x0000000000000000000000000000000000000007",
                        "storageKeys": []
                    },
                    {
                        "address": "0x0000000000000000000000000000000000000008",
                        "storageKeys": []
                    },
                    {
                        "address": "0x0000000000000000000000000000000000000009",
                        "storageKeys": []
                    }
                ]
            ],
            "sender": "0xa94f5374fce5edbc8e2a8697c15331677e6ebf0b",
            "secretKey": "0x45a915e4d060149eb4365960e6a7a45f334393093061116b197e3240065ff2d8"
        },
        "post": {
            "Prague": [
                {
                    "hash": "0x0d4f691d7381877c1701f51b503f4cd9469283ee4f5071bcd298751d943d6765",
                    "logs": "0x1dcc4de8dec75d7aab85b567b6ccd41ad312451b948a7413f0a142fd40d49347",
                    "txbytes": "0x01f901f301800a83016fcf94000000000000000000000000000000000000000a80b8c0010657f37554c781402a22917dee2f75def7ab966d7b770905398eba3c444014623ce31cf9759a5c8daf3a357992f9f3dd7f9339d8998bc8e68373e54f00b75e0000000000000000000000000000000000000000000000000000000000000001c00000000000000000000000000000000000000000000000000000000000000000000000000000000000000000000000c00000000000000000000000000000000000000000000000000000000000000000000000000000000000000000000000f8cfd6940000000000000000000000000000000000000001c0d6940000000000000000000000000000000000000002c0d6940000000000000000000000000000000000000003c0d6940000000000000000000000000000000000000004c0d6940000000000000000000000000000000000000005c0d6940000000000000000000000000000000000000006c0d6940000000000000000000000000000000000000007c0d6940000000000000000000000000000000000000008c0d6940000000000000000000000000000000000000009c001a051bb45d9a7452cd6c84dd64ea1d422bc6d812b43cd6b16441fff45ecac95069da06a7ba344e959c5a01cccbd34ba6039282e5eeb281af2d9df6abfeabe3582eab6",
                    "indexes": {
                        "data": 0,
                        "gas": 0,
                        "value": 0
                    },
                    "state": {
                        "0xa94f5374fce5edbc8e2a8697c15331677e6ebf0b": {
                            "nonce": "0x01",
                            "balance": "0x3635c9adc5de91a1ea",
                            "code": "0x",
                            "storage": {}
                        },
                        "0x2adc25665018aa1fe0e6bc666dac8fc2697ff9ba": {
                            "nonce": "0x00",
                            "balance": "0x044f6d",
                            "code": "0x",
                            "storage": {}
                        }
                    }
                }
            ]
        },
        "_info": {
            "hash": "0xf9ad08292b951d324d6e9fda80dc2b49a5405868939262c61e0a0fe02d02b16d",
            "comment": "`execution-spec-tests` generated test",
            "filling-transition-tool": "ethereum-spec-evm-resolver 0.0.1",
            "description": "Test function documentation:\n\n    Test calling the Point Evaluation Precompile directly as\n    transaction entry point, and measure the gas consumption.\n\n    - Using `gas_limit` with exact necessary gas, insufficient gas and extra gas.\n    - Using correct and incorrect proofs",
            "url": "https://github.com/ethereum/execution-spec-tests/blob/4dafe6334e0e9dc8f1dd21d54fb38c4e2732331e/tests/cancun/eip4844_blobs/test_point_evaluation_precompile.py#L503",
            "fixture_format": "state_test",
            "reference-spec": "https://github.com/ethereum/EIPs/blob/master/EIPS/eip-4844.md",
            "reference-spec-version": "f0eb6a364aaf5ccb43516fa2c269a54fb881ecfd"
        }
    }
}