{
    "tests/cancun/eip4844_blobs/test_point_evaluation_precompile.py::test_precompile_during_fork[fork_ShanghaiToCancunAtTime15k-blockchain_test_engine----correct_proof]": {
        "network": "ShanghaiToCancunAtTime15k",
        "genesisBlockHeader": {
            "parentHash": "0x0000000000000000000000000000000000000000000000000000000000000000",
            "uncleHash": "0x1dcc4de8dec75d7aab85b567b6ccd41ad312451b948a7413f0a142fd40d49347",
            "coinbase": "0x0000000000000000000000000000000000000000",
            "stateRoot": "0x0d291317cfc2f654932ad9a23cf64946f8cc3c487c9b13567c4df7a93115d43c",
            "transactionsTrie": "0x56e81f171bcc55a6ff8345e692c0f86e5b48e01b996cadc001622fb5e363b421",
            "receiptTrie": "0x56e81f171bcc55a6ff8345e692c0f86e5b48e01b996cadc001622fb5e363b421",
            "bloom": "0x00000000000000000000000000000000000000000000000000000000000000000000000000000000000000000000000000000000000000000000000000000000000000000000000000000000000000000000000000000000000000000000000000000000000000000000000000000000000000000000000000000000000000000000000000000000000000000000000000000000000000000000000000000000000000000000000000000000000000000000000000000000000000000000000000000000000000000000000000000000000000000000000000000000000000000000000000000000000000000000000000000000000000000000000000000000",
            "difficulty": "0x00",
            "number": "0x00",
            "gasLimit": "0x016345785d8a0000",
            "gasUsed": "0x00",
            "timestamp": "0x00",
            "extraData": "0x00",
            "mixHash": "0x0000000000000000000000000000000000000000000000000000000000000000",
            "nonce": "0x0000000000000000",
            "baseFeePerGas": "0x07",
            "withdrawalsRoot": "0x56e81f171bcc55a6ff8345e692c0f86e5b48e01b996cadc001622fb5e363b421",
            "hash": "0x77657cf417a8253de6c209a4373a89a9efd622876390b2286f20d471adcc3155"
        },
        "pre": {
            "0x000f3df6d732807ef1319fb7b8bb8522d0beac02": {
                "nonce": "0x01",
                "balance": "0x00",
                "code": "0x3373fffffffffffffffffffffffffffffffffffffffe14604d57602036146024575f5ffd5b5f35801560495762001fff810690815414603c575f5ffd5b62001fff01545f5260205ff35b5f5ffd5b62001fff42064281555f359062001fff015500",
                "storage": {}
            },
            "0x0000000000000000000000000000000000001000": {
                "nonce": "0x01",
                "balance": "0x0f",
                "code": "0x366000600037600060003660006001600a5af14355",
                "storage": {}
            },
            "0xa94f5374fce5edbc8e2a8697c15331677e6ebf0b": {
                "nonce": "0x00",
                "balance": "0x3635c9adc5dea00000",
                "code": "0x",
                "storage": {}
            }
        },
        "postState": {
            "0x000f3df6d732807ef1319fb7b8bb8522d0beac02": {
                "nonce": "0x01",
                "balance": "0x00",
                "code": "0x3373fffffffffffffffffffffffffffffffffffffffe14604d57602036146024575f5ffd5b5f35801560495762001fff810690815414603c575f5ffd5b62001fff01545f5260205ff35b5f5ffd5b62001fff42064281555f359062001fff015500",
                "storage": {
                    "0x1a99": "0x3a98"
                }
            },
            "0x0000000000000000000000000000000000001000": {
                "nonce": "0x01",
                "balance": "0x00",
                "code": "0x366000600037600060003660006001600a5af14355",
                "storage": {
                    "0x01": "0x01",
                    "0x02": "0x01",
                    "0x03": "0x01",
                    "0x04": "0x01",
                    "0x05": "0x01",
                    "0x06": "0x01",
                    "0x07": "0x01",
                    "0x08": "0x01",
                    "0x09": "0x01",
                    "0x0a": "0x01",
                    "0x0b": "0x01",
                    "0x0c": "0x01",
                    "0x0d": "0x01",
                    "0x0e": "0x01",
                    "0x0f": "0x01"
                }
            },
            "0xa94f5374fce5edbc8e2a8697c15331677e6ebf0b": {
                "nonce": "0x10",
                "balance": "0x3635c9adc5de1bba70",
                "code": "0x",
                "storage": {}
            },
            "0x000000000000000000000000000000000000000a": {
                "nonce": "0x00",
                "balance": "0x0f",
                "code": "0x",
                "storage": {}
            },
            "0x2adc25665018aa1fe0e6bc666dac8fc2697ff9ba": {
                "nonce": "0x00",
                "balance": "0x27ae78",
                "code": "0x",
                "storage": {}
            }
        },
        "lastblockhash": "0xd4650c666e13c218ce96c5a1e84374ac4830b6656128553669ee727a48b4d72f",
        "engineNewPayloads": [
            {
                "params": [
                    {
                        "parentHash": "0x77657cf417a8253de6c209a4373a89a9efd622876390b2286f20d471adcc3155",
                        "feeRecipient": "0x2adc25665018aa1fe0e6bc666dac8fc2697ff9ba",
                        "stateRoot": "0x079f5a3c9e5d4d0708c3dc4356f0738a0e18ba1aee9c9dfecb4b44f17d26d54d",
                        "receiptsRoot": "0x293d302ee07a15a99db519e4aa6614a95f099c0ea9ee82d87809600cff941027",
                        "logsBloom": "0x00000000000000000000000000000000000000000000000000000000000000000000000000000000000000000000000000000000000000000000000000000000000000000000000000000000000000000000000000000000000000000000000000000000000000000000000000000000000000000000000000000000000000000000000000000000000000000000000000000000000000000000000000000000000000000000000000000000000000000000000000000000000000000000000000000000000000000000000000000000000000000000000000000000000000000000000000000000000000000000000000000000000000000000000000000000",
                        "blockNumber": "0x1",
                        "gasLimit": "0x16345785d8a0000",
                        "gasUsed": "0x134a8",
                        "timestamp": "0x3e7",
                        "extraData": "0x",
                        "prevRandao": "0x0000000000000000000000000000000000000000000000000000000000000000",
                        "baseFeePerGas": "0x7",
                        "blockHash": "0xb309871f3f2b7bafdfd1ccf7975240622f1e185ea40096dd6cf093e8594bc269",
                        "transactions": [
                            "0xf90121800a834c4b4094000000000000000000000000000000000000100080b8c0010657f37554c781402a22917dee2f75def7ab966d7b770905398eba3c444014623ce31cf9759a5c8daf3a357992f9f3dd7f9339d8998bc8e68373e54f00b75e0000000000000000000000000000000000000000000000000000000000000000c00000000000000000000000000000000000000000000000000000000000000000000000000000000000000000000000c0000000000000000000000000000000000000000000000000000000000000000000000000000000000000000000000025a0614ac66bd3ffb6b6aeca9e6309c4dfc6a776e88ffece9bfd68381015049b87f3a04da4c1f25e65364cd2a64d0105128a34e2e73dcc6c37706da0eebf41f4328d44"
                        ],
                        "withdrawals": []
                    }
                ],
                "newPayloadVersion": "2",
                "forkchoiceUpdatedVersion": "2"
            },
            {
                "params": [
                    {
                        "parentHash": "0xb309871f3f2b7bafdfd1ccf7975240622f1e185ea40096dd6cf093e8594bc269",
                        "feeRecipient": "0x2adc25665018aa1fe0e6bc666dac8fc2697ff9ba",
                        "stateRoot": "0x3d79789ed149b571a86fd7b033c7b8337d7a03703218cd9d94660c37b7caa03f",
                        "receiptsRoot": "0x041ed77e99e9ae507ee712733d620fcae0f98f5a5207f712dcdf34ba801cfd67",
                        "logsBloom": "0x00000000000000000000000000000000000000000000000000000000000000000000000000000000000000000000000000000000000000000000000000000000000000000000000000000000000000000000000000000000000000000000000000000000000000000000000000000000000000000000000000000000000000000000000000000000000000000000000000000000000000000000000000000000000000000000000000000000000000000000000000000000000000000000000000000000000000000000000000000000000000000000000000000000000000000000000000000000000000000000000000000000000000000000000000000000",
                        "blockNumber": "0x2",
                        "gasLimit": "0x16345785d8a0000",
                        "gasUsed": "0xd300",
                        "timestamp": "0x7cf",
                        "extraData": "0x",
                        "prevRandao": "0x0000000000000000000000000000000000000000000000000000000000000000",
                        "baseFeePerGas": "0x7",
                        "blockHash": "0xd90a9347483b20219e03a5519b229739262502cc90fc92d448e2cbc5e085737a",
                        "transactions": [
                            "0xf90121010a834c4b4094000000000000000000000000000000000000100080b8c0010657f37554c781402a22917dee2f75def7ab966d7b770905398eba3c444014623ce31cf9759a5c8daf3a357992f9f3dd7f9339d8998bc8e68373e54f00b75e0000000000000000000000000000000000000000000000000000000000000000c00000000000000000000000000000000000000000000000000000000000000000000000000000000000000000000000c0000000000000000000000000000000000000000000000000000000000000000000000000000000000000000000000026a0c7be656e365f7f75588463a5c6778d67373cfb044208f35cc7e441ef3ae10b7aa01a485944466fe20de05ccf07bc14a84a259b0eeee65cc47f4428148fadf7e4ea"
                        ],
                        "withdrawals": []
                    }
                ],
                "newPayloadVersion": "2",
                "forkchoiceUpdatedVersion": "2"
            },
            {
                "params": [
                    {
                        "parentHash": "0xd90a9347483b20219e03a5519b229739262502cc90fc92d448e2cbc5e085737a",
                        "feeRecipient": "0x2adc25665018aa1fe0e6bc666dac8fc2697ff9ba",
                        "stateRoot": "0xbcaff99ca922a89628c75f18a42230b9ad8be65739283d7cd591a5b67f37efaf",
                        "receiptsRoot": "0x041ed77e99e9ae507ee712733d620fcae0f98f5a5207f712dcdf34ba801cfd67",
                        "logsBloom": "0x00000000000000000000000000000000000000000000000000000000000000000000000000000000000000000000000000000000000000000000000000000000000000000000000000000000000000000000000000000000000000000000000000000000000000000000000000000000000000000000000000000000000000000000000000000000000000000000000000000000000000000000000000000000000000000000000000000000000000000000000000000000000000000000000000000000000000000000000000000000000000000000000000000000000000000000000000000000000000000000000000000000000000000000000000000000",
                        "blockNumber": "0x3",
                        "gasLimit": "0x16345785d8a0000",
                        "gasUsed": "0xd300",
                        "timestamp": "0xbb7",
                        "extraData": "0x",
                        "prevRandao": "0x0000000000000000000000000000000000000000000000000000000000000000",
                        "baseFeePerGas": "0x7",
                        "blockHash": "0x74c3248922af96440cc5274126a9b8155bcd8ed08fe791e15ada74757c2cbedf",
                        "transactions": [
                            "0xf90121020a834c4b4094000000000000000000000000000000000000100080b8c0010657f37554c781402a22917dee2f75def7ab966d7b770905398eba3c444014623ce31cf9759a5c8daf3a357992f9f3dd7f9339d8998bc8e68373e54f00b75e0000000000000000000000000000000000000000000000000000000000000000c00000000000000000000000000000000000000000000000000000000000000000000000000000000000000000000000c0000000000000000000000000000000000000000000000000000000000000000000000000000000000000000000000026a0a03ee9191f3658c19bb3ac8a14924417cada2acf35c5947d110ef9b486b77227a03ec699861057f925802559d845d18a7e4e54d60d5324d0c17aa5d8076ed08fd3"
                        ],
                        "withdrawals": []
                    }
                ],
                "newPayloadVersion": "2",
                "forkchoiceUpdatedVersion": "2"
            },
            {
                "params": [
                    {
                        "parentHash": "0x74c3248922af96440cc5274126a9b8155bcd8ed08fe791e15ada74757c2cbedf",
                        "feeRecipient": "0x2adc25665018aa1fe0e6bc666dac8fc2697ff9ba",
                        "stateRoot": "0x6fe015a14b4940fc9391991cde0ed1d0f82fac2f0156a6f49dec05443ff6c142",
                        "receiptsRoot": "0x041ed77e99e9ae507ee712733d620fcae0f98f5a5207f712dcdf34ba801cfd67",
                        "logsBloom": "0x00000000000000000000000000000000000000000000000000000000000000000000000000000000000000000000000000000000000000000000000000000000000000000000000000000000000000000000000000000000000000000000000000000000000000000000000000000000000000000000000000000000000000000000000000000000000000000000000000000000000000000000000000000000000000000000000000000000000000000000000000000000000000000000000000000000000000000000000000000000000000000000000000000000000000000000000000000000000000000000000000000000000000000000000000000000",
                        "blockNumber": "0x4",
                        "gasLimit": "0x16345785d8a0000",
                        "gasUsed": "0xd300",
                        "timestamp": "0xf9f",
                        "extraData": "0x",
                        "prevRandao": "0x0000000000000000000000000000000000000000000000000000000000000000",
                        "baseFeePerGas": "0x7",
                        "blockHash": "0x71710ff65059943ca7e550def6bb7c4dde5cfef4a5e4f32d2c6b36adcfbe369b",
                        "transactions": [
                            "0xf90121030a834c4b4094000000000000000000000000000000000000100080b8c0010657f37554c781402a22917dee2f75def7ab966d7b770905398eba3c444014623ce31cf9759a5c8daf3a357992f9f3dd7f9339d8998bc8e68373e54f00b75e0000000000000000000000000000000000000000000000000000000000000000c00000000000000000000000000000000000000000000000000000000000000000000000000000000000000000000000c0000000000000000000000000000000000000000000000000000000000000000000000000000000000000000000000025a0ecaf4e8e24f25985c4af838cc290a7bb51e779e5c03800272bcd02ac6b8e75cca007f232b31756e327445e494f6e953ee28a7d55a347c7cb4cee02fbc8392874e1"
                        ],
                        "withdrawals": []
                    }
                ],
                "newPayloadVersion": "2",
                "forkchoiceUpdatedVersion": "2"
            },
            {
                "params": [
                    {
                        "parentHash": "0x71710ff65059943ca7e550def6bb7c4dde5cfef4a5e4f32d2c6b36adcfbe369b",
                        "feeRecipient": "0x2adc25665018aa1fe0e6bc666dac8fc2697ff9ba",
                        "stateRoot": "0xaf0684fb0498ef83587bb0c74761bf94e1d40f7af5e9bacbd2a817b23d1fbeb3",
                        "receiptsRoot": "0x041ed77e99e9ae507ee712733d620fcae0f98f5a5207f712dcdf34ba801cfd67",
                        "logsBloom": "0x00000000000000000000000000000000000000000000000000000000000000000000000000000000000000000000000000000000000000000000000000000000000000000000000000000000000000000000000000000000000000000000000000000000000000000000000000000000000000000000000000000000000000000000000000000000000000000000000000000000000000000000000000000000000000000000000000000000000000000000000000000000000000000000000000000000000000000000000000000000000000000000000000000000000000000000000000000000000000000000000000000000000000000000000000000000",
                        "blockNumber": "0x5",
                        "gasLimit": "0x16345785d8a0000",
                        "gasUsed": "0xd300",
                        "timestamp": "0x1387",
                        "extraData": "0x",
                        "prevRandao": "0x0000000000000000000000000000000000000000000000000000000000000000",
                        "baseFeePerGas": "0x7",
                        "blockHash": "0xe6460edf6995df53b074d14048821a6faf7d189ca82b4d5bd58970d2821cb637",
                        "transactions": [
                            "0xf90121040a834c4b4094000000000000000000000000000000000000100080b8c0010657f37554c781402a22917dee2f75def7ab966d7b770905398eba3c444014623ce31cf9759a5c8daf3a357992f9f3dd7f9339d8998bc8e68373e54f00b75e0000000000000000000000000000000000000000000000000000000000000000c00000000000000000000000000000000000000000000000000000000000000000000000000000000000000000000000c0000000000000000000000000000000000000000000000000000000000000000000000000000000000000000000000026a0b093b0fba371c6da2129bd386abf4d1dc753f631c8f69ced4848ab683af2b751a014270f04ab3e633dceb2796722dc10e8a4cd6406883e550e0a974db32ff79fba"
                        ],
                        "withdrawals": []
                    }
                ],
                "newPayloadVersion": "2",
                "forkchoiceUpdatedVersion": "2"
            },
            {
                "params": [
                    {
                        "parentHash": "0xe6460edf6995df53b074d14048821a6faf7d189ca82b4d5bd58970d2821cb637",
                        "feeRecipient": "0x2adc25665018aa1fe0e6bc666dac8fc2697ff9ba",
                        "stateRoot": "0x4a8eaaeeb6b326f256a9cab1ce4970179c0a7de0ddf3242cb31f6f1d6e8f5e14",
                        "receiptsRoot": "0x041ed77e99e9ae507ee712733d620fcae0f98f5a5207f712dcdf34ba801cfd67",
                        "logsBloom": "0x00000000000000000000000000000000000000000000000000000000000000000000000000000000000000000000000000000000000000000000000000000000000000000000000000000000000000000000000000000000000000000000000000000000000000000000000000000000000000000000000000000000000000000000000000000000000000000000000000000000000000000000000000000000000000000000000000000000000000000000000000000000000000000000000000000000000000000000000000000000000000000000000000000000000000000000000000000000000000000000000000000000000000000000000000000000",
                        "blockNumber": "0x6",
                        "gasLimit": "0x16345785d8a0000",
                        "gasUsed": "0xd300",
                        "timestamp": "0x176f",
                        "extraData": "0x",
                        "prevRandao": "0x0000000000000000000000000000000000000000000000000000000000000000",
                        "baseFeePerGas": "0x7",
                        "blockHash": "0xfc0ce6e333f4b00a405810bee824ceab2701871bedb2f3637248f4fd52607d3f",
                        "transactions": [
                            "0xf90121050a834c4b4094000000000000000000000000000000000000100080b8c0010657f37554c781402a22917dee2f75def7ab966d7b770905398eba3c444014623ce31cf9759a5c8daf3a357992f9f3dd7f9339d8998bc8e68373e54f00b75e0000000000000000000000000000000000000000000000000000000000000000c00000000000000000000000000000000000000000000000000000000000000000000000000000000000000000000000c0000000000000000000000000000000000000000000000000000000000000000000000000000000000000000000000026a0aef8ba255d44d11e48040d04f3437b683f3e7c4e73fe4bb3276558a2aedd8df4a0749fbfc1cd535b56a5a93d862edb94d351e767b09c13cc6d9cc8f454331921ad"
                        ],
                        "withdrawals": []
                    }
                ],
                "newPayloadVersion": "2",
                "forkchoiceUpdatedVersion": "2"
            },
            {
                "params": [
                    {
                        "parentHash": "0xfc0ce6e333f4b00a405810bee824ceab2701871bedb2f3637248f4fd52607d3f",
                        "feeRecipient": "0x2adc25665018aa1fe0e6bc666dac8fc2697ff9ba",
                        "stateRoot": "0xde4734868fcca98ae4fc4ea1bbfda39333f336bde9c75daea1cd9a73e4b37a7d",
                        "receiptsRoot": "0x041ed77e99e9ae507ee712733d620fcae0f98f5a5207f712dcdf34ba801cfd67",
                        "logsBloom": "0x00000000000000000000000000000000000000000000000000000000000000000000000000000000000000000000000000000000000000000000000000000000000000000000000000000000000000000000000000000000000000000000000000000000000000000000000000000000000000000000000000000000000000000000000000000000000000000000000000000000000000000000000000000000000000000000000000000000000000000000000000000000000000000000000000000000000000000000000000000000000000000000000000000000000000000000000000000000000000000000000000000000000000000000000000000000",
                        "blockNumber": "0x7",
                        "gasLimit": "0x16345785d8a0000",
                        "gasUsed": "0xd300",
                        "timestamp": "0x1b57",
                        "extraData": "0x",
                        "prevRandao": "0x0000000000000000000000000000000000000000000000000000000000000000",
                        "baseFeePerGas": "0x7",
                        "blockHash": "0xfe6cb15b495bf8b1c62c055355f4d97dbf1f99b6252ed0997e86de177aef95a6",
                        "transactions": [
                            "0xf90121060a834c4b4094000000000000000000000000000000000000100080b8c0010657f37554c781402a22917dee2f75def7ab966d7b770905398eba3c444014623ce31cf9759a5c8daf3a357992f9f3dd7f9339d8998bc8e68373e54f00b75e0000000000000000000000000000000000000000000000000000000000000000c00000000000000000000000000000000000000000000000000000000000000000000000000000000000000000000000c0000000000000000000000000000000000000000000000000000000000000000000000000000000000000000000000025a0ab7a8391dcf751e531c50b9b4d4bdada75e60f7f2f4c731c5ee159d6398b6eb8a01b2dcb11bd3a04a873dd884c50c643261a747d7ad9bf633ad9eedec153135177"
                        ],
                        "withdrawals": []
                    }
                ],
                "newPayloadVersion": "2",
                "forkchoiceUpdatedVersion": "2"
            },
            {
                "params": [
                    {
                        "parentHash": "0xfe6cb15b495bf8b1c62c055355f4d97dbf1f99b6252ed0997e86de177aef95a6",
                        "feeRecipient": "0x2adc25665018aa1fe0e6bc666dac8fc2697ff9ba",
                        "stateRoot": "0x0c35c0aca9f596bf7fab776166f6c96cee507158cd02942ea79eca10b4771059",
                        "receiptsRoot": "0x041ed77e99e9ae507ee712733d620fcae0f98f5a5207f712dcdf34ba801cfd67",
                        "logsBloom": "0x00000000000000000000000000000000000000000000000000000000000000000000000000000000000000000000000000000000000000000000000000000000000000000000000000000000000000000000000000000000000000000000000000000000000000000000000000000000000000000000000000000000000000000000000000000000000000000000000000000000000000000000000000000000000000000000000000000000000000000000000000000000000000000000000000000000000000000000000000000000000000000000000000000000000000000000000000000000000000000000000000000000000000000000000000000000",
                        "blockNumber": "0x8",
                        "gasLimit": "0x16345785d8a0000",
                        "gasUsed": "0xd300",
                        "timestamp": "0x1f3f",
                        "extraData": "0x",
                        "prevRandao": "0x0000000000000000000000000000000000000000000000000000000000000000",
                        "baseFeePerGas": "0x7",
                        "blockHash": "0xaaa5d828f27f2883bf67239bad2d5385f9420aafe4e4b2290b2878a6b4ac12be",
                        "transactions": [
                            "0xf90121070a834c4b4094000000000000000000000000000000000000100080b8c0010657f37554c781402a22917dee2f75def7ab966d7b770905398eba3c444014623ce31cf9759a5c8daf3a357992f9f3dd7f9339d8998bc8e68373e54f00b75e0000000000000000000000000000000000000000000000000000000000000000c00000000000000000000000000000000000000000000000000000000000000000000000000000000000000000000000c0000000000000000000000000000000000000000000000000000000000000000000000000000000000000000000000025a00badb3104a096d28bca5767d7d63aaf17ca7a86a14d62cc33f76b7b19e4d7a0ba039278a4e1498a17ec3b71b048171cd4739551cfdccb1ba2e9dbee4fdc170ce9d"
                        ],
                        "withdrawals": []
                    }
                ],
                "newPayloadVersion": "2",
                "forkchoiceUpdatedVersion": "2"
            },
            {
                "params": [
                    {
                        "parentHash": "0xaaa5d828f27f2883bf67239bad2d5385f9420aafe4e4b2290b2878a6b4ac12be",
                        "feeRecipient": "0x2adc25665018aa1fe0e6bc666dac8fc2697ff9ba",
                        "stateRoot": "0x38443f3045f1569748951a437133542957065d7b6fd783a6653bbda06fb74c4e",
                        "receiptsRoot": "0x041ed77e99e9ae507ee712733d620fcae0f98f5a5207f712dcdf34ba801cfd67",
                        "logsBloom": "0x00000000000000000000000000000000000000000000000000000000000000000000000000000000000000000000000000000000000000000000000000000000000000000000000000000000000000000000000000000000000000000000000000000000000000000000000000000000000000000000000000000000000000000000000000000000000000000000000000000000000000000000000000000000000000000000000000000000000000000000000000000000000000000000000000000000000000000000000000000000000000000000000000000000000000000000000000000000000000000000000000000000000000000000000000000000",
                        "blockNumber": "0x9",
                        "gasLimit": "0x16345785d8a0000",
                        "gasUsed": "0xd300",
                        "timestamp": "0x2327",
                        "extraData": "0x",
                        "prevRandao": "0x0000000000000000000000000000000000000000000000000000000000000000",
                        "baseFeePerGas": "0x7",
                        "blockHash": "0x4b294df8b9ba5bbb5502570c605789d5ec87b98dc6eb6d41e3252b7de31247ae",
                        "transactions": [
                            "0xf90121080a834c4b4094000000000000000000000000000000000000100080b8c0010657f37554c781402a22917dee2f75def7ab966d7b770905398eba3c444014623ce31cf9759a5c8daf3a357992f9f3dd7f9339d8998bc8e68373e54f00b75e0000000000000000000000000000000000000000000000000000000000000000c00000000000000000000000000000000000000000000000000000000000000000000000000000000000000000000000c0000000000000000000000000000000000000000000000000000000000000000000000000000000000000000000000026a0755d3f06ebbdb40875214da380e834d73be811ada78b0ccae21dc5a849b35b3fa06c40312cfbc1230e63dbe66a3d33b6356c6d49d2db81b7a80a599955d3ebfef4"
                        ],
                        "withdrawals": []
                    }
                ],
                "newPayloadVersion": "2",
                "forkchoiceUpdatedVersion": "2"
            },
            {
                "params": [
                    {
                        "parentHash": "0x4b294df8b9ba5bbb5502570c605789d5ec87b98dc6eb6d41e3252b7de31247ae",
                        "feeRecipient": "0x2adc25665018aa1fe0e6bc666dac8fc2697ff9ba",
                        "stateRoot": "0xacc0ee645447224efb7b6bedd232b3dd9a926d4eca2f97f3f95a4fa921e922bb",
                        "receiptsRoot": "0x041ed77e99e9ae507ee712733d620fcae0f98f5a5207f712dcdf34ba801cfd67",
                        "logsBloom": "0x00000000000000000000000000000000000000000000000000000000000000000000000000000000000000000000000000000000000000000000000000000000000000000000000000000000000000000000000000000000000000000000000000000000000000000000000000000000000000000000000000000000000000000000000000000000000000000000000000000000000000000000000000000000000000000000000000000000000000000000000000000000000000000000000000000000000000000000000000000000000000000000000000000000000000000000000000000000000000000000000000000000000000000000000000000000",
                        "blockNumber": "0xa",
                        "gasLimit": "0x16345785d8a0000",
                        "gasUsed": "0xd300",
                        "timestamp": "0x270f",
                        "extraData": "0x",
                        "prevRandao": "0x0000000000000000000000000000000000000000000000000000000000000000",
                        "baseFeePerGas": "0x7",
                        "blockHash": "0x211a64891cfef1d5e006327eaf83a8cffe2289cc92ee04130f40935abd7add68",
                        "transactions": [
                            "0xf90121090a834c4b4094000000000000000000000000000000000000100080b8c0010657f37554c781402a22917dee2f75def7ab966d7b770905398eba3c444014623ce31cf9759a5c8daf3a357992f9f3dd7f9339d8998bc8e68373e54f00b75e0000000000000000000000000000000000000000000000000000000000000000c00000000000000000000000000000000000000000000000000000000000000000000000000000000000000000000000c0000000000000000000000000000000000000000000000000000000000000000000000000000000000000000000000026a053c515f95c0477942a85ad087f2a0e05b67269700a3c54d075bed1a8e4eb0c7da056eb52d4af722dc40ff0dc6e21c779f020b2c75de10601c9b14a37422f4acf23"
                        ],
                        "withdrawals": []
                    }
                ],
                "newPayloadVersion": "2",
                "forkchoiceUpdatedVersion": "2"
            },
            {
                "params": [
                    {
                        "parentHash": "0x211a64891cfef1d5e006327eaf83a8cffe2289cc92ee04130f40935abd7add68",
                        "feeRecipient": "0x2adc25665018aa1fe0e6bc666dac8fc2697ff9ba",
                        "stateRoot": "0x2ef20aa81879f3d932cc319d67011ae0f9cf40b5bf251a59487b2ed94375cf47",
                        "receiptsRoot": "0x041ed77e99e9ae507ee712733d620fcae0f98f5a5207f712dcdf34ba801cfd67",
                        "logsBloom": "0x00000000000000000000000000000000000000000000000000000000000000000000000000000000000000000000000000000000000000000000000000000000000000000000000000000000000000000000000000000000000000000000000000000000000000000000000000000000000000000000000000000000000000000000000000000000000000000000000000000000000000000000000000000000000000000000000000000000000000000000000000000000000000000000000000000000000000000000000000000000000000000000000000000000000000000000000000000000000000000000000000000000000000000000000000000000",
                        "blockNumber": "0xb",
                        "gasLimit": "0x16345785d8a0000",
                        "gasUsed": "0xd300",
                        "timestamp": "0x2af7",
                        "extraData": "0x",
                        "prevRandao": "0x0000000000000000000000000000000000000000000000000000000000000000",
                        "baseFeePerGas": "0x7",
                        "blockHash": "0xec1c71d632bf2b551520b36735b472d2e3a540a4f2371b8642606bbeae308ef8",
                        "transactions": [
                            "0xf901210a0a834c4b4094000000000000000000000000000000000000100080b8c0010657f37554c781402a22917dee2f75def7ab966d7b770905398eba3c444014623ce31cf9759a5c8daf3a357992f9f3dd7f9339d8998bc8e68373e54f00b75e0000000000000000000000000000000000000000000000000000000000000000c00000000000000000000000000000000000000000000000000000000000000000000000000000000000000000000000c0000000000000000000000000000000000000000000000000000000000000000000000000000000000000000000000026a061c66789b6faaf1bb21fbd587a7f3a10b7cbfb3d00601cfc8786670e7cdd66e7a01378e9a1a137026095813614ef5e4a801def5816a6239bd264ab5f679be3002b"
                        ],
                        "withdrawals": []
                    }
                ],
                "newPayloadVersion": "2",
                "forkchoiceUpdatedVersion": "2"
            },
            {
                "params": [
                    {
                        "parentHash": "0xec1c71d632bf2b551520b36735b472d2e3a540a4f2371b8642606bbeae308ef8",
                        "feeRecipient": "0x2adc25665018aa1fe0e6bc666dac8fc2697ff9ba",
                        "stateRoot": "0x239f8cc3f103bf88cf5dd49a11d0b2aa3dec07b971d2370c667306d80c34cc23",
                        "receiptsRoot": "0x041ed77e99e9ae507ee712733d620fcae0f98f5a5207f712dcdf34ba801cfd67",
                        "logsBloom": "0x00000000000000000000000000000000000000000000000000000000000000000000000000000000000000000000000000000000000000000000000000000000000000000000000000000000000000000000000000000000000000000000000000000000000000000000000000000000000000000000000000000000000000000000000000000000000000000000000000000000000000000000000000000000000000000000000000000000000000000000000000000000000000000000000000000000000000000000000000000000000000000000000000000000000000000000000000000000000000000000000000000000000000000000000000000000",
                        "blockNumber": "0xc",
                        "gasLimit": "0x16345785d8a0000",
                        "gasUsed": "0xd300",
                        "timestamp": "0x2edf",
                        "extraData": "0x",
                        "prevRandao": "0x0000000000000000000000000000000000000000000000000000000000000000",
                        "baseFeePerGas": "0x7",
                        "blockHash": "0x98cbab27572406e0e116374e34879db4cc1f268cb8e027e0a468744db3f45e18",
                        "transactions": [
                            "0xf901210b0a834c4b4094000000000000000000000000000000000000100080b8c0010657f37554c781402a22917dee2f75def7ab966d7b770905398eba3c444014623ce31cf9759a5c8daf3a357992f9f3dd7f9339d8998bc8e68373e54f00b75e0000000000000000000000000000000000000000000000000000000000000000c00000000000000000000000000000000000000000000000000000000000000000000000000000000000000000000000c0000000000000000000000000000000000000000000000000000000000000000000000000000000000000000000000025a07a37eb674dc4d601df81f8612ca79592c6d963ae22c010f73141a36a167953cfa058c562382162e67652250275e2a07db7ececb50f2342798fe5a623f451e3bf8b"
                        ],
                        "withdrawals": []
                    }
                ],
                "newPayloadVersion": "2",
                "forkchoiceUpdatedVersion": "2"
            },
            {
                "params": [
                    {
                        "parentHash": "0x98cbab27572406e0e116374e34879db4cc1f268cb8e027e0a468744db3f45e18",
                        "feeRecipient": "0x2adc25665018aa1fe0e6bc666dac8fc2697ff9ba",
                        "stateRoot": "0xe8da15f2cc079d65d6e6d0f93a1e591a827b3464ab2e04c657ab5b071e64e93f",
                        "receiptsRoot": "0x041ed77e99e9ae507ee712733d620fcae0f98f5a5207f712dcdf34ba801cfd67",
                        "logsBloom": "0x00000000000000000000000000000000000000000000000000000000000000000000000000000000000000000000000000000000000000000000000000000000000000000000000000000000000000000000000000000000000000000000000000000000000000000000000000000000000000000000000000000000000000000000000000000000000000000000000000000000000000000000000000000000000000000000000000000000000000000000000000000000000000000000000000000000000000000000000000000000000000000000000000000000000000000000000000000000000000000000000000000000000000000000000000000000",
                        "blockNumber": "0xd",
                        "gasLimit": "0x16345785d8a0000",
                        "gasUsed": "0xd300",
                        "timestamp": "0x32c7",
                        "extraData": "0x",
                        "prevRandao": "0x0000000000000000000000000000000000000000000000000000000000000000",
                        "baseFeePerGas": "0x7",
                        "blockHash": "0x0b7d4a36164a14d0478e6215b0e292883470d27dc4c8563b01e51e141643786e",
                        "transactions": [
                            "0xf901210c0a834c4b4094000000000000000000000000000000000000100080b8c0010657f37554c781402a22917dee2f75def7ab966d7b770905398eba3c444014623ce31cf9759a5c8daf3a357992f9f3dd7f9339d8998bc8e68373e54f00b75e0000000000000000000000000000000000000000000000000000000000000000c00000000000000000000000000000000000000000000000000000000000000000000000000000000000000000000000c0000000000000000000000000000000000000000000000000000000000000000000000000000000000000000000000025a0dd97c29463a2550c0e1f3de73da62f8a01fb94e4b423a2384f3a81693ce8a05ea049039f8e0e747dd0ea4ff6ec3fa6d6be5ce4f221557b1780dbe4c169c8b6d7ab"
                        ],
                        "withdrawals": []
                    }
                ],
                "newPayloadVersion": "2",
                "forkchoiceUpdatedVersion": "2"
            },
            {
                "params": [
                    {
                        "parentHash": "0x0b7d4a36164a14d0478e6215b0e292883470d27dc4c8563b01e51e141643786e",
                        "feeRecipient": "0x2adc25665018aa1fe0e6bc666dac8fc2697ff9ba",
                        "stateRoot": "0x36125db3ac986e206c7957d523c854201b8b1a3eddb07da283eb27b3b4173d61",
                        "receiptsRoot": "0x041ed77e99e9ae507ee712733d620fcae0f98f5a5207f712dcdf34ba801cfd67",
                        "logsBloom": "0x00000000000000000000000000000000000000000000000000000000000000000000000000000000000000000000000000000000000000000000000000000000000000000000000000000000000000000000000000000000000000000000000000000000000000000000000000000000000000000000000000000000000000000000000000000000000000000000000000000000000000000000000000000000000000000000000000000000000000000000000000000000000000000000000000000000000000000000000000000000000000000000000000000000000000000000000000000000000000000000000000000000000000000000000000000000",
                        "blockNumber": "0xe",
                        "gasLimit": "0x16345785d8a0000",
                        "gasUsed": "0xd300",
                        "timestamp": "0x36af",
                        "extraData": "0x",
                        "prevRandao": "0x0000000000000000000000000000000000000000000000000000000000000000",
                        "baseFeePerGas": "0x7",
                        "blockHash": "0x3d755d7f3c955c25e87581af5e3c666f3db5f65a491543522515246954cfb950",
                        "transactions": [
                            "0xf901210d0a834c4b4094000000000000000000000000000000000000100080b8c0010657f37554c781402a22917dee2f75def7ab966d7b770905398eba3c444014623ce31cf9759a5c8daf3a357992f9f3dd7f9339d8998bc8e68373e54f00b75e0000000000000000000000000000000000000000000000000000000000000000c00000000000000000000000000000000000000000000000000000000000000000000000000000000000000000000000c0000000000000000000000000000000000000000000000000000000000000000000000000000000000000000000000026a068daf573c8c8f46e96a399ed52144edaa36c9d0c0b70c2b81e2ef782ecb09e2da0551c54f84bad03a51d1b60b72ba8e356313cbdf8ce0616b1cdfa8be3c9790c9a"
                        ],
                        "withdrawals": []
                    }
                ],
                "newPayloadVersion": "2",
                "forkchoiceUpdatedVersion": "2"
            },
            {
                "params": [
                    {
                        "parentHash": "0x3d755d7f3c955c25e87581af5e3c666f3db5f65a491543522515246954cfb950",
                        "feeRecipient": "0x2adc25665018aa1fe0e6bc666dac8fc2697ff9ba",
                        "stateRoot": "0xb443f072ad82afb68d4a6ee6786e6bee9171afecdb6b4d1ce7171bcd9596e662",
                        "receiptsRoot": "0x041ed77e99e9ae507ee712733d620fcae0f98f5a5207f712dcdf34ba801cfd67",
                        "logsBloom": "0x00000000000000000000000000000000000000000000000000000000000000000000000000000000000000000000000000000000000000000000000000000000000000000000000000000000000000000000000000000000000000000000000000000000000000000000000000000000000000000000000000000000000000000000000000000000000000000000000000000000000000000000000000000000000000000000000000000000000000000000000000000000000000000000000000000000000000000000000000000000000000000000000000000000000000000000000000000000000000000000000000000000000000000000000000000000",
                        "blockNumber": "0xf",
                        "gasLimit": "0x16345785d8a0000",
                        "gasUsed": "0xd300",
                        "timestamp": "0x3a97",
                        "extraData": "0x",
                        "prevRandao": "0x0000000000000000000000000000000000000000000000000000000000000000",
                        "baseFeePerGas": "0x7",
                        "blockHash": "0xff0a0b4e6653c20aab4466a47114b626e9c78e5bec187a2399e9bd2a1979dc12",
                        "transactions": [
                            "0xf901210e0a834c4b4094000000000000000000000000000000000000100080b8c0010657f37554c781402a22917dee2f75def7ab966d7b770905398eba3c444014623ce31cf9759a5c8daf3a357992f9f3dd7f9339d8998bc8e68373e54f00b75e0000000000000000000000000000000000000000000000000000000000000000c00000000000000000000000000000000000000000000000000000000000000000000000000000000000000000000000c0000000000000000000000000000000000000000000000000000000000000000000000000000000000000000000000025a018eda6a1bcf43c6d1c2b303f914886b19f294fb8d5af72319bc5cc037d3dc37fa0333e614eb115348748e6ddc528af3ead0c0e88c98b9a096a71f1a6dcd4070972"
                        ],
                        "withdrawals": []
                    }
                ],
                "newPayloadVersion": "2",
                "forkchoiceUpdatedVersion": "2"
            },
            {
                "params": [
                    {
                        "parentHash": "0xff0a0b4e6653c20aab4466a47114b626e9c78e5bec187a2399e9bd2a1979dc12",
                        "feeRecipient": "0x2adc25665018aa1fe0e6bc666dac8fc2697ff9ba",
                        "stateRoot": "0x9fe2b8bf66b3285eb95a1e92d1f9126d188549a14a6a543d39e138e7ecf6847c",
                        "receiptsRoot": "0x49054012e92aacb04cd69ea17ccd52dc406a76eb83d8a9e22fdd84fd3be38644",
                        "logsBloom": "0x00000000000000000000000000000000000000000000000000000000000000000000000000000000000000000000000000000000000000000000000000000000000000000000000000000000000000000000000000000000000000000000000000000000000000000000000000000000000000000000000000000000000000000000000000000000000000000000000000000000000000000000000000000000000000000000000000000000000000000000000000000000000000000000000000000000000000000000000000000000000000000000000000000000000000000000000000000000000000000000000000000000000000000000000000000000",
                        "blockNumber": "0x10",
                        "gasLimit": "0x16345785d8a0000",
                        "gasUsed": "0x7b80",
                        "timestamp": "0x3a98",
                        "extraData": "0x",
                        "prevRandao": "0x0000000000000000000000000000000000000000000000000000000000000000",
                        "baseFeePerGas": "0x7",
                        "blobGasUsed": "0x0",
                        "excessBlobGas": "0x0",
                        "blockHash": "0xd4650c666e13c218ce96c5a1e84374ac4830b6656128553669ee727a48b4d72f",
                        "transactions": [
                            "0xf901210f0a834c4b4094000000000000000000000000000000000000100080b8c0010657f37554c781402a22917dee2f75def7ab966d7b770905398eba3c444014623ce31cf9759a5c8daf3a357992f9f3dd7f9339d8998bc8e68373e54f00b75e0000000000000000000000000000000000000000000000000000000000000000c00000000000000000000000000000000000000000000000000000000000000000000000000000000000000000000000c0000000000000000000000000000000000000000000000000000000000000000000000000000000000000000000000026a0bf924db7041687e51ff95b9ce64961c74af2111e6e9f841fad60863a33dcdff4a00afb2f23647403aaf8ccd46d86b0ba15151f8e6f5054b6f10a084b7e0e59461a"
                        ],
                        "withdrawals": []
                    },
                    [],
                    "0x0000000000000000000000000000000000000000000000000000000000000000"
                ],
                "newPayloadVersion": "3",
                "forkchoiceUpdatedVersion": "3"
            }
        ],
        "_info": {
            "hash": "0xdad22dc94ef0b006dc8e2f06c35545ff3eff6d7ad78fd49b3cc136fedf489a06",
            "comment": "`execution-spec-tests` generated test",
            "filling-transition-tool": "ethereum-spec-evm-resolver 0.0.1",
            "description": "Test function documentation:\nTest calling the Point Evaluation Precompile before the appropriate fork.",
            "url": "https://github.com/ethereum/execution-spec-tests/blob/8fbca341fb0f3eb3a08a296e8f8fa84f233f4faa/tests/cancun/eip4844_blobs/test_point_evaluation_precompile.py#L638",
            "fixture_format": "blockchain_test_engine",
            "reference-spec": "https://github.com/ethereum/EIPs/blob/master/EIPS/eip-4844.md",
            "reference-spec-version": "f0eb6a364aaf5ccb43516fa2c269a54fb881ecfd"
        }
    }
}
