{
    "tests/shanghai/eip3651_warm_coinbase/test_warm_coinbase.py::test_warm_coinbase_call_out_of_gas[fork_Prague-state_test-CALL-sufficient_gas]": {
        "env": {
            "currentCoinbase": "0x2adc25665018aa1fe0e6bc666dac8fc2697ff9ba",
            "currentGasLimit": "0x016345785d8a0000",
            "currentNumber": "0x01",
            "currentTimestamp": "0x03e8",
            "currentRandom": "0x0000000000000000000000000000000000000000000000000000000000000000",
            "currentDifficulty": "0x00",
            "currentBaseFee": "0x07",
            "currentExcessBlobGas": "0x00"
        },
        "pre": {
            "0xa94f5374fce5edbc8e2a8697c15331677e6ebf0b": {
                "nonce": "0x00",
                "balance": "0x3635c9adc5dea00000",
                "code": "0x",
                "storage": {}
            },
            "0x0000000000000000000000000000000000001000": {
                "nonce": "0x01",
                "balance": "0x00",
                "code": "0x60006000600060006000416000f150",
                "storage": {}
            },
            "0x0000000000000000000000000000000000001100": {
                "nonce": "0x01",
                "balance": "0x00",
                "code": "0x60006000600060006000611000607af1600055",
                "storage": {}
            }
        },
        "transaction": {
            "nonce": "0x00",
            "gasPrice": "0x0a",
            "gasLimit": [
                "0x05f5e100"
            ],
            "to": "0x0000000000000000000000000000000000001100",
            "value": [
                "0x00"
            ],
            "data": [
                "0x"
            ],
            "sender": "0xa94f5374fce5edbc8e2a8697c15331677e6ebf0b",
            "secretKey": "0x45a915e4d060149eb4365960e6a7a45f334393093061116b197e3240065ff2d8"
        },
        "post": {
            "Prague": [
                {
                    "hash": "0x5e1cfca4c78f25dde66e03256b7e5c641658aacafb8b5a1f8362a0c8917ac4c5",
                    "logs": "0x1dcc4de8dec75d7aab85b567b6ccd41ad312451b948a7413f0a142fd40d49347",
                    "txbytes": "0xf861800a8405f5e100940000000000000000000000000000000000001100808026a02eb10772e340475646104f53b599069af4300c51a1569188ad8045bbe78e91c6a05a8ace5ed266d55652d2e8027406692f64e27845c450a59b291398817605f3b2",
                    "indexes": {
                        "data": 0,
                        "gas": 0,
                        "value": 0
                    },
                    "state": {
                        "0xa94f5374fce5edbc8e2a8697c15331677e6ebf0b": {
                            "nonce": "0x01",
                            "balance": "0x3635c9adc5de990124",
                            "code": "0x",
                            "storage": {}
                        },
                        "0x0000000000000000000000000000000000001000": {
                            "nonce": "0x01",
                            "balance": "0x00",
                            "code": "0x60006000600060006000416000f150",
                            "storage": {}
                        },
                        "0x0000000000000000000000000000000000001100": {
                            "nonce": "0x01",
                            "balance": "0x00",
                            "code": "0x60006000600060006000611000607af1600055",
                            "storage": {
                                "0x00": "0x01"
                            }
                        },
                        "0x2adc25665018aa1fe0e6bc666dac8fc2697ff9ba": {
                            "nonce": "0x00",
                            "balance": "0x021942",
                            "code": "0x",
                            "storage": {}
                        }
                    }
                }
            ]
        },
        "_info": {
            "hash": "0x002383739a43e9ce5e3ad2098dd1dc94fbeb432c7aa864ba1bb4e569fbe054ec",
            "comment": "`execution-spec-tests` generated test",
            "filling-transition-tool": "ethereum-spec-evm-resolver 0.0.1",
            "description": "Test function documentation:\n\n    Test that the coinbase is warm by accessing the COINBASE with each\n    of the following opcodes.\n\n    - CALL\n    - CALLCODE\n    - DELEGATECALL\n    - STATICCALL",
            "url": "https://github.com/ethereum/execution-spec-tests/blob/4dafe6334e0e9dc8f1dd21d54fb38c4e2732331e/tests/shanghai/eip3651_warm_coinbase/test_warm_coinbase.py#L34",
            "fixture_format": "state_test",
            "reference-spec": "https://github.com/ethereum/EIPs/blob/master/EIPS/eip-3651.md",
            "reference-spec-version": "d94c694c6f12291bb6626669c3e8587eef3adff1"
        }
    },
    "tests/shanghai/eip3651_warm_coinbase/test_warm_coinbase.py::test_warm_coinbase_call_out_of_gas[fork_Prague-state_test-CALL-insufficient_gas]": {
        "env": {
            "currentCoinbase": "0x2adc25665018aa1fe0e6bc666dac8fc2697ff9ba",
            "currentGasLimit": "0x016345785d8a0000",
            "currentNumber": "0x01",
            "currentTimestamp": "0x03e8",
            "currentRandom": "0x0000000000000000000000000000000000000000000000000000000000000000",
            "currentDifficulty": "0x00",
            "currentBaseFee": "0x07",
            "currentExcessBlobGas": "0x00"
        },
        "pre": {
            "0xa94f5374fce5edbc8e2a8697c15331677e6ebf0b": {
                "nonce": "0x00",
                "balance": "0x3635c9adc5dea00000",
                "code": "0x",
                "storage": {}
            },
            "0x0000000000000000000000000000000000001000": {
                "nonce": "0x01",
                "balance": "0x00",
                "code": "0x60006000600060006000416000f150",
                "storage": {}
            },
            "0x0000000000000000000000000000000000001100": {
                "nonce": "0x01",
                "balance": "0x00",
                "code": "0x600060006000600060006110006079f1600055",
                "storage": {}
            }
        },
        "transaction": {
            "nonce": "0x00",
            "gasPrice": "0x0a",
            "gasLimit": [
                "0x05f5e100"
            ],
            "to": "0x0000000000000000000000000000000000001100",
            "value": [
                "0x00"
            ],
            "data": [
                "0x"
            ],
            "sender": "0xa94f5374fce5edbc8e2a8697c15331677e6ebf0b",
            "secretKey": "0x45a915e4d060149eb4365960e6a7a45f334393093061116b197e3240065ff2d8"
        },
        "post": {
            "Prague": [
                {
                    "hash": "0x8072782fa12d01a54dbd3f2f17e2c734c28d630567c09c9b9216bf6ecbb79b65",
                    "logs": "0x1dcc4de8dec75d7aab85b567b6ccd41ad312451b948a7413f0a142fd40d49347",
                    "txbytes": "0xf861800a8405f5e100940000000000000000000000000000000000001100808026a02eb10772e340475646104f53b599069af4300c51a1569188ad8045bbe78e91c6a05a8ace5ed266d55652d2e8027406692f64e27845c450a59b291398817605f3b2",
                    "indexes": {
                        "data": 0,
                        "gas": 0,
                        "value": 0
                    },
                    "state": {
                        "0xa94f5374fce5edbc8e2a8697c15331677e6ebf0b": {
                            "nonce": "0x01",
                            "balance": "0x3635c9adc5de9c0a86",
                            "code": "0x",
                            "storage": {}
                        },
                        "0x0000000000000000000000000000000000001000": {
                            "nonce": "0x01",
                            "balance": "0x00",
                            "code": "0x60006000600060006000416000f150",
                            "storage": {}
                        },
                        "0x0000000000000000000000000000000000001100": {
                            "nonce": "0x01",
                            "balance": "0x00",
                            "code": "0x600060006000600060006110006079f1600055",
                            "storage": {}
                        },
                        "0x2adc25665018aa1fe0e6bc666dac8fc2697ff9ba": {
                            "nonce": "0x00",
                            "balance": "0x01300b",
                            "code": "0x",
                            "storage": {}
                        }
                    }
                }
            ]
        },
        "_info": {
            "hash": "0xea9a8f4ae430486ae3af5e345c8f0c43b9d710bf76b82ee357e80a873748894c",
            "comment": "`execution-spec-tests` generated test",
            "filling-transition-tool": "ethereum-spec-evm-resolver 0.0.1",
            "description": "Test function documentation:\n\n    Test that the coinbase is warm by accessing the COINBASE with each\n    of the following opcodes.\n\n    - CALL\n    - CALLCODE\n    - DELEGATECALL\n    - STATICCALL",
            "url": "https://github.com/ethereum/execution-spec-tests/blob/4dafe6334e0e9dc8f1dd21d54fb38c4e2732331e/tests/shanghai/eip3651_warm_coinbase/test_warm_coinbase.py#L34",
            "fixture_format": "state_test",
            "reference-spec": "https://github.com/ethereum/EIPs/blob/master/EIPS/eip-3651.md",
            "reference-spec-version": "d94c694c6f12291bb6626669c3e8587eef3adff1"
        }
    },
    "tests/shanghai/eip3651_warm_coinbase/test_warm_coinbase.py::test_warm_coinbase_call_out_of_gas[fork_Prague-state_test-CALLCODE-sufficient_gas]": {
        "env": {
            "currentCoinbase": "0x2adc25665018aa1fe0e6bc666dac8fc2697ff9ba",
            "currentGasLimit": "0x016345785d8a0000",
            "currentNumber": "0x01",
            "currentTimestamp": "0x03e8",
            "currentRandom": "0x0000000000000000000000000000000000000000000000000000000000000000",
            "currentDifficulty": "0x00",
            "currentBaseFee": "0x07",
            "currentExcessBlobGas": "0x00"
        },
        "pre": {
            "0xa94f5374fce5edbc8e2a8697c15331677e6ebf0b": {
                "nonce": "0x00",
                "balance": "0x3635c9adc5dea00000",
                "code": "0x",
                "storage": {}
            },
            "0x0000000000000000000000000000000000001000": {
                "nonce": "0x01",
                "balance": "0x00",
                "code": "0x60006000600060006000416000f250",
                "storage": {}
            },
            "0x0000000000000000000000000000000000001100": {
                "nonce": "0x01",
                "balance": "0x00",
                "code": "0x60006000600060006000611000607af1600055",
                "storage": {}
            }
        },
        "transaction": {
            "nonce": "0x00",
            "gasPrice": "0x0a",
            "gasLimit": [
                "0x05f5e100"
            ],
            "to": "0x0000000000000000000000000000000000001100",
            "value": [
                "0x00"
            ],
            "data": [
                "0x"
            ],
            "sender": "0xa94f5374fce5edbc8e2a8697c15331677e6ebf0b",
            "secretKey": "0x45a915e4d060149eb4365960e6a7a45f334393093061116b197e3240065ff2d8"
        },
        "post": {
            "Prague": [
                {
                    "hash": "0x9baffa2b4704ea9f249f3f5fa7bcc18d4d3375d243ba952162e4ff8868a46cd2",
                    "logs": "0x1dcc4de8dec75d7aab85b567b6ccd41ad312451b948a7413f0a142fd40d49347",
                    "txbytes": "0xf861800a8405f5e100940000000000000000000000000000000000001100808026a02eb10772e340475646104f53b599069af4300c51a1569188ad8045bbe78e91c6a05a8ace5ed266d55652d2e8027406692f64e27845c450a59b291398817605f3b2",
                    "indexes": {
                        "data": 0,
                        "gas": 0,
                        "value": 0
                    },
                    "state": {
                        "0xa94f5374fce5edbc8e2a8697c15331677e6ebf0b": {
                            "nonce": "0x01",
                            "balance": "0x3635c9adc5de990124",
                            "code": "0x",
                            "storage": {}
                        },
                        "0x0000000000000000000000000000000000001000": {
                            "nonce": "0x01",
                            "balance": "0x00",
                            "code": "0x60006000600060006000416000f250",
                            "storage": {}
                        },
                        "0x0000000000000000000000000000000000001100": {
                            "nonce": "0x01",
                            "balance": "0x00",
                            "code": "0x60006000600060006000611000607af1600055",
                            "storage": {
                                "0x00": "0x01"
                            }
                        },
                        "0x2adc25665018aa1fe0e6bc666dac8fc2697ff9ba": {
                            "nonce": "0x00",
                            "balance": "0x021942",
                            "code": "0x",
                            "storage": {}
                        }
                    }
                }
            ]
        },
        "_info": {
            "hash": "0xb19e292fb3a6cdd916e4547d2162507cff56a5ba79bd446544bfa26c0555d02c",
            "comment": "`execution-spec-tests` generated test",
            "filling-transition-tool": "ethereum-spec-evm-resolver 0.0.1",
            "description": "Test function documentation:\n\n    Test that the coinbase is warm by accessing the COINBASE with each\n    of the following opcodes.\n\n    - CALL\n    - CALLCODE\n    - DELEGATECALL\n    - STATICCALL",
            "url": "https://github.com/ethereum/execution-spec-tests/blob/4dafe6334e0e9dc8f1dd21d54fb38c4e2732331e/tests/shanghai/eip3651_warm_coinbase/test_warm_coinbase.py#L34",
            "fixture_format": "state_test",
            "reference-spec": "https://github.com/ethereum/EIPs/blob/master/EIPS/eip-3651.md",
            "reference-spec-version": "d94c694c6f12291bb6626669c3e8587eef3adff1"
        }
    },
    "tests/shanghai/eip3651_warm_coinbase/test_warm_coinbase.py::test_warm_coinbase_call_out_of_gas[fork_Prague-state_test-CALLCODE-insufficient_gas]": {
        "env": {
            "currentCoinbase": "0x2adc25665018aa1fe0e6bc666dac8fc2697ff9ba",
            "currentGasLimit": "0x016345785d8a0000",
            "currentNumber": "0x01",
            "currentTimestamp": "0x03e8",
            "currentRandom": "0x0000000000000000000000000000000000000000000000000000000000000000",
            "currentDifficulty": "0x00",
            "currentBaseFee": "0x07",
            "currentExcessBlobGas": "0x00"
        },
        "pre": {
            "0xa94f5374fce5edbc8e2a8697c15331677e6ebf0b": {
                "nonce": "0x00",
                "balance": "0x3635c9adc5dea00000",
                "code": "0x",
                "storage": {}
            },
            "0x0000000000000000000000000000000000001000": {
                "nonce": "0x01",
                "balance": "0x00",
                "code": "0x60006000600060006000416000f250",
                "storage": {}
            },
            "0x0000000000000000000000000000000000001100": {
                "nonce": "0x01",
                "balance": "0x00",
                "code": "0x600060006000600060006110006079f1600055",
                "storage": {}
            }
        },
        "transaction": {
            "nonce": "0x00",
            "gasPrice": "0x0a",
            "gasLimit": [
                "0x05f5e100"
            ],
            "to": "0x0000000000000000000000000000000000001100",
            "value": [
                "0x00"
            ],
            "data": [
                "0x"
            ],
            "sender": "0xa94f5374fce5edbc8e2a8697c15331677e6ebf0b",
            "secretKey": "0x45a915e4d060149eb4365960e6a7a45f334393093061116b197e3240065ff2d8"
        },
        "post": {
            "Prague": [
                {
                    "hash": "0x07ac5d1ce72bf610e24403a997036c7dde431a36fcdd3338cb08c5d2d3a4b043",
                    "logs": "0x1dcc4de8dec75d7aab85b567b6ccd41ad312451b948a7413f0a142fd40d49347",
                    "txbytes": "0xf861800a8405f5e100940000000000000000000000000000000000001100808026a02eb10772e340475646104f53b599069af4300c51a1569188ad8045bbe78e91c6a05a8ace5ed266d55652d2e8027406692f64e27845c450a59b291398817605f3b2",
                    "indexes": {
                        "data": 0,
                        "gas": 0,
                        "value": 0
                    },
                    "state": {
                        "0xa94f5374fce5edbc8e2a8697c15331677e6ebf0b": {
                            "nonce": "0x01",
                            "balance": "0x3635c9adc5de9c0a86",
                            "code": "0x",
                            "storage": {}
                        },
                        "0x0000000000000000000000000000000000001000": {
                            "nonce": "0x01",
                            "balance": "0x00",
                            "code": "0x60006000600060006000416000f250",
                            "storage": {}
                        },
                        "0x0000000000000000000000000000000000001100": {
                            "nonce": "0x01",
                            "balance": "0x00",
                            "code": "0x600060006000600060006110006079f1600055",
                            "storage": {}
                        },
                        "0x2adc25665018aa1fe0e6bc666dac8fc2697ff9ba": {
                            "nonce": "0x00",
                            "balance": "0x01300b",
                            "code": "0x",
                            "storage": {}
                        }
                    }
                }
            ]
        },
        "_info": {
            "hash": "0xf5205c25b7480c79e531afcad5c0574c94afbe718411c54f5adf9ce02da7c1a2",
            "comment": "`execution-spec-tests` generated test",
            "filling-transition-tool": "ethereum-spec-evm-resolver 0.0.1",
            "description": "Test function documentation:\n\n    Test that the coinbase is warm by accessing the COINBASE with each\n    of the following opcodes.\n\n    - CALL\n    - CALLCODE\n    - DELEGATECALL\n    - STATICCALL",
            "url": "https://github.com/ethereum/execution-spec-tests/blob/4dafe6334e0e9dc8f1dd21d54fb38c4e2732331e/tests/shanghai/eip3651_warm_coinbase/test_warm_coinbase.py#L34",
            "fixture_format": "state_test",
            "reference-spec": "https://github.com/ethereum/EIPs/blob/master/EIPS/eip-3651.md",
            "reference-spec-version": "d94c694c6f12291bb6626669c3e8587eef3adff1"
        }
    },
    "tests/shanghai/eip3651_warm_coinbase/test_warm_coinbase.py::test_warm_coinbase_call_out_of_gas[fork_Prague-state_test-DELEGATECALL-sufficient_gas]": {
        "env": {
            "currentCoinbase": "0x2adc25665018aa1fe0e6bc666dac8fc2697ff9ba",
            "currentGasLimit": "0x016345785d8a0000",
            "currentNumber": "0x01",
            "currentTimestamp": "0x03e8",
            "currentRandom": "0x0000000000000000000000000000000000000000000000000000000000000000",
            "currentDifficulty": "0x00",
            "currentBaseFee": "0x07",
            "currentExcessBlobGas": "0x00"
        },
        "pre": {
            "0xa94f5374fce5edbc8e2a8697c15331677e6ebf0b": {
                "nonce": "0x00",
                "balance": "0x3635c9adc5dea00000",
                "code": "0x",
                "storage": {}
            },
            "0x0000000000000000000000000000000000001000": {
                "nonce": "0x01",
                "balance": "0x00",
                "code": "0x6000600060006000416000f450",
                "storage": {}
            },
            "0x0000000000000000000000000000000000001100": {
                "nonce": "0x01",
                "balance": "0x00",
                "code": "0x600060006000600060006110006077f1600055",
                "storage": {}
            }
        },
        "transaction": {
            "nonce": "0x00",
            "gasPrice": "0x0a",
            "gasLimit": [
                "0x05f5e100"
            ],
            "to": "0x0000000000000000000000000000000000001100",
            "value": [
                "0x00"
            ],
            "data": [
                "0x"
            ],
            "sender": "0xa94f5374fce5edbc8e2a8697c15331677e6ebf0b",
            "secretKey": "0x45a915e4d060149eb4365960e6a7a45f334393093061116b197e3240065ff2d8"
        },
        "post": {
            "Prague": [
                {
                    "hash": "0x64542c288a58d0398c3f02562a4be424ab9e210ab55d62c61066c0fcc253d0ef",
                    "logs": "0x1dcc4de8dec75d7aab85b567b6ccd41ad312451b948a7413f0a142fd40d49347",
                    "txbytes": "0xf861800a8405f5e100940000000000000000000000000000000000001100808026a02eb10772e340475646104f53b599069af4300c51a1569188ad8045bbe78e91c6a05a8ace5ed266d55652d2e8027406692f64e27845c450a59b291398817605f3b2",
                    "indexes": {
                        "data": 0,
                        "gas": 0,
                        "value": 0
                    },
                    "state": {
                        "0xa94f5374fce5edbc8e2a8697c15331677e6ebf0b": {
                            "nonce": "0x01",
                            "balance": "0x3635c9adc5de990142",
                            "code": "0x",
                            "storage": {}
                        },
                        "0x0000000000000000000000000000000000001000": {
                            "nonce": "0x01",
                            "balance": "0x00",
                            "code": "0x6000600060006000416000f450",
                            "storage": {}
                        },
                        "0x0000000000000000000000000000000000001100": {
                            "nonce": "0x01",
                            "balance": "0x00",
                            "code": "0x600060006000600060006110006077f1600055",
                            "storage": {
                                "0x00": "0x01"
                            }
                        },
                        "0x2adc25665018aa1fe0e6bc666dac8fc2697ff9ba": {
                            "nonce": "0x00",
                            "balance": "0x021939",
                            "code": "0x",
                            "storage": {}
                        }
                    }
                }
            ]
        },
        "_info": {
            "hash": "0x6eb995b17a1195c5e47be4f988e5549f2870efcb8b3a2bf3ffaecec717b51b24",
            "comment": "`execution-spec-tests` generated test",
            "filling-transition-tool": "ethereum-spec-evm-resolver 0.0.1",
            "description": "Test function documentation:\n\n    Test that the coinbase is warm by accessing the COINBASE with each\n    of the following opcodes.\n\n    - CALL\n    - CALLCODE\n    - DELEGATECALL\n    - STATICCALL",
            "url": "https://github.com/ethereum/execution-spec-tests/blob/4dafe6334e0e9dc8f1dd21d54fb38c4e2732331e/tests/shanghai/eip3651_warm_coinbase/test_warm_coinbase.py#L34",
            "fixture_format": "state_test",
            "reference-spec": "https://github.com/ethereum/EIPs/blob/master/EIPS/eip-3651.md",
            "reference-spec-version": "d94c694c6f12291bb6626669c3e8587eef3adff1"
        }
    },
    "tests/shanghai/eip3651_warm_coinbase/test_warm_coinbase.py::test_warm_coinbase_call_out_of_gas[fork_Prague-state_test-DELEGATECALL-insufficient_gas]": {
        "env": {
            "currentCoinbase": "0x2adc25665018aa1fe0e6bc666dac8fc2697ff9ba",
            "currentGasLimit": "0x016345785d8a0000",
            "currentNumber": "0x01",
            "currentTimestamp": "0x03e8",
            "currentRandom": "0x0000000000000000000000000000000000000000000000000000000000000000",
            "currentDifficulty": "0x00",
            "currentBaseFee": "0x07",
            "currentExcessBlobGas": "0x00"
        },
        "pre": {
            "0xa94f5374fce5edbc8e2a8697c15331677e6ebf0b": {
                "nonce": "0x00",
                "balance": "0x3635c9adc5dea00000",
                "code": "0x",
                "storage": {}
            },
            "0x0000000000000000000000000000000000001000": {
                "nonce": "0x01",
                "balance": "0x00",
                "code": "0x6000600060006000416000f450",
                "storage": {}
            },
            "0x0000000000000000000000000000000000001100": {
                "nonce": "0x01",
                "balance": "0x00",
                "code": "0x600060006000600060006110006076f1600055",
                "storage": {}
            }
        },
        "transaction": {
            "nonce": "0x00",
            "gasPrice": "0x0a",
            "gasLimit": [
                "0x05f5e100"
            ],
            "to": "0x0000000000000000000000000000000000001100",
            "value": [
                "0x00"
            ],
            "data": [
                "0x"
            ],
            "sender": "0xa94f5374fce5edbc8e2a8697c15331677e6ebf0b",
            "secretKey": "0x45a915e4d060149eb4365960e6a7a45f334393093061116b197e3240065ff2d8"
        },
        "post": {
            "Prague": [
                {
                    "hash": "0x50d0b4eab3a89f78c84d0cda2c33742a379b43c41bb793020fe05f2d08cef0a5",
                    "logs": "0x1dcc4de8dec75d7aab85b567b6ccd41ad312451b948a7413f0a142fd40d49347",
                    "txbytes": "0xf861800a8405f5e100940000000000000000000000000000000000001100808026a02eb10772e340475646104f53b599069af4300c51a1569188ad8045bbe78e91c6a05a8ace5ed266d55652d2e8027406692f64e27845c450a59b291398817605f3b2",
                    "indexes": {
                        "data": 0,
                        "gas": 0,
                        "value": 0
                    },
                    "state": {
                        "0xa94f5374fce5edbc8e2a8697c15331677e6ebf0b": {
                            "nonce": "0x01",
                            "balance": "0x3635c9adc5de9c0aa4",
                            "code": "0x",
                            "storage": {}
                        },
                        "0x0000000000000000000000000000000000001000": {
                            "nonce": "0x01",
                            "balance": "0x00",
                            "code": "0x6000600060006000416000f450",
                            "storage": {}
                        },
                        "0x0000000000000000000000000000000000001100": {
                            "nonce": "0x01",
                            "balance": "0x00",
                            "code": "0x600060006000600060006110006076f1600055",
                            "storage": {}
                        },
                        "0x2adc25665018aa1fe0e6bc666dac8fc2697ff9ba": {
                            "nonce": "0x00",
                            "balance": "0x013002",
                            "code": "0x",
                            "storage": {}
                        }
                    }
                }
            ]
        },
        "_info": {
            "hash": "0x046f9a8771fc2f4aadbfbc90c24734459d353d8d630f71b867fdabc432323abe",
            "comment": "`execution-spec-tests` generated test",
            "filling-transition-tool": "ethereum-spec-evm-resolver 0.0.1",
            "description": "Test function documentation:\n\n    Test that the coinbase is warm by accessing the COINBASE with each\n    of the following opcodes.\n\n    - CALL\n    - CALLCODE\n    - DELEGATECALL\n    - STATICCALL",
            "url": "https://github.com/ethereum/execution-spec-tests/blob/4dafe6334e0e9dc8f1dd21d54fb38c4e2732331e/tests/shanghai/eip3651_warm_coinbase/test_warm_coinbase.py#L34",
            "fixture_format": "state_test",
            "reference-spec": "https://github.com/ethereum/EIPs/blob/master/EIPS/eip-3651.md",
            "reference-spec-version": "d94c694c6f12291bb6626669c3e8587eef3adff1"
        }
    },
    "tests/shanghai/eip3651_warm_coinbase/test_warm_coinbase.py::test_warm_coinbase_call_out_of_gas[fork_Prague-state_test-STATICCALL-sufficient_gas]": {
        "env": {
            "currentCoinbase": "0x2adc25665018aa1fe0e6bc666dac8fc2697ff9ba",
            "currentGasLimit": "0x016345785d8a0000",
            "currentNumber": "0x01",
            "currentTimestamp": "0x03e8",
            "currentRandom": "0x0000000000000000000000000000000000000000000000000000000000000000",
            "currentDifficulty": "0x00",
            "currentBaseFee": "0x07",
            "currentExcessBlobGas": "0x00"
        },
        "pre": {
            "0xa94f5374fce5edbc8e2a8697c15331677e6ebf0b": {
                "nonce": "0x00",
                "balance": "0x3635c9adc5dea00000",
                "code": "0x",
                "storage": {}
            },
            "0x0000000000000000000000000000000000001000": {
                "nonce": "0x01",
                "balance": "0x00",
                "code": "0x6000600060006000416000fa50",
                "storage": {}
            },
            "0x0000000000000000000000000000000000001100": {
                "nonce": "0x01",
                "balance": "0x00",
                "code": "0x600060006000600060006110006077f1600055",
                "storage": {}
            }
        },
        "transaction": {
            "nonce": "0x00",
            "gasPrice": "0x0a",
            "gasLimit": [
                "0x05f5e100"
            ],
            "to": "0x0000000000000000000000000000000000001100",
            "value": [
                "0x00"
            ],
            "data": [
                "0x"
            ],
            "sender": "0xa94f5374fce5edbc8e2a8697c15331677e6ebf0b",
            "secretKey": "0x45a915e4d060149eb4365960e6a7a45f334393093061116b197e3240065ff2d8"
        },
        "post": {
            "Prague": [
                {
                    "hash": "0x4faac4a0cd71e7289792fcbdef7a673bf4bb90583e4bf10ad038b05f0435ef8c",
                    "logs": "0x1dcc4de8dec75d7aab85b567b6ccd41ad312451b948a7413f0a142fd40d49347",
                    "txbytes": "0xf861800a8405f5e100940000000000000000000000000000000000001100808026a02eb10772e340475646104f53b599069af4300c51a1569188ad8045bbe78e91c6a05a8ace5ed266d55652d2e8027406692f64e27845c450a59b291398817605f3b2",
                    "indexes": {
                        "data": 0,
                        "gas": 0,
                        "value": 0
                    },
                    "state": {
                        "0xa94f5374fce5edbc8e2a8697c15331677e6ebf0b": {
                            "nonce": "0x01",
                            "balance": "0x3635c9adc5de990142",
                            "code": "0x",
                            "storage": {}
                        },
                        "0x0000000000000000000000000000000000001000": {
                            "nonce": "0x01",
                            "balance": "0x00",
                            "code": "0x6000600060006000416000fa50",
                            "storage": {}
                        },
                        "0x0000000000000000000000000000000000001100": {
                            "nonce": "0x01",
                            "balance": "0x00",
                            "code": "0x600060006000600060006110006077f1600055",
                            "storage": {
                                "0x00": "0x01"
                            }
                        },
                        "0x2adc25665018aa1fe0e6bc666dac8fc2697ff9ba": {
                            "nonce": "0x00",
                            "balance": "0x021939",
                            "code": "0x",
                            "storage": {}
                        }
                    }
                }
            ]
        },
        "_info": {
            "hash": "0xb428ea5db29667d0875ac9dc567130c2ba9fd127c393aa68185d1ac716cb421e",
            "comment": "`execution-spec-tests` generated test",
            "filling-transition-tool": "ethereum-spec-evm-resolver 0.0.1",
            "description": "Test function documentation:\n\n    Test that the coinbase is warm by accessing the COINBASE with each\n    of the following opcodes.\n\n    - CALL\n    - CALLCODE\n    - DELEGATECALL\n    - STATICCALL",
            "url": "https://github.com/ethereum/execution-spec-tests/blob/4dafe6334e0e9dc8f1dd21d54fb38c4e2732331e/tests/shanghai/eip3651_warm_coinbase/test_warm_coinbase.py#L34",
            "fixture_format": "state_test",
            "reference-spec": "https://github.com/ethereum/EIPs/blob/master/EIPS/eip-3651.md",
            "reference-spec-version": "d94c694c6f12291bb6626669c3e8587eef3adff1"
        }
    },
    "tests/shanghai/eip3651_warm_coinbase/test_warm_coinbase.py::test_warm_coinbase_call_out_of_gas[fork_Prague-state_test-STATICCALL-insufficient_gas]": {
        "env": {
            "currentCoinbase": "0x2adc25665018aa1fe0e6bc666dac8fc2697ff9ba",
            "currentGasLimit": "0x016345785d8a0000",
            "currentNumber": "0x01",
            "currentTimestamp": "0x03e8",
            "currentRandom": "0x0000000000000000000000000000000000000000000000000000000000000000",
            "currentDifficulty": "0x00",
            "currentBaseFee": "0x07",
            "currentExcessBlobGas": "0x00"
        },
        "pre": {
            "0xa94f5374fce5edbc8e2a8697c15331677e6ebf0b": {
                "nonce": "0x00",
                "balance": "0x3635c9adc5dea00000",
                "code": "0x",
                "storage": {}
            },
            "0x0000000000000000000000000000000000001000": {
                "nonce": "0x01",
                "balance": "0x00",
                "code": "0x6000600060006000416000fa50",
                "storage": {}
            },
            "0x0000000000000000000000000000000000001100": {
                "nonce": "0x01",
                "balance": "0x00",
                "code": "0x600060006000600060006110006076f1600055",
                "storage": {}
            }
        },
        "transaction": {
            "nonce": "0x00",
            "gasPrice": "0x0a",
            "gasLimit": [
                "0x05f5e100"
            ],
            "to": "0x0000000000000000000000000000000000001100",
            "value": [
                "0x00"
            ],
            "data": [
                "0x"
            ],
            "sender": "0xa94f5374fce5edbc8e2a8697c15331677e6ebf0b",
            "secretKey": "0x45a915e4d060149eb4365960e6a7a45f334393093061116b197e3240065ff2d8"
        },
        "post": {
            "Prague": [
                {
                    "hash": "0x5afa199b6ffcc7509e6c46920e91d4e3c7538d40a6390ea3eeab00d40eed0d89",
                    "logs": "0x1dcc4de8dec75d7aab85b567b6ccd41ad312451b948a7413f0a142fd40d49347",
                    "txbytes": "0xf861800a8405f5e100940000000000000000000000000000000000001100808026a02eb10772e340475646104f53b599069af4300c51a1569188ad8045bbe78e91c6a05a8ace5ed266d55652d2e8027406692f64e27845c450a59b291398817605f3b2",
                    "indexes": {
                        "data": 0,
                        "gas": 0,
                        "value": 0
                    },
                    "state": {
                        "0xa94f5374fce5edbc8e2a8697c15331677e6ebf0b": {
                            "nonce": "0x01",
                            "balance": "0x3635c9adc5de9c0aa4",
                            "code": "0x",
                            "storage": {}
                        },
                        "0x0000000000000000000000000000000000001000": {
                            "nonce": "0x01",
                            "balance": "0x00",
                            "code": "0x6000600060006000416000fa50",
                            "storage": {}
                        },
                        "0x0000000000000000000000000000000000001100": {
                            "nonce": "0x01",
                            "balance": "0x00",
                            "code": "0x600060006000600060006110006076f1600055",
                            "storage": {}
                        },
                        "0x2adc25665018aa1fe0e6bc666dac8fc2697ff9ba": {
                            "nonce": "0x00",
                            "balance": "0x013002",
                            "code": "0x",
                            "storage": {}
                        }
                    }
                }
            ]
        },
        "_info": {
            "hash": "0xa06cb4a7484542af112bcbfbf9c61f750df1a97fbc7cfb51c374fcffec2a6873",
            "comment": "`execution-spec-tests` generated test",
            "filling-transition-tool": "ethereum-spec-evm-resolver 0.0.1",
            "description": "Test function documentation:\n\n    Test that the coinbase is warm by accessing the COINBASE with each\n    of the following opcodes.\n\n    - CALL\n    - CALLCODE\n    - DELEGATECALL\n    - STATICCALL",
            "url": "https://github.com/ethereum/execution-spec-tests/blob/4dafe6334e0e9dc8f1dd21d54fb38c4e2732331e/tests/shanghai/eip3651_warm_coinbase/test_warm_coinbase.py#L34",
            "fixture_format": "state_test",
            "reference-spec": "https://github.com/ethereum/EIPs/blob/master/EIPS/eip-3651.md",
            "reference-spec-version": "d94c694c6f12291bb6626669c3e8587eef3adff1"
        }
    }
}