{
    "tests/prague/eip2537_bls_12_381_precompiles/test_bls12_variable_length_input_contracts.py::test_invalid_length_g2msm[fork_Prague-state_test-precompile_address_14---input_one_byte_too_long_full_discount_table]": {
        "env": {
            "currentCoinbase": "0x2adc25665018aa1fe0e6bc666dac8fc2697ff9ba",
            "currentGasLimit": "0x016345785d8a0000",
            "currentNumber": "0x01",
            "currentTimestamp": "0x03e8",
            "currentRandom": "0x0000000000000000000000000000000000000000000000000000000000000000",
            "currentDifficulty": "0x00",
            "currentBaseFee": "0x07",
            "currentExcessBlobGas": "0x00"
        },
        "pre": {
            "0x0000000000000000000000000000000000001000": {
                "nonce": "0x01",
                "balance": "0x00",
                "code": "0x6000600061012160006000600e6157e4f16000556000600061024160006000600e61afc8f16001556000600061036160006000600e61f35ef16002556000600061048160006000600e620136c8f1600355600060006105a160006000600e620177bbf1600455600060006106c160006000600e6201b6c0f1600555600060006107e160006000600e6201f392f16006556000600061090160006000600e62022fb0f160075560006000610a2160006000600e62026a93f160085560006000610b4160006000600e6202a4c2f160095560006000610c6160006000600e6202ddccf1600a5560006000610d8160006000600e620315f6f1600b5560006000610ea160006000600e62034d82f1600c5560006000610fc160006000600e620384b4f1600d55600060006110e160006000600e6203ba7ef1600e556000600061120160006000600e6203f048f1600f556000600061132160006000600e62042655f16010556000600061144160006000600e620459c0f16011556000600061156160006000600e62048f46f16012556000600061168160006000600e6204c22af1601355600060006117a160006000600e6204f5d8f1601455600060006118c160006000600e620528a5f1601555600060006119e160006000600e62055c96f160165560006000611b0160006000600e62058db8f160175560006000611c2160006000600e6205c02bf160185560006000611d4160006000600e6205f1eaf160195560006000611e6160006000600e62062554f1601a5560006000611f8160006000600e620655c2f1601b55600060006120a160006000600e6206857bf1601c55600060006121c160006000600e6206b724f1601d55600060006122e160006000600e6206e845f1601e556000600061240160006000600e620718e0f1601f556000600061252160006000600e620748f3f16020556000600061264160006000600e62077880f16021556000600061276160006000600e6207a785f16022556000600061288160006000600e6207d604f1602355600060006129a160006000600e6208073cf160245560006000612ac160006000600e620834c3f160255560006000612be160006000600e62086530f160265560006000612d0160006000600e620891c0f160275560006000612e2160006000600e6208c163f160285560006000612f4160006000600e6208f0acf16029556000600061306160006000600e62091f9bf1602a556000600061318160006000600e62094a52f1602b55600060006132a160006000600e62097876f1602c55600060006133c160006000600e6209a641f1602d55600060006134e160006000600e6209d3b1f1602e556000600061360160006000600e620a00c8f1602f556000600061372160006000600e620a31d3f16030556000600061384160006000600e620a5e4cf16031556000600061396160006000600e620a8a6bf160325560006000613a8160006000600e620ab630f160335560006000613ba160006000600e620ae19bf160345560006000613cc160006000600e620b116bf160355560006000613de160006000600e620b3c38f160365560006000613f0160006000600e620b66acf16037556000600061402160006000600e620b95c8f16038556000600061414160006000600e620bbf9ef16039556000600061426160006000600e620bee49f1603a556000600061438160006000600e620c1782f1603b55600060006144a160006000600e620c45bdf1603c55600060006145c160006000600e620c6e58f1603d55600060006146e160006000600e620c9c22f1603e556000600061480160006000600e620cc9c0f1603f556000600061492160006000600e620cf17af160405560006000614a4160006000600e620d1ea7f160415560006000614b6160006000600e620d4ba7f160425560006000614c8160006000600e620d7280f160435560006000614da160006000600e620d9f0ff160445560006000614ec160006000600e620dcb72f160455560006000614fe160006000600e620df7a7f16046556000600061510160006000600e620e1d5cf16047556000600061522160006000600e620e4921f16048556000600061534160006000600e620e74b9f16049556000600061546160006000600e620ea024f1604a556000600061558160006000600e620ecb62f1604b55600060006156a160006000600e620ef673f1604c55600060006157c160006000600e620f2157f1604d55600060006158e160006000600e620f451cf1604e5560006000615a0160006000600e620f6f90f1604f5560006000615b2160006000600e620f99d6f160505560006000615c4160006000600e620fc3f0f160515560006000615d6160006000600e620feddcf160525560006000615e8160006000600e6210179cf160535560006000615fa160006000600e6210412ef1605455600060006160c160006000600e62106a94f1605555600060006161e160006000600e621093ccf16056556000600061630160006000600e6210bcd8f16057556000600061642160006000600e6210e5b6f16058556000600061654160006000600e62110e68f16059556000600061666160006000600e62113eecf1605a556000600061678160006000600e6211675af1605b55600060006168a160006000600e62118f9bf1605c55600060006169c160006000600e6211b7aff1605d5560006000616ae160006000600e6211df96f1605e5560006000616c0160006000600e62120750f1605f5560006000616d2160006000600e62122eddf160605560006000616e4160006000600e6212563df160615560006000616f6160006000600e62128623f16062556000600061708160006000600e6212ad40f1606355600060006171a160006000600e6212d42ff1606455600060006172c160006000600e6212faf2f1606555600060006173e160006000600e62132187f16066556000600061750160006000600e62135114f16067556000600061762160006000600e62137766f16068556000600061774160006000600e62139d8bf16069556000600061786160006000600e6213c383f1606a556000600061798160006000600e6213e94ef1606b5560006000617aa160006000600e62141880f1606c5560006000617bc160006000600e62143e08f1606d5560006000617ce160006000600e62146362f1606e5560006000617e0160006000600e62149268f1606f5560006000617f2160006000600e6214b77ff16070556000600061804160006000600e6214dc69f16071556000600061816160006000600e62150126f16072556000600061828160006000600e62152fe8f1607355600060006183a160006000600e62155461f1607455600060006184c160006000600e621578aef1607555600060006185e160006000600e6215a743f16076556000600061870160006000600e6215cb4cf16077556000600061882160006000600e6215ef28f16078556000600061894160006000600e62161d90f160795560006000618a6160006000600e62164128f1607a5560006000618b8160006000600e62166494f1607b5560006000618ca160006000600e621692cff1607c5560006000618dc160006000600e6216b5f7f1607d5560006000618ee160006000600e6216d8f2f1607e556000600061900160006000600e62170700f1607f55",
                "storage": {}
            },
            "0xa94f5374fce5edbc8e2a8697c15331677e6ebf0b": {
                "nonce": "0x00",
                "balance": "0x0de0b6b3a7640000",
                "code": "0x",
                "storage": {}
            }
        },
        "transaction": {
            "nonce": "0x00",
            "gasPrice": "0x0a",
            "gasLimit": [
                "0x05f5e100"
            ],
            "to": "0x0000000000000000000000000000000000001000",
            "value": [
                "0x00"
            ],
            "data": [
                "0x"
            ],
            "sender": "0xa94f5374fce5edbc8e2a8697c15331677e6ebf0b",
            "secretKey": "0x45a915e4d060149eb4365960e6a7a45f334393093061116b197e3240065ff2d8"
        },
        "post": {
            "Prague": [
                {
                    "hash": "0x625d1855dd767320c051e6d02b85a6ecbeda87dc94603648781e65ba0ecedf0f",
                    "logs": "0x1dcc4de8dec75d7aab85b567b6ccd41ad312451b948a7413f0a142fd40d49347",
                    "txbytes": "0xf861800a8405f5e100940000000000000000000000000000000000001000808026a00c80636d627692750a38994c80e17de29770a0e34498f5e6eccd4f233ec21b5fa04c33c43ced36fe3329a16f21f2704902ac998ae26f175265e7b14a6229b1feb1",
                    "indexes": {
                        "data": 0,
                        "gas": 0,
                        "value": 0
                    },
                    "state": {
                        "0x0000000000000000000000000000000000001000": {
                            "nonce": "0x01",
                            "balance": "0x00",
                            "code": "0x6000600061012160006000600e6157e4f16000556000600061024160006000600e61afc8f16001556000600061036160006000600e61f35ef16002556000600061048160006000600e620136c8f1600355600060006105a160006000600e620177bbf1600455600060006106c160006000600e6201b6c0f1600555600060006107e160006000600e6201f392f16006556000600061090160006000600e62022fb0f160075560006000610a2160006000600e62026a93f160085560006000610b4160006000600e6202a4c2f160095560006000610c6160006000600e6202ddccf1600a5560006000610d8160006000600e620315f6f1600b5560006000610ea160006000600e62034d82f1600c5560006000610fc160006000600e620384b4f1600d55600060006110e160006000600e6203ba7ef1600e556000600061120160006000600e6203f048f1600f556000600061132160006000600e62042655f16010556000600061144160006000600e620459c0f16011556000600061156160006000600e62048f46f16012556000600061168160006000600e6204c22af1601355600060006117a160006000600e6204f5d8f1601455600060006118c160006000600e620528a5f1601555600060006119e160006000600e62055c96f160165560006000611b0160006000600e62058db8f160175560006000611c2160006000600e6205c02bf160185560006000611d4160006000600e6205f1eaf160195560006000611e6160006000600e62062554f1601a5560006000611f8160006000600e620655c2f1601b55600060006120a160006000600e6206857bf1601c55600060006121c160006000600e6206b724f1601d55600060006122e160006000600e6206e845f1601e556000600061240160006000600e620718e0f1601f556000600061252160006000600e620748f3f16020556000600061264160006000600e62077880f16021556000600061276160006000600e6207a785f16022556000600061288160006000600e6207d604f1602355600060006129a160006000600e6208073cf160245560006000612ac160006000600e620834c3f160255560006000612be160006000600e62086530f160265560006000612d0160006000600e620891c0f160275560006000612e2160006000600e6208c163f160285560006000612f4160006000600e6208f0acf16029556000600061306160006000600e62091f9bf1602a556000600061318160006000600e62094a52f1602b55600060006132a160006000600e62097876f1602c55600060006133c160006000600e6209a641f1602d55600060006134e160006000600e6209d3b1f1602e556000600061360160006000600e620a00c8f1602f556000600061372160006000600e620a31d3f16030556000600061384160006000600e620a5e4cf16031556000600061396160006000600e620a8a6bf160325560006000613a8160006000600e620ab630f160335560006000613ba160006000600e620ae19bf160345560006000613cc160006000600e620b116bf160355560006000613de160006000600e620b3c38f160365560006000613f0160006000600e620b66acf16037556000600061402160006000600e620b95c8f16038556000600061414160006000600e620bbf9ef16039556000600061426160006000600e620bee49f1603a556000600061438160006000600e620c1782f1603b55600060006144a160006000600e620c45bdf1603c55600060006145c160006000600e620c6e58f1603d55600060006146e160006000600e620c9c22f1603e556000600061480160006000600e620cc9c0f1603f556000600061492160006000600e620cf17af160405560006000614a4160006000600e620d1ea7f160415560006000614b6160006000600e620d4ba7f160425560006000614c8160006000600e620d7280f160435560006000614da160006000600e620d9f0ff160445560006000614ec160006000600e620dcb72f160455560006000614fe160006000600e620df7a7f16046556000600061510160006000600e620e1d5cf16047556000600061522160006000600e620e4921f16048556000600061534160006000600e620e74b9f16049556000600061546160006000600e620ea024f1604a556000600061558160006000600e620ecb62f1604b55600060006156a160006000600e620ef673f1604c55600060006157c160006000600e620f2157f1604d55600060006158e160006000600e620f451cf1604e5560006000615a0160006000600e620f6f90f1604f5560006000615b2160006000600e620f99d6f160505560006000615c4160006000600e620fc3f0f160515560006000615d6160006000600e620feddcf160525560006000615e8160006000600e6210179cf160535560006000615fa160006000600e6210412ef1605455600060006160c160006000600e62106a94f1605555600060006161e160006000600e621093ccf16056556000600061630160006000600e6210bcd8f16057556000600061642160006000600e6210e5b6f16058556000600061654160006000600e62110e68f16059556000600061666160006000600e62113eecf1605a556000600061678160006000600e6211675af1605b55600060006168a160006000600e62118f9bf1605c55600060006169c160006000600e6211b7aff1605d5560006000616ae160006000600e6211df96f1605e5560006000616c0160006000600e62120750f1605f5560006000616d2160006000600e62122eddf160605560006000616e4160006000600e6212563df160615560006000616f6160006000600e62128623f16062556000600061708160006000600e6212ad40f1606355600060006171a160006000600e6212d42ff1606455600060006172c160006000600e6212faf2f1606555600060006173e160006000600e62132187f16066556000600061750160006000600e62135114f16067556000600061762160006000600e62137766f16068556000600061774160006000600e62139d8bf16069556000600061786160006000600e6213c383f1606a556000600061798160006000600e6213e94ef1606b5560006000617aa160006000600e62141880f1606c5560006000617bc160006000600e62143e08f1606d5560006000617ce160006000600e62146362f1606e5560006000617e0160006000600e62149268f1606f5560006000617f2160006000600e6214b77ff16070556000600061804160006000600e6214dc69f16071556000600061816160006000600e62150126f16072556000600061828160006000600e62152fe8f1607355600060006183a160006000600e62155461f1607455600060006184c160006000600e621578aef1607555600060006185e160006000600e6215a743f16076556000600061870160006000600e6215cb4cf16077556000600061882160006000600e6215ef28f16078556000600061894160006000600e62161d90f160795560006000618a6160006000600e62164128f1607a5560006000618b8160006000600e62166494f1607b5560006000618ca160006000600e621692cff1607c5560006000618dc160006000600e6216b5f7f1607d5560006000618ee160006000600e6216d8f2f1607e556000600061900160006000600e62170700f1607f55",
                            "storage": {}
                        },
                        "0xa94f5374fce5edbc8e2a8697c15331677e6ebf0b": {
                            "nonce": "0x01",
                            "balance": "0x0de0b6b36bc93600",
                            "code": "0x",
                            "storage": {}
                        },
                        "0x2adc25665018aa1fe0e6bc666dac8fc2697ff9ba": {
                            "nonce": "0x00",
                            "balance": "0x11e1a300",
                            "code": "0x",
                            "storage": {}
                        }
                    }
                }
            ]
        },
        "config": {
            "blobSchedule": {
                "Cancun": {
                    "target": "0x03",
                    "max": "0x06",
                    "baseFeeUpdateFraction": "0x32f0ed"
                },
                "Prague": {
                    "target": "0x06",
                    "max": "0x09",
                    "baseFeeUpdateFraction": "0x4c6964"
                }
            },
            "chainid": "0x01"
        },
        "_info": {
            "hash": "0x9bafdd840389fa788d7ac05e8f8513e0ca25e89419249064603c61947eb57471",
            "comment": "`execution-spec-tests` generated test",
            "filling-transition-tool": "ethereum-spec-evm-resolver 0.0.5",
            "description": "Test function documentation:\n\n    Test the BLS12_G2MSM discount gas table in full, by expecting the call to fail for\n    all possible input lengths provided because they are too long or short, or zero length.\n\n    If any of the calls succeeds, the test will fail.",
            "url": "https://github.com/ethereum/execution-spec-tests/blob/2c4d277d2fb7d97333c089b0718ac8d26a95d523/tests/prague/eip2537_bls_12_381_precompiles/test_bls12_variable_length_input_contracts.py#L307",
            "fixture_format": "state_test",
            "reference-spec": "https://github.com/ethereum/EIPs/blob/master/EIPS/eip-2537.md",
            "reference-spec-version": "cd0f016ad0c4c68b8b1f5c502ef61ab9353b6e5e",
            "eels-resolution": {
                "git-url": "https://github.com/ethereum/execution-specs.git",
                "branch": "devnets/prague/6",
                "commit": "a25a8ab3a2989b15baac19eb327325e442342a60"
            }
        }
    },
    "tests/prague/eip2537_bls_12_381_precompiles/test_bls12_variable_length_input_contracts.py::test_invalid_length_g2msm[fork_Prague-state_test-precompile_address_14---input_one_byte_too_short_full_discount_table]": {
        "env": {
            "currentCoinbase": "0x2adc25665018aa1fe0e6bc666dac8fc2697ff9ba",
            "currentGasLimit": "0x016345785d8a0000",
            "currentNumber": "0x01",
            "currentTimestamp": "0x03e8",
            "currentRandom": "0x0000000000000000000000000000000000000000000000000000000000000000",
            "currentDifficulty": "0x00",
            "currentBaseFee": "0x07",
            "currentExcessBlobGas": "0x00"
        },
        "pre": {
            "0x0000000000000000000000000000000000001000": {
                "nonce": "0x01",
                "balance": "0x00",
                "code": "0x6000600061011f60006000600e6157e4f16000556000600061023f60006000600e61afc8f16001556000600061035f60006000600e61f35ef16002556000600061047f60006000600e620136c8f16003556000600061059f60006000600e620177bbf1600455600060006106bf60006000600e6201b6c0f1600555600060006107df60006000600e6201f392f1600655600060006108ff60006000600e62022fb0f160075560006000610a1f60006000600e62026a93f160085560006000610b3f60006000600e6202a4c2f160095560006000610c5f60006000600e6202ddccf1600a5560006000610d7f60006000600e620315f6f1600b5560006000610e9f60006000600e62034d82f1600c5560006000610fbf60006000600e620384b4f1600d55600060006110df60006000600e6203ba7ef1600e55600060006111ff60006000600e6203f048f1600f556000600061131f60006000600e62042655f16010556000600061143f60006000600e620459c0f16011556000600061155f60006000600e62048f46f16012556000600061167f60006000600e6204c22af16013556000600061179f60006000600e6204f5d8f1601455600060006118bf60006000600e620528a5f1601555600060006119df60006000600e62055c96f160165560006000611aff60006000600e62058db8f160175560006000611c1f60006000600e6205c02bf160185560006000611d3f60006000600e6205f1eaf160195560006000611e5f60006000600e62062554f1601a5560006000611f7f60006000600e620655c2f1601b556000600061209f60006000600e6206857bf1601c55600060006121bf60006000600e6206b724f1601d55600060006122df60006000600e6206e845f1601e55600060006123ff60006000600e620718e0f1601f556000600061251f60006000600e620748f3f16020556000600061263f60006000600e62077880f16021556000600061275f60006000600e6207a785f16022556000600061287f60006000600e6207d604f16023556000600061299f60006000600e6208073cf160245560006000612abf60006000600e620834c3f160255560006000612bdf60006000600e62086530f160265560006000612cff60006000600e620891c0f160275560006000612e1f60006000600e6208c163f160285560006000612f3f60006000600e6208f0acf16029556000600061305f60006000600e62091f9bf1602a556000600061317f60006000600e62094a52f1602b556000600061329f60006000600e62097876f1602c55600060006133bf60006000600e6209a641f1602d55600060006134df60006000600e6209d3b1f1602e55600060006135ff60006000600e620a00c8f1602f556000600061371f60006000600e620a31d3f16030556000600061383f60006000600e620a5e4cf16031556000600061395f60006000600e620a8a6bf160325560006000613a7f60006000600e620ab630f160335560006000613b9f60006000600e620ae19bf160345560006000613cbf60006000600e620b116bf160355560006000613ddf60006000600e620b3c38f160365560006000613eff60006000600e620b66acf16037556000600061401f60006000600e620b95c8f16038556000600061413f60006000600e620bbf9ef16039556000600061425f60006000600e620bee49f1603a556000600061437f60006000600e620c1782f1603b556000600061449f60006000600e620c45bdf1603c55600060006145bf60006000600e620c6e58f1603d55600060006146df60006000600e620c9c22f1603e55600060006147ff60006000600e620cc9c0f1603f556000600061491f60006000600e620cf17af160405560006000614a3f60006000600e620d1ea7f160415560006000614b5f60006000600e620d4ba7f160425560006000614c7f60006000600e620d7280f160435560006000614d9f60006000600e620d9f0ff160445560006000614ebf60006000600e620dcb72f160455560006000614fdf60006000600e620df7a7f1604655600060006150ff60006000600e620e1d5cf16047556000600061521f60006000600e620e4921f16048556000600061533f60006000600e620e74b9f16049556000600061545f60006000600e620ea024f1604a556000600061557f60006000600e620ecb62f1604b556000600061569f60006000600e620ef673f1604c55600060006157bf60006000600e620f2157f1604d55600060006158df60006000600e620f451cf1604e55600060006159ff60006000600e620f6f90f1604f5560006000615b1f60006000600e620f99d6f160505560006000615c3f60006000600e620fc3f0f160515560006000615d5f60006000600e620feddcf160525560006000615e7f60006000600e6210179cf160535560006000615f9f60006000600e6210412ef1605455600060006160bf60006000600e62106a94f1605555600060006161df60006000600e621093ccf1605655600060006162ff60006000600e6210bcd8f16057556000600061641f60006000600e6210e5b6f16058556000600061653f60006000600e62110e68f16059556000600061665f60006000600e62113eecf1605a556000600061677f60006000600e6211675af1605b556000600061689f60006000600e62118f9bf1605c55600060006169bf60006000600e6211b7aff1605d5560006000616adf60006000600e6211df96f1605e5560006000616bff60006000600e62120750f1605f5560006000616d1f60006000600e62122eddf160605560006000616e3f60006000600e6212563df160615560006000616f5f60006000600e62128623f16062556000600061707f60006000600e6212ad40f16063556000600061719f60006000600e6212d42ff1606455600060006172bf60006000600e6212faf2f1606555600060006173df60006000600e62132187f1606655600060006174ff60006000600e62135114f16067556000600061761f60006000600e62137766f16068556000600061773f60006000600e62139d8bf16069556000600061785f60006000600e6213c383f1606a556000600061797f60006000600e6213e94ef1606b5560006000617a9f60006000600e62141880f1606c5560006000617bbf60006000600e62143e08f1606d5560006000617cdf60006000600e62146362f1606e5560006000617dff60006000600e62149268f1606f5560006000617f1f60006000600e6214b77ff16070556000600061803f60006000600e6214dc69f16071556000600061815f60006000600e62150126f16072556000600061827f60006000600e62152fe8f16073556000600061839f60006000600e62155461f1607455600060006184bf60006000600e621578aef1607555600060006185df60006000600e6215a743f1607655600060006186ff60006000600e6215cb4cf16077556000600061881f60006000600e6215ef28f16078556000600061893f60006000600e62161d90f160795560006000618a5f60006000600e62164128f1607a5560006000618b7f60006000600e62166494f1607b5560006000618c9f60006000600e621692cff1607c5560006000618dbf60006000600e6216b5f7f1607d5560006000618edf60006000600e6216d8f2f1607e5560006000618fff60006000600e62170700f1607f55",
                "storage": {}
            },
            "0xa94f5374fce5edbc8e2a8697c15331677e6ebf0b": {
                "nonce": "0x00",
                "balance": "0x0de0b6b3a7640000",
                "code": "0x",
                "storage": {}
            }
        },
        "transaction": {
            "nonce": "0x00",
            "gasPrice": "0x0a",
            "gasLimit": [
                "0x05f5e100"
            ],
            "to": "0x0000000000000000000000000000000000001000",
            "value": [
                "0x00"
            ],
            "data": [
                "0x"
            ],
            "sender": "0xa94f5374fce5edbc8e2a8697c15331677e6ebf0b",
            "secretKey": "0x45a915e4d060149eb4365960e6a7a45f334393093061116b197e3240065ff2d8"
        },
        "post": {
            "Prague": [
                {
                    "hash": "0xf5efe993c8b316e06535b60eaea6f944a4c060fa1768acb4a3b28e903a369aba",
                    "logs": "0x1dcc4de8dec75d7aab85b567b6ccd41ad312451b948a7413f0a142fd40d49347",
                    "txbytes": "0xf861800a8405f5e100940000000000000000000000000000000000001000808026a00c80636d627692750a38994c80e17de29770a0e34498f5e6eccd4f233ec21b5fa04c33c43ced36fe3329a16f21f2704902ac998ae26f175265e7b14a6229b1feb1",
                    "indexes": {
                        "data": 0,
                        "gas": 0,
                        "value": 0
                    },
                    "state": {
                        "0x0000000000000000000000000000000000001000": {
                            "nonce": "0x01",
                            "balance": "0x00",
                            "code": "0x6000600061011f60006000600e6157e4f16000556000600061023f60006000600e61afc8f16001556000600061035f60006000600e61f35ef16002556000600061047f60006000600e620136c8f16003556000600061059f60006000600e620177bbf1600455600060006106bf60006000600e6201b6c0f1600555600060006107df60006000600e6201f392f1600655600060006108ff60006000600e62022fb0f160075560006000610a1f60006000600e62026a93f160085560006000610b3f60006000600e6202a4c2f160095560006000610c5f60006000600e6202ddccf1600a5560006000610d7f60006000600e620315f6f1600b5560006000610e9f60006000600e62034d82f1600c5560006000610fbf60006000600e620384b4f1600d55600060006110df60006000600e6203ba7ef1600e55600060006111ff60006000600e6203f048f1600f556000600061131f60006000600e62042655f16010556000600061143f60006000600e620459c0f16011556000600061155f60006000600e62048f46f16012556000600061167f60006000600e6204c22af16013556000600061179f60006000600e6204f5d8f1601455600060006118bf60006000600e620528a5f1601555600060006119df60006000600e62055c96f160165560006000611aff60006000600e62058db8f160175560006000611c1f60006000600e6205c02bf160185560006000611d3f60006000600e6205f1eaf160195560006000611e5f60006000600e62062554f1601a5560006000611f7f60006000600e620655c2f1601b556000600061209f60006000600e6206857bf1601c55600060006121bf60006000600e6206b724f1601d55600060006122df60006000600e6206e845f1601e55600060006123ff60006000600e620718e0f1601f556000600061251f60006000600e620748f3f16020556000600061263f60006000600e62077880f16021556000600061275f60006000600e6207a785f16022556000600061287f60006000600e6207d604f16023556000600061299f60006000600e6208073cf160245560006000612abf60006000600e620834c3f160255560006000612bdf60006000600e62086530f160265560006000612cff60006000600e620891c0f160275560006000612e1f60006000600e6208c163f160285560006000612f3f60006000600e6208f0acf16029556000600061305f60006000600e62091f9bf1602a556000600061317f60006000600e62094a52f1602b556000600061329f60006000600e62097876f1602c55600060006133bf60006000600e6209a641f1602d55600060006134df60006000600e6209d3b1f1602e55600060006135ff60006000600e620a00c8f1602f556000600061371f60006000600e620a31d3f16030556000600061383f60006000600e620a5e4cf16031556000600061395f60006000600e620a8a6bf160325560006000613a7f60006000600e620ab630f160335560006000613b9f60006000600e620ae19bf160345560006000613cbf60006000600e620b116bf160355560006000613ddf60006000600e620b3c38f160365560006000613eff60006000600e620b66acf16037556000600061401f60006000600e620b95c8f16038556000600061413f60006000600e620bbf9ef16039556000600061425f60006000600e620bee49f1603a556000600061437f60006000600e620c1782f1603b556000600061449f60006000600e620c45bdf1603c55600060006145bf60006000600e620c6e58f1603d55600060006146df60006000600e620c9c22f1603e55600060006147ff60006000600e620cc9c0f1603f556000600061491f60006000600e620cf17af160405560006000614a3f60006000600e620d1ea7f160415560006000614b5f60006000600e620d4ba7f160425560006000614c7f60006000600e620d7280f160435560006000614d9f60006000600e620d9f0ff160445560006000614ebf60006000600e620dcb72f160455560006000614fdf60006000600e620df7a7f1604655600060006150ff60006000600e620e1d5cf16047556000600061521f60006000600e620e4921f16048556000600061533f60006000600e620e74b9f16049556000600061545f60006000600e620ea024f1604a556000600061557f60006000600e620ecb62f1604b556000600061569f60006000600e620ef673f1604c55600060006157bf60006000600e620f2157f1604d55600060006158df60006000600e620f451cf1604e55600060006159ff60006000600e620f6f90f1604f5560006000615b1f60006000600e620f99d6f160505560006000615c3f60006000600e620fc3f0f160515560006000615d5f60006000600e620feddcf160525560006000615e7f60006000600e6210179cf160535560006000615f9f60006000600e6210412ef1605455600060006160bf60006000600e62106a94f1605555600060006161df60006000600e621093ccf1605655600060006162ff60006000600e6210bcd8f16057556000600061641f60006000600e6210e5b6f16058556000600061653f60006000600e62110e68f16059556000600061665f60006000600e62113eecf1605a556000600061677f60006000600e6211675af1605b556000600061689f60006000600e62118f9bf1605c55600060006169bf60006000600e6211b7aff1605d5560006000616adf60006000600e6211df96f1605e5560006000616bff60006000600e62120750f1605f5560006000616d1f60006000600e62122eddf160605560006000616e3f60006000600e6212563df160615560006000616f5f60006000600e62128623f16062556000600061707f60006000600e6212ad40f16063556000600061719f60006000600e6212d42ff1606455600060006172bf60006000600e6212faf2f1606555600060006173df60006000600e62132187f1606655600060006174ff60006000600e62135114f16067556000600061761f60006000600e62137766f16068556000600061773f60006000600e62139d8bf16069556000600061785f60006000600e6213c383f1606a556000600061797f60006000600e6213e94ef1606b5560006000617a9f60006000600e62141880f1606c5560006000617bbf60006000600e62143e08f1606d5560006000617cdf60006000600e62146362f1606e5560006000617dff60006000600e62149268f1606f5560006000617f1f60006000600e6214b77ff16070556000600061803f60006000600e6214dc69f16071556000600061815f60006000600e62150126f16072556000600061827f60006000600e62152fe8f16073556000600061839f60006000600e62155461f1607455600060006184bf60006000600e621578aef1607555600060006185df60006000600e6215a743f1607655600060006186ff60006000600e6215cb4cf16077556000600061881f60006000600e6215ef28f16078556000600061893f60006000600e62161d90f160795560006000618a5f60006000600e62164128f1607a5560006000618b7f60006000600e62166494f1607b5560006000618c9f60006000600e621692cff1607c5560006000618dbf60006000600e6216b5f7f1607d5560006000618edf60006000600e6216d8f2f1607e5560006000618fff60006000600e62170700f1607f55",
                            "storage": {}
                        },
                        "0xa94f5374fce5edbc8e2a8697c15331677e6ebf0b": {
                            "nonce": "0x01",
                            "balance": "0x0de0b6b36bc93600",
                            "code": "0x",
                            "storage": {}
                        },
                        "0x2adc25665018aa1fe0e6bc666dac8fc2697ff9ba": {
                            "nonce": "0x00",
                            "balance": "0x11e1a300",
                            "code": "0x",
                            "storage": {}
                        }
                    }
                }
            ]
        },
        "config": {
            "blobSchedule": {
                "Cancun": {
                    "target": "0x03",
                    "max": "0x06",
                    "baseFeeUpdateFraction": "0x32f0ed"
                },
                "Prague": {
                    "target": "0x06",
                    "max": "0x09",
                    "baseFeeUpdateFraction": "0x4c6964"
                }
            },
            "chainid": "0x01"
        },
        "_info": {
            "hash": "0xacb70a1853c203629619363a855d69d886d5600eff483efb4d8d7388b0bfb727",
            "comment": "`execution-spec-tests` generated test",
            "filling-transition-tool": "ethereum-spec-evm-resolver 0.0.5",
            "description": "Test function documentation:\n\n    Test the BLS12_G2MSM discount gas table in full, by expecting the call to fail for\n    all possible input lengths provided because they are too long or short, or zero length.\n\n    If any of the calls succeeds, the test will fail.",
            "url": "https://github.com/ethereum/execution-spec-tests/blob/2c4d277d2fb7d97333c089b0718ac8d26a95d523/tests/prague/eip2537_bls_12_381_precompiles/test_bls12_variable_length_input_contracts.py#L307",
            "fixture_format": "state_test",
            "reference-spec": "https://github.com/ethereum/EIPs/blob/master/EIPS/eip-2537.md",
            "reference-spec-version": "cd0f016ad0c4c68b8b1f5c502ef61ab9353b6e5e",
            "eels-resolution": {
                "git-url": "https://github.com/ethereum/execution-specs.git",
                "branch": "devnets/prague/6",
                "commit": "a25a8ab3a2989b15baac19eb327325e442342a60"
            }
        }
    },
    "tests/prague/eip2537_bls_12_381_precompiles/test_bls12_variable_length_input_contracts.py::test_invalid_length_g2msm[fork_Prague-state_test-precompile_address_14---zero_length_input]": {
        "env": {
            "currentCoinbase": "0x2adc25665018aa1fe0e6bc666dac8fc2697ff9ba",
            "currentGasLimit": "0x016345785d8a0000",
            "currentNumber": "0x01",
            "currentTimestamp": "0x03e8",
            "currentRandom": "0x0000000000000000000000000000000000000000000000000000000000000000",
            "currentDifficulty": "0x00",
            "currentBaseFee": "0x07",
            "currentExcessBlobGas": "0x00"
        },
        "pre": {
            "0x0000000000000000000000000000000000001000": {
                "nonce": "0x01",
                "balance": "0x00",
                "code": "0x60006000600060006000600e6157e4f1600055",
                "storage": {}
            },
            "0xa94f5374fce5edbc8e2a8697c15331677e6ebf0b": {
                "nonce": "0x00",
                "balance": "0x0de0b6b3a7640000",
                "code": "0x",
                "storage": {}
            }
        },
        "transaction": {
            "nonce": "0x00",
            "gasPrice": "0x0a",
            "gasLimit": [
                "0x05f5e100"
            ],
            "to": "0x0000000000000000000000000000000000001000",
            "value": [
                "0x00"
            ],
            "data": [
                "0x"
            ],
            "sender": "0xa94f5374fce5edbc8e2a8697c15331677e6ebf0b",
            "secretKey": "0x45a915e4d060149eb4365960e6a7a45f334393093061116b197e3240065ff2d8"
        },
        "post": {
            "Prague": [
                {
                    "hash": "0x0c0ded4790924cc8fd8934218e558b2200c29a58a620fbcd732c22a8bc3bf8da",
                    "logs": "0x1dcc4de8dec75d7aab85b567b6ccd41ad312451b948a7413f0a142fd40d49347",
                    "txbytes": "0xf861800a8405f5e100940000000000000000000000000000000000001000808026a00c80636d627692750a38994c80e17de29770a0e34498f5e6eccd4f233ec21b5fa04c33c43ced36fe3329a16f21f2704902ac998ae26f175265e7b14a6229b1feb1",
                    "indexes": {
                        "data": 0,
                        "gas": 0,
                        "value": 0
                    },
                    "state": {
                        "0x0000000000000000000000000000000000001000": {
                            "nonce": "0x01",
                            "balance": "0x00",
                            "code": "0x60006000600060006000600e6157e4f1600055",
                            "storage": {}
                        },
                        "0xa94f5374fce5edbc8e2a8697c15331677e6ebf0b": {
                            "nonce": "0x01",
                            "balance": "0x0de0b6b3a75d0200",
                            "code": "0x",
                            "storage": {}
                        },
                        "0x2adc25665018aa1fe0e6bc666dac8fc2697ff9ba": {
                            "nonce": "0x00",
                            "balance": "0x021900",
                            "code": "0x",
                            "storage": {}
                        }
                    }
                }
            ]
        },
        "config": {
            "blobSchedule": {
                "Cancun": {
                    "target": "0x03",
                    "max": "0x06",
                    "baseFeeUpdateFraction": "0x32f0ed"
                },
                "Prague": {
                    "target": "0x06",
                    "max": "0x09",
                    "baseFeeUpdateFraction": "0x4c6964"
                }
            },
            "chainid": "0x01"
        },
        "_info": {
            "hash": "0x322d3be84ae360b4d22310d207f789bb3f1808b78d6be848d90e24dd7d49b17e",
            "comment": "`execution-spec-tests` generated test",
            "filling-transition-tool": "ethereum-spec-evm-resolver 0.0.5",
            "description": "Test function documentation:\n\n    Test the BLS12_G2MSM discount gas table in full, by expecting the call to fail for\n    all possible input lengths provided because they are too long or short, or zero length.\n\n    If any of the calls succeeds, the test will fail.",
            "url": "https://github.com/ethereum/execution-spec-tests/blob/2c4d277d2fb7d97333c089b0718ac8d26a95d523/tests/prague/eip2537_bls_12_381_precompiles/test_bls12_variable_length_input_contracts.py#L307",
            "fixture_format": "state_test",
            "reference-spec": "https://github.com/ethereum/EIPs/blob/master/EIPS/eip-2537.md",
            "reference-spec-version": "cd0f016ad0c4c68b8b1f5c502ef61ab9353b6e5e",
            "eels-resolution": {
                "git-url": "https://github.com/ethereum/execution-specs.git",
                "branch": "devnets/prague/6",
                "commit": "a25a8ab3a2989b15baac19eb327325e442342a60"
            }
        }
    }
}
