{
    "tests/prague/eip2537_bls_12_381_precompiles/test_bls12_variable_length_input_contracts.py::test_invalid_length_g1msm[fork_Prague-state_test-precompile_address_12---input_one_byte_too_long_full_discount_table]": {
        "env": {
            "currentCoinbase": "0x2adc25665018aa1fe0e6bc666dac8fc2697ff9ba",
            "currentGasLimit": "0x016345785d8a0000",
            "currentNumber": "0x01",
            "currentTimestamp": "0x03e8",
            "currentRandom": "0x0000000000000000000000000000000000000000000000000000000000000000",
            "currentDifficulty": "0x00",
            "currentBaseFee": "0x07",
            "currentExcessBlobGas": "0x00"
        },
        "pre": {
            "0x0000000000000000000000000000000000001000": {
                "nonce": "0x01",
                "balance": "0x00",
                "code": "0x6000600060a160006000600c612ee0f16000556000600061014160006000600c6158f8f1600155600060006101e160006000600c617740f16002556000600061028160006000600c619570f16003556000600061032160006000600c61b310f1600455600060006103c160006000600c61d2f0f16005556000600061046160006000600c61f228f16006556000600061050160006000600c62011100f1600755600060006105a160006000600c62012f54f16008556000600061064160006000600c62014dc0f1600955600060006106e160006000600c62016b84f1600a556000600061078160006000600c620188a0f1600b556000600061082160006000600c6201a5b0f1600c55600060006108c160006000600c6201c2d8f1600d556000600061096160006000600c6201df88f1600e5560006000610a0160006000600c6201fbc0f1600f5560006000610aa160006000600c6202184cf160105560006000610b4160006000600c62023478f160115560006000610be160006000600c62025044f160125560006000610c8160006000600c62026bb0f160135560006000610d2160006000600c620287b8f160145560006000610dc160006000600c6202a270f160155560006000610e6160006000600c6202bddcf160165560006000610f0160006000600c6202d900f160175560006000610fa160006000600c6202f3dcf16018556000600061104160006000600c62030e70f1601955600060006110e160006000600c62032a00f1601a556000600061118160006000600c62034410f1601b556000600061122160006000600c62035f34f1601c55600060006112c160006000600c620378c0f1601d556000600061136160006000600c62039378f1601e556000600061140160006000600c6203ac80f1601f55600060006114a160006000600c6203c6ccf16020556000600061154160006000600c6203e0e8f1602155600060006115e160006000600c6203fad4f16022556000600061168160006000600c62041490f16023556000600061172160006000600c62042e1cf1602455600060006117c160006000600c62044778f16025556000600061186160006000600c620460a4f16026556000600061190160006000600c620479a0f1602755600060006119a160006000600c6204926cf160285560006000611a4160006000600c6204ad00f160295560006000611ae160006000600c6204c578f1602a5560006000611b8160006000600c6204ddc0f1602b5560006000611c2160006000600c6204f7f4f1602c5560006000611cc160006000600c62050fe8f1602d5560006000611d6160006000600c620527acf1602e5560006000611e0160006000600c62054180f1602f5560006000611ea160006000600c620558f0f160305560006000611f4160006000600c62057288f160315560006000611fe160006000600c620589a4f16032556000600061208160006000600c6205a300f16033556000600061212160006000600c6205bc44f1603455600060006121c160006000600c6205d2e8f16035556000600061226160006000600c6205ebf0f16036556000600061230160006000600c62060240f1603755600060006123a160006000600c62061b0cf16038556000600061244160006000600c620633c0f1603955600060006124e160006000600c62064998f1603a556000600061258160006000600c62066210f1603b556000600061262160006000600c62067a70f1603c55600060006126c160006000600c620692b8f1603d556000600061276160006000600c6206a7f4f1603e556000600061280160006000600c6206c000f1603f55600060006128a160006000600c6206d7f4f16040556000600061294160006000600c6206efd0f1604155600060006129e160006000600c62070794f160425560006000612a8160006000600c62071f40f160435560006000612b2160006000600c62073398f160445560006000612bc160006000600c62074b08f160455560006000612c6160006000600c62076260f160465560006000612d0160006000600c620779a0f160475560006000612da160006000600c620790c8f160485560006000612e4160006000600c6207a7d8f160495560006000612ee160006000600c6207bed0f1604a5560006000612f8160006000600c6207d5b0f1604b556000600061302160006000600c6207ec78f1604c55600060006130c160006000600c62080328f1604d556000600061316160006000600c620819c0f1604e556000600061320160006000600c62083040f1604f55600060006132a160006000600c620846a8f16050556000600061334160006000600c62085cf8f1605155600060006133e160006000600c62087330f16052556000600061348160006000600c62088950f16053556000600061352160006000600c62089f58f1605455600060006135c160006000600c6208b548f16055556000600061366160006000600c6208cb20f16056556000600061370160006000600c6208e0e0f1605755600060006137a160006000600c6208f688f16058556000600061384160006000600c62090c18f1605955600060006138e160006000600c62092190f1605a556000600061398160006000600c620936f0f1605b5560006000613a2160006000600c62095094f1605c5560006000613ac160006000600c620965d0f1605d5560006000613b6160006000600c62097af4f1605e5560006000613c0160006000600c62099000f1605f5560006000613ca160006000600c6209a4f4f160605560006000613d4160006000600c6209b9d0f160615560006000613de160006000600c6209ce94f160625560006000613e8160006000600c6209e340f160635560006000613f2160006000600c6209fc90f160645560006000613fc160006000600c620a1118f16065556000600061406160006000600c620a2588f16066556000600061410160006000600c620a39e0f1606755600060006141a160006000600c620a4e20f16068556000600061424160006000600c620a6740f1606955600060006142e160006000600c620a7b5cf1606a556000600061438160006000600c620a8f60f1606b556000600061442160006000600c620aa34cf1606c55600060006144c160006000600c620ab720f1606d556000600061456160006000600c620ad010f1606e556000600061460160006000600c620ae3c0f1606f55600060006146a160006000600c620af758f16070556000600061474160006000600c620b0ad8f1607155600060006147e160006000600c620b1e40f16072556000600061488160006000600c620b3700f16073556000600061492160006000600c620b4a44f1607455600060006149c160006000600c620b5d70f160755560006000614a6160006000600c620b7084f160765560006000614b0160006000600c620b8920f160775560006000614ba160006000600c620b9c10f160785560006000614c4160006000600c620baee8f160795560006000614ce160006000600c620bc1a8f1607a5560006000614d8160006000600c620bda20f1607b5560006000614e2160006000600c620becbcf1607c5560006000614ec160006000600c620bff40f1607d5560006000614f6160006000600c620c17a0f1607e556000600061500160006000600c620c2a00f1607f55",
                "storage": {}
            },
            "0xa94f5374fce5edbc8e2a8697c15331677e6ebf0b": {
                "nonce": "0x00",
                "balance": "0x0de0b6b3a7640000",
                "code": "0x",
                "storage": {}
            }
        },
        "transaction": {
            "nonce": "0x00",
            "gasPrice": "0x0a",
            "gasLimit": [
                "0x05f5e100"
            ],
            "to": "0x0000000000000000000000000000000000001000",
            "value": [
                "0x00"
            ],
            "data": [
                "0x"
            ],
            "sender": "0xa94f5374fce5edbc8e2a8697c15331677e6ebf0b",
            "secretKey": "0x45a915e4d060149eb4365960e6a7a45f334393093061116b197e3240065ff2d8"
        },
        "post": {
            "Prague": [
                {
                    "hash": "0xfc4a8fab7003fe1f4708bad7596586ad31283859fa674860045309504ef9fcee",
                    "logs": "0x1dcc4de8dec75d7aab85b567b6ccd41ad312451b948a7413f0a142fd40d49347",
                    "txbytes": "0xf861800a8405f5e100940000000000000000000000000000000000001000808026a00c80636d627692750a38994c80e17de29770a0e34498f5e6eccd4f233ec21b5fa04c33c43ced36fe3329a16f21f2704902ac998ae26f175265e7b14a6229b1feb1",
                    "indexes": {
                        "data": 0,
                        "gas": 0,
                        "value": 0
                    },
                    "state": {
                        "0x0000000000000000000000000000000000001000": {
                            "nonce": "0x01",
                            "balance": "0x00",
                            "code": "0x6000600060a160006000600c612ee0f16000556000600061014160006000600c6158f8f1600155600060006101e160006000600c617740f16002556000600061028160006000600c619570f16003556000600061032160006000600c61b310f1600455600060006103c160006000600c61d2f0f16005556000600061046160006000600c61f228f16006556000600061050160006000600c62011100f1600755600060006105a160006000600c62012f54f16008556000600061064160006000600c62014dc0f1600955600060006106e160006000600c62016b84f1600a556000600061078160006000600c620188a0f1600b556000600061082160006000600c6201a5b0f1600c55600060006108c160006000600c6201c2d8f1600d556000600061096160006000600c6201df88f1600e5560006000610a0160006000600c6201fbc0f1600f5560006000610aa160006000600c6202184cf160105560006000610b4160006000600c62023478f160115560006000610be160006000600c62025044f160125560006000610c8160006000600c62026bb0f160135560006000610d2160006000600c620287b8f160145560006000610dc160006000600c6202a270f160155560006000610e6160006000600c6202bddcf160165560006000610f0160006000600c6202d900f160175560006000610fa160006000600c6202f3dcf16018556000600061104160006000600c62030e70f1601955600060006110e160006000600c62032a00f1601a556000600061118160006000600c62034410f1601b556000600061122160006000600c62035f34f1601c55600060006112c160006000600c620378c0f1601d556000600061136160006000600c62039378f1601e556000600061140160006000600c6203ac80f1601f55600060006114a160006000600c6203c6ccf16020556000600061154160006000600c6203e0e8f1602155600060006115e160006000600c6203fad4f16022556000600061168160006000600c62041490f16023556000600061172160006000600c62042e1cf1602455600060006117c160006000600c62044778f16025556000600061186160006000600c620460a4f16026556000600061190160006000600c620479a0f1602755600060006119a160006000600c6204926cf160285560006000611a4160006000600c6204ad00f160295560006000611ae160006000600c6204c578f1602a5560006000611b8160006000600c6204ddc0f1602b5560006000611c2160006000600c6204f7f4f1602c5560006000611cc160006000600c62050fe8f1602d5560006000611d6160006000600c620527acf1602e5560006000611e0160006000600c62054180f1602f5560006000611ea160006000600c620558f0f160305560006000611f4160006000600c62057288f160315560006000611fe160006000600c620589a4f16032556000600061208160006000600c6205a300f16033556000600061212160006000600c6205bc44f1603455600060006121c160006000600c6205d2e8f16035556000600061226160006000600c6205ebf0f16036556000600061230160006000600c62060240f1603755600060006123a160006000600c62061b0cf16038556000600061244160006000600c620633c0f1603955600060006124e160006000600c62064998f1603a556000600061258160006000600c62066210f1603b556000600061262160006000600c62067a70f1603c55600060006126c160006000600c620692b8f1603d556000600061276160006000600c6206a7f4f1603e556000600061280160006000600c6206c000f1603f55600060006128a160006000600c6206d7f4f16040556000600061294160006000600c6206efd0f1604155600060006129e160006000600c62070794f160425560006000612a8160006000600c62071f40f160435560006000612b2160006000600c62073398f160445560006000612bc160006000600c62074b08f160455560006000612c6160006000600c62076260f160465560006000612d0160006000600c620779a0f160475560006000612da160006000600c620790c8f160485560006000612e4160006000600c6207a7d8f160495560006000612ee160006000600c6207bed0f1604a5560006000612f8160006000600c6207d5b0f1604b556000600061302160006000600c6207ec78f1604c55600060006130c160006000600c62080328f1604d556000600061316160006000600c620819c0f1604e556000600061320160006000600c62083040f1604f55600060006132a160006000600c620846a8f16050556000600061334160006000600c62085cf8f1605155600060006133e160006000600c62087330f16052556000600061348160006000600c62088950f16053556000600061352160006000600c62089f58f1605455600060006135c160006000600c6208b548f16055556000600061366160006000600c6208cb20f16056556000600061370160006000600c6208e0e0f1605755600060006137a160006000600c6208f688f16058556000600061384160006000600c62090c18f1605955600060006138e160006000600c62092190f1605a556000600061398160006000600c620936f0f1605b5560006000613a2160006000600c62095094f1605c5560006000613ac160006000600c620965d0f1605d5560006000613b6160006000600c62097af4f1605e5560006000613c0160006000600c62099000f1605f5560006000613ca160006000600c6209a4f4f160605560006000613d4160006000600c6209b9d0f160615560006000613de160006000600c6209ce94f160625560006000613e8160006000600c6209e340f160635560006000613f2160006000600c6209fc90f160645560006000613fc160006000600c620a1118f16065556000600061406160006000600c620a2588f16066556000600061410160006000600c620a39e0f1606755600060006141a160006000600c620a4e20f16068556000600061424160006000600c620a6740f1606955600060006142e160006000600c620a7b5cf1606a556000600061438160006000600c620a8f60f1606b556000600061442160006000600c620aa34cf1606c55600060006144c160006000600c620ab720f1606d556000600061456160006000600c620ad010f1606e556000600061460160006000600c620ae3c0f1606f55600060006146a160006000600c620af758f16070556000600061474160006000600c620b0ad8f1607155600060006147e160006000600c620b1e40f16072556000600061488160006000600c620b3700f16073556000600061492160006000600c620b4a44f1607455600060006149c160006000600c620b5d70f160755560006000614a6160006000600c620b7084f160765560006000614b0160006000600c620b8920f160775560006000614ba160006000600c620b9c10f160785560006000614c4160006000600c620baee8f160795560006000614ce160006000600c620bc1a8f1607a5560006000614d8160006000600c620bda20f1607b5560006000614e2160006000600c620becbcf1607c5560006000614ec160006000600c620bff40f1607d5560006000614f6160006000600c620c17a0f1607e556000600061500160006000600c620c2a00f1607f55",
                            "storage": {}
                        },
                        "0xa94f5374fce5edbc8e2a8697c15331677e6ebf0b": {
                            "nonce": "0x01",
                            "balance": "0x0de0b6b386291236",
                            "code": "0x",
                            "storage": {}
                        },
                        "0x2adc25665018aa1fe0e6bc666dac8fc2697ff9ba": {
                            "nonce": "0x00",
                            "balance": "0x09f81423",
                            "code": "0x",
                            "storage": {}
                        }
                    }
                }
            ]
        },
        "config": {
            "blobSchedule": {
                "Cancun": {
                    "target": "0x03",
                    "max": "0x06",
                    "baseFeeUpdateFraction": "0x32f0ed"
                },
                "Prague": {
                    "target": "0x06",
                    "max": "0x09",
                    "baseFeeUpdateFraction": "0x4c6964"
                }
            },
            "chainid": "0x01"
        },
        "_info": {
            "hash": "0x977008d5cfa732ab6d8c2feec898242dcb4f4eaedc52e438cb949ffe4721d14f",
            "comment": "`execution-spec-tests` generated test",
            "filling-transition-tool": "ethereum-spec-evm-resolver 0.0.5",
            "description": "Test function documentation:\n\n    Test the BLS12_G1MSM discount gas table in full, by expecting the call to fail for\n    all possible input lengths provided because they are too long or short, or zero length.\n\n    If any of the calls succeeds, the test will fail.",
            "url": "https://github.com/ethereum/execution-spec-tests/blob/2c4d277d2fb7d97333c089b0718ac8d26a95d523/tests/prague/eip2537_bls_12_381_precompiles/test_bls12_variable_length_input_contracts.py#L182",
            "fixture_format": "state_test",
            "reference-spec": "https://github.com/ethereum/EIPs/blob/master/EIPS/eip-2537.md",
            "reference-spec-version": "cd0f016ad0c4c68b8b1f5c502ef61ab9353b6e5e",
            "eels-resolution": {
                "git-url": "https://github.com/ethereum/execution-specs.git",
                "branch": "devnets/prague/6",
                "commit": "a25a8ab3a2989b15baac19eb327325e442342a60"
            }
        }
    },
    "tests/prague/eip2537_bls_12_381_precompiles/test_bls12_variable_length_input_contracts.py::test_invalid_length_g1msm[fork_Prague-state_test-precompile_address_12---input_one_byte_too_short_full_discount_table]": {
        "env": {
            "currentCoinbase": "0x2adc25665018aa1fe0e6bc666dac8fc2697ff9ba",
            "currentGasLimit": "0x016345785d8a0000",
            "currentNumber": "0x01",
            "currentTimestamp": "0x03e8",
            "currentRandom": "0x0000000000000000000000000000000000000000000000000000000000000000",
            "currentDifficulty": "0x00",
            "currentBaseFee": "0x07",
            "currentExcessBlobGas": "0x00"
        },
        "pre": {
            "0x0000000000000000000000000000000000001000": {
                "nonce": "0x01",
                "balance": "0x00",
                "code": "0x60006000609f60006000600c612ee0f16000556000600061013f60006000600c6158f8f1600155600060006101df60006000600c617740f16002556000600061027f60006000600c619570f16003556000600061031f60006000600c61b310f1600455600060006103bf60006000600c61d2f0f16005556000600061045f60006000600c61f228f1600655600060006104ff60006000600c62011100f16007556000600061059f60006000600c62012f54f16008556000600061063f60006000600c62014dc0f1600955600060006106df60006000600c62016b84f1600a556000600061077f60006000600c620188a0f1600b556000600061081f60006000600c6201a5b0f1600c55600060006108bf60006000600c6201c2d8f1600d556000600061095f60006000600c6201df88f1600e55600060006109ff60006000600c6201fbc0f1600f5560006000610a9f60006000600c6202184cf160105560006000610b3f60006000600c62023478f160115560006000610bdf60006000600c62025044f160125560006000610c7f60006000600c62026bb0f160135560006000610d1f60006000600c620287b8f160145560006000610dbf60006000600c6202a270f160155560006000610e5f60006000600c6202bddcf160165560006000610eff60006000600c6202d900f160175560006000610f9f60006000600c6202f3dcf16018556000600061103f60006000600c62030e70f1601955600060006110df60006000600c62032a00f1601a556000600061117f60006000600c62034410f1601b556000600061121f60006000600c62035f34f1601c55600060006112bf60006000600c620378c0f1601d556000600061135f60006000600c62039378f1601e55600060006113ff60006000600c6203ac80f1601f556000600061149f60006000600c6203c6ccf16020556000600061153f60006000600c6203e0e8f1602155600060006115df60006000600c6203fad4f16022556000600061167f60006000600c62041490f16023556000600061171f60006000600c62042e1cf1602455600060006117bf60006000600c62044778f16025556000600061185f60006000600c620460a4f1602655600060006118ff60006000600c620479a0f16027556000600061199f60006000600c6204926cf160285560006000611a3f60006000600c6204ad00f160295560006000611adf60006000600c6204c578f1602a5560006000611b7f60006000600c6204ddc0f1602b5560006000611c1f60006000600c6204f7f4f1602c5560006000611cbf60006000600c62050fe8f1602d5560006000611d5f60006000600c620527acf1602e5560006000611dff60006000600c62054180f1602f5560006000611e9f60006000600c620558f0f160305560006000611f3f60006000600c62057288f160315560006000611fdf60006000600c620589a4f16032556000600061207f60006000600c6205a300f16033556000600061211f60006000600c6205bc44f1603455600060006121bf60006000600c6205d2e8f16035556000600061225f60006000600c6205ebf0f1603655600060006122ff60006000600c62060240f16037556000600061239f60006000600c62061b0cf16038556000600061243f60006000600c620633c0f1603955600060006124df60006000600c62064998f1603a556000600061257f60006000600c62066210f1603b556000600061261f60006000600c62067a70f1603c55600060006126bf60006000600c620692b8f1603d556000600061275f60006000600c6206a7f4f1603e55600060006127ff60006000600c6206c000f1603f556000600061289f60006000600c6206d7f4f16040556000600061293f60006000600c6206efd0f1604155600060006129df60006000600c62070794f160425560006000612a7f60006000600c62071f40f160435560006000612b1f60006000600c62073398f160445560006000612bbf60006000600c62074b08f160455560006000612c5f60006000600c62076260f160465560006000612cff60006000600c620779a0f160475560006000612d9f60006000600c620790c8f160485560006000612e3f60006000600c6207a7d8f160495560006000612edf60006000600c6207bed0f1604a5560006000612f7f60006000600c6207d5b0f1604b556000600061301f60006000600c6207ec78f1604c55600060006130bf60006000600c62080328f1604d556000600061315f60006000600c620819c0f1604e55600060006131ff60006000600c62083040f1604f556000600061329f60006000600c620846a8f16050556000600061333f60006000600c62085cf8f1605155600060006133df60006000600c62087330f16052556000600061347f60006000600c62088950f16053556000600061351f60006000600c62089f58f1605455600060006135bf60006000600c6208b548f16055556000600061365f60006000600c6208cb20f1605655600060006136ff60006000600c6208e0e0f16057556000600061379f60006000600c6208f688f16058556000600061383f60006000600c62090c18f1605955600060006138df60006000600c62092190f1605a556000600061397f60006000600c620936f0f1605b5560006000613a1f60006000600c62095094f1605c5560006000613abf60006000600c620965d0f1605d5560006000613b5f60006000600c62097af4f1605e5560006000613bff60006000600c62099000f1605f5560006000613c9f60006000600c6209a4f4f160605560006000613d3f60006000600c6209b9d0f160615560006000613ddf60006000600c6209ce94f160625560006000613e7f60006000600c6209e340f160635560006000613f1f60006000600c6209fc90f160645560006000613fbf60006000600c620a1118f16065556000600061405f60006000600c620a2588f1606655600060006140ff60006000600c620a39e0f16067556000600061419f60006000600c620a4e20f16068556000600061423f60006000600c620a6740f1606955600060006142df60006000600c620a7b5cf1606a556000600061437f60006000600c620a8f60f1606b556000600061441f60006000600c620aa34cf1606c55600060006144bf60006000600c620ab720f1606d556000600061455f60006000600c620ad010f1606e55600060006145ff60006000600c620ae3c0f1606f556000600061469f60006000600c620af758f16070556000600061473f60006000600c620b0ad8f1607155600060006147df60006000600c620b1e40f16072556000600061487f60006000600c620b3700f16073556000600061491f60006000600c620b4a44f1607455600060006149bf60006000600c620b5d70f160755560006000614a5f60006000600c620b7084f160765560006000614aff60006000600c620b8920f160775560006000614b9f60006000600c620b9c10f160785560006000614c3f60006000600c620baee8f160795560006000614cdf60006000600c620bc1a8f1607a5560006000614d7f60006000600c620bda20f1607b5560006000614e1f60006000600c620becbcf1607c5560006000614ebf60006000600c620bff40f1607d5560006000614f5f60006000600c620c17a0f1607e5560006000614fff60006000600c620c2a00f1607f55",
                "storage": {}
            },
            "0xa94f5374fce5edbc8e2a8697c15331677e6ebf0b": {
                "nonce": "0x00",
                "balance": "0x0de0b6b3a7640000",
                "code": "0x",
                "storage": {}
            }
        },
        "transaction": {
            "nonce": "0x00",
            "gasPrice": "0x0a",
            "gasLimit": [
                "0x05f5e100"
            ],
            "to": "0x0000000000000000000000000000000000001000",
            "value": [
                "0x00"
            ],
            "data": [
                "0x"
            ],
            "sender": "0xa94f5374fce5edbc8e2a8697c15331677e6ebf0b",
            "secretKey": "0x45a915e4d060149eb4365960e6a7a45f334393093061116b197e3240065ff2d8"
        },
        "post": {
            "Prague": [
                {
                    "hash": "0x312eea5872624bf56b37eec7daaa72ba74dcf561937a9c916cf020c1681b09d7",
                    "logs": "0x1dcc4de8dec75d7aab85b567b6ccd41ad312451b948a7413f0a142fd40d49347",
                    "txbytes": "0xf861800a8405f5e100940000000000000000000000000000000000001000808026a00c80636d627692750a38994c80e17de29770a0e34498f5e6eccd4f233ec21b5fa04c33c43ced36fe3329a16f21f2704902ac998ae26f175265e7b14a6229b1feb1",
                    "indexes": {
                        "data": 0,
                        "gas": 0,
                        "value": 0
                    },
                    "state": {
                        "0x0000000000000000000000000000000000001000": {
                            "nonce": "0x01",
                            "balance": "0x00",
                            "code": "0x60006000609f60006000600c612ee0f16000556000600061013f60006000600c6158f8f1600155600060006101df60006000600c617740f16002556000600061027f60006000600c619570f16003556000600061031f60006000600c61b310f1600455600060006103bf60006000600c61d2f0f16005556000600061045f60006000600c61f228f1600655600060006104ff60006000600c62011100f16007556000600061059f60006000600c62012f54f16008556000600061063f60006000600c62014dc0f1600955600060006106df60006000600c62016b84f1600a556000600061077f60006000600c620188a0f1600b556000600061081f60006000600c6201a5b0f1600c55600060006108bf60006000600c6201c2d8f1600d556000600061095f60006000600c6201df88f1600e55600060006109ff60006000600c6201fbc0f1600f5560006000610a9f60006000600c6202184cf160105560006000610b3f60006000600c62023478f160115560006000610bdf60006000600c62025044f160125560006000610c7f60006000600c62026bb0f160135560006000610d1f60006000600c620287b8f160145560006000610dbf60006000600c6202a270f160155560006000610e5f60006000600c6202bddcf160165560006000610eff60006000600c6202d900f160175560006000610f9f60006000600c6202f3dcf16018556000600061103f60006000600c62030e70f1601955600060006110df60006000600c62032a00f1601a556000600061117f60006000600c62034410f1601b556000600061121f60006000600c62035f34f1601c55600060006112bf60006000600c620378c0f1601d556000600061135f60006000600c62039378f1601e55600060006113ff60006000600c6203ac80f1601f556000600061149f60006000600c6203c6ccf16020556000600061153f60006000600c6203e0e8f1602155600060006115df60006000600c6203fad4f16022556000600061167f60006000600c62041490f16023556000600061171f60006000600c62042e1cf1602455600060006117bf60006000600c62044778f16025556000600061185f60006000600c620460a4f1602655600060006118ff60006000600c620479a0f16027556000600061199f60006000600c6204926cf160285560006000611a3f60006000600c6204ad00f160295560006000611adf60006000600c6204c578f1602a5560006000611b7f60006000600c6204ddc0f1602b5560006000611c1f60006000600c6204f7f4f1602c5560006000611cbf60006000600c62050fe8f1602d5560006000611d5f60006000600c620527acf1602e5560006000611dff60006000600c62054180f1602f5560006000611e9f60006000600c620558f0f160305560006000611f3f60006000600c62057288f160315560006000611fdf60006000600c620589a4f16032556000600061207f60006000600c6205a300f16033556000600061211f60006000600c6205bc44f1603455600060006121bf60006000600c6205d2e8f16035556000600061225f60006000600c6205ebf0f1603655600060006122ff60006000600c62060240f16037556000600061239f60006000600c62061b0cf16038556000600061243f60006000600c620633c0f1603955600060006124df60006000600c62064998f1603a556000600061257f60006000600c62066210f1603b556000600061261f60006000600c62067a70f1603c55600060006126bf60006000600c620692b8f1603d556000600061275f60006000600c6206a7f4f1603e55600060006127ff60006000600c6206c000f1603f556000600061289f60006000600c6206d7f4f16040556000600061293f60006000600c6206efd0f1604155600060006129df60006000600c62070794f160425560006000612a7f60006000600c62071f40f160435560006000612b1f60006000600c62073398f160445560006000612bbf60006000600c62074b08f160455560006000612c5f60006000600c62076260f160465560006000612cff60006000600c620779a0f160475560006000612d9f60006000600c620790c8f160485560006000612e3f60006000600c6207a7d8f160495560006000612edf60006000600c6207bed0f1604a5560006000612f7f60006000600c6207d5b0f1604b556000600061301f60006000600c6207ec78f1604c55600060006130bf60006000600c62080328f1604d556000600061315f60006000600c620819c0f1604e55600060006131ff60006000600c62083040f1604f556000600061329f60006000600c620846a8f16050556000600061333f60006000600c62085cf8f1605155600060006133df60006000600c62087330f16052556000600061347f60006000600c62088950f16053556000600061351f60006000600c62089f58f1605455600060006135bf60006000600c6208b548f16055556000600061365f60006000600c6208cb20f1605655600060006136ff60006000600c6208e0e0f16057556000600061379f60006000600c6208f688f16058556000600061383f60006000600c62090c18f1605955600060006138df60006000600c62092190f1605a556000600061397f60006000600c620936f0f1605b5560006000613a1f60006000600c62095094f1605c5560006000613abf60006000600c620965d0f1605d5560006000613b5f60006000600c62097af4f1605e5560006000613bff60006000600c62099000f1605f5560006000613c9f60006000600c6209a4f4f160605560006000613d3f60006000600c6209b9d0f160615560006000613ddf60006000600c6209ce94f160625560006000613e7f60006000600c6209e340f160635560006000613f1f60006000600c6209fc90f160645560006000613fbf60006000600c620a1118f16065556000600061405f60006000600c620a2588f1606655600060006140ff60006000600c620a39e0f16067556000600061419f60006000600c620a4e20f16068556000600061423f60006000600c620a6740f1606955600060006142df60006000600c620a7b5cf1606a556000600061437f60006000600c620a8f60f1606b556000600061441f60006000600c620aa34cf1606c55600060006144bf60006000600c620ab720f1606d556000600061455f60006000600c620ad010f1606e55600060006145ff60006000600c620ae3c0f1606f556000600061469f60006000600c620af758f16070556000600061473f60006000600c620b0ad8f1607155600060006147df60006000600c620b1e40f16072556000600061487f60006000600c620b3700f16073556000600061491f60006000600c620b4a44f1607455600060006149bf60006000600c620b5d70f160755560006000614a5f60006000600c620b7084f160765560006000614aff60006000600c620b8920f160775560006000614b9f60006000600c620b9c10f160785560006000614c3f60006000600c620baee8f160795560006000614cdf60006000600c620bc1a8f1607a5560006000614d7f60006000600c620bda20f1607b5560006000614e1f60006000600c620becbcf1607c5560006000614ebf60006000600c620bff40f1607d5560006000614f5f60006000600c620c17a0f1607e5560006000614fff60006000600c620c2a00f1607f55",
                            "storage": {}
                        },
                        "0xa94f5374fce5edbc8e2a8697c15331677e6ebf0b": {
                            "nonce": "0x01",
                            "balance": "0x0de0b6b386291268",
                            "code": "0x",
                            "storage": {}
                        },
                        "0x2adc25665018aa1fe0e6bc666dac8fc2697ff9ba": {
                            "nonce": "0x00",
                            "balance": "0x09f81414",
                            "code": "0x",
                            "storage": {}
                        }
                    }
                }
            ]
        },
        "config": {
            "blobSchedule": {
                "Cancun": {
                    "target": "0x03",
                    "max": "0x06",
                    "baseFeeUpdateFraction": "0x32f0ed"
                },
                "Prague": {
                    "target": "0x06",
                    "max": "0x09",
                    "baseFeeUpdateFraction": "0x4c6964"
                }
            },
            "chainid": "0x01"
        },
        "_info": {
            "hash": "0xee8395278f0f0b25acb8d169136657cd7cea612e6ce3cf63480ec2174dfc72e1",
            "comment": "`execution-spec-tests` generated test",
            "filling-transition-tool": "ethereum-spec-evm-resolver 0.0.5",
            "description": "Test function documentation:\n\n    Test the BLS12_G1MSM discount gas table in full, by expecting the call to fail for\n    all possible input lengths provided because they are too long or short, or zero length.\n\n    If any of the calls succeeds, the test will fail.",
            "url": "https://github.com/ethereum/execution-spec-tests/blob/2c4d277d2fb7d97333c089b0718ac8d26a95d523/tests/prague/eip2537_bls_12_381_precompiles/test_bls12_variable_length_input_contracts.py#L182",
            "fixture_format": "state_test",
            "reference-spec": "https://github.com/ethereum/EIPs/blob/master/EIPS/eip-2537.md",
            "reference-spec-version": "cd0f016ad0c4c68b8b1f5c502ef61ab9353b6e5e",
            "eels-resolution": {
                "git-url": "https://github.com/ethereum/execution-specs.git",
                "branch": "devnets/prague/6",
                "commit": "a25a8ab3a2989b15baac19eb327325e442342a60"
            }
        }
    },
    "tests/prague/eip2537_bls_12_381_precompiles/test_bls12_variable_length_input_contracts.py::test_invalid_length_g1msm[fork_Prague-state_test-precompile_address_12---zero_length_input]": {
        "env": {
            "currentCoinbase": "0x2adc25665018aa1fe0e6bc666dac8fc2697ff9ba",
            "currentGasLimit": "0x016345785d8a0000",
            "currentNumber": "0x01",
            "currentTimestamp": "0x03e8",
            "currentRandom": "0x0000000000000000000000000000000000000000000000000000000000000000",
            "currentDifficulty": "0x00",
            "currentBaseFee": "0x07",
            "currentExcessBlobGas": "0x00"
        },
        "pre": {
            "0x0000000000000000000000000000000000001000": {
                "nonce": "0x01",
                "balance": "0x00",
                "code": "0x60006000600060006000600c612ee0f1600055",
                "storage": {}
            },
            "0xa94f5374fce5edbc8e2a8697c15331677e6ebf0b": {
                "nonce": "0x00",
                "balance": "0x0de0b6b3a7640000",
                "code": "0x",
                "storage": {}
            }
        },
        "transaction": {
            "nonce": "0x00",
            "gasPrice": "0x0a",
            "gasLimit": [
                "0x05f5e100"
            ],
            "to": "0x0000000000000000000000000000000000001000",
            "value": [
                "0x00"
            ],
            "data": [
                "0x"
            ],
            "sender": "0xa94f5374fce5edbc8e2a8697c15331677e6ebf0b",
            "secretKey": "0x45a915e4d060149eb4365960e6a7a45f334393093061116b197e3240065ff2d8"
        },
        "post": {
            "Prague": [
                {
                    "hash": "0xdc92132c8eaac49ff459e24cc0d6da211006e997e4eec8eaad49ec1830d7d3c0",
                    "logs": "0x1dcc4de8dec75d7aab85b567b6ccd41ad312451b948a7413f0a142fd40d49347",
                    "txbytes": "0xf861800a8405f5e100940000000000000000000000000000000000001000808026a00c80636d627692750a38994c80e17de29770a0e34498f5e6eccd4f233ec21b5fa04c33c43ced36fe3329a16f21f2704902ac998ae26f175265e7b14a6229b1feb1",
                    "indexes": {
                        "data": 0,
                        "gas": 0,
                        "value": 0
                    },
                    "state": {
                        "0x0000000000000000000000000000000000001000": {
                            "nonce": "0x01",
                            "balance": "0x00",
                            "code": "0x60006000600060006000600c612ee0f1600055",
                            "storage": {}
                        },
                        "0xa94f5374fce5edbc8e2a8697c15331677e6ebf0b": {
                            "nonce": "0x01",
                            "balance": "0x0de0b6b3a75e9c28",
                            "code": "0x",
                            "storage": {}
                        },
                        "0x2adc25665018aa1fe0e6bc666dac8fc2697ff9ba": {
                            "nonce": "0x00",
                            "balance": "0x019df4",
                            "code": "0x",
                            "storage": {}
                        }
                    }
                }
            ]
        },
        "config": {
            "blobSchedule": {
                "Cancun": {
                    "target": "0x03",
                    "max": "0x06",
                    "baseFeeUpdateFraction": "0x32f0ed"
                },
                "Prague": {
                    "target": "0x06",
                    "max": "0x09",
                    "baseFeeUpdateFraction": "0x4c6964"
                }
            },
            "chainid": "0x01"
        },
        "_info": {
            "hash": "0x98627c097815d30835269dccae7c7d56a5fa0d78dac52c1011dea28602e90748",
            "comment": "`execution-spec-tests` generated test",
            "filling-transition-tool": "ethereum-spec-evm-resolver 0.0.5",
            "description": "Test function documentation:\n\n    Test the BLS12_G1MSM discount gas table in full, by expecting the call to fail for\n    all possible input lengths provided because they are too long or short, or zero length.\n\n    If any of the calls succeeds, the test will fail.",
            "url": "https://github.com/ethereum/execution-spec-tests/blob/2c4d277d2fb7d97333c089b0718ac8d26a95d523/tests/prague/eip2537_bls_12_381_precompiles/test_bls12_variable_length_input_contracts.py#L182",
            "fixture_format": "state_test",
            "reference-spec": "https://github.com/ethereum/EIPs/blob/master/EIPS/eip-2537.md",
            "reference-spec-version": "cd0f016ad0c4c68b8b1f5c502ef61ab9353b6e5e",
            "eels-resolution": {
                "git-url": "https://github.com/ethereum/execution-specs.git",
                "branch": "devnets/prague/6",
                "commit": "a25a8ab3a2989b15baac19eb327325e442342a60"
            }
        }
    }
}
