{
    "tests/prague/eip2537_bls_12_381_precompiles/test_bls12_variable_length_input_contracts.py::test_invalid_gas_g2msm[fork_Prague-state_test-precompile_address_14---insufficient_gas_full_discount_table]": {
        "env": {
            "currentCoinbase": "0x2adc25665018aa1fe0e6bc666dac8fc2697ff9ba",
            "currentGasLimit": "0x016345785d8a0000",
            "currentNumber": "0x01",
            "currentTimestamp": "0x03e8",
            "currentRandom": "0x0000000000000000000000000000000000000000000000000000000000000000",
            "currentDifficulty": "0x00",
            "currentBaseFee": "0x07",
            "currentExcessBlobGas": "0x00"
        },
        "pre": {
            "0x0000000000000000000000000000000000001000": {
                "nonce": "0x01",
                "balance": "0x00",
                "code": "0x6000600061012060006000600e6157e3f16000556000600061024060006000600e61afc7f16001556000600061036060006000600e61f35df16002556000600061048060006000600e620136c7f1600355600060006105a060006000600e620177baf1600455600060006106c060006000600e6201b6bff1600555600060006107e060006000600e6201f391f16006556000600061090060006000600e62022faff160075560006000610a2060006000600e62026a92f160085560006000610b4060006000600e6202a4c1f160095560006000610c6060006000600e6202ddcbf1600a5560006000610d8060006000600e620315f5f1600b5560006000610ea060006000600e62034d81f1600c5560006000610fc060006000600e620384b3f1600d55600060006110e060006000600e6203ba7df1600e556000600061120060006000600e6203f047f1600f556000600061132060006000600e62042654f16010556000600061144060006000600e620459bff16011556000600061156060006000600e62048f45f16012556000600061168060006000600e6204c229f1601355600060006117a060006000600e6204f5d7f1601455600060006118c060006000600e620528a4f1601555600060006119e060006000600e62055c95f160165560006000611b0060006000600e62058db7f160175560006000611c2060006000600e6205c02af160185560006000611d4060006000600e6205f1e9f160195560006000611e6060006000600e62062553f1601a5560006000611f8060006000600e620655c1f1601b55600060006120a060006000600e6206857af1601c55600060006121c060006000600e6206b723f1601d55600060006122e060006000600e6206e844f1601e556000600061240060006000600e620718dff1601f556000600061252060006000600e620748f2f16020556000600061264060006000600e6207787ff16021556000600061276060006000600e6207a784f16022556000600061288060006000600e6207d603f1602355600060006129a060006000600e6208073bf160245560006000612ac060006000600e620834c2f160255560006000612be060006000600e6208652ff160265560006000612d0060006000600e620891bff160275560006000612e2060006000600e6208c162f160285560006000612f4060006000600e6208f0abf16029556000600061306060006000600e62091f9af1602a556000600061318060006000600e62094a51f1602b55600060006132a060006000600e62097875f1602c55600060006133c060006000600e6209a640f1602d55600060006134e060006000600e6209d3b0f1602e556000600061360060006000600e620a00c7f1602f556000600061372060006000600e620a31d2f16030556000600061384060006000600e620a5e4bf16031556000600061396060006000600e620a8a6af160325560006000613a8060006000600e620ab62ff160335560006000613ba060006000600e620ae19af160345560006000613cc060006000600e620b116af160355560006000613de060006000600e620b3c37f160365560006000613f0060006000600e620b66abf16037556000600061402060006000600e620b95c7f16038556000600061414060006000600e620bbf9df16039556000600061426060006000600e620bee48f1603a556000600061438060006000600e620c1781f1603b55600060006144a060006000600e620c45bcf1603c55600060006145c060006000600e620c6e57f1603d55600060006146e060006000600e620c9c21f1603e556000600061480060006000600e620cc9bff1603f556000600061492060006000600e620cf179f160405560006000614a4060006000600e620d1ea6f160415560006000614b6060006000600e620d4ba6f160425560006000614c8060006000600e620d727ff160435560006000614da060006000600e620d9f0ef160445560006000614ec060006000600e620dcb71f160455560006000614fe060006000600e620df7a6f16046556000600061510060006000600e620e1d5bf16047556000600061522060006000600e620e4920f16048556000600061534060006000600e620e74b8f16049556000600061546060006000600e620ea023f1604a556000600061558060006000600e620ecb61f1604b55600060006156a060006000600e620ef672f1604c55600060006157c060006000600e620f2156f1604d55600060006158e060006000600e620f451bf1604e5560006000615a0060006000600e620f6f8ff1604f5560006000615b2060006000600e620f99d5f160505560006000615c4060006000600e620fc3eff160515560006000615d6060006000600e620feddbf160525560006000615e8060006000600e6210179bf160535560006000615fa060006000600e6210412df1605455600060006160c060006000600e62106a93f1605555600060006161e060006000600e621093cbf16056556000600061630060006000600e6210bcd7f16057556000600061642060006000600e6210e5b5f16058556000600061654060006000600e62110e67f16059556000600061666060006000600e62113eebf1605a556000600061678060006000600e62116759f1605b55600060006168a060006000600e62118f9af1605c55600060006169c060006000600e6211b7aef1605d5560006000616ae060006000600e6211df95f1605e5560006000616c0060006000600e6212074ff1605f5560006000616d2060006000600e62122edcf160605560006000616e4060006000600e6212563cf160615560006000616f6060006000600e62128622f16062556000600061708060006000600e6212ad3ff1606355600060006171a060006000600e6212d42ef1606455600060006172c060006000600e6212faf1f1606555600060006173e060006000600e62132186f16066556000600061750060006000600e62135113f16067556000600061762060006000600e62137765f16068556000600061774060006000600e62139d8af16069556000600061786060006000600e6213c382f1606a556000600061798060006000600e6213e94df1606b5560006000617aa060006000600e6214187ff1606c5560006000617bc060006000600e62143e07f1606d5560006000617ce060006000600e62146361f1606e5560006000617e0060006000600e62149267f1606f5560006000617f2060006000600e6214b77ef16070556000600061804060006000600e6214dc68f16071556000600061816060006000600e62150125f16072556000600061828060006000600e62152fe7f1607355600060006183a060006000600e62155460f1607455600060006184c060006000600e621578adf1607555600060006185e060006000600e6215a742f16076556000600061870060006000600e6215cb4bf16077556000600061882060006000600e6215ef27f16078556000600061894060006000600e62161d8ff160795560006000618a6060006000600e62164127f1607a5560006000618b8060006000600e62166493f1607b5560006000618ca060006000600e621692cef1607c5560006000618dc060006000600e6216b5f6f1607d5560006000618ee060006000600e6216d8f1f1607e556000600061900060006000600e621706fff1607f55",
                "storage": {}
            },
            "0xa94f5374fce5edbc8e2a8697c15331677e6ebf0b": {
                "nonce": "0x00",
                "balance": "0x0de0b6b3a7640000",
                "code": "0x",
                "storage": {}
            }
        },
        "transaction": {
            "nonce": "0x00",
            "gasPrice": "0x0a",
            "gasLimit": [
                "0x05f5e100"
            ],
            "to": "0x0000000000000000000000000000000000001000",
            "value": [
                "0x00"
            ],
            "data": [
                "0x"
            ],
            "sender": "0xa94f5374fce5edbc8e2a8697c15331677e6ebf0b",
            "secretKey": "0x45a915e4d060149eb4365960e6a7a45f334393093061116b197e3240065ff2d8"
        },
        "post": {
            "Prague": [
                {
                    "hash": "0xfaeec7dcacc6a84146787a5ec99d90527386035ff6be3a1a8b6010de25c62d77",
                    "logs": "0x1dcc4de8dec75d7aab85b567b6ccd41ad312451b948a7413f0a142fd40d49347",
                    "txbytes": "0xf861800a8405f5e100940000000000000000000000000000000000001000808026a00c80636d627692750a38994c80e17de29770a0e34498f5e6eccd4f233ec21b5fa04c33c43ced36fe3329a16f21f2704902ac998ae26f175265e7b14a6229b1feb1",
                    "indexes": {
                        "data": 0,
                        "gas": 0,
                        "value": 0
                    },
                    "state": {
                        "0x0000000000000000000000000000000000001000": {
                            "nonce": "0x01",
                            "balance": "0x00",
                            "code": "0x6000600061012060006000600e6157e3f16000556000600061024060006000600e61afc7f16001556000600061036060006000600e61f35df16002556000600061048060006000600e620136c7f1600355600060006105a060006000600e620177baf1600455600060006106c060006000600e6201b6bff1600555600060006107e060006000600e6201f391f16006556000600061090060006000600e62022faff160075560006000610a2060006000600e62026a92f160085560006000610b4060006000600e6202a4c1f160095560006000610c6060006000600e6202ddcbf1600a5560006000610d8060006000600e620315f5f1600b5560006000610ea060006000600e62034d81f1600c5560006000610fc060006000600e620384b3f1600d55600060006110e060006000600e6203ba7df1600e556000600061120060006000600e6203f047f1600f556000600061132060006000600e62042654f16010556000600061144060006000600e620459bff16011556000600061156060006000600e62048f45f16012556000600061168060006000600e6204c229f1601355600060006117a060006000600e6204f5d7f1601455600060006118c060006000600e620528a4f1601555600060006119e060006000600e62055c95f160165560006000611b0060006000600e62058db7f160175560006000611c2060006000600e6205c02af160185560006000611d4060006000600e6205f1e9f160195560006000611e6060006000600e62062553f1601a5560006000611f8060006000600e620655c1f1601b55600060006120a060006000600e6206857af1601c55600060006121c060006000600e6206b723f1601d55600060006122e060006000600e6206e844f1601e556000600061240060006000600e620718dff1601f556000600061252060006000600e620748f2f16020556000600061264060006000600e6207787ff16021556000600061276060006000600e6207a784f16022556000600061288060006000600e6207d603f1602355600060006129a060006000600e6208073bf160245560006000612ac060006000600e620834c2f160255560006000612be060006000600e6208652ff160265560006000612d0060006000600e620891bff160275560006000612e2060006000600e6208c162f160285560006000612f4060006000600e6208f0abf16029556000600061306060006000600e62091f9af1602a556000600061318060006000600e62094a51f1602b55600060006132a060006000600e62097875f1602c55600060006133c060006000600e6209a640f1602d55600060006134e060006000600e6209d3b0f1602e556000600061360060006000600e620a00c7f1602f556000600061372060006000600e620a31d2f16030556000600061384060006000600e620a5e4bf16031556000600061396060006000600e620a8a6af160325560006000613a8060006000600e620ab62ff160335560006000613ba060006000600e620ae19af160345560006000613cc060006000600e620b116af160355560006000613de060006000600e620b3c37f160365560006000613f0060006000600e620b66abf16037556000600061402060006000600e620b95c7f16038556000600061414060006000600e620bbf9df16039556000600061426060006000600e620bee48f1603a556000600061438060006000600e620c1781f1603b55600060006144a060006000600e620c45bcf1603c55600060006145c060006000600e620c6e57f1603d55600060006146e060006000600e620c9c21f1603e556000600061480060006000600e620cc9bff1603f556000600061492060006000600e620cf179f160405560006000614a4060006000600e620d1ea6f160415560006000614b6060006000600e620d4ba6f160425560006000614c8060006000600e620d727ff160435560006000614da060006000600e620d9f0ef160445560006000614ec060006000600e620dcb71f160455560006000614fe060006000600e620df7a6f16046556000600061510060006000600e620e1d5bf16047556000600061522060006000600e620e4920f16048556000600061534060006000600e620e74b8f16049556000600061546060006000600e620ea023f1604a556000600061558060006000600e620ecb61f1604b55600060006156a060006000600e620ef672f1604c55600060006157c060006000600e620f2156f1604d55600060006158e060006000600e620f451bf1604e5560006000615a0060006000600e620f6f8ff1604f5560006000615b2060006000600e620f99d5f160505560006000615c4060006000600e620fc3eff160515560006000615d6060006000600e620feddbf160525560006000615e8060006000600e6210179bf160535560006000615fa060006000600e6210412df1605455600060006160c060006000600e62106a93f1605555600060006161e060006000600e621093cbf16056556000600061630060006000600e6210bcd7f16057556000600061642060006000600e6210e5b5f16058556000600061654060006000600e62110e67f16059556000600061666060006000600e62113eebf1605a556000600061678060006000600e62116759f1605b55600060006168a060006000600e62118f9af1605c55600060006169c060006000600e6211b7aef1605d5560006000616ae060006000600e6211df95f1605e5560006000616c0060006000600e6212074ff1605f5560006000616d2060006000600e62122edcf160605560006000616e4060006000600e6212563cf160615560006000616f6060006000600e62128622f16062556000600061708060006000600e6212ad3ff1606355600060006171a060006000600e6212d42ef1606455600060006172c060006000600e6212faf1f1606555600060006173e060006000600e62132186f16066556000600061750060006000600e62135113f16067556000600061762060006000600e62137765f16068556000600061774060006000600e62139d8af16069556000600061786060006000600e6213c382f1606a556000600061798060006000600e6213e94df1606b5560006000617aa060006000600e6214187ff1606c5560006000617bc060006000600e62143e07f1606d5560006000617ce060006000600e62146361f1606e5560006000617e0060006000600e62149267f1606f5560006000617f2060006000600e6214b77ef16070556000600061804060006000600e6214dc68f16071556000600061816060006000600e62150125f16072556000600061828060006000600e62152fe7f1607355600060006183a060006000600e62155460f1607455600060006184c060006000600e621578adf1607555600060006185e060006000600e6215a742f16076556000600061870060006000600e6215cb4bf16077556000600061882060006000600e6215ef27f16078556000600061894060006000600e62161d8ff160795560006000618a6060006000600e62164127f1607a5560006000618b8060006000600e62166493f1607b5560006000618ca060006000600e621692cef1607c5560006000618dc060006000600e6216b5f6f1607d5560006000618ee060006000600e6216d8f1f1607e556000600061900060006000600e621706fff1607f55",
                            "storage": {}
                        },
                        "0xa94f5374fce5edbc8e2a8697c15331677e6ebf0b": {
                            "nonce": "0x01",
                            "balance": "0x0de0b6b36bc93600",
                            "code": "0x",
                            "storage": {}
                        },
                        "0x2adc25665018aa1fe0e6bc666dac8fc2697ff9ba": {
                            "nonce": "0x00",
                            "balance": "0x11e1a300",
                            "code": "0x",
                            "storage": {}
                        }
                    }
                }
            ]
        },
        "config": {
            "blobSchedule": {
                "Cancun": {
                    "target": "0x03",
                    "max": "0x06",
                    "baseFeeUpdateFraction": "0x32f0ed"
                },
                "Prague": {
                    "target": "0x06",
                    "max": "0x09",
                    "baseFeeUpdateFraction": "0x4c6964"
                }
            },
            "chainid": "0x01"
        },
        "_info": {
            "hash": "0x6f49042769618f1ccf191cfe9c7c237bb695fe8349b044a1ee52b9a53ba3892c",
            "comment": "`execution-spec-tests` generated test",
            "filling-transition-tool": "ethereum-spec-evm-resolver 0.0.5",
            "description": "Test function documentation:\n\n    Test the BLS12_G2MSM discount gas table in full, by expecting the call to fail for\n    all possible input lengths because the appropriate amount of gas is not provided.\n\n    If any of the calls succeeds, the test will fail.",
            "url": "https://github.com/ethereum/execution-spec-tests/blob/2c4d277d2fb7d97333c089b0718ac8d26a95d523/tests/prague/eip2537_bls_12_381_precompiles/test_bls12_variable_length_input_contracts.py#L266",
            "fixture_format": "state_test",
            "reference-spec": "https://github.com/ethereum/EIPs/blob/master/EIPS/eip-2537.md",
            "reference-spec-version": "cd0f016ad0c4c68b8b1f5c502ef61ab9353b6e5e",
            "eels-resolution": {
                "git-url": "https://github.com/ethereum/execution-specs.git",
                "branch": "devnets/prague/6",
                "commit": "a25a8ab3a2989b15baac19eb327325e442342a60"
            }
        }
    },
    "tests/prague/eip2537_bls_12_381_precompiles/test_bls12_variable_length_input_contracts.py::test_invalid_gas_g2msm[fork_Prague-state_test-precompile_address_14---zero_gas_passed]": {
        "env": {
            "currentCoinbase": "0x2adc25665018aa1fe0e6bc666dac8fc2697ff9ba",
            "currentGasLimit": "0x016345785d8a0000",
            "currentNumber": "0x01",
            "currentTimestamp": "0x03e8",
            "currentRandom": "0x0000000000000000000000000000000000000000000000000000000000000000",
            "currentDifficulty": "0x00",
            "currentBaseFee": "0x07",
            "currentExcessBlobGas": "0x00"
        },
        "pre": {
            "0x0000000000000000000000000000000000001000": {
                "nonce": "0x01",
                "balance": "0x00",
                "code": "0x6000600061012060006000600e6000f1600055",
                "storage": {}
            },
            "0xa94f5374fce5edbc8e2a8697c15331677e6ebf0b": {
                "nonce": "0x00",
                "balance": "0x0de0b6b3a7640000",
                "code": "0x",
                "storage": {}
            }
        },
        "transaction": {
            "nonce": "0x00",
            "gasPrice": "0x0a",
            "gasLimit": [
                "0x05f5e100"
            ],
            "to": "0x0000000000000000000000000000000000001000",
            "value": [
                "0x00"
            ],
            "data": [
                "0x"
            ],
            "sender": "0xa94f5374fce5edbc8e2a8697c15331677e6ebf0b",
            "secretKey": "0x45a915e4d060149eb4365960e6a7a45f334393093061116b197e3240065ff2d8"
        },
        "post": {
            "Prague": [
                {
                    "hash": "0x3fabc75992b36068b3926eecc7c48acf7376ae4d49eff60a7af4703e5d163073",
                    "logs": "0x1dcc4de8dec75d7aab85b567b6ccd41ad312451b948a7413f0a142fd40d49347",
                    "txbytes": "0xf861800a8405f5e100940000000000000000000000000000000000001000808026a00c80636d627692750a38994c80e17de29770a0e34498f5e6eccd4f233ec21b5fa04c33c43ced36fe3329a16f21f2704902ac998ae26f175265e7b14a6229b1feb1",
                    "indexes": {
                        "data": 0,
                        "gas": 0,
                        "value": 0
                    },
                    "state": {
                        "0x0000000000000000000000000000000000001000": {
                            "nonce": "0x01",
                            "balance": "0x00",
                            "code": "0x6000600061012060006000600e6000f1600055",
                            "storage": {}
                        },
                        "0xa94f5374fce5edbc8e2a8697c15331677e6ebf0b": {
                            "nonce": "0x01",
                            "balance": "0x0de0b6b3a7606fda",
                            "code": "0x",
                            "storage": {}
                        },
                        "0x2adc25665018aa1fe0e6bc666dac8fc2697ff9ba": {
                            "nonce": "0x00",
                            "balance": "0x0111a5",
                            "code": "0x",
                            "storage": {}
                        }
                    }
                }
            ]
        },
        "config": {
            "blobSchedule": {
                "Cancun": {
                    "target": "0x03",
                    "max": "0x06",
                    "baseFeeUpdateFraction": "0x32f0ed"
                },
                "Prague": {
                    "target": "0x06",
                    "max": "0x09",
                    "baseFeeUpdateFraction": "0x4c6964"
                }
            },
            "chainid": "0x01"
        },
        "_info": {
            "hash": "0x76e5a51c8a399f11d2b8f7d9e808ca6df6619c11a7b11ff1866f07dac06ef2be",
            "comment": "`execution-spec-tests` generated test",
            "filling-transition-tool": "ethereum-spec-evm-resolver 0.0.5",
            "description": "Test function documentation:\n\n    Test the BLS12_G2MSM discount gas table in full, by expecting the call to fail for\n    all possible input lengths because the appropriate amount of gas is not provided.\n\n    If any of the calls succeeds, the test will fail.",
            "url": "https://github.com/ethereum/execution-spec-tests/blob/2c4d277d2fb7d97333c089b0718ac8d26a95d523/tests/prague/eip2537_bls_12_381_precompiles/test_bls12_variable_length_input_contracts.py#L266",
            "fixture_format": "state_test",
            "reference-spec": "https://github.com/ethereum/EIPs/blob/master/EIPS/eip-2537.md",
            "reference-spec-version": "cd0f016ad0c4c68b8b1f5c502ef61ab9353b6e5e",
            "eels-resolution": {
                "git-url": "https://github.com/ethereum/execution-specs.git",
                "branch": "devnets/prague/6",
                "commit": "a25a8ab3a2989b15baac19eb327325e442342a60"
            }
        }
    }
}
