{
    "tests/prague/eip2537_bls_12_381_precompiles/test_bls12_variable_length_input_contracts.py::test_valid_gas_g1msm[fork_Prague-state_test-precompile_address_12---exact_gas_full_discount_table]": {
        "env": {
            "currentCoinbase": "0x2adc25665018aa1fe0e6bc666dac8fc2697ff9ba",
            "currentGasLimit": "0x016345785d8a0000",
            "currentNumber": "0x01",
            "currentTimestamp": "0x03e8",
            "currentRandom": "0x0000000000000000000000000000000000000000000000000000000000000000",
            "currentDifficulty": "0x00",
            "currentBaseFee": "0x07",
            "currentExcessBlobGas": "0x00"
        },
        "pre": {
            "0x0000000000000000000000000000000000001000": {
                "nonce": "0x01",
                "balance": "0x00",
                "code": "0x6000600060a060006000600c612ee0f16000556000600061014060006000600c6158f8f1600155600060006101e060006000600c617740f16002556000600061028060006000600c619570f16003556000600061032060006000600c61b310f1600455600060006103c060006000600c61d2f0f16005556000600061046060006000600c61f228f16006556000600061050060006000600c62011100f1600755600060006105a060006000600c62012f54f16008556000600061064060006000600c62014dc0f1600955600060006106e060006000600c62016b84f1600a556000600061078060006000600c620188a0f1600b556000600061082060006000600c6201a5b0f1600c55600060006108c060006000600c6201c2d8f1600d556000600061096060006000600c6201df88f1600e5560006000610a0060006000600c6201fbc0f1600f5560006000610aa060006000600c6202184cf160105560006000610b4060006000600c62023478f160115560006000610be060006000600c62025044f160125560006000610c8060006000600c62026bb0f160135560006000610d2060006000600c620287b8f160145560006000610dc060006000600c6202a270f160155560006000610e6060006000600c6202bddcf160165560006000610f0060006000600c6202d900f160175560006000610fa060006000600c6202f3dcf16018556000600061104060006000600c62030e70f1601955600060006110e060006000600c62032a00f1601a556000600061118060006000600c62034410f1601b556000600061122060006000600c62035f34f1601c55600060006112c060006000600c620378c0f1601d556000600061136060006000600c62039378f1601e556000600061140060006000600c6203ac80f1601f55600060006114a060006000600c6203c6ccf16020556000600061154060006000600c6203e0e8f1602155600060006115e060006000600c6203fad4f16022556000600061168060006000600c62041490f16023556000600061172060006000600c62042e1cf1602455600060006117c060006000600c62044778f16025556000600061186060006000600c620460a4f16026556000600061190060006000600c620479a0f1602755600060006119a060006000600c6204926cf160285560006000611a4060006000600c6204ad00f160295560006000611ae060006000600c6204c578f1602a5560006000611b8060006000600c6204ddc0f1602b5560006000611c2060006000600c6204f7f4f1602c5560006000611cc060006000600c62050fe8f1602d5560006000611d6060006000600c620527acf1602e5560006000611e0060006000600c62054180f1602f5560006000611ea060006000600c620558f0f160305560006000611f4060006000600c62057288f160315560006000611fe060006000600c620589a4f16032556000600061208060006000600c6205a300f16033556000600061212060006000600c6205bc44f1603455600060006121c060006000600c6205d2e8f16035556000600061226060006000600c6205ebf0f16036556000600061230060006000600c62060240f1603755600060006123a060006000600c62061b0cf16038556000600061244060006000600c620633c0f1603955600060006124e060006000600c62064998f1603a556000600061258060006000600c62066210f1603b556000600061262060006000600c62067a70f1603c55600060006126c060006000600c620692b8f1603d556000600061276060006000600c6206a7f4f1603e556000600061280060006000600c6206c000f1603f55600060006128a060006000600c6206d7f4f16040556000600061294060006000600c6206efd0f1604155600060006129e060006000600c62070794f160425560006000612a8060006000600c62071f40f160435560006000612b2060006000600c62073398f160445560006000612bc060006000600c62074b08f160455560006000612c6060006000600c62076260f160465560006000612d0060006000600c620779a0f160475560006000612da060006000600c620790c8f160485560006000612e4060006000600c6207a7d8f160495560006000612ee060006000600c6207bed0f1604a5560006000612f8060006000600c6207d5b0f1604b556000600061302060006000600c6207ec78f1604c55600060006130c060006000600c62080328f1604d556000600061316060006000600c620819c0f1604e556000600061320060006000600c62083040f1604f55600060006132a060006000600c620846a8f16050556000600061334060006000600c62085cf8f1605155600060006133e060006000600c62087330f16052556000600061348060006000600c62088950f16053556000600061352060006000600c62089f58f1605455600060006135c060006000600c6208b548f16055556000600061366060006000600c6208cb20f16056556000600061370060006000600c6208e0e0f1605755600060006137a060006000600c6208f688f16058556000600061384060006000600c62090c18f1605955600060006138e060006000600c62092190f1605a556000600061398060006000600c620936f0f1605b5560006000613a2060006000600c62095094f1605c5560006000613ac060006000600c620965d0f1605d5560006000613b6060006000600c62097af4f1605e5560006000613c0060006000600c62099000f1605f5560006000613ca060006000600c6209a4f4f160605560006000613d4060006000600c6209b9d0f160615560006000613de060006000600c6209ce94f160625560006000613e8060006000600c6209e340f160635560006000613f2060006000600c6209fc90f160645560006000613fc060006000600c620a1118f16065556000600061406060006000600c620a2588f16066556000600061410060006000600c620a39e0f1606755600060006141a060006000600c620a4e20f16068556000600061424060006000600c620a6740f1606955600060006142e060006000600c620a7b5cf1606a556000600061438060006000600c620a8f60f1606b556000600061442060006000600c620aa34cf1606c55600060006144c060006000600c620ab720f1606d556000600061456060006000600c620ad010f1606e556000600061460060006000600c620ae3c0f1606f55600060006146a060006000600c620af758f16070556000600061474060006000600c620b0ad8f1607155600060006147e060006000600c620b1e40f16072556000600061488060006000600c620b3700f16073556000600061492060006000600c620b4a44f1607455600060006149c060006000600c620b5d70f160755560006000614a6060006000600c620b7084f160765560006000614b0060006000600c620b8920f160775560006000614ba060006000600c620b9c10f160785560006000614c4060006000600c620baee8f160795560006000614ce060006000600c620bc1a8f1607a5560006000614d8060006000600c620bda20f1607b5560006000614e2060006000600c620becbcf1607c5560006000614ec060006000600c620bff40f1607d5560006000614f6060006000600c620c17a0f1607e556000600061500060006000600c620c2a00f1607f55",
                "storage": {}
            },
            "0xa94f5374fce5edbc8e2a8697c15331677e6ebf0b": {
                "nonce": "0x00",
                "balance": "0x0de0b6b3a7640000",
                "code": "0x",
                "storage": {}
            }
        },
        "transaction": {
            "nonce": "0x00",
            "gasPrice": "0x0a",
            "gasLimit": [
                "0x05f5e100"
            ],
            "to": "0x0000000000000000000000000000000000001000",
            "value": [
                "0x00"
            ],
            "data": [
                "0x"
            ],
            "sender": "0xa94f5374fce5edbc8e2a8697c15331677e6ebf0b",
            "secretKey": "0x45a915e4d060149eb4365960e6a7a45f334393093061116b197e3240065ff2d8"
        },
        "post": {
            "Prague": [
                {
                    "hash": "0x8c8a7acd3e7443432574aee3f0438a009b385304b311c4beb137fb01c0f36641",
                    "logs": "0x1dcc4de8dec75d7aab85b567b6ccd41ad312451b948a7413f0a142fd40d49347",
                    "txbytes": "0xf861800a8405f5e100940000000000000000000000000000000000001000808026a00c80636d627692750a38994c80e17de29770a0e34498f5e6eccd4f233ec21b5fa04c33c43ced36fe3329a16f21f2704902ac998ae26f175265e7b14a6229b1feb1",
                    "indexes": {
                        "data": 0,
                        "gas": 0,
                        "value": 0
                    },
                    "state": {
                        "0x0000000000000000000000000000000000001000": {
                            "nonce": "0x01",
                            "balance": "0x00",
                            "code": "0x6000600060a060006000600c612ee0f16000556000600061014060006000600c6158f8f1600155600060006101e060006000600c617740f16002556000600061028060006000600c619570f16003556000600061032060006000600c61b310f1600455600060006103c060006000600c61d2f0f16005556000600061046060006000600c61f228f16006556000600061050060006000600c62011100f1600755600060006105a060006000600c62012f54f16008556000600061064060006000600c62014dc0f1600955600060006106e060006000600c62016b84f1600a556000600061078060006000600c620188a0f1600b556000600061082060006000600c6201a5b0f1600c55600060006108c060006000600c6201c2d8f1600d556000600061096060006000600c6201df88f1600e5560006000610a0060006000600c6201fbc0f1600f5560006000610aa060006000600c6202184cf160105560006000610b4060006000600c62023478f160115560006000610be060006000600c62025044f160125560006000610c8060006000600c62026bb0f160135560006000610d2060006000600c620287b8f160145560006000610dc060006000600c6202a270f160155560006000610e6060006000600c6202bddcf160165560006000610f0060006000600c6202d900f160175560006000610fa060006000600c6202f3dcf16018556000600061104060006000600c62030e70f1601955600060006110e060006000600c62032a00f1601a556000600061118060006000600c62034410f1601b556000600061122060006000600c62035f34f1601c55600060006112c060006000600c620378c0f1601d556000600061136060006000600c62039378f1601e556000600061140060006000600c6203ac80f1601f55600060006114a060006000600c6203c6ccf16020556000600061154060006000600c6203e0e8f1602155600060006115e060006000600c6203fad4f16022556000600061168060006000600c62041490f16023556000600061172060006000600c62042e1cf1602455600060006117c060006000600c62044778f16025556000600061186060006000600c620460a4f16026556000600061190060006000600c620479a0f1602755600060006119a060006000600c6204926cf160285560006000611a4060006000600c6204ad00f160295560006000611ae060006000600c6204c578f1602a5560006000611b8060006000600c6204ddc0f1602b5560006000611c2060006000600c6204f7f4f1602c5560006000611cc060006000600c62050fe8f1602d5560006000611d6060006000600c620527acf1602e5560006000611e0060006000600c62054180f1602f5560006000611ea060006000600c620558f0f160305560006000611f4060006000600c62057288f160315560006000611fe060006000600c620589a4f16032556000600061208060006000600c6205a300f16033556000600061212060006000600c6205bc44f1603455600060006121c060006000600c6205d2e8f16035556000600061226060006000600c6205ebf0f16036556000600061230060006000600c62060240f1603755600060006123a060006000600c62061b0cf16038556000600061244060006000600c620633c0f1603955600060006124e060006000600c62064998f1603a556000600061258060006000600c62066210f1603b556000600061262060006000600c62067a70f1603c55600060006126c060006000600c620692b8f1603d556000600061276060006000600c6206a7f4f1603e556000600061280060006000600c6206c000f1603f55600060006128a060006000600c6206d7f4f16040556000600061294060006000600c6206efd0f1604155600060006129e060006000600c62070794f160425560006000612a8060006000600c62071f40f160435560006000612b2060006000600c62073398f160445560006000612bc060006000600c62074b08f160455560006000612c6060006000600c62076260f160465560006000612d0060006000600c620779a0f160475560006000612da060006000600c620790c8f160485560006000612e4060006000600c6207a7d8f160495560006000612ee060006000600c6207bed0f1604a5560006000612f8060006000600c6207d5b0f1604b556000600061302060006000600c6207ec78f1604c55600060006130c060006000600c62080328f1604d556000600061316060006000600c620819c0f1604e556000600061320060006000600c62083040f1604f55600060006132a060006000600c620846a8f16050556000600061334060006000600c62085cf8f1605155600060006133e060006000600c62087330f16052556000600061348060006000600c62088950f16053556000600061352060006000600c62089f58f1605455600060006135c060006000600c6208b548f16055556000600061366060006000600c6208cb20f16056556000600061370060006000600c6208e0e0f1605755600060006137a060006000600c6208f688f16058556000600061384060006000600c62090c18f1605955600060006138e060006000600c62092190f1605a556000600061398060006000600c620936f0f1605b5560006000613a2060006000600c62095094f1605c5560006000613ac060006000600c620965d0f1605d5560006000613b6060006000600c62097af4f1605e5560006000613c0060006000600c62099000f1605f5560006000613ca060006000600c6209a4f4f160605560006000613d4060006000600c6209b9d0f160615560006000613de060006000600c6209ce94f160625560006000613e8060006000600c6209e340f160635560006000613f2060006000600c6209fc90f160645560006000613fc060006000600c620a1118f16065556000600061406060006000600c620a2588f16066556000600061410060006000600c620a39e0f1606755600060006141a060006000600c620a4e20f16068556000600061424060006000600c620a6740f1606955600060006142e060006000600c620a7b5cf1606a556000600061438060006000600c620a8f60f1606b556000600061442060006000600c620aa34cf1606c55600060006144c060006000600c620ab720f1606d556000600061456060006000600c620ad010f1606e556000600061460060006000600c620ae3c0f1606f55600060006146a060006000600c620af758f16070556000600061474060006000600c620b0ad8f1607155600060006147e060006000600c620b1e40f16072556000600061488060006000600c620b3700f16073556000600061492060006000600c620b4a44f1607455600060006149c060006000600c620b5d70f160755560006000614a6060006000600c620b7084f160765560006000614b0060006000600c620b8920f160775560006000614ba060006000600c620b9c10f160785560006000614c4060006000600c620baee8f160795560006000614ce060006000600c620bc1a8f1607a5560006000614d8060006000600c620bda20f1607b5560006000614e2060006000600c620becbcf1607c5560006000614ec060006000600c620bff40f1607d5560006000614f6060006000600c620c17a0f1607e556000600061500060006000600c620c2a00f1607f55",
                            "storage": {
                                "0x00": "0x01",
                                "0x01": "0x01",
                                "0x02": "0x01",
                                "0x03": "0x01",
                                "0x04": "0x01",
                                "0x05": "0x01",
                                "0x06": "0x01",
                                "0x07": "0x01",
                                "0x08": "0x01",
                                "0x09": "0x01",
                                "0x0a": "0x01",
                                "0x0b": "0x01",
                                "0x0c": "0x01",
                                "0x0d": "0x01",
                                "0x0e": "0x01",
                                "0x0f": "0x01",
                                "0x10": "0x01",
                                "0x11": "0x01",
                                "0x12": "0x01",
                                "0x13": "0x01",
                                "0x14": "0x01",
                                "0x15": "0x01",
                                "0x16": "0x01",
                                "0x17": "0x01",
                                "0x18": "0x01",
                                "0x19": "0x01",
                                "0x1a": "0x01",
                                "0x1b": "0x01",
                                "0x1c": "0x01",
                                "0x1d": "0x01",
                                "0x1e": "0x01",
                                "0x1f": "0x01",
                                "0x20": "0x01",
                                "0x21": "0x01",
                                "0x22": "0x01",
                                "0x23": "0x01",
                                "0x24": "0x01",
                                "0x25": "0x01",
                                "0x26": "0x01",
                                "0x27": "0x01",
                                "0x28": "0x01",
                                "0x29": "0x01",
                                "0x2a": "0x01",
                                "0x2b": "0x01",
                                "0x2c": "0x01",
                                "0x2d": "0x01",
                                "0x2e": "0x01",
                                "0x2f": "0x01",
                                "0x30": "0x01",
                                "0x31": "0x01",
                                "0x32": "0x01",
                                "0x33": "0x01",
                                "0x34": "0x01",
                                "0x35": "0x01",
                                "0x36": "0x01",
                                "0x37": "0x01",
                                "0x38": "0x01",
                                "0x39": "0x01",
                                "0x3a": "0x01",
                                "0x3b": "0x01",
                                "0x3c": "0x01",
                                "0x3d": "0x01",
                                "0x3e": "0x01",
                                "0x3f": "0x01",
                                "0x40": "0x01",
                                "0x41": "0x01",
                                "0x42": "0x01",
                                "0x43": "0x01",
                                "0x44": "0x01",
                                "0x45": "0x01",
                                "0x46": "0x01",
                                "0x47": "0x01",
                                "0x48": "0x01",
                                "0x49": "0x01",
                                "0x4a": "0x01",
                                "0x4b": "0x01",
                                "0x4c": "0x01",
                                "0x4d": "0x01",
                                "0x4e": "0x01",
                                "0x4f": "0x01",
                                "0x50": "0x01",
                                "0x51": "0x01",
                                "0x52": "0x01",
                                "0x53": "0x01",
                                "0x54": "0x01",
                                "0x55": "0x01",
                                "0x56": "0x01",
                                "0x57": "0x01",
                                "0x58": "0x01",
                                "0x59": "0x01",
                                "0x5a": "0x01",
                                "0x5b": "0x01",
                                "0x5c": "0x01",
                                "0x5d": "0x01",
                                "0x5e": "0x01",
                                "0x5f": "0x01",
                                "0x60": "0x01",
                                "0x61": "0x01",
                                "0x62": "0x01",
                                "0x63": "0x01",
                                "0x64": "0x01",
                                "0x65": "0x01",
                                "0x66": "0x01",
                                "0x67": "0x01",
                                "0x68": "0x01",
                                "0x69": "0x01",
                                "0x6a": "0x01",
                                "0x6b": "0x01",
                                "0x6c": "0x01",
                                "0x6d": "0x01",
                                "0x6e": "0x01",
                                "0x6f": "0x01",
                                "0x70": "0x01",
                                "0x71": "0x01",
                                "0x72": "0x01",
                                "0x73": "0x01",
                                "0x74": "0x01",
                                "0x75": "0x01",
                                "0x76": "0x01",
                                "0x77": "0x01",
                                "0x78": "0x01",
                                "0x79": "0x01",
                                "0x7a": "0x01",
                                "0x7b": "0x01",
                                "0x7c": "0x01",
                                "0x7d": "0x01",
                                "0x7e": "0x01",
                                "0x7f": "0x01"
                            }
                        },
                        "0xa94f5374fce5edbc8e2a8697c15331677e6ebf0b": {
                            "nonce": "0x01",
                            "balance": "0x0de0b6b384a46668",
                            "code": "0x",
                            "storage": {}
                        },
                        "0x2adc25665018aa1fe0e6bc666dac8fc2697ff9ba": {
                            "nonce": "0x00",
                            "balance": "0x0a6cae14",
                            "code": "0x",
                            "storage": {}
                        }
                    }
                }
            ]
        },
        "config": {
            "blobSchedule": {
                "Cancun": {
                    "target": "0x03",
                    "max": "0x06",
                    "baseFeeUpdateFraction": "0x32f0ed"
                },
                "Prague": {
                    "target": "0x06",
                    "max": "0x09",
                    "baseFeeUpdateFraction": "0x4c6964"
                }
            },
            "chainid": "0x01"
        },
        "_info": {
            "hash": "0x87ffd3de780286df6b6625601fcd9ee3c8dbd6023b9d5796dd29def794429405",
            "comment": "`execution-spec-tests` generated test",
            "filling-transition-tool": "ethereum-spec-evm-resolver 0.0.5",
            "description": "Test function documentation:\n\n    Test the BLS12_G1MSM discount gas table in full, by expecting the call to succeed for\n    all possible input lengths because the appropriate amount of gas is provided.\n\n    If any of the calls fail, the test will fail.",
            "url": "https://github.com/ethereum/execution-spec-tests/blob/2c4d277d2fb7d97333c089b0718ac8d26a95d523/tests/prague/eip2537_bls_12_381_precompiles/test_bls12_variable_length_input_contracts.py#L100",
            "fixture_format": "state_test",
            "reference-spec": "https://github.com/ethereum/EIPs/blob/master/EIPS/eip-2537.md",
            "reference-spec-version": "cd0f016ad0c4c68b8b1f5c502ef61ab9353b6e5e",
            "eels-resolution": {
                "git-url": "https://github.com/ethereum/execution-specs.git",
                "branch": "devnets/prague/6",
                "commit": "a25a8ab3a2989b15baac19eb327325e442342a60"
            }
        }
    },
    "tests/prague/eip2537_bls_12_381_precompiles/test_bls12_variable_length_input_contracts.py::test_valid_gas_g1msm[fork_Prague-state_test-precompile_address_12---one_extra_gas_full_discount_table]": {
        "env": {
            "currentCoinbase": "0x2adc25665018aa1fe0e6bc666dac8fc2697ff9ba",
            "currentGasLimit": "0x016345785d8a0000",
            "currentNumber": "0x01",
            "currentTimestamp": "0x03e8",
            "currentRandom": "0x0000000000000000000000000000000000000000000000000000000000000000",
            "currentDifficulty": "0x00",
            "currentBaseFee": "0x07",
            "currentExcessBlobGas": "0x00"
        },
        "pre": {
            "0x0000000000000000000000000000000000001000": {
                "nonce": "0x01",
                "balance": "0x00",
                "code": "0x6000600060a060006000600c612ee1f16000556000600061014060006000600c6158f9f1600155600060006101e060006000600c617741f16002556000600061028060006000600c619571f16003556000600061032060006000600c61b311f1600455600060006103c060006000600c61d2f1f16005556000600061046060006000600c61f229f16006556000600061050060006000600c62011101f1600755600060006105a060006000600c62012f55f16008556000600061064060006000600c62014dc1f1600955600060006106e060006000600c62016b85f1600a556000600061078060006000600c620188a1f1600b556000600061082060006000600c6201a5b1f1600c55600060006108c060006000600c6201c2d9f1600d556000600061096060006000600c6201df89f1600e5560006000610a0060006000600c6201fbc1f1600f5560006000610aa060006000600c6202184df160105560006000610b4060006000600c62023479f160115560006000610be060006000600c62025045f160125560006000610c8060006000600c62026bb1f160135560006000610d2060006000600c620287b9f160145560006000610dc060006000600c6202a271f160155560006000610e6060006000600c6202bdddf160165560006000610f0060006000600c6202d901f160175560006000610fa060006000600c6202f3ddf16018556000600061104060006000600c62030e71f1601955600060006110e060006000600c62032a01f1601a556000600061118060006000600c62034411f1601b556000600061122060006000600c62035f35f1601c55600060006112c060006000600c620378c1f1601d556000600061136060006000600c62039379f1601e556000600061140060006000600c6203ac81f1601f55600060006114a060006000600c6203c6cdf16020556000600061154060006000600c6203e0e9f1602155600060006115e060006000600c6203fad5f16022556000600061168060006000600c62041491f16023556000600061172060006000600c62042e1df1602455600060006117c060006000600c62044779f16025556000600061186060006000600c620460a5f16026556000600061190060006000600c620479a1f1602755600060006119a060006000600c6204926df160285560006000611a4060006000600c6204ad01f160295560006000611ae060006000600c6204c579f1602a5560006000611b8060006000600c6204ddc1f1602b5560006000611c2060006000600c6204f7f5f1602c5560006000611cc060006000600c62050fe9f1602d5560006000611d6060006000600c620527adf1602e5560006000611e0060006000600c62054181f1602f5560006000611ea060006000600c620558f1f160305560006000611f4060006000600c62057289f160315560006000611fe060006000600c620589a5f16032556000600061208060006000600c6205a301f16033556000600061212060006000600c6205bc45f1603455600060006121c060006000600c6205d2e9f16035556000600061226060006000600c6205ebf1f16036556000600061230060006000600c62060241f1603755600060006123a060006000600c62061b0df16038556000600061244060006000600c620633c1f1603955600060006124e060006000600c62064999f1603a556000600061258060006000600c62066211f1603b556000600061262060006000600c62067a71f1603c55600060006126c060006000600c620692b9f1603d556000600061276060006000600c6206a7f5f1603e556000600061280060006000600c6206c001f1603f55600060006128a060006000600c6206d7f5f16040556000600061294060006000600c6206efd1f1604155600060006129e060006000600c62070795f160425560006000612a8060006000600c62071f41f160435560006000612b2060006000600c62073399f160445560006000612bc060006000600c62074b09f160455560006000612c6060006000600c62076261f160465560006000612d0060006000600c620779a1f160475560006000612da060006000600c620790c9f160485560006000612e4060006000600c6207a7d9f160495560006000612ee060006000600c6207bed1f1604a5560006000612f8060006000600c6207d5b1f1604b556000600061302060006000600c6207ec79f1604c55600060006130c060006000600c62080329f1604d556000600061316060006000600c620819c1f1604e556000600061320060006000600c62083041f1604f55600060006132a060006000600c620846a9f16050556000600061334060006000600c62085cf9f1605155600060006133e060006000600c62087331f16052556000600061348060006000600c62088951f16053556000600061352060006000600c62089f59f1605455600060006135c060006000600c6208b549f16055556000600061366060006000600c6208cb21f16056556000600061370060006000600c6208e0e1f1605755600060006137a060006000600c6208f689f16058556000600061384060006000600c62090c19f1605955600060006138e060006000600c62092191f1605a556000600061398060006000600c620936f1f1605b5560006000613a2060006000600c62095095f1605c5560006000613ac060006000600c620965d1f1605d5560006000613b6060006000600c62097af5f1605e5560006000613c0060006000600c62099001f1605f5560006000613ca060006000600c6209a4f5f160605560006000613d4060006000600c6209b9d1f160615560006000613de060006000600c6209ce95f160625560006000613e8060006000600c6209e341f160635560006000613f2060006000600c6209fc91f160645560006000613fc060006000600c620a1119f16065556000600061406060006000600c620a2589f16066556000600061410060006000600c620a39e1f1606755600060006141a060006000600c620a4e21f16068556000600061424060006000600c620a6741f1606955600060006142e060006000600c620a7b5df1606a556000600061438060006000600c620a8f61f1606b556000600061442060006000600c620aa34df1606c55600060006144c060006000600c620ab721f1606d556000600061456060006000600c620ad011f1606e556000600061460060006000600c620ae3c1f1606f55600060006146a060006000600c620af759f16070556000600061474060006000600c620b0ad9f1607155600060006147e060006000600c620b1e41f16072556000600061488060006000600c620b3701f16073556000600061492060006000600c620b4a45f1607455600060006149c060006000600c620b5d71f160755560006000614a6060006000600c620b7085f160765560006000614b0060006000600c620b8921f160775560006000614ba060006000600c620b9c11f160785560006000614c4060006000600c620baee9f160795560006000614ce060006000600c620bc1a9f1607a5560006000614d8060006000600c620bda21f1607b5560006000614e2060006000600c620becbdf1607c5560006000614ec060006000600c620bff41f1607d5560006000614f6060006000600c620c17a1f1607e556000600061500060006000600c620c2a01f1607f55",
                "storage": {}
            },
            "0xa94f5374fce5edbc8e2a8697c15331677e6ebf0b": {
                "nonce": "0x00",
                "balance": "0x0de0b6b3a7640000",
                "code": "0x",
                "storage": {}
            }
        },
        "transaction": {
            "nonce": "0x00",
            "gasPrice": "0x0a",
            "gasLimit": [
                "0x05f5e100"
            ],
            "to": "0x0000000000000000000000000000000000001000",
            "value": [
                "0x00"
            ],
            "data": [
                "0x"
            ],
            "sender": "0xa94f5374fce5edbc8e2a8697c15331677e6ebf0b",
            "secretKey": "0x45a915e4d060149eb4365960e6a7a45f334393093061116b197e3240065ff2d8"
        },
        "post": {
            "Prague": [
                {
                    "hash": "0x2c6057baff2fe26a9dbc788e3fb2c7b76a29400cf757ce39d69cf63cfddc6d47",
                    "logs": "0x1dcc4de8dec75d7aab85b567b6ccd41ad312451b948a7413f0a142fd40d49347",
                    "txbytes": "0xf861800a8405f5e100940000000000000000000000000000000000001000808026a00c80636d627692750a38994c80e17de29770a0e34498f5e6eccd4f233ec21b5fa04c33c43ced36fe3329a16f21f2704902ac998ae26f175265e7b14a6229b1feb1",
                    "indexes": {
                        "data": 0,
                        "gas": 0,
                        "value": 0
                    },
                    "state": {
                        "0x0000000000000000000000000000000000001000": {
                            "nonce": "0x01",
                            "balance": "0x00",
                            "code": "0x6000600060a060006000600c612ee1f16000556000600061014060006000600c6158f9f1600155600060006101e060006000600c617741f16002556000600061028060006000600c619571f16003556000600061032060006000600c61b311f1600455600060006103c060006000600c61d2f1f16005556000600061046060006000600c61f229f16006556000600061050060006000600c62011101f1600755600060006105a060006000600c62012f55f16008556000600061064060006000600c62014dc1f1600955600060006106e060006000600c62016b85f1600a556000600061078060006000600c620188a1f1600b556000600061082060006000600c6201a5b1f1600c55600060006108c060006000600c6201c2d9f1600d556000600061096060006000600c6201df89f1600e5560006000610a0060006000600c6201fbc1f1600f5560006000610aa060006000600c6202184df160105560006000610b4060006000600c62023479f160115560006000610be060006000600c62025045f160125560006000610c8060006000600c62026bb1f160135560006000610d2060006000600c620287b9f160145560006000610dc060006000600c6202a271f160155560006000610e6060006000600c6202bdddf160165560006000610f0060006000600c6202d901f160175560006000610fa060006000600c6202f3ddf16018556000600061104060006000600c62030e71f1601955600060006110e060006000600c62032a01f1601a556000600061118060006000600c62034411f1601b556000600061122060006000600c62035f35f1601c55600060006112c060006000600c620378c1f1601d556000600061136060006000600c62039379f1601e556000600061140060006000600c6203ac81f1601f55600060006114a060006000600c6203c6cdf16020556000600061154060006000600c6203e0e9f1602155600060006115e060006000600c6203fad5f16022556000600061168060006000600c62041491f16023556000600061172060006000600c62042e1df1602455600060006117c060006000600c62044779f16025556000600061186060006000600c620460a5f16026556000600061190060006000600c620479a1f1602755600060006119a060006000600c6204926df160285560006000611a4060006000600c6204ad01f160295560006000611ae060006000600c6204c579f1602a5560006000611b8060006000600c6204ddc1f1602b5560006000611c2060006000600c6204f7f5f1602c5560006000611cc060006000600c62050fe9f1602d5560006000611d6060006000600c620527adf1602e5560006000611e0060006000600c62054181f1602f5560006000611ea060006000600c620558f1f160305560006000611f4060006000600c62057289f160315560006000611fe060006000600c620589a5f16032556000600061208060006000600c6205a301f16033556000600061212060006000600c6205bc45f1603455600060006121c060006000600c6205d2e9f16035556000600061226060006000600c6205ebf1f16036556000600061230060006000600c62060241f1603755600060006123a060006000600c62061b0df16038556000600061244060006000600c620633c1f1603955600060006124e060006000600c62064999f1603a556000600061258060006000600c62066211f1603b556000600061262060006000600c62067a71f1603c55600060006126c060006000600c620692b9f1603d556000600061276060006000600c6206a7f5f1603e556000600061280060006000600c6206c001f1603f55600060006128a060006000600c6206d7f5f16040556000600061294060006000600c6206efd1f1604155600060006129e060006000600c62070795f160425560006000612a8060006000600c62071f41f160435560006000612b2060006000600c62073399f160445560006000612bc060006000600c62074b09f160455560006000612c6060006000600c62076261f160465560006000612d0060006000600c620779a1f160475560006000612da060006000600c620790c9f160485560006000612e4060006000600c6207a7d9f160495560006000612ee060006000600c6207bed1f1604a5560006000612f8060006000600c6207d5b1f1604b556000600061302060006000600c6207ec79f1604c55600060006130c060006000600c62080329f1604d556000600061316060006000600c620819c1f1604e556000600061320060006000600c62083041f1604f55600060006132a060006000600c620846a9f16050556000600061334060006000600c62085cf9f1605155600060006133e060006000600c62087331f16052556000600061348060006000600c62088951f16053556000600061352060006000600c62089f59f1605455600060006135c060006000600c6208b549f16055556000600061366060006000600c6208cb21f16056556000600061370060006000600c6208e0e1f1605755600060006137a060006000600c6208f689f16058556000600061384060006000600c62090c19f1605955600060006138e060006000600c62092191f1605a556000600061398060006000600c620936f1f1605b5560006000613a2060006000600c62095095f1605c5560006000613ac060006000600c620965d1f1605d5560006000613b6060006000600c62097af5f1605e5560006000613c0060006000600c62099001f1605f5560006000613ca060006000600c6209a4f5f160605560006000613d4060006000600c6209b9d1f160615560006000613de060006000600c6209ce95f160625560006000613e8060006000600c6209e341f160635560006000613f2060006000600c6209fc91f160645560006000613fc060006000600c620a1119f16065556000600061406060006000600c620a2589f16066556000600061410060006000600c620a39e1f1606755600060006141a060006000600c620a4e21f16068556000600061424060006000600c620a6741f1606955600060006142e060006000600c620a7b5df1606a556000600061438060006000600c620a8f61f1606b556000600061442060006000600c620aa34df1606c55600060006144c060006000600c620ab721f1606d556000600061456060006000600c620ad011f1606e556000600061460060006000600c620ae3c1f1606f55600060006146a060006000600c620af759f16070556000600061474060006000600c620b0ad9f1607155600060006147e060006000600c620b1e41f16072556000600061488060006000600c620b3701f16073556000600061492060006000600c620b4a45f1607455600060006149c060006000600c620b5d71f160755560006000614a6060006000600c620b7085f160765560006000614b0060006000600c620b8921f160775560006000614ba060006000600c620b9c11f160785560006000614c4060006000600c620baee9f160795560006000614ce060006000600c620bc1a9f1607a5560006000614d8060006000600c620bda21f1607b5560006000614e2060006000600c620becbdf1607c5560006000614ec060006000600c620bff41f1607d5560006000614f6060006000600c620c17a1f1607e556000600061500060006000600c620c2a01f1607f55",
                            "storage": {
                                "0x00": "0x01",
                                "0x01": "0x01",
                                "0x02": "0x01",
                                "0x03": "0x01",
                                "0x04": "0x01",
                                "0x05": "0x01",
                                "0x06": "0x01",
                                "0x07": "0x01",
                                "0x08": "0x01",
                                "0x09": "0x01",
                                "0x0a": "0x01",
                                "0x0b": "0x01",
                                "0x0c": "0x01",
                                "0x0d": "0x01",
                                "0x0e": "0x01",
                                "0x0f": "0x01",
                                "0x10": "0x01",
                                "0x11": "0x01",
                                "0x12": "0x01",
                                "0x13": "0x01",
                                "0x14": "0x01",
                                "0x15": "0x01",
                                "0x16": "0x01",
                                "0x17": "0x01",
                                "0x18": "0x01",
                                "0x19": "0x01",
                                "0x1a": "0x01",
                                "0x1b": "0x01",
                                "0x1c": "0x01",
                                "0x1d": "0x01",
                                "0x1e": "0x01",
                                "0x1f": "0x01",
                                "0x20": "0x01",
                                "0x21": "0x01",
                                "0x22": "0x01",
                                "0x23": "0x01",
                                "0x24": "0x01",
                                "0x25": "0x01",
                                "0x26": "0x01",
                                "0x27": "0x01",
                                "0x28": "0x01",
                                "0x29": "0x01",
                                "0x2a": "0x01",
                                "0x2b": "0x01",
                                "0x2c": "0x01",
                                "0x2d": "0x01",
                                "0x2e": "0x01",
                                "0x2f": "0x01",
                                "0x30": "0x01",
                                "0x31": "0x01",
                                "0x32": "0x01",
                                "0x33": "0x01",
                                "0x34": "0x01",
                                "0x35": "0x01",
                                "0x36": "0x01",
                                "0x37": "0x01",
                                "0x38": "0x01",
                                "0x39": "0x01",
                                "0x3a": "0x01",
                                "0x3b": "0x01",
                                "0x3c": "0x01",
                                "0x3d": "0x01",
                                "0x3e": "0x01",
                                "0x3f": "0x01",
                                "0x40": "0x01",
                                "0x41": "0x01",
                                "0x42": "0x01",
                                "0x43": "0x01",
                                "0x44": "0x01",
                                "0x45": "0x01",
                                "0x46": "0x01",
                                "0x47": "0x01",
                                "0x48": "0x01",
                                "0x49": "0x01",
                                "0x4a": "0x01",
                                "0x4b": "0x01",
                                "0x4c": "0x01",
                                "0x4d": "0x01",
                                "0x4e": "0x01",
                                "0x4f": "0x01",
                                "0x50": "0x01",
                                "0x51": "0x01",
                                "0x52": "0x01",
                                "0x53": "0x01",
                                "0x54": "0x01",
                                "0x55": "0x01",
                                "0x56": "0x01",
                                "0x57": "0x01",
                                "0x58": "0x01",
                                "0x59": "0x01",
                                "0x5a": "0x01",
                                "0x5b": "0x01",
                                "0x5c": "0x01",
                                "0x5d": "0x01",
                                "0x5e": "0x01",
                                "0x5f": "0x01",
                                "0x60": "0x01",
                                "0x61": "0x01",
                                "0x62": "0x01",
                                "0x63": "0x01",
                                "0x64": "0x01",
                                "0x65": "0x01",
                                "0x66": "0x01",
                                "0x67": "0x01",
                                "0x68": "0x01",
                                "0x69": "0x01",
                                "0x6a": "0x01",
                                "0x6b": "0x01",
                                "0x6c": "0x01",
                                "0x6d": "0x01",
                                "0x6e": "0x01",
                                "0x6f": "0x01",
                                "0x70": "0x01",
                                "0x71": "0x01",
                                "0x72": "0x01",
                                "0x73": "0x01",
                                "0x74": "0x01",
                                "0x75": "0x01",
                                "0x76": "0x01",
                                "0x77": "0x01",
                                "0x78": "0x01",
                                "0x79": "0x01",
                                "0x7a": "0x01",
                                "0x7b": "0x01",
                                "0x7c": "0x01",
                                "0x7d": "0x01",
                                "0x7e": "0x01",
                                "0x7f": "0x01"
                            }
                        },
                        "0xa94f5374fce5edbc8e2a8697c15331677e6ebf0b": {
                            "nonce": "0x01",
                            "balance": "0x0de0b6b384a46668",
                            "code": "0x",
                            "storage": {}
                        },
                        "0x2adc25665018aa1fe0e6bc666dac8fc2697ff9ba": {
                            "nonce": "0x00",
                            "balance": "0x0a6cae14",
                            "code": "0x",
                            "storage": {}
                        }
                    }
                }
            ]
        },
        "config": {
            "blobSchedule": {
                "Cancun": {
                    "target": "0x03",
                    "max": "0x06",
                    "baseFeeUpdateFraction": "0x32f0ed"
                },
                "Prague": {
                    "target": "0x06",
                    "max": "0x09",
                    "baseFeeUpdateFraction": "0x4c6964"
                }
            },
            "chainid": "0x01"
        },
        "_info": {
            "hash": "0x4bc4b714f6a9008b0e9334e9b09007bffcc43e49dbb6f1733fb429adcfd31b4d",
            "comment": "`execution-spec-tests` generated test",
            "filling-transition-tool": "ethereum-spec-evm-resolver 0.0.5",
            "description": "Test function documentation:\n\n    Test the BLS12_G1MSM discount gas table in full, by expecting the call to succeed for\n    all possible input lengths because the appropriate amount of gas is provided.\n\n    If any of the calls fail, the test will fail.",
            "url": "https://github.com/ethereum/execution-spec-tests/blob/2c4d277d2fb7d97333c089b0718ac8d26a95d523/tests/prague/eip2537_bls_12_381_precompiles/test_bls12_variable_length_input_contracts.py#L100",
            "fixture_format": "state_test",
            "reference-spec": "https://github.com/ethereum/EIPs/blob/master/EIPS/eip-2537.md",
            "reference-spec-version": "cd0f016ad0c4c68b8b1f5c502ef61ab9353b6e5e",
            "eels-resolution": {
                "git-url": "https://github.com/ethereum/execution-specs.git",
                "branch": "devnets/prague/6",
                "commit": "a25a8ab3a2989b15baac19eb327325e442342a60"
            }
        }
    }
}
