{
    "tests/cancun/eip5656_mcopy/test_mcopy_contexts.py::test_no_memory_corruption_on_upper_create_stack_levels[fork_Cancun-state_test-call_opcode_CREATE]": {
        "env": {
            "currentCoinbase": "0x2adc25665018aa1fe0e6bc666dac8fc2697ff9ba",
            "currentGasLimit": "0x016345785d8a0000",
            "currentNumber": "0x01",
            "currentTimestamp": "0x03e8",
            "currentRandom": "0x0000000000000000000000000000000000000000000000000000000000000000",
            "currentDifficulty": "0x00",
            "currentBaseFee": "0x07",
            "currentExcessBlobGas": "0x00"
        },
        "pre": {
            "0x0000000000000000000000000000000000001000": {
                "nonce": "0x01",
                "balance": "0x00",
                "code": "0x6001600160005e6001600060015e6020600060015e61040061040060005e600161080060005e600160006108005e600162030d405560006000f3",
                "storage": {}
            },
            "0x0000000000000000000000000000000000001100": {
                "nonce": "0x01",
                "balance": "0x00",
                "code": "0x7f6001600160005e6001600060015e6020600060015e61040061040060005e60016000527f61080060005e600160006108005e600162030d405560006000f33b3c3d3e3f406020527f4142434445464748494a4b4c4d4e4f505152535455565758595a5b5c5d5e5f606040527f6162636465666768696a6b6c6d6e6f707172737475767778797a7b7c7d7e7f806060527f8182838485868788898a8b8c8d8e8f909192939495969798999a9b9c9d9e9fa06080527fa1a2a3a4a5a6a7a8a9aaabacadaeafb0b1b2b3b4b5b6b7b8b9babbbcbdbebfc060a0527fc1c2c3c4c5c6c7c8c9cacbcccdcecfd0d1d2d3d4d5d6d7d8d9dadbdcdddedfe060c0527fe1e2e3e4e5e6e7e8e9eaebecedeeeff0f1f2f3f4f5f6f7f8f9fafbfcfdfeff0160e0527f02030405060708090a0b0c0d0e0f101112131415161718191a1b1c1d1e1f2021610100527f22232425262728292a2b2c2d2e2f303132333435363738393a3b3c3d3e3f4041610120527f42434445464748494a4b4c4d4e4f505152535455565758595a5b5c5d5e5f6061610140527f62636465666768696a6b6c6d6e6f707172737475767778797a7b7c7d7e7f8081610160527f82838485868788898a8b8c8d8e8f909192939495969798999a9b9c9d9e9fa0a1610180527fa2a3a4a5a6a7a8a9aaabacadaeafb0b1b2b3b4b5b6b7b8b9babbbcbdbebfc0c16101a0527fc2c3c4c5c6c7c8c9cacbcccdcecfd0d1d2d3d4d5d6d7d8d9dadbdcdddedfe0e16101c0527fe2e3e4e5e6e7e8e9eaebecedeeeff0f1f2f3f4f5f6f7f8f9fafbfcfdfeff01026101e0527f030405060708090a0b0c0d0e0f101112131415161718191a1b1c1d1e1f202122610200527f232425262728292a2b2c2d2e2f303132333435363738393a3b3c3d3e3f404142610220527f434445464748494a4b4c4d4e4f505152535455565758595a5b5c5d5e5f606162610240527f636465666768696a6b6c6d6e6f707172737475767778797a7b7c7d7e7f808182610260527f838485868788898a8b8c8d8e8f909192939495969798999a9b9c9d9e9fa0a1a2610280527fa3a4a5a6a7a8a9aaabacadaeafb0b1b2b3b4b5b6b7b8b9babbbcbdbebfc0c1c26102a0527fc3c4c5c6c7c8c9cacbcccdcecfd0d1d2d3d4d5d6d7d8d9dadbdcdddedfe0e1e26102c0527fe3e4e5e6e7e8e9eaebecedeeeff0f1f2f3f4f5f6f7f8f9fafbfcfdfeff0102036102e0527f0405060708090a0b0c0d0e0f101112131415161718191a1b1c1d1e1f20212223610300527f2425262728292a2b2c2d2e2f303132333435363738393a3b3c3d3e3f40414243610320527f4445464748494a4b4c4d4e4f505152535455565758595a5b5c5d5e5f60616263610340527f6465666768696a6b6c6d6e6f707172737475767778797a7b7c7d7e7f80818283610360527f8485868788898a8b8c8d8e8f909192939495969798999a9b9c9d9e9fa0a1a2a3610380527fa4a5a6a7a8a9aaabacadaeafb0b1b2b3b4b5b6b7b8b9babbbcbdbebfc0c1c2c36103a0527fc4c5c6c7c8c9cacbcccdcecfd0d1d2d3d4d5d6d7d8d9dadbdcdddedfe0e1e2e36103c0527fe4e5e6e7e8e9eaebecedeeeff0f1f2f3f4f5f6f7f8f9fafbfcfdfeff010203046103e052603a60006000f059620186a05560005160005560205160015560405160025560605160035560805160045560a05160055560c05160065560e051600755610100516008556101205160095561014051600a5561016051600b5561018051600c556101a051600d556101c051600e556101e051600f5561020051601055610220516011556102405160125561026051601355610280516014556102a0516015556102c0516016556102e051601755610300516018556103205160195561034051601a5561036051601b5561038051601c556103a051601d556103c051601e556103e051601f55",
                "storage": {}
            },
            "0xa94f5374fce5edbc8e2a8697c15331677e6ebf0b": {
                "nonce": "0x00",
                "balance": "0x3635c9adc5dea00000",
                "code": "0x",
                "storage": {}
            }
        },
        "transaction": {
            "nonce": "0x00",
            "gasPrice": "0x0a",
            "gasLimit": [
                "0x0f4240"
            ],
            "to": "0x0000000000000000000000000000000000001100",
            "value": [
                "0x00"
            ],
            "data": [
                "0x"
            ],
            "sender": "0xa94f5374fce5edbc8e2a8697c15331677e6ebf0b",
            "secretKey": "0x45a915e4d060149eb4365960e6a7a45f334393093061116b197e3240065ff2d8"
        },
        "post": {
            "Cancun": [
                {
                    "hash": "0x6a8e4d6a7db571e5153ae99329457942fb501d505e1d05985fd4a60ca1fa00a9",
                    "logs": "0x1dcc4de8dec75d7aab85b567b6ccd41ad312451b948a7413f0a142fd40d49347",
                    "txbytes": "0xf860800a830f4240940000000000000000000000000000000000001100808025a0ae470d7da8404176546d3a7697b2e3ae957efde6c03d33075dcf9c70bd5f6685a038c93673ba928426221e7e315a75dd0be0e2ea74b5a0a91d7482dbfdb339b362",
                    "indexes": {
                        "data": 0,
                        "gas": 0,
                        "value": 0
                    },
                    "state": {
                        "0x0000000000000000000000000000000000001000": {
                            "nonce": "0x01",
                            "balance": "0x00",
                            "code": "0x6001600160005e6001600060015e6020600060015e61040061040060005e600161080060005e600160006108005e600162030d405560006000f3",
                            "storage": {}
                        },
                        "0x0000000000000000000000000000000000001100": {
                            "nonce": "0x02",
                            "balance": "0x00",
                            "code": "0x7f6001600160005e6001600060015e6020600060015e61040061040060005e60016000527f61080060005e600160006108005e600162030d405560006000f33b3c3d3e3f406020527f4142434445464748494a4b4c4d4e4f505152535455565758595a5b5c5d5e5f606040527f6162636465666768696a6b6c6d6e6f707172737475767778797a7b7c7d7e7f806060527f8182838485868788898a8b8c8d8e8f909192939495969798999a9b9c9d9e9fa06080527fa1a2a3a4a5a6a7a8a9aaabacadaeafb0b1b2b3b4b5b6b7b8b9babbbcbdbebfc060a0527fc1c2c3c4c5c6c7c8c9cacbcccdcecfd0d1d2d3d4d5d6d7d8d9dadbdcdddedfe060c0527fe1e2e3e4e5e6e7e8e9eaebecedeeeff0f1f2f3f4f5f6f7f8f9fafbfcfdfeff0160e0527f02030405060708090a0b0c0d0e0f101112131415161718191a1b1c1d1e1f2021610100527f22232425262728292a2b2c2d2e2f303132333435363738393a3b3c3d3e3f4041610120527f42434445464748494a4b4c4d4e4f505152535455565758595a5b5c5d5e5f6061610140527f62636465666768696a6b6c6d6e6f707172737475767778797a7b7c7d7e7f8081610160527f82838485868788898a8b8c8d8e8f909192939495969798999a9b9c9d9e9fa0a1610180527fa2a3a4a5a6a7a8a9aaabacadaeafb0b1b2b3b4b5b6b7b8b9babbbcbdbebfc0c16101a0527fc2c3c4c5c6c7c8c9cacbcccdcecfd0d1d2d3d4d5d6d7d8d9dadbdcdddedfe0e16101c0527fe2e3e4e5e6e7e8e9eaebecedeeeff0f1f2f3f4f5f6f7f8f9fafbfcfdfeff01026101e0527f030405060708090a0b0c0d0e0f101112131415161718191a1b1c1d1e1f202122610200527f232425262728292a2b2c2d2e2f303132333435363738393a3b3c3d3e3f404142610220527f434445464748494a4b4c4d4e4f505152535455565758595a5b5c5d5e5f606162610240527f636465666768696a6b6c6d6e6f707172737475767778797a7b7c7d7e7f808182610260527f838485868788898a8b8c8d8e8f909192939495969798999a9b9c9d9e9fa0a1a2610280527fa3a4a5a6a7a8a9aaabacadaeafb0b1b2b3b4b5b6b7b8b9babbbcbdbebfc0c1c26102a0527fc3c4c5c6c7c8c9cacbcccdcecfd0d1d2d3d4d5d6d7d8d9dadbdcdddedfe0e1e26102c0527fe3e4e5e6e7e8e9eaebecedeeeff0f1f2f3f4f5f6f7f8f9fafbfcfdfeff0102036102e0527f0405060708090a0b0c0d0e0f101112131415161718191a1b1c1d1e1f20212223610300527f2425262728292a2b2c2d2e2f303132333435363738393a3b3c3d3e3f40414243610320527f4445464748494a4b4c4d4e4f505152535455565758595a5b5c5d5e5f60616263610340527f6465666768696a6b6c6d6e6f707172737475767778797a7b7c7d7e7f80818283610360527f8485868788898a8b8c8d8e8f909192939495969798999a9b9c9d9e9fa0a1a2a3610380527fa4a5a6a7a8a9aaabacadaeafb0b1b2b3b4b5b6b7b8b9babbbcbdbebfc0c1c2c36103a0527fc4c5c6c7c8c9cacbcccdcecfd0d1d2d3d4d5d6d7d8d9dadbdcdddedfe0e1e2e36103c0527fe4e5e6e7e8e9eaebecedeeeff0f1f2f3f4f5f6f7f8f9fafbfcfdfeff010203046103e052603a60006000f059620186a05560005160005560205160015560405160025560605160035560805160045560a05160055560c05160065560e051600755610100516008556101205160095561014051600a5561016051600b5561018051600c556101a051600d556101c051600e556101e051600f5561020051601055610220516011556102405160125561026051601355610280516014556102a0516015556102c0516016556102e051601755610300516018556103205160195561034051601a5561036051601b5561038051601c556103a051601d556103c051601e556103e051601f55",
                            "storage": {
                                "0x0186a0": "0x0400",
                                "0x00": "0x6001600160005e6001600060015e6020600060015e61040061040060005e6001",
                                "0x01": "0x61080060005e600160006108005e600162030d405560006000f33b3c3d3e3f40",
                                "0x02": "0x4142434445464748494a4b4c4d4e4f505152535455565758595a5b5c5d5e5f60",
                                "0x03": "0x6162636465666768696a6b6c6d6e6f707172737475767778797a7b7c7d7e7f80",
                                "0x04": "0x8182838485868788898a8b8c8d8e8f909192939495969798999a9b9c9d9e9fa0",
                                "0x05": "0xa1a2a3a4a5a6a7a8a9aaabacadaeafb0b1b2b3b4b5b6b7b8b9babbbcbdbebfc0",
                                "0x06": "0xc1c2c3c4c5c6c7c8c9cacbcccdcecfd0d1d2d3d4d5d6d7d8d9dadbdcdddedfe0",
                                "0x07": "0xe1e2e3e4e5e6e7e8e9eaebecedeeeff0f1f2f3f4f5f6f7f8f9fafbfcfdfeff01",
                                "0x08": "0x02030405060708090a0b0c0d0e0f101112131415161718191a1b1c1d1e1f2021",
                                "0x09": "0x22232425262728292a2b2c2d2e2f303132333435363738393a3b3c3d3e3f4041",
                                "0x0a": "0x42434445464748494a4b4c4d4e4f505152535455565758595a5b5c5d5e5f6061",
                                "0x0b": "0x62636465666768696a6b6c6d6e6f707172737475767778797a7b7c7d7e7f8081",
                                "0x0c": "0x82838485868788898a8b8c8d8e8f909192939495969798999a9b9c9d9e9fa0a1",
                                "0x0d": "0xa2a3a4a5a6a7a8a9aaabacadaeafb0b1b2b3b4b5b6b7b8b9babbbcbdbebfc0c1",
                                "0x0e": "0xc2c3c4c5c6c7c8c9cacbcccdcecfd0d1d2d3d4d5d6d7d8d9dadbdcdddedfe0e1",
                                "0x0f": "0xe2e3e4e5e6e7e8e9eaebecedeeeff0f1f2f3f4f5f6f7f8f9fafbfcfdfeff0102",
                                "0x10": "0x030405060708090a0b0c0d0e0f101112131415161718191a1b1c1d1e1f202122",
                                "0x11": "0x232425262728292a2b2c2d2e2f303132333435363738393a3b3c3d3e3f404142",
                                "0x12": "0x434445464748494a4b4c4d4e4f505152535455565758595a5b5c5d5e5f606162",
                                "0x13": "0x636465666768696a6b6c6d6e6f707172737475767778797a7b7c7d7e7f808182",
                                "0x14": "0x838485868788898a8b8c8d8e8f909192939495969798999a9b9c9d9e9fa0a1a2",
                                "0x15": "0xa3a4a5a6a7a8a9aaabacadaeafb0b1b2b3b4b5b6b7b8b9babbbcbdbebfc0c1c2",
                                "0x16": "0xc3c4c5c6c7c8c9cacbcccdcecfd0d1d2d3d4d5d6d7d8d9dadbdcdddedfe0e1e2",
                                "0x17": "0xe3e4e5e6e7e8e9eaebecedeeeff0f1f2f3f4f5f6f7f8f9fafbfcfdfeff010203",
                                "0x18": "0x0405060708090a0b0c0d0e0f101112131415161718191a1b1c1d1e1f20212223",
                                "0x19": "0x2425262728292a2b2c2d2e2f303132333435363738393a3b3c3d3e3f40414243",
                                "0x1a": "0x4445464748494a4b4c4d4e4f505152535455565758595a5b5c5d5e5f60616263",
                                "0x1b": "0x6465666768696a6b6c6d6e6f707172737475767778797a7b7c7d7e7f80818283",
                                "0x1c": "0x8485868788898a8b8c8d8e8f909192939495969798999a9b9c9d9e9fa0a1a2a3",
                                "0x1d": "0xa4a5a6a7a8a9aaabacadaeafb0b1b2b3b4b5b6b7b8b9babbbcbdbebfc0c1c2c3",
                                "0x1e": "0xc4c5c6c7c8c9cacbcccdcecfd0d1d2d3d4d5d6d7d8d9dadbdcdddedfe0e1e2e3",
                                "0x1f": "0xe4e5e6e7e8e9eaebecedeeeff0f1f2f3f4f5f6f7f8f9fafbfcfdfeff01020304"
                            }
                        },
                        "0xa94f5374fce5edbc8e2a8697c15331677e6ebf0b": {
                            "nonce": "0x01",
                            "balance": "0x3635c9adc5de25178c",
                            "code": "0x",
                            "storage": {}
                        },
                        "0x28fc9cfd1b4a5d44ff26ae38854dd391a74db288": {
                            "nonce": "0x01",
                            "balance": "0x00",
                            "code": "0x",
                            "storage": {
                                "0x030d40": "0x01"
                            }
                        },
                        "0x2adc25665018aa1fe0e6bc666dac8fc2697ff9ba": {
                            "nonce": "0x00",
                            "balance": "0x24df56",
                            "code": "0x",
                            "storage": {}
                        }
                    }
                }
            ]
        },
        "_info": {
            "hash": "0x25741bbdb0d7a772e6526812ea714100332c6c7e54d2937768c7eaa22a662d63",
            "comment": "`execution-spec-tests` generated test",
            "filling-transition-tool": "ethereum-spec-evm-resolver 0.0.1",
            "description": "Test function documentation:\n\n    Perform a subcall with any of the following opcodes, which uses MCOPY during its execution,\n    and verify that the caller's memory is unaffected:\n      - `CREATE`\n      - `CREATE2`.\n\n    TODO: [EOF] Add EOFCREATE opcode",
            "url": "https://github.com/ethereum/execution-spec-tests/blob/8fbca341fb0f3eb3a08a296e8f8fa84f233f4faa/tests/cancun/eip5656_mcopy/test_mcopy_contexts.py#L185",
            "fixture_format": "state_test",
            "reference-spec": "https://github.com/ethereum/EIPs/blob/master/EIPS/eip-5656.md",
            "reference-spec-version": "2ade0452efe8124378f35284676ddfd16dd56ecd"
        }
    },
    "tests/cancun/eip5656_mcopy/test_mcopy_contexts.py::test_no_memory_corruption_on_upper_create_stack_levels[fork_Cancun-state_test-call_opcode_CREATE2]": {
        "env": {
            "currentCoinbase": "0x2adc25665018aa1fe0e6bc666dac8fc2697ff9ba",
            "currentGasLimit": "0x016345785d8a0000",
            "currentNumber": "0x01",
            "currentTimestamp": "0x03e8",
            "currentRandom": "0x0000000000000000000000000000000000000000000000000000000000000000",
            "currentDifficulty": "0x00",
            "currentBaseFee": "0x07",
            "currentExcessBlobGas": "0x00"
        },
        "pre": {
            "0x0000000000000000000000000000000000001000": {
                "nonce": "0x01",
                "balance": "0x00",
                "code": "0x6001600160005e6001600060015e6020600060015e61040061040060005e600161080060005e600160006108005e600162030d405560006000f3",
                "storage": {}
            },
            "0x0000000000000000000000000000000000001100": {
                "nonce": "0x01",
                "balance": "0x00",
                "code": "0x7f6001600160005e6001600060015e6020600060015e61040061040060005e60016000527f61080060005e600160006108005e600162030d405560006000f33b3c3d3e3f406020527f4142434445464748494a4b4c4d4e4f505152535455565758595a5b5c5d5e5f606040527f6162636465666768696a6b6c6d6e6f707172737475767778797a7b7c7d7e7f806060527f8182838485868788898a8b8c8d8e8f909192939495969798999a9b9c9d9e9fa06080527fa1a2a3a4a5a6a7a8a9aaabacadaeafb0b1b2b3b4b5b6b7b8b9babbbcbdbebfc060a0527fc1c2c3c4c5c6c7c8c9cacbcccdcecfd0d1d2d3d4d5d6d7d8d9dadbdcdddedfe060c0527fe1e2e3e4e5e6e7e8e9eaebecedeeeff0f1f2f3f4f5f6f7f8f9fafbfcfdfeff0160e0527f02030405060708090a0b0c0d0e0f101112131415161718191a1b1c1d1e1f2021610100527f22232425262728292a2b2c2d2e2f303132333435363738393a3b3c3d3e3f4041610120527f42434445464748494a4b4c4d4e4f505152535455565758595a5b5c5d5e5f6061610140527f62636465666768696a6b6c6d6e6f707172737475767778797a7b7c7d7e7f8081610160527f82838485868788898a8b8c8d8e8f909192939495969798999a9b9c9d9e9fa0a1610180527fa2a3a4a5a6a7a8a9aaabacadaeafb0b1b2b3b4b5b6b7b8b9babbbcbdbebfc0c16101a0527fc2c3c4c5c6c7c8c9cacbcccdcecfd0d1d2d3d4d5d6d7d8d9dadbdcdddedfe0e16101c0527fe2e3e4e5e6e7e8e9eaebecedeeeff0f1f2f3f4f5f6f7f8f9fafbfcfdfeff01026101e0527f030405060708090a0b0c0d0e0f101112131415161718191a1b1c1d1e1f202122610200527f232425262728292a2b2c2d2e2f303132333435363738393a3b3c3d3e3f404142610220527f434445464748494a4b4c4d4e4f505152535455565758595a5b5c5d5e5f606162610240527f636465666768696a6b6c6d6e6f707172737475767778797a7b7c7d7e7f808182610260527f838485868788898a8b8c8d8e8f909192939495969798999a9b9c9d9e9fa0a1a2610280527fa3a4a5a6a7a8a9aaabacadaeafb0b1b2b3b4b5b6b7b8b9babbbcbdbebfc0c1c26102a0527fc3c4c5c6c7c8c9cacbcccdcecfd0d1d2d3d4d5d6d7d8d9dadbdcdddedfe0e1e26102c0527fe3e4e5e6e7e8e9eaebecedeeeff0f1f2f3f4f5f6f7f8f9fafbfcfdfeff0102036102e0527f0405060708090a0b0c0d0e0f101112131415161718191a1b1c1d1e1f20212223610300527f2425262728292a2b2c2d2e2f303132333435363738393a3b3c3d3e3f40414243610320527f4445464748494a4b4c4d4e4f505152535455565758595a5b5c5d5e5f60616263610340527f6465666768696a6b6c6d6e6f707172737475767778797a7b7c7d7e7f80818283610360527f8485868788898a8b8c8d8e8f909192939495969798999a9b9c9d9e9fa0a1a2a3610380527fa4a5a6a7a8a9aaabacadaeafb0b1b2b3b4b5b6b7b8b9babbbcbdbebfc0c1c2c36103a0527fc4c5c6c7c8c9cacbcccdcecfd0d1d2d3d4d5d6d7d8d9dadbdcdddedfe0e1e2e36103c0527fe4e5e6e7e8e9eaebecedeeeff0f1f2f3f4f5f6f7f8f9fafbfcfdfeff010203046103e0526000603a60006000f559620186a05560005160005560205160015560405160025560605160035560805160045560a05160055560c05160065560e051600755610100516008556101205160095561014051600a5561016051600b5561018051600c556101a051600d556101c051600e556101e051600f5561020051601055610220516011556102405160125561026051601355610280516014556102a0516015556102c0516016556102e051601755610300516018556103205160195561034051601a5561036051601b5561038051601c556103a051601d556103c051601e556103e051601f55",
                "storage": {}
            },
            "0xa94f5374fce5edbc8e2a8697c15331677e6ebf0b": {
                "nonce": "0x00",
                "balance": "0x3635c9adc5dea00000",
                "code": "0x",
                "storage": {}
            }
        },
        "transaction": {
            "nonce": "0x00",
            "gasPrice": "0x0a",
            "gasLimit": [
                "0x0f4240"
            ],
            "to": "0x0000000000000000000000000000000000001100",
            "value": [
                "0x00"
            ],
            "data": [
                "0x"
            ],
            "sender": "0xa94f5374fce5edbc8e2a8697c15331677e6ebf0b",
            "secretKey": "0x45a915e4d060149eb4365960e6a7a45f334393093061116b197e3240065ff2d8"
        },
        "post": {
            "Cancun": [
                {
                    "hash": "0x7ae242fcda90e4f56a894efc5ef5844910b6404b046762665a215bfeb294aace",
                    "logs": "0x1dcc4de8dec75d7aab85b567b6ccd41ad312451b948a7413f0a142fd40d49347",
                    "txbytes": "0xf860800a830f4240940000000000000000000000000000000000001100808025a0ae470d7da8404176546d3a7697b2e3ae957efde6c03d33075dcf9c70bd5f6685a038c93673ba928426221e7e315a75dd0be0e2ea74b5a0a91d7482dbfdb339b362",
                    "indexes": {
                        "data": 0,
                        "gas": 0,
                        "value": 0
                    },
                    "state": {
                        "0x0000000000000000000000000000000000001000": {
                            "nonce": "0x01",
                            "balance": "0x00",
                            "code": "0x6001600160005e6001600060015e6020600060015e61040061040060005e600161080060005e600160006108005e600162030d405560006000f3",
                            "storage": {}
                        },
                        "0x0000000000000000000000000000000000001100": {
                            "nonce": "0x02",
                            "balance": "0x00",
                            "code": "0x7f6001600160005e6001600060015e6020600060015e61040061040060005e60016000527f61080060005e600160006108005e600162030d405560006000f33b3c3d3e3f406020527f4142434445464748494a4b4c4d4e4f505152535455565758595a5b5c5d5e5f606040527f6162636465666768696a6b6c6d6e6f707172737475767778797a7b7c7d7e7f806060527f8182838485868788898a8b8c8d8e8f909192939495969798999a9b9c9d9e9fa06080527fa1a2a3a4a5a6a7a8a9aaabacadaeafb0b1b2b3b4b5b6b7b8b9babbbcbdbebfc060a0527fc1c2c3c4c5c6c7c8c9cacbcccdcecfd0d1d2d3d4d5d6d7d8d9dadbdcdddedfe060c0527fe1e2e3e4e5e6e7e8e9eaebecedeeeff0f1f2f3f4f5f6f7f8f9fafbfcfdfeff0160e0527f02030405060708090a0b0c0d0e0f101112131415161718191a1b1c1d1e1f2021610100527f22232425262728292a2b2c2d2e2f303132333435363738393a3b3c3d3e3f4041610120527f42434445464748494a4b4c4d4e4f505152535455565758595a5b5c5d5e5f6061610140527f62636465666768696a6b6c6d6e6f707172737475767778797a7b7c7d7e7f8081610160527f82838485868788898a8b8c8d8e8f909192939495969798999a9b9c9d9e9fa0a1610180527fa2a3a4a5a6a7a8a9aaabacadaeafb0b1b2b3b4b5b6b7b8b9babbbcbdbebfc0c16101a0527fc2c3c4c5c6c7c8c9cacbcccdcecfd0d1d2d3d4d5d6d7d8d9dadbdcdddedfe0e16101c0527fe2e3e4e5e6e7e8e9eaebecedeeeff0f1f2f3f4f5f6f7f8f9fafbfcfdfeff01026101e0527f030405060708090a0b0c0d0e0f101112131415161718191a1b1c1d1e1f202122610200527f232425262728292a2b2c2d2e2f303132333435363738393a3b3c3d3e3f404142610220527f434445464748494a4b4c4d4e4f505152535455565758595a5b5c5d5e5f606162610240527f636465666768696a6b6c6d6e6f707172737475767778797a7b7c7d7e7f808182610260527f838485868788898a8b8c8d8e8f909192939495969798999a9b9c9d9e9fa0a1a2610280527fa3a4a5a6a7a8a9aaabacadaeafb0b1b2b3b4b5b6b7b8b9babbbcbdbebfc0c1c26102a0527fc3c4c5c6c7c8c9cacbcccdcecfd0d1d2d3d4d5d6d7d8d9dadbdcdddedfe0e1e26102c0527fe3e4e5e6e7e8e9eaebecedeeeff0f1f2f3f4f5f6f7f8f9fafbfcfdfeff0102036102e0527f0405060708090a0b0c0d0e0f101112131415161718191a1b1c1d1e1f20212223610300527f2425262728292a2b2c2d2e2f303132333435363738393a3b3c3d3e3f40414243610320527f4445464748494a4b4c4d4e4f505152535455565758595a5b5c5d5e5f60616263610340527f6465666768696a6b6c6d6e6f707172737475767778797a7b7c7d7e7f80818283610360527f8485868788898a8b8c8d8e8f909192939495969798999a9b9c9d9e9fa0a1a2a3610380527fa4a5a6a7a8a9aaabacadaeafb0b1b2b3b4b5b6b7b8b9babbbcbdbebfc0c1c2c36103a0527fc4c5c6c7c8c9cacbcccdcecfd0d1d2d3d4d5d6d7d8d9dadbdcdddedfe0e1e2e36103c0527fe4e5e6e7e8e9eaebecedeeeff0f1f2f3f4f5f6f7f8f9fafbfcfdfeff010203046103e0526000603a60006000f559620186a05560005160005560205160015560405160025560605160035560805160045560a05160055560c05160065560e051600755610100516008556101205160095561014051600a5561016051600b5561018051600c556101a051600d556101c051600e556101e051600f5561020051601055610220516011556102405160125561026051601355610280516014556102a0516015556102c0516016556102e051601755610300516018556103205160195561034051601a5561036051601b5561038051601c556103a051601d556103c051601e556103e051601f55",
                            "storage": {
                                "0x0186a0": "0x0400",
                                "0x00": "0x6001600160005e6001600060015e6020600060015e61040061040060005e6001",
                                "0x01": "0x61080060005e600160006108005e600162030d405560006000f33b3c3d3e3f40",
                                "0x02": "0x4142434445464748494a4b4c4d4e4f505152535455565758595a5b5c5d5e5f60",
                                "0x03": "0x6162636465666768696a6b6c6d6e6f707172737475767778797a7b7c7d7e7f80",
                                "0x04": "0x8182838485868788898a8b8c8d8e8f909192939495969798999a9b9c9d9e9fa0",
                                "0x05": "0xa1a2a3a4a5a6a7a8a9aaabacadaeafb0b1b2b3b4b5b6b7b8b9babbbcbdbebfc0",
                                "0x06": "0xc1c2c3c4c5c6c7c8c9cacbcccdcecfd0d1d2d3d4d5d6d7d8d9dadbdcdddedfe0",
                                "0x07": "0xe1e2e3e4e5e6e7e8e9eaebecedeeeff0f1f2f3f4f5f6f7f8f9fafbfcfdfeff01",
                                "0x08": "0x02030405060708090a0b0c0d0e0f101112131415161718191a1b1c1d1e1f2021",
                                "0x09": "0x22232425262728292a2b2c2d2e2f303132333435363738393a3b3c3d3e3f4041",
                                "0x0a": "0x42434445464748494a4b4c4d4e4f505152535455565758595a5b5c5d5e5f6061",
                                "0x0b": "0x62636465666768696a6b6c6d6e6f707172737475767778797a7b7c7d7e7f8081",
                                "0x0c": "0x82838485868788898a8b8c8d8e8f909192939495969798999a9b9c9d9e9fa0a1",
                                "0x0d": "0xa2a3a4a5a6a7a8a9aaabacadaeafb0b1b2b3b4b5b6b7b8b9babbbcbdbebfc0c1",
                                "0x0e": "0xc2c3c4c5c6c7c8c9cacbcccdcecfd0d1d2d3d4d5d6d7d8d9dadbdcdddedfe0e1",
                                "0x0f": "0xe2e3e4e5e6e7e8e9eaebecedeeeff0f1f2f3f4f5f6f7f8f9fafbfcfdfeff0102",
                                "0x10": "0x030405060708090a0b0c0d0e0f101112131415161718191a1b1c1d1e1f202122",
                                "0x11": "0x232425262728292a2b2c2d2e2f303132333435363738393a3b3c3d3e3f404142",
                                "0x12": "0x434445464748494a4b4c4d4e4f505152535455565758595a5b5c5d5e5f606162",
                                "0x13": "0x636465666768696a6b6c6d6e6f707172737475767778797a7b7c7d7e7f808182",
                                "0x14": "0x838485868788898a8b8c8d8e8f909192939495969798999a9b9c9d9e9fa0a1a2",
                                "0x15": "0xa3a4a5a6a7a8a9aaabacadaeafb0b1b2b3b4b5b6b7b8b9babbbcbdbebfc0c1c2",
                                "0x16": "0xc3c4c5c6c7c8c9cacbcccdcecfd0d1d2d3d4d5d6d7d8d9dadbdcdddedfe0e1e2",
                                "0x17": "0xe3e4e5e6e7e8e9eaebecedeeeff0f1f2f3f4f5f6f7f8f9fafbfcfdfeff010203",
                                "0x18": "0x0405060708090a0b0c0d0e0f101112131415161718191a1b1c1d1e1f20212223",
                                "0x19": "0x2425262728292a2b2c2d2e2f303132333435363738393a3b3c3d3e3f40414243",
                                "0x1a": "0x4445464748494a4b4c4d4e4f505152535455565758595a5b5c5d5e5f60616263",
                                "0x1b": "0x6465666768696a6b6c6d6e6f707172737475767778797a7b7c7d7e7f80818283",
                                "0x1c": "0x8485868788898a8b8c8d8e8f909192939495969798999a9b9c9d9e9fa0a1a2a3",
                                "0x1d": "0xa4a5a6a7a8a9aaabacadaeafb0b1b2b3b4b5b6b7b8b9babbbcbdbebfc0c1c2c3",
                                "0x1e": "0xc4c5c6c7c8c9cacbcccdcecfd0d1d2d3d4d5d6d7d8d9dadbdcdddedfe0e1e2e3",
                                "0x1f": "0xe4e5e6e7e8e9eaebecedeeeff0f1f2f3f4f5f6f7f8f9fafbfcfdfeff01020304"
                            }
                        },
                        "0xa94f5374fce5edbc8e2a8697c15331677e6ebf0b": {
                            "nonce": "0x01",
                            "balance": "0x3635c9adc5de2516f6",
                            "code": "0x",
                            "storage": {}
                        },
                        "0xba4608b0541c934f3d189d955fd3981b4be174b0": {
                            "nonce": "0x01",
                            "balance": "0x00",
                            "code": "0x",
                            "storage": {
                                "0x030d40": "0x01"
                            }
                        },
                        "0x2adc25665018aa1fe0e6bc666dac8fc2697ff9ba": {
                            "nonce": "0x00",
                            "balance": "0x24df83",
                            "code": "0x",
                            "storage": {}
                        }
                    }
                }
            ]
        },
        "_info": {
            "hash": "0x4a02fb6034f6c65bfaafbf59fb4d0f6724ac9b1434947beb9c96415da1f85ba7",
            "comment": "`execution-spec-tests` generated test",
            "filling-transition-tool": "ethereum-spec-evm-resolver 0.0.1",
            "description": "Test function documentation:\n\n    Perform a subcall with any of the following opcodes, which uses MCOPY during its execution,\n    and verify that the caller's memory is unaffected:\n      - `CREATE`\n      - `CREATE2`.\n\n    TODO: [EOF] Add EOFCREATE opcode",
            "url": "https://github.com/ethereum/execution-spec-tests/blob/8fbca341fb0f3eb3a08a296e8f8fa84f233f4faa/tests/cancun/eip5656_mcopy/test_mcopy_contexts.py#L185",
            "fixture_format": "state_test",
            "reference-spec": "https://github.com/ethereum/EIPs/blob/master/EIPS/eip-5656.md",
            "reference-spec-version": "2ade0452efe8124378f35284676ddfd16dd56ecd"
        }
    }
}