{
    "tests/istanbul/eip1344_chainid/test_chainid.py::test_chainid[fork_Prague-state_test]": {
        "env": {
            "currentCoinbase": "0x2adc25665018aa1fe0e6bc666dac8fc2697ff9ba",
            "currentGasLimit": "0x02540be400",
            "currentNumber": "0x01",
            "currentTimestamp": "0x03e8",
            "currentRandom": "0x0000000000000000000000000000000000000000000000000000000000000000",
            "currentDifficulty": "0x00",
            "currentBaseFee": "0x07",
            "currentExcessBlobGas": "0x00"
        },
        "pre": {
            "0x0000000000000000000000000000000000001000": {
                "nonce": "0x01",
                "balance": "0x00",
                "code": "0x4660015500",
                "storage": {}
            },
            "0xa94f5374fce5edbc8e2a8697c15331677e6ebf0b": {
                "nonce": "0x00",
                "balance": "0x3635c9adc5dea00000",
                "code": "0x",
                "storage": {}
            }
        },
        "transaction": {
            "nonce": "0x00",
            "gasPrice": "0x0a",
            "gasLimit": [
                "0x05f5e100"
            ],
            "to": "0x0000000000000000000000000000000000001000",
            "value": [
                "0x00"
            ],
            "data": [
                "0x"
            ],
            "sender": "0xa94f5374fce5edbc8e2a8697c15331677e6ebf0b",
            "secretKey": "0x45a915e4d060149eb4365960e6a7a45f334393093061116b197e3240065ff2d8"
        },
        "post": {
            "Prague": [
                {
                    "hash": "0x6624f9f49b8c38990fb31e91c941607192a96d6eefe131cc644810118a4011b7",
                    "logs": "0x1dcc4de8dec75d7aab85b567b6ccd41ad312451b948a7413f0a142fd40d49347",
                    "txbytes": "0xf861800a8405f5e100940000000000000000000000000000000000001000808026a00c80636d627692750a38994c80e17de29770a0e34498f5e6eccd4f233ec21b5fa04c33c43ced36fe3329a16f21f2704902ac998ae26f175265e7b14a6229b1feb1",
                    "indexes": {
                        "data": 0,
                        "gas": 0,
                        "value": 0
                    },
                    "state": {
                        "0x0000000000000000000000000000000000001000": {
                            "nonce": "0x01",
                            "balance": "0x00",
                            "code": "0x4660015500",
                            "storage": {
                                "0x01": "0x01"
                            }
                        },
                        "0xa94f5374fce5edbc8e2a8697c15331677e6ebf0b": {
                            "nonce": "0x01",
                            "balance": "0x3635c9adc5de996c36",
                            "code": "0x",
                            "storage": {}
                        },
                        "0x2adc25665018aa1fe0e6bc666dac8fc2697ff9ba": {
                            "nonce": "0x00",
                            "balance": "0x01f923",
                            "code": "0x",
                            "storage": {}
                        }
                    }
                }
            ]
        },
        "config": {
            "blobSchedule": {
                "Cancun": {
                    "target": "0x03",
                    "max": "0x06",
                    "baseFeeUpdateFraction": "0x32f0ed"
                },
                "Prague": {
                    "target": "0x06",
                    "max": "0x09",
                    "baseFeeUpdateFraction": "0x4c6964"
                }
            },
            "chainid": "0x01"
        },
        "_info": {
            "hash": "0x8501abcc555b8628441b652d716d3acafb514e66502af5c6706c8c42a97a9560",
            "comment": "`execution-spec-tests` generated test",
            "filling-transition-tool": "ethereum-spec-evm-resolver 0.0.5",
            "description": "Test function documentation:\nTest CHAINID opcode.",
            "url": "https://github.com/ethereum/execution-spec-tests/blob/2c4d277d2fb7d97333c089b0718ac8d26a95d523/tests/istanbul/eip1344_chainid/test_chainid.py#L15",
            "fixture_format": "state_test",
            "reference-spec": "https://github.com/ethereum/EIPs/blob/master/EIPS/eip-1344.md",
            "reference-spec-version": "02e46aebc80e6e5006ab4d2daa41876139f9a9e2",
            "eels-resolution": {
                "git-url": "https://github.com/ethereum/execution-specs.git",
                "branch": "devnets/prague/6",
                "commit": "a25a8ab3a2989b15baac19eb327325e442342a60"
            }
        }
    }
}
