{
    "tests/cancun/eip4844_blobs/test_excess_blob_gas.py::test_invalid_excess_blob_gas_above_target_change[fork_Cancun-zero_blobs_decrease_more_than_expected-blockchain_test_engine-new_blobs_1]": {
        "network": "Cancun",
        "genesisBlockHeader": {
            "parentHash": "0x0000000000000000000000000000000000000000000000000000000000000000",
            "uncleHash": "0x1dcc4de8dec75d7aab85b567b6ccd41ad312451b948a7413f0a142fd40d49347",
            "coinbase": "0x0000000000000000000000000000000000000000",
            "stateRoot": "0xb4ebf7b941bea3aaec32b33ca9dceb9b5b9876b57db27ab4d0ce4640b233fbd0",
            "transactionsTrie": "0x56e81f171bcc55a6ff8345e692c0f86e5b48e01b996cadc001622fb5e363b421",
            "receiptTrie": "0x56e81f171bcc55a6ff8345e692c0f86e5b48e01b996cadc001622fb5e363b421",
            "bloom": "0x00000000000000000000000000000000000000000000000000000000000000000000000000000000000000000000000000000000000000000000000000000000000000000000000000000000000000000000000000000000000000000000000000000000000000000000000000000000000000000000000000000000000000000000000000000000000000000000000000000000000000000000000000000000000000000000000000000000000000000000000000000000000000000000000000000000000000000000000000000000000000000000000000000000000000000000000000000000000000000000000000000000000000000000000000000000",
            "difficulty": "0x00",
            "number": "0x00",
            "gasLimit": "0x016345785d8a0000",
            "gasUsed": "0x00",
            "timestamp": "0x00",
            "extraData": "0x00",
            "mixHash": "0x0000000000000000000000000000000000000000000000000000000000000000",
            "nonce": "0x0000000000000000",
            "baseFeePerGas": "0x07",
            "withdrawalsRoot": "0x56e81f171bcc55a6ff8345e692c0f86e5b48e01b996cadc001622fb5e363b421",
            "blobGasUsed": "0x00",
            "excessBlobGas": "0x0a0000",
            "parentBeaconBlockRoot": "0x0000000000000000000000000000000000000000000000000000000000000000",
            "hash": "0x7a5f2f41468b5207a240bd9bbe5e7ca3950ff7f3e790ea6c8cca58b9604597da"
        },
        "pre": {
            "0x000f3df6d732807ef1319fb7b8bb8522d0beac02": {
                "nonce": "0x01",
                "balance": "0x00",
                "code": "0x3373fffffffffffffffffffffffffffffffffffffffe14604d57602036146024575f5ffd5b5f35801560495762001fff810690815414603c575f5ffd5b62001fff01545f5260205ff35b5f5ffd5b62001fff42064281555f359062001fff015500",
                "storage": {}
            },
            "0xa94f5374fce5edbc8e2a8697c15331677e6ebf0b": {
                "nonce": "0x00",
                "balance": "0x06ce79",
                "code": "0x",
                "storage": {}
            },
            "0x0000000000000000000000000000000000001000": {
                "nonce": "0x01",
                "balance": "0x00",
                "code": "0x4a600055",
                "storage": {}
            }
        },
        "postState": {
            "0x000f3df6d732807ef1319fb7b8bb8522d0beac02": {
                "nonce": "0x01",
                "balance": "0x00",
                "code": "0x3373fffffffffffffffffffffffffffffffffffffffe14604d57602036146024575f5ffd5b5f35801560495762001fff810690815414603c575f5ffd5b62001fff01545f5260205ff35b5f5ffd5b62001fff42064281555f359062001fff015500",
                "storage": {}
            },
            "0xa94f5374fce5edbc8e2a8697c15331677e6ebf0b": {
                "nonce": "0x00",
                "balance": "0x06ce79",
                "code": "0x",
                "storage": {}
            },
            "0x0000000000000000000000000000000000001000": {
                "nonce": "0x01",
                "balance": "0x00",
                "code": "0x4a600055",
                "storage": {}
            }
        },
        "lastblockhash": "0x7a5f2f41468b5207a240bd9bbe5e7ca3950ff7f3e790ea6c8cca58b9604597da",
        "engineNewPayloads": [
            {
                "params": [
                    {
                        "parentHash": "0x7a5f2f41468b5207a240bd9bbe5e7ca3950ff7f3e790ea6c8cca58b9604597da",
                        "feeRecipient": "0x2adc25665018aa1fe0e6bc666dac8fc2697ff9ba",
                        "stateRoot": "0xe702e59a63baaff2e23a700c3e0e0ce15842de8716de43d7d64dfc4e4a120a60",
                        "receiptsRoot": "0xc117ad0158b04d4277c8a0d1b440360bf3f011ad7caccf8740df472c96e8f5cc",
                        "logsBloom": "0x00000000000000000000000000000000000000000000000000000000000000000000000000000000000000000000000000000000000000000000000000000000000000000000000000000000000000000000000000000000000000000000000000000000000000000000000000000000000000000000000000000000000000000000000000000000000000000000000000000000000000000000000000000000000000000000000000000000000000000000000000000000000000000000000000000000000000000000000000000000000000000000000000000000000000000000000000000000000000000000000000000000000000000000000000000000",
                        "blockNumber": "0x1",
                        "gasLimit": "0x16345785d8a0000",
                        "gasUsed": "0xa861",
                        "timestamp": "0xc",
                        "extraData": "0x",
                        "prevRandao": "0x0000000000000000000000000000000000000000000000000000000000000000",
                        "baseFeePerGas": "0x7",
                        "blobGasUsed": "0x20000",
                        "excessBlobGas": "0x20000",
                        "blockHash": "0xa6c8841f26f128c07a63e6286c46bfdd46eecbd54c6012de78551e46aeb110ad",
                        "transactions": [
                            "0x03f8850180800782afc89400000000000000000000000000000000000010000180c001e1a0010000000000000000000000000000000000000000000000000000000000000080a06ff08afceffbb09752c2b60468a6fbb8c4bb3a50a64437be7d7ece0652c7c352a066723e98695c972accb9e39207a0959a4f9b5a42a22bb7f26678bbc6f0671933"
                        ],
                        "withdrawals": []
                    },
                    [
                        "0x0100000000000000000000000000000000000000000000000000000000000000"
                    ],
                    "0x0000000000000000000000000000000000000000000000000000000000000000"
                ],
                "newPayloadVersion": "3",
                "forkchoiceUpdatedVersion": "3",
                "validationError": "BlockException.INCORRECT_EXCESS_BLOB_GAS"
            }
        ],
        "_info": {
            "hash": "0x86334f2096408eb1093697dcaa80bcfb4c57d80ff88e75c9a3808aa67116699a",
            "comment": "`execution-spec-tests` generated test",
            "filling-transition-tool": "ethereum-spec-evm-resolver 0.0.1",
            "description": "Test function documentation:\n\n    Test rejection of blocks where the `excessBlobGas`.\n\n    - decreases more than `TARGET_BLOB_GAS_PER_BLOCK` in a single block with zero blobs\n    - increases more than `TARGET_BLOB_GAS_PER_BLOCK` in a single block with max blobs",
            "url": "https://github.com/ethereum/execution-spec-tests/blob/8fbca341fb0f3eb3a08a296e8f8fa84f233f4faa/tests/cancun/eip4844_blobs/test_excess_blob_gas.py#L477",
            "fixture_format": "blockchain_test_engine",
            "reference-spec": "https://github.com/ethereum/EIPs/blob/master/EIPS/eip-4844.md",
            "reference-spec-version": "f0eb6a364aaf5ccb43516fa2c269a54fb881ecfd"
        }
    },
    "tests/cancun/eip4844_blobs/test_excess_blob_gas.py::test_invalid_excess_blob_gas_above_target_change[fork_Cancun-max_blobs_increase_more_than_expected-blockchain_test_engine-new_blobs_1]": {
        "network": "Cancun",
        "genesisBlockHeader": {
            "parentHash": "0x0000000000000000000000000000000000000000000000000000000000000000",
            "uncleHash": "0x1dcc4de8dec75d7aab85b567b6ccd41ad312451b948a7413f0a142fd40d49347",
            "coinbase": "0x0000000000000000000000000000000000000000",
            "stateRoot": "0xde09a82126125fddec6388029abd53274745961f80591c84bc2190fb815fdf57",
            "transactionsTrie": "0x56e81f171bcc55a6ff8345e692c0f86e5b48e01b996cadc001622fb5e363b421",
            "receiptTrie": "0x56e81f171bcc55a6ff8345e692c0f86e5b48e01b996cadc001622fb5e363b421",
            "bloom": "0x00000000000000000000000000000000000000000000000000000000000000000000000000000000000000000000000000000000000000000000000000000000000000000000000000000000000000000000000000000000000000000000000000000000000000000000000000000000000000000000000000000000000000000000000000000000000000000000000000000000000000000000000000000000000000000000000000000000000000000000000000000000000000000000000000000000000000000000000000000000000000000000000000000000000000000000000000000000000000000000000000000000000000000000000000000000",
            "difficulty": "0x00",
            "number": "0x00",
            "gasLimit": "0x016345785d8a0000",
            "gasUsed": "0x00",
            "timestamp": "0x00",
            "extraData": "0x00",
            "mixHash": "0x0000000000000000000000000000000000000000000000000000000000000000",
            "nonce": "0x0000000000000000",
            "baseFeePerGas": "0x07",
            "withdrawalsRoot": "0x56e81f171bcc55a6ff8345e692c0f86e5b48e01b996cadc001622fb5e363b421",
            "blobGasUsed": "0x00",
            "excessBlobGas": "0x100000",
            "parentBeaconBlockRoot": "0x0000000000000000000000000000000000000000000000000000000000000000",
            "hash": "0xd2d98fc7dd4b20e0f2896475c098e4884b9e83b86c05bc811268fd7b8d830be6"
        },
        "pre": {
            "0x000f3df6d732807ef1319fb7b8bb8522d0beac02": {
                "nonce": "0x01",
                "balance": "0x00",
                "code": "0x3373fffffffffffffffffffffffffffffffffffffffe14604d57602036146024575f5ffd5b5f35801560495762001fff810690815414603c575f5ffd5b62001fff01545f5260205ff35b5f5ffd5b62001fff42064281555f359062001fff015500",
                "storage": {}
            },
            "0xa94f5374fce5edbc8e2a8697c15331677e6ebf0b": {
                "nonce": "0x00",
                "balance": "0x06ce79",
                "code": "0x",
                "storage": {}
            },
            "0x0000000000000000000000000000000000001000": {
                "nonce": "0x01",
                "balance": "0x00",
                "code": "0x4a600055",
                "storage": {}
            },
            "0x8a0a19589531694250d570040a0c4b74576919b8": {
                "nonce": "0x00",
                "balance": "0x033b2e3c9fd0803ce8000000",
                "code": "0x",
                "storage": {}
            }
        },
        "postState": {
            "0x000f3df6d732807ef1319fb7b8bb8522d0beac02": {
                "nonce": "0x01",
                "balance": "0x00",
                "code": "0x3373fffffffffffffffffffffffffffffffffffffffe14604d57602036146024575f5ffd5b5f35801560495762001fff810690815414603c575f5ffd5b62001fff01545f5260205ff35b5f5ffd5b62001fff42064281555f359062001fff015500",
                "storage": {
                    "0x0c": "0x0c"
                }
            },
            "0xa94f5374fce5edbc8e2a8697c15331677e6ebf0b": {
                "nonce": "0x00",
                "balance": "0x06ce79",
                "code": "0x",
                "storage": {}
            },
            "0x0000000000000000000000000000000000001000": {
                "nonce": "0x01",
                "balance": "0x00",
                "code": "0x4a600055",
                "storage": {}
            },
            "0x8a0a19589531694250d570040a0c4b74576919b8": {
                "nonce": "0x01",
                "balance": "0x033b2e3c9fd0803ce7f1c1c7",
                "code": "0x",
                "storage": {}
            },
            "0x6389e7f33ce3b1e94e4325ef02829cd12297ef71": {
                "nonce": "0x00",
                "balance": "0x01",
                "code": "0x",
                "storage": {}
            }
        },
        "lastblockhash": "0xe2b3638c2a70920ae6a31477ab3981e92e4e35284f432d8ef008eab15adec048",
        "engineNewPayloads": [
            {
                "params": [
                    {
                        "parentHash": "0xd2d98fc7dd4b20e0f2896475c098e4884b9e83b86c05bc811268fd7b8d830be6",
                        "feeRecipient": "0x2adc25665018aa1fe0e6bc666dac8fc2697ff9ba",
                        "stateRoot": "0x422c61ad11b0b62026b254a62c803ab2da19d6a645f0f55b04ab6c6ee6861b35",
                        "receiptsRoot": "0xeaa8c40899a61ae59615cf9985f5e2194f8fd2b57d273be63bde6733e89b12ab",
                        "logsBloom": "0x00000000000000000000000000000000000000000000000000000000000000000000000000000000000000000000000000000000000000000000000000000000000000000000000000000000000000000000000000000000000000000000000000000000000000000000000000000000000000000000000000000000000000000000000000000000000000000000000000000000000000000000000000000000000000000000000000000000000000000000000000000000000000000000000000000000000000000000000000000000000000000000000000000000000000000000000000000000000000000000000000000000000000000000000000000000",
                        "blockNumber": "0x1",
                        "gasLimit": "0x16345785d8a0000",
                        "gasUsed": "0x5208",
                        "timestamp": "0xc",
                        "extraData": "0x",
                        "prevRandao": "0x0000000000000000000000000000000000000000000000000000000000000000",
                        "baseFeePerGas": "0x7",
                        "blobGasUsed": "0xc0000",
                        "excessBlobGas": "0xa0000",
                        "blockHash": "0xe2b3638c2a70920ae6a31477ab3981e92e4e35284f432d8ef008eab15adec048",
                        "transactions": [
                            "0x03f9012b01808007825208946389e7f33ce3b1e94e4325ef02829cd12297ef710180c001f8c6a00100000000000000000000000000000000000000000000000000000000000000a00100000000000000000000000000000000000000000000000000000000000001a00100000000000000000000000000000000000000000000000000000000000002a00100000000000000000000000000000000000000000000000000000000000003a00100000000000000000000000000000000000000000000000000000000000004a0010000000000000000000000000000000000000000000000000000000000000501a0238e73985780e4434f16bafd63ae465bce31bd623b763901c14f4a9a2d7ff869a01e17141eec23d157b85abe3d3ab6bbde13b7364d78e602da29b6175686f1cacf"
                        ],
                        "withdrawals": []
                    },
                    [
                        "0x0100000000000000000000000000000000000000000000000000000000000000",
                        "0x0100000000000000000000000000000000000000000000000000000000000001",
                        "0x0100000000000000000000000000000000000000000000000000000000000002",
                        "0x0100000000000000000000000000000000000000000000000000000000000003",
                        "0x0100000000000000000000000000000000000000000000000000000000000004",
                        "0x0100000000000000000000000000000000000000000000000000000000000005"
                    ],
                    "0x0000000000000000000000000000000000000000000000000000000000000000"
                ],
                "newPayloadVersion": "3",
                "forkchoiceUpdatedVersion": "3"
            },
            {
                "params": [
                    {
                        "parentHash": "0xe2b3638c2a70920ae6a31477ab3981e92e4e35284f432d8ef008eab15adec048",
                        "feeRecipient": "0x2adc25665018aa1fe0e6bc666dac8fc2697ff9ba",
                        "stateRoot": "0xb18a6f9ef8f31e7ebad713f1d4939bce31141520d95ac28fe923111a90a6b065",
                        "receiptsRoot": "0xc117ad0158b04d4277c8a0d1b440360bf3f011ad7caccf8740df472c96e8f5cc",
                        "logsBloom": "0x00000000000000000000000000000000000000000000000000000000000000000000000000000000000000000000000000000000000000000000000000000000000000000000000000000000000000000000000000000000000000000000000000000000000000000000000000000000000000000000000000000000000000000000000000000000000000000000000000000000000000000000000000000000000000000000000000000000000000000000000000000000000000000000000000000000000000000000000000000000000000000000000000000000000000000000000000000000000000000000000000000000000000000000000000000000",
                        "blockNumber": "0x2",
                        "gasLimit": "0x16345785d8a0000",
                        "gasUsed": "0xa861",
                        "timestamp": "0x18",
                        "extraData": "0x",
                        "prevRandao": "0x0000000000000000000000000000000000000000000000000000000000000000",
                        "baseFeePerGas": "0x7",
                        "blobGasUsed": "0x20000",
                        "excessBlobGas": "0x120000",
                        "blockHash": "0xfe9068cd545110c1f32a2458f07c0ae362a550c7a3559815329ff19233c8401d",
                        "transactions": [
                            "0x03f8850180800782afc89400000000000000000000000000000000000010000180c001e1a0010000000000000000000000000000000000000000000000000000000000000080a06ff08afceffbb09752c2b60468a6fbb8c4bb3a50a64437be7d7ece0652c7c352a066723e98695c972accb9e39207a0959a4f9b5a42a22bb7f26678bbc6f0671933"
                        ],
                        "withdrawals": []
                    },
                    [
                        "0x0100000000000000000000000000000000000000000000000000000000000000"
                    ],
                    "0x0000000000000000000000000000000000000000000000000000000000000000"
                ],
                "newPayloadVersion": "3",
                "forkchoiceUpdatedVersion": "3",
                "validationError": "BlockException.INCORRECT_EXCESS_BLOB_GAS"
            }
        ],
        "_info": {
            "hash": "0x428ef90eb035b5c14c0497b9b221263bfc81063e34c5074ea63d940a574e2dea",
            "comment": "`execution-spec-tests` generated test",
            "filling-transition-tool": "ethereum-spec-evm-resolver 0.0.1",
            "description": "Test function documentation:\n\n    Test rejection of blocks where the `excessBlobGas`.\n\n    - decreases more than `TARGET_BLOB_GAS_PER_BLOCK` in a single block with zero blobs\n    - increases more than `TARGET_BLOB_GAS_PER_BLOCK` in a single block with max blobs",
            "url": "https://github.com/ethereum/execution-spec-tests/blob/8fbca341fb0f3eb3a08a296e8f8fa84f233f4faa/tests/cancun/eip4844_blobs/test_excess_blob_gas.py#L477",
            "fixture_format": "blockchain_test_engine",
            "reference-spec": "https://github.com/ethereum/EIPs/blob/master/EIPS/eip-4844.md",
            "reference-spec-version": "f0eb6a364aaf5ccb43516fa2c269a54fb881ecfd"
        }
    }
}
